:20000000004000203113010001C9011001C9011001C9011001C9011001C9011001C9011019
:1C00200001C9011001C9011001C9011001C9011001C9011001C901103FC9011089
:20003C0080B54FF4FC720FF278011A480CF004FD012119484174002202210270C17601BD01
:20005C002DE9F0410FF2502214493820136854689568D6681769D2F814C0D2F818E0D2F8F9
:20007C001C800B604C608D60CE600F61C1F814C0C1F818E0C1F81C8020322031401EE5D1DC
:20009C0050689368D46812680A6048608B60CC60BDE8F081480400215903002100C00021D1
:2000BC00410500217D0500212D06002170B51D46004C204787B2000010B5014800470000FD
:2000DC00D509000070B5614C6148254650358047022809D14034E1885E4A914204D1E97C5E
:2000FC00890601D4911DE18070BD70B557495A4A084650300378002B10D08379012B0DD181
:20011C00037C5B09DB0709D0097D544DC1746C7F20202043687790476C7770BDFF21C17420
:20013C00904770BD10B54E48484C804702280ED121464031CA88474B9A4208D1CA7C5209CE
:20015C00D20704D0227D920601D49A1DCA8010BD70B53E4843494030C07C4009C00707D032
:20017C003E4D41482C8B2043288388472C8370BD884770BD10B53B48344CAC388047214609
:20019C0053310A789309DB0705D04034A2730A7803231A430A7010BD2C4940310871182876
:2001BC0012D004DC0A280BD00B2804D10AE025280CD02A280CD02D4980004018C0687047DE
:2001DC002B4870472B4870472B4870472B4870472B48704770B504461C484E252D5CAE09AB
:2001FC00F60716D0067D3007000F052803D00120054202D00DE00220FAE7E80905D07006D1
:20021C0003D54868800F012803D05B085B0052085200062B03D01020022B11D011E0FB20F7
:20023C00024002232046FFF741FF002807DAC100611A2039497E1422114200D1002070BD93
:20025C00024303432046FFF731FF70BD4401002137CB000004140000EBC80000A800002142
:20027C00F5B4000053AD00002020000080DF00001D050021F9040021CD040021930400210F
:20029C006D04002110B5034CFFF716FF20680028FAD110BD0011044068610000F825F965B0
:2002BC00F9754500450045002600260057A3520052004C00401F401F401F3F000000000053
:2002DC00304000400140034007400F404F40CF40CF41CF43CF47CF4FCF3FCF2FCF1FCF0F6C
:2002FC00000000000000000000000F00080000003F00000040003F000000040068000E0093
:20031C00DC00060043001A00050000000000020000000000000000000400C00000000400B3
:20033C00C000000007000000000000000000000000000000000000003040004001400340A6
:20035C0007400F404F40CF40CF7FCF6FCF5FCF4FCF3FCF2FCF1FCF0F00000000000000009D
:20037C0050C00091007070C00091007082312100319110B10070018101B100A1823132910D
:20039C0010B101911110418141227740F106007051C0019130181039833108D01831416FD1
:2003BC003100319110B18314141683680070251050C00091F4C340C12014036F3110410497
:2003DC005082F0229840512622C082312100319110B163393110410482C08231210031919B
:2003FC0010B163393110A2C082312100319110B150101531051405920070676452C03110A6
:20041C0031066131C1026A6412C13110213971065131E1026A64007051C0019101CCE2C0CC
:20043C006A64676411C1C2C06A6450B054B0007140804022D6440022C94060B08180111EC9
:20045C00C944007054A064B0F0800022C9404012B09032B070C1DF6811C122C16A6470C1C0
:20047C00E46851C00191E2C0823160820200329110B130C2EE68538253395339B16460C347
:20049C00F4688012B09032B00070676401C122C16A6401C1C2C06A645382B164C012B09074
:2004BC0032B00070676472C281C06A6422C111C16A6402C011C16A6462C031C36A6462C3D2
:2004DC0011C16A6402C311C16A6453825339B164E2C36F6411221C4142C281C86A6452C24E
:2004FC0011C16A6472C2E1CE6A6402C281C86A6402C201C86A64B0C030690070676442C211
:20051C0001C86A6452C211C06A6472C2E1C06A6402C001C16A6462C001C36A6422C101C127
:20053C006A6462C301C16A6402C301C16A645382B16400708180111E5C4150B054B000712B
:20055C00408040225D4154A064B0F1800122514500700022514160B04E61000000000000AA
:20057C000000000000000000067305720B720E7250B00071818060B050A09280F0EFF1928C
:20059C0002936A6741228C458080F1C11004301601110114016CB561B661B761B861B9618D
:2005BC00BA61BB61BD61BF61C161C36126632D63F0C002043231412A121432160111211412
:2005DC00016CDA61C561E061C761CB61B561B561B561F461C561FA61C761CB61B561B56104
:2005FC00B561F461C561FA61C761CB61B561B561B561E761C561ED61C761CB61B561B56121
:20061C00B561CF61CF61CF61CF61CF61CF61C064CF61F964CF610665CF613265CF6174676A
:20063C00CF611166CF61C0644E65F964CF61066511663265CF618280E0DFF2926A67B0B044
:20065C00D661B1B00673057230B06C61D0CF6A6784C203C0C0C37C64207851788278E378B7
:20067C001579B6780062C0CF6A6784C203C0C0C37C64307861789278F3781579C678006250
:20069C00B0CF6A6784C203C0C0C37C6440787178A27803791579D678109221923292439281
:2006BC005492659256911FC0FF914039F00601101031101400927067CF61E3B054A0F08076
:2006DC0050221A4640800022BE461262E3A000C86091598150B0918041228E46A0CF6A6734
:2006FC0012828231823942398B641282F2062F101F312F141682D622334640C1346200C5AF
:20071C0020140D6F6D39DE10F4C34E0482C082312E006D39A2C082312D001A828A39FA0606
:20073C002082803180390BC00B18BC10AC18038239149B141082F0060110103110145181C2
:20075C0010140C14C622C94631D0C1266462021011C0013010C00118021882312100C126C2
:20077C00919103B013B063B053B041800122BE46B481C491D581B51C774E95186591F0803E
:20079C00102269428C623D9110B13E9110B1E08000228146E6228142E0B0951865910F926B
:2007BC005981F914F0805022114210228C464D6390CF6A6763B052A03082F2C0200402107E
:2007DC0011C0013010C00118021882312100C1269191919113B003B063B053B064B054B055
:2007FC00007141800122BE4663B064B0F08050221142B181C191D1819118619131B0A462D0
:20081C002967E0A059810582591480C0007163B0BA6A6962E3A0018262818231823D80EF61
:20083C00F19202936A6703A0007037824739873930828039F006021011C0013010C0011849
:20085C00021882312100C126819102B012B030824039F006021011C0013010C001180218E9
:20087C0082312100C126919103B013B063B053B0007153A062B052B041800122BE46A4816E
:20089C00C491D581B51CFE4E95186591F0801022F0428C62B481C491D4814518751C084FEB
:2008BC00F0801022F0428C623D9110B13E9110B1E08000221247E6221243E0B065910F92DC
:2008DC005981F914F0805022114210228C4630632967E0A0598105825914F0C0007162B038
:2008FC00226BF062A2808B64CF6112824239F2068B6050B00071CF6170CF6A674082418096
:20091C000122BE46A481C491D58195186591F18011228C46336B41800122BE46A481C491AB
:20093C00D581C51C1C4B95186591F08010223F438C6260CF6A67408241800122BE46B48169
:20095C00C491D58195186591F18011228C46506B41800122BE46B481C491D581C51CB44A55
:20097C0095186591F08010225C438C62E092D08200226B47C0B20070A080F022874330B033
:20099C0002C1623101C0A080001E8043F022814380F86031603981632010101A136F236E5A
:2009BC0011161216826B00702DE9F84FDFF81885DFF8181588F80000002008600921DFF891
:2009DC00100501700D2141804FF408718180DFF80405DFF8041501608A7EDFF80005027042
:2009FC00FF2ACB7E437008BFFF2B0D7F85704E7FC6708F7F0771C97F417115D1FF2D08BFE8
:200A1C00FF2E11D1FF2F08BFFF290DD1DFF8D0140A7802704A7842708A788270CA78C27025
:200A3C000A79027149794171DFF8B81402780A70FF2542784A7082788A70C278CA7002791E
:200A5C000A714079DFF8A02448710021DFF89C04057045708570C570057145711180DFF872
:200A7C009004DFF89014466BDFF88C247078087031781170B078DFF884140870716908791F
:200A9C00DFF87C14421E0A70F078DFF878140870B069DFF87414086008B913F099F8F06928
:200ABC00DFF86844206008B913F092F82068DFF8607401688847216851F8042F3846904704
:200ADC00DFF85004DFF850143862DFF850047862306A086008B913F07BF8706ADFF84014B7
:200AFC00086008B913F074F8DFF838B4DFF838649BF8040013F0C4FB306008B900F045B974
:200B1C009BF80500DFF8247413F0BAFB386008B9306837E19BF80600DFF8144413F0B0FB7B
:200B3C00206020B9306813F0B3FB38682AE19BF80700DFF8009413F0A3FBC9F8000038B9F4
:200B5C00306813F0A5FB386813F0A2FB206819E1DFF8A4130A789BF80000DFF8DCA3921CD5
:200B7C00504380B213F08CFBCAF8080058B9306813F08EFB386813F08BFB206813F088FBD4
:200B9C00D9F80000FEE0DC480078002800F00281BBF80210DFF8A4B3484380B213F070FB35
:200BBC00CBF8040078B9306813F072FB386813F06FFB206813F06CFBD9F8000013F068FBE3
:200BDC00DAF80800DEE0CC48007813F059FBDC49086080B9306813F05BFB386813F058FBD1
:200BFC00D9F8000013F054FBDAF8080013F050FBDBF80400C6E0C04800781C21484313F0C6
:200C1C003FFBD04A1060B0B9306813F041FB386813F03EFB206813F03BFBD9F8000013F043
:200C3C0037FBDAF8080013F033FBDBF8040013F02FFBC348A5E0B0480078400113F020FBF8
:200C5C00C1490860D8B9306813F022FB386813F01FFB206813F01CFBD9F8000013F018FB77
:200C7C00DAF8080013F014FBDBF8040013F010FBB348006813F00CFBB249086882E09E4867
:200C9C000078000113F0FCFAB0490860F0B9306813F0FEFA386813F0FBFA206813F0F8FA14
:200CBC00D9F8000013F0F4FADAF8080013F0F0FADBF8040013F0ECFAA148006813F0E8FA99
:200CDC00A049086813F0E4FA9F485AE08A480078000113F0D5FA9E49086018BB306813F0C3
:200CFC00D7FA386813F0D4FA206813F0D1FAD9F8000013F0CDFADAF8080013F0C9FADBF832
:200D1C00040013F0C5FA8E48006813F0C1FA8D49086813F0BDFA8C48006813F0B9FA8B492F
:200D3C0008682FE0744800783021484313F0A8FA884A106070BB306813F0AAFA386813F014
:200D5C00A7FA206813F0A4FAD9F8000013F0A0FADAF8080013F09CFADBF8040013F098FA60
:200D7C007748006813F094FA7649086813F090FA7548006813F08CFA7449086813F088FA83
:200D9C007348006813F084FA002012F021FF4FF4804192E0316801200871306805733168FF
:200DBC004D73306885733168CD7330680574002031684D743268D072A0223168487103214F
:200DDC003068C28001720720316848720020326890722821306841820121C17600203168BE
:200DFC004877326882F85E00012031680877326882F85D00396808713868057339684D7369
:200E1C00386885733968CD7338680574002039684D743A68D072396848713A6890724FF47D
:200E3C00207039680022C88008818A7401213A68D17421680D732268557321688D732268FD
:200E5C00D57321680D740021226855742368D9720121226811710021236859712168C88065
:200E7C000881002088722168887405202268D0743948016888472A490A6805461068804713
:200E9C0027490A6852F8043F0020984718481D4BC16818780A88314902430A802846304985
:200EBC000A6890470C212F4800F05EF80F4800F05FF800F061F84FF4005198F80000BDE833
:200EDC00F44F0AF0FBBB00BF6E4F0020044F0020604E0020084F0020B63F00502C4E0020D0
:200EFC00E81200503C4E00200C4F0020344E0020B05C01006D4F00207B4F00206B4F002018
:200F1C00724F00206C4F0020F04E0020F44E00207C4B00209D420100F84E0020AD4201001C
:200F3C00FC4E0020E8150020104F002034200020184F002038200020FC1F0020684E00200B
:200F5C00004F00202C20002030200020884E00208C4E0020904E00207C100020544F0020CD
:200F7C0080100020F84D0020DFF800F0E5710110DFF800F01D6E0110DFF800F04D71011019
:200F9C00B0B5174C241D20680004070C23D01248006800688047114991F90720824205DDF8
:200FBC0010F1800FB8BF6FF07F00C8718D88BD4210D80A68D4F8D40F801A801C1F2888BF16
:200FDC001F207F1B4008C7404FF6FF70EF19B84238BF071C8F80B0BDEC0100101C20002028
:040FFC003010094068
:20100000B41200001810000015AB0110FDB301106DC00110FDAE011099B5011000000000F7
:08102000000000002D0000009B
:20102800B01200003C100000B1C00110A9BF011067C0011069B80110000000000000000035
:041048003000000074
:20104C00B012000060100000BDC00110CDB30110D9BD01106DB3011000000000000000005B
:04106C00310000004F
:20107000000000000816002004000000000000000000000020000000E8C90110300000000C
:2010900028100000101600200400000000000000000000000C000000D8CA011018000000E7
:2010B0004C1000001816002004000000000000000000000024000000F0CA0110180000006B
:2010D00000000000201600200400000000000000000000001000000018CA01102C00000077
:2010F0000010000030160020040000000000000000000000200000006CCA011024000000DB
:20111000FFFFFFFF381600200400000000000000000000002800000090CA0110240000009A
:20113000FFFFFFFF401600200400000000000000000000001400000008CB01101800000019
:20115000FFFFFFFF4816002004000000000000000000000058000000B4C9011034000000E7
:20117000FFFFFFFF501600200400000000000000000000001000000020CB011018000000B5
:20119000FFFFFFFF581600200400000000000000000000001C000000B4CA011024000000E2
:2011B000FFFFFFFF601600200400000000000000000000003800000044CA0110280000000A
:2011D000FFFFFFFF681600200400000000000000000000005400000078C901103C0000007F
:0811F00001000000785C010021
:0411F80001000000F2
:0411FC0000000E00E1
:0412000000000F00DB
:0412040032000000B4
:0412080001000000E1
:04120C00B0140020FA
:0412100000020000D8
:0412140000000000D6
:0412180001C90110F7
:04121C0000000000CE
:0412200000000000CA
:0412240008000000BE
:0412280000002200A0
:04122C003413002057
:0412300000000000BA
:0412340000000000B6
:0412380008000000AA
:04123C00701400200A
:0412400000000000AA
:0412440000000000A6
:04124800080000009A
:04124C00000000009E
:04125000000000009A
:041254000000000096
:041258000000000092
:04125C00010000008D
:041260009C130020BB
:041264000600000080
:041268000100000081
:04126C001C12002030
:04127000000000007A
:041274000000000076
:041278000002000070
:04127C00000000006E
:02128000290043
:02128200010069
:02128400250043
:02128600300036
:02128800310033
:02128A002D0035
:02128C0001005F
:01128E00015E
:0812900003000000005C0100F6
:0812980000000000000000004E
:0412A0000000010049
:0412A4000000030043
:0412A80013C401105A
:0412AC0047400100B6
:0412B000B812000070
:0412B400B81200006C
:0412B8000000000032
:0412BC00A815002051
:0412C000994101004F
:0412C4002000000006
:0412C800605B010066
:0412CC00BC59010008
:0412D00029C101101F
:0412D4001F120100E4
:0412D800DF1601001C
:0412DC00A1C7011095
:0412E000A3C701108F
:0412E4000000000006
:0412E800875B01001F
:0412EC00FC570100AA
:0412F000145801008D
:0412F400E4570100BA
:0212F8000200F2
:0212FA000900E9
:0212FC000100EF
:0212FE000000EE
:0113000001EB
:04130400154101008E
:041308006524010057
:04130C00D1350100D6
:04131000AD27010004
:041314001328010099
:04131800911101002E
:04131C0001EA0000E2
:0413200095430100F0
:04132400D5FE0000F2
:0413280015C70110D4
:04132C0025C70110C0
:201330002DE9F04F0C4685B0834614F8010BDFF870278DF8000018280BF1FD010BF1E708C8
:201350000BF166090BF20D1A0BF5B0760BF59C750BF5C67700F29183DFE810F019006F0025
:201370005F0191008F038F03FA00690311012301FE000D0133018F038F037C018F036101D7
:2013900055017503D602D60227028F03740214F8010B8BF88600022221460BF1880013F05B
:2013B000C1FC014602220BF18A0013F0BBFC014602220BF18C0013F0B5FC014602220BF1A7
:2013D0008E0013F0AFFC04469BF8860040008BF886000BF1860102224888400048800BF19A
:2013F00086008188490081800BF1860108890001088121460BF1840013F094FCB9F81E100D
:20141000BBF80800091A89B247F6FF7291422ADA0BF18601C8888A88401C520050430A8965
:20143000904203D33B208AF80B0039E2012089F81C000020ABF81E001EE0052221460BF1CA
:20145000610013F06FFC014602220BF1920013F069FC0BF1860047F6FF728189BBF8080057
:20147000091A89B2914280F218820BF18600012181720021ABF81E10012028700CE398F85E
:201490001600C1070AD41A2198F80D0088F80E10012808BF0D213FD00D21CDE1002089F860
:2014B000000089F806000822012088F8110021460BF1B00013F036FC014602220BF1B80052
:2014D00013F030FC0BF1A80601460822304613F029FC04460821304613F020FC0BF19C066E
:2014F00004222146304613F01DFC0421304613F015FC0BF1A00013F00DFC0BF1980013F0CF
:2015100005FCDFF8A005018841F08001018098F80D00012806D10421584605B0BDE8F04F89
:2015300010F02CBE99F81000012804BF99F811100F290BD158460EF057FE042158460DF0AD
:2015500035FF0F2089F81A00FD2175E1042173E1012088F80F009FE2002089F8000089F83D
:20157000060088F800000B21012088F80D00002088F8010060E1012088F810008CE20020DA
:2015900002F10906235C365C33432354561C365C33400B54401C0828F2DB58460EF0A0F9D7
:2015B00070E2002002F10905235C2D5C2B432354551C2D5C2B400B54401C0828F2DB02207C
:2015D00048E299F8060008B93D2167E19AF800000128D3D014F8011B8AF80310022221462D
:2015F0000BF5897013F09EFB014602220BF58A7013F098FB01208AF800009AF802000028EC
:201610001BD10C2118E198F81600C10601D41221D1E058460FF02CFA34E221783EE1207859
:2016300030706078707099F8100001280CD199F811100F2902D0162902D02DE268732BE2D7
:20165000387B40F0010016E205B0BDE8F04F002012F0C4BA98F81600810707D410F0110F3C
:2016700008BF0F2000F009821A2252E02078617800EB01202882E178A07800EB01206882ED
:201690006179207900EB0120A882E179A07900EB0120E882207A2876A17A607A00EB01206F
:2016B0006883217BE07A00EB0120A883A17B607B00EB0120E883217CE07B00EB01202884E4
:2016D000A17C607C00EB01206884217DE07C00EB0120A884A17D607D00EB0120E8840BF564
:2016F000AA700490688B0390287E0290BBF808000190E88A0090AB8A6A8A298A58460DF0A9
:20171000C9F868B198F81600410701D40F2152E01E22584605B0BDE8F04F0F2110F04ABD0C
:20173000688A0BF186018880A88AC880E88A088102208BF8860000204880BBF83400C01DD0
:20175000A9F81E008888BBF83210884201BF0BF18600C188BBF83400814206D10BF186005D
:201770000189BBF8360081421DD099F81000012804BF99F811100F2907D099F8150020B171
:201790000F2189F81A10FE2156E0FC2158460DF00DFEE88A0090AB8A6A8A298A9BF80600CF
:2017B00013F0B0FA78E1102146E098F8170010F0090F03D116218AF80C1060E160782178A2
:2017D00000F00700014021702078797B0140F97211D0481E01420CD0490704D5B87B10B175
:2017F0000421F97205E0F97A022001421AD14008FBD1F87A08B9B97AF972F87A042803D14A
:2018100058460FF0D4F9B083F87A13F077FA3871B28BB97B01230FF0E9FD0146308B884246
:2018300002D207E0F872E4E7B28BB97B387901230FF0DCFD78801721584605B0BDE8F04F23
:201850000DF0B4BD60782178814207D100F007000840207033D0421E10420FD01E22182122
:20187000584610F0A7FC9BF80610002300221E200AF0BAFE387B40F04000FCE0F87247F693
:20189000FF72A078E17800EB012038813989BBF80800091A89B2914206DB28218AF80B101C
:2018B00001208AF80A00F7E00120B871F87A042803D158460FF07BF9B083F87A0BE099F8A6
:2018D0001100162806D1BA7A9BF80610134600200AF08AFEB87A3871B28BB97B38790123D9
:2018F0000FF084FD0146308B884205D3B28BB97B387901230FF07AFD78800121387B40F0FB
:20191000400038732970C7E02078617800EB01207082E178A07800EB0120F08261792079BB
:2019300000EB01203082E179A07900EB0120B082B18AF089884288BF0846B97A042905D1DF
:2019500040F691229042B8BF4FF42960F28BF0839042B87A14BF01240024042803D15846CB
:201970000FF025F904E0B089F18A884288BF0846B28BB083904214BF012100210C433089E3
:20199000718A328B884288BF0846904214BF012100210C433083B28BB97B387901230FF0F1
:2019B00025FD0146308B884205D3B28BB97B387901230FF01BFD78807189308A728B814288
:2019D00088BF0146718391429BF8063014BF0120002004438A4234490A6802EB4311728B85
:2019F0008041121DC00F0A7610B1584610F006FE9DF80000142810D144B1F08B0090738B85
:201A1000B28B318B9BF8060013F074F9584605B0BDE8F04F15210CF06DB91CB1387840F078
:201A300008003870397841F02001397034E020780E280ED00F2809D0122804D014280CD044
:201A5000162812D028E00020287225E00120287322E0032088F815001EE0387840F0020039
:201A7000387040F01000387016E0387B40F00200387340F0100038730EE08AF80C0058463B
:201A90000EF0E6FC40B905B0BDE8F04F074800784FF4804109F018BE05B0BDE8F08F00BF92
:201AB000B81F0020524F0020302000206E4F00202DE9F04FCF4C04F10C012046ADF13C0D52
:201AD0000EF0BEFE04F130050021284613F00EF9C94941F28832012304F1700025610FF06C
:201AF000BFFA4FF0804000210EF0AAF8C34E1F220623A0603146102006F0DEFD0125002024
:201B1000ADF8220081468DF82D5029468DF82E900DF12D02ADF828905020ADF824004FF46D
:201B30004870ADF826004FF47A70ADF82A0040F2053003F045F940F2063002210DF12202D1
:201B500003F03EF94FF442701E2104F1510203F037F940F20730072104F1200203F030F9E8
:201B70004FF4447029460DF12E0203F029F940F21130022109AA03F023F940F212300221BD
:201B90000DF1260203F01CF940F2133002210AAA03F016F94FF4457002210DF12A0203F081
:201BB0000FF904F13C004A461523CC490090102006F082FD314610200622A02306F07CFDC9
:201BD000314610200722A02306F076FD314610200822A02306F070FD314610200922A0236D
:201BF00006F06AFDCDF81C90AB468DF8319007A88DF82FB0CD4D8DF830B04FF481628DF893
:201C100032B0042300902946102006F055FD0DF12F004FF4806200905B462946102006F01C
:201C30004BFD0CA840F2024200905B462946102006F042FD0DF1310040F2034200905B4646
:201C50002946102006F038FD0DF1320040F2064200905B462946102006F02EFDC5491020D1
:201C70004FF0FF3206F028FDC34910204FF0FF3206F022FDC14EC24F10201323C14A0090E7
:201C90003146019706F018FDBF480078800012F0CAFCBE4D0146A96069B14FF6FF7010F02A
:201CB00011FCBB49102005F11402009011230191314606F001FD02208DF833B004268DF8CD
:201CD000340003278DF83660C7498DF8357004AB48460A6809791A600DF13302197159463A
:201CF00009F092FC58460DAA014609F08DFC022059460DF1350209F087FC59460DF13602E8
:201D1000384609F081FC052104AA304609F07CFC04F11C0004F12802C3496860102006F0DA
:201D3000CBFC207811F034F8C0490246102006F0C3FC207811F02CF8BD490246102006F0A0
:201D5000BBFCBC49102006F0B7FCBB491020324606F0B2FCB94DB0A04FF6FF71286048466D
:201D700010F0B8FEA768DFF8D88257B12E7946B140468760052101704946C160284610F095
:201D90004DFBC94E06F1180006F10C010AF0F4FEC949B06012F02EFBC94DB0684FF4E02116
:201DB0002A46521E10F0DCFBB0684FF4E0212A4610F0D6FBC34FB0684FF0C0513A46521E55
:201DD00010F0CEFBB0684FF0C0513A4610F0C8FBBD49C8224B4606F124000FF041F9BB48A7
:201DF000BB497060102006F067FCC74E30787778E7B905E0080200200D420100BD84011079
:201E100004F11801316210F0C3FF06F15407CDF80090024606F14400019006F11C050297E3
:201E3000C2490395B378102006F046FC4546E068C74A49464FF0FF3312F054FF071CF6D03A
:201E5000CDF8189008A80BA906AA10F0C1FC002840F0DD80BDF820102078D846102940F07B
:201E7000CF809DF82C10884240F0CA80069E31884FF6FF728A4200F08D803378913B2FD09C
:201E90001F3B40F0BD807178162910D03279A06829787E2A08D07F2A1AD13289BEA300924D
:201EB0004A4611F000F913E0327ABFA3F7E710F06FFFCDF800B0B74972880346102006F05D
:201ED000FBFB28B940460CF037FCC846666197E0317906F1080012F001FF91E06DDB0000B6
:201EF00070780E3827D0801E3FD02E3840F08880B0780C2840F08480F378A1682878BBB94A
:201F1000401CC2B2ACA3084611464A4611F0CBF8F079012814BFADA0AEA00090A168287860
:201F3000AEA3801CC2B20846114666E0354B0000401CAEA3F6E7B08842F2030181425FD1D8
:201F5000B1680E78002E5BD1491C04A80A684968026004AE41603078B54904AA00F0FD004E
:201F70003070102006F0A8FB4AE00820494605F05FFB45E0D534010001380100E92C010039
:201F9000DC5B01008C0B0020694F00203C0E0020E85B01007088400832D3666986B3607897
:201FB00006F10803401C6070A049009372883379102006F081FB5FFA80FABAF1160F15D097
:201FD0002078BAF1040F11D0666910F0E1FECDF80090704972880346102006F06DFB504697
:201FF0000CF0AAFB0CE0C046415C0100607800902978A06882A3491CC9B24A4611F053F8AE
:20201000069820B1B8F1000F01D012F0D7FAF80FC0F0AC80A4E0C046424C452050657269F5
:2020300070686572616C00C0F53901005188011031810110E1D400001D3E01004C140020E7
:20205000201500202069064612F044FE864208BF4E4602D0866810F04FFA301CB0467FD045
:202070000188491E76D0491E50D0891E75D1807801092FD2400970D30E2011F0FDFF0028C4
:202090006BD16868697803790A46934216D0FF2A63D000EBC203DE6846B900EBC100006956
:2020B00010F0BCF959E0C0466812002000EBC20003690846984750E0CD1F01008068EFE761
:2020D0000E0005800E000010754001006F450100C5AB00100D2011F0CFFF00283DD1696851
:2020F00068780979814207D0FF2809D0401CC0B210F03AFBFF2802D1484610F035FB687041
:2021100008F0E4F829E0C0467005002083782E78D4F808A0761C5BB19B1E1ED102200DF1BC
:2021300037010FF0DBF83BA308E0C046D715010048460DF137010FF0D1F839A39DF8370098
:20215000F1B24A460090504610F0ADFF05E0C046010000C0807803F08DFE404610F0CCF9FD
:20217000206912F0B3FD00283FF46CAF7808FFF45EAE304812F071FA02200EA90FF0AEF8BC
:2021900000287FF454AE032059460EAA09F03CFA4DE6C046874101004D54552053697A6536
:2021B0003A20256400C046C046432056696F6C617465643A20256400504859205570646107
:2021D000746520436F6D706C6574650032204D62707300C031204D62707300C043757272DA
:2021F000656E74205048593A20257300504859204368616E6765206661696C75726500C066
:202210005273702073656E642072657472793A20256400C04368617220333A20256400C042
:202230004368617220313A20256400C0DDFE001095B40010780200202DE9F04FD24C04F1D6
:2022500018012046ADF1340D0EF0FAFACF4D00264FF6FF700123667032462082294604F1B0
:20227000A4000EF0FDFE0223324604F1C80029460EF0F6FE0423324604F1EC0029460EF009
:20229000EFFE4FF0040A04F1440810224046314684F802A00CF0EDF804F154091022484673
:2022B00031460CF0E6F804F11C073E6004F10A052E70E671267207206072CDF80080DFF861
:2022D0000083022210200346414606F0F5F9102003224146CDF80090034606F0EDF91020DD
:2022F000524641460097134606F0E6F94FF0080B4FF0030905F12A00079005F1790008908F
:2023100005F11E00099005F15A000A9024350B9517E06078A28FE18FB4F84050B4F8423053
:2023300006280ED1ADF80A20ADF80C10ADF80E50BA48ADF8103012F092F9012002A90BF0B2
:2023500051FCA069B44A31464FF0FF3312F0CAFC071CF6D0059606A80DF11A0105AA10F06F
:2023700037FA002840F0C081BDF818102078102940F0B6819DF81A10884240F0B181059DE1
:2023900029884FF6FF728A4200F09F812B78A23B00F082812E3B40F0A381A978B04600297A
:2023B00000F03E81891E00F00D81491E012940F2D980891E00F09C80491E6FD0491E5CD031
:2023D000083900F05981891E40F05C8194F83A30A888052BADF8080047D001208DF812005C
:2023F0008E4812F03CF994F83A0001281ED004281CD003280DD002280BD00598C188ADF833
:202410000A100189ADF80C104189ADF80E10818927E0A08FE58FADF80A00B4F84030ADF896
:202430000C50B4F84210ADF80E301AE0A08FE9888842D8BF081CADF80A002989E08F884296
:20245000D8BF081CADF80C006989B4F840008842D8BF081CADF80E00A989B4F84200884200
:2024700000DC0846ADF8100001E08DF81260AA49102002AA06F020F904E1A84812F0EFF8F9
:202490006B78002B40F0FE80E88860822889A0826889E082614811F0C1FEF3E0AA88B6498B
:2024B000102006F009F90798414606220BF0E1FF6682A682E682A8792073584812F0CFF826
:2024D000964812F0CCF84FF001084FF6FF702379208253B9A879082812BF84F801A005209E
:2024F0006070404611F0CAFECCE084F80190C9E06B787BBB291D07980A6802608988818067
:202510000623637068892082E8896082288AA082688AE082E878E07294F83A00012818BF29
:2025300002280BD19A4910201F2206F0C5F84FF47A7180B2414339480FF094FD6889009008
:202550009249CDF804A0EA7810202D1D2B4606F0B3F89AE06878312840F08B80E67084F879
:2025700001A092E06B78002B40F08380A878E3896178032818D0E07825794BB9012814BF89
:202590002671E6700BE0C046700500208D420100054304D07F4819460FF064FD617807293D
:2025B000DDD10620607070E0062907D0E578002D08BF84F8019068D00220F3E70720F1E780
:2025D000D73901006B78002B53D1EB78617893B902291DD007291BD0062902D12079012829
:2025F00016D1032914D06B4811F018FE80B9012011F044FE0CE010F0CBFB0246A0796249AF
:202610000090089843460190102006F055F868706D78002D2DD135E007000080380600200B
:202630006B7833BB5C485749009002221020034606F042F859484A46524900901020034643
:2026500006F03AF8ED1C099829680160A988012381802078637010F09BFB024601230A9D3C
:202670006079494900901020019506F025F8C0B258B184F801B008E0AA88414910200523D2
:2026900006F01AF8B8F1010F2AD1256A45B32D6835B36078A84723E06879132820D12889E2
:2026B000012808D1607B022805D11C4811F0D7FF10F0C0F814E036491020052205F0FCFF80
:2026D00081B216480FF0CEFC0AE06888C00B07D3334852462B4900901346102005F0ECFF91
:2026F000059808B111F06AFF2579E078790830D355EA00032DD0204600788DB9E179257A34
:202710008DF808100B9A8DF8095013680DF10A052B609288AA8005E0051601105C0600209F
:202730008DF80890617A8DF81010A17A8DF8111010F02EFB1149024602AB102005F0BCFFD3
:2027500038B1256A84F801B01DB12D680DB15846A847B80803D3134930460BF043FAF80876
:20277000FFF4EFAD607B401E3FF4D3AD401E7FF4E8AD10F05FF8E4E5B904010059440110DC
:20279000C1170110D1A4000009450110E1A00000F584011014060020B4050020C405002065
:2027B0008C050020AA0500202DE9F84F01200FF073FF01280ED1DFF8F874396800204871D5
:2027D00038680EF035FE04F09BFB040003D1812012F078FA68E201206071DFF8D854DFF88B
:2027F000D8044178491C41703968A07981F8A00040200BF0C7FC2060287901281CBF0020E8
:2028100011F0ECF9E8682168DFF8B05400F5B060C860286801680A79032A1CBF002011F03C
:20283000DDF92868DFF898840168DFF898B401F10809062299F80000C0F3801084F82E01F9
:2028500009F1020104F5947011F028FB042209F10E0104F1240011F021FBD8F80000A679F6
:2028700000F10C03042209F10E0103EB461011F015FBD8F80000A37900EB4310032209F17B
:202890001201103011F00AFB04F12C0699F81500B070022209F1160104F1300011F0FEFA8F
:2028B000022209F1180104F1320011F0F7FA022209F11A0104F1340011F0F0FA30896084CE
:2028D000022209F11C0104F1360011F0E7FAB078F18872894000B0704900B08840001201D0
:2028F000B080F180728189B2638C5B1C4800434392B2934200D231B99BF80000802108F0C4
:20291000E3FE3B21FEE004F12E01204610F040FF0520A081204611F00DF9052209F11E01D0
:2029300004F1610011F0BAFA99F823004009307012F0C4F960823A68E34F518A401A04F53C
:202950009771888104F1610199F82300DFF87C9300F01F00F07320460EF098FE29680A68F6
:20297000002010711C25A1793868694341F6210242520022A17969430144001D4A80A179E3
:202990006943425099F80200410609D5D049088841F20A4290420CBFCE48CF48C4F89C01E6
:2029B0002046D4F89C1188473968A37901F10E026B43D054A1793868694308440021C173C1
:2029D000C648017881B1B08870B9002171730120208160812046D4F89C1188473968A379BA
:2029F00001F10E026B43D0543868A27900F10E016A43885C707394F8960108B911F0EEF8F9
:202A1000A1793868DFF8D8A26943084494F896114A1E02740023A17938686943084400219C
:202A30004174A279396801F112006A4301F1140C8352A279D8F8000000EB42136A434CF861
:202A50000230A2796A431144A64A8A61DAF814100B78DA074CBF4FF0100C4FF0000C990791
:202A70004CBF202100215A074CBF402200221B0700F10803A07941EA0C014CBF4FF0800EA2
:202A90004FF0000E0A4340014EEA020242F00F021A54D8F80000A17900EB41100B22427257
:202AB000D8F80010A07901EB401104228A728E4A1378D8F80000A179012B00EB411002D126
:202AD0000121C17203E0DAF828104A78C272D8F80000A17900EB41101F220276D8F80010EF
:202AF000A07901EB401100224A76A07909F0D8F9A279D8F8001052018850A2795301C858F6
:202B100020B90721204610F0B1FDCDE07748016801EB021012F0CEF8744AA0791368D8F8D3
:202B3000001003EB00130A1D40011350081DA27952018058F063A079400109587164042136
:202B50009BF8000008F0C0FD644BB2881978901C11B10AB9F088801C618A94F806B04143AD
:202B70004FF4C87205FB0BFBB1FBF2F1491CA061616140F6C41C23683A68CDF800B002F160
:202B9000080ED3F80CB00CFB00B0411A0098A1F5A8614EF8001002F10800A1796943405890
:202BB000986002F10C01A07968430C32095C01F0EF011154A0793968684301F10C020C31BE
:202BD000125C02F07F020A54A0793968684301F10C020C31125C02F0F00242F002020A541E
:202BF000A179386869430844417B01F0F00141F0010141733868A27900F108016A4388584C
:202C1000216808616369D8F80000A17996F802E05B0000F1140249010CFB0E3303F5F66347
:202C30005350A17900EB4110C27C02F0F00242F00402C274D8F80010A079DAF8303001EBE4
:202C50004012F0880CFB00F61868301AA0F51670D061A27901EB4210C17E01F0F00141F0DC
:202C70000401C176A17938684D4321684019486099F80100810614D504F59771488F1B2817
:202C900004BF888F1B2808D1C88FB0F5A47F04BFB4F86E11B1F5A47F03D0142120460CF0EE
:202CB00085FB134907200870BDE8F14F01F008BB104F0020B44D0020684E0020F44B00201B
:202CD000302000206E4F00202C200020B81F0020504F0020E7FF0000AD070100784E0020F4
:202CF000B05C01005C4D0020734F00208C4E00206F4F00202DE9F843040014D1002010F0DA
:202D10006DFF10E020460DF0A3FB012808D065E08A0740F1548101F0FD0101700020B071C8
:202D300020460DF061FA04F16605687D002855D0697CDFF8A494022904F1EC0704F59E781D
:202D500004F5B07604F5C67035D0042949D005295CD0062900F08A800729D3D0092900F052
:202D7000EC800B2900F0C1800C2900F008810D2900F0D0800E2900F0EA800F2900F02881EC
:202D9000102900F04281112900F05C81122900F00E81142900F08781162900F05A811729F7
:202DB00000F07581FC2919D0FD2900F09581FE2900F09B81A2E7297C012909D199F80300EA
:202DD000002815D01621204610F050FC012006E020460CF0D6FE2874E88A28830020BDE832
:202DF000F283297C012940F0948199F80200002800F0E580FC2120460FF0C0F9A07904F1E1
:202E1000B80204F1B00111F051FF8CE7297C01290FD199F8020020B184F894100020386093
:202E30007860B87A012868D1062120460FF0A6F979E704F1E7063078012809D120460FF099
:202E500065F80128CAD10020B87201202874C5E770780028C2D004F1C70204F1A00104F1A3
:202E7000D70011F01FFF012030705CE7297C012940F0538199F8020000283ED0618CE1835B
:202E900020460DF0B1F90120287020460EF0BCFB0120A871397A787C012900F010000FD156
:202EB00048B1002088F80500D8F8001098F8060049080CF07FFBA079002111F0EFFE0EE011
:202ED00040B1D8F80020C54804F5A1735208214611F002FBA0790122002111F0DBFE0020D1
:202EF00038723873F872B8721DE7287C012805D1F97A012908BFFC2197D060E020460CF0A8
:202F100089FA0128A3D10020F87284F894000120287408E7297C012940F0038199F8020025
:202F3000002809D0002184F894100120287020460EF06AFB0120A87188E0297C012940F01C
:202F5000F48099F80200D0B3618CE183E8E6287C012840F0EE80387C022804F1FD0204D1A6
:202F7000A179002011F092FEDAE6032840F0EA80A1791A2011F08AFE00203874D0E6287CEE
:202F9000012804F20D1140F0E8800B78012B04F5897240F0E8804878012807D153880093E2
:202FB00000201388CA78A17911F06CFEB8E6297C012940F0E78099F802000028F6D1298B45
:202FD000481E288380B200287FF408AF2221FAE6287C012840F0DA8098F80910012902D12C
:202FF00030780F281BE098F80800012826D1002188F80810288D000900901A20AA8CEB8C41
:20301000A179520811F03AFE8AE6287C012840F0C18098F80910012910D1307810281CBFD6
:20303000002010F0DBFD002088F80900288D00090090AA8CEB8CA1797078E2E7287F00284A
:20305000E2D1BCE7297C012940F0A88099F80300F5E7297C012940F0A580017B4A061DD492
:20307000CA0709D501F0FE0101730023A1797078002209F0B9FA53E68A0740F1988001F036
:20309000FD0101730023A17900221A20F1E7297C012940F09980027B510690D5017B01F07F
:2030B000BF0101733CE6297C012940F08F8001788A067FF52DAE01F0DF010A0701700AD512
:2030D00001F0F7010170F08B0090738BB28B318BA07911F00FFE21E6A97E20460FF04EF884
:2030F00015E7002010F07AFD78E6A87E0F28F8D1FC2120460FF042F8B8F812000090B8F8EB
:203110001030B8F80E20B8F80C10A07911F0FAFD64E620460AF002F95DE620460DF042FA1D
:2031300059E620460EF0F4FB55E620460CF0D8FB51E620460BF02AFF2874E88A28830120E2
:2031500038744BE6288B401E288380B20028F8D1A179222011F09AFD38E701208870204611
:203170000BF05EFB37E6288B401E288380B20028E7D15088009022201388CA78A17911F05E
:2031900081FD23E720460DF04BFC24E6204609F07BFA20E6204609F0C7FA1CE620460CF085
:2031B00091FC18E61621204609F02CF813E6288B401E288380B20028C3D1A17900230022B8
:2031D000222009F011FA01E71721ECE7142120460AF090FDFFE500BF5C4D0020BDE7000074
:2031F0002DE9F84FDFF82844A178FF2904BF002010F0F4FCA07810F053FF044604F16806F4
:2032100004F5C9753168086804F1900710B10022E28310E0B17B002904BFB07E00280AD151
:203230003978002904BF2878002804D1217F012904BF608CE0832189E08B4118491C6181B3
:20325000204610F0C5FA01281EBFDFF8C8030178012904D120890022401CE2836081B07E7E
:2032700001280CD1B28B6189208911F003FD30B121896289481C82422AD0B28B1FE03878E3
:2032900001280CD17A886189208911F0F3FC30B121896289481C82421AD07A880FE028787A
:2032B000012815D16A886189208911F0E3FC00281FBF2189481C6289824209D06A88824238
:2032D00006D0501E608180B211F0D0FC401EE0832878012801BF69882089401C814207D1DF
:2032F0006A792A71002028701346A17909F07CF904F59A71087920B120890021401CE183C7
:20331000608104F12E07B07E012801BFB08B2189491C884238D1608104F18601204610F09B
:2033300037FAB08C6189608400202077E083E0894118A181B08B218911F098FC8046B988C3
:20335000308C728C01FB0808F08C8A4204BF3989884202BFB18CFB88994207D00009009034
:20337000B38CA1795208002011F088FCB07F3870708CB880B08CF880F08C3881204610F08B
:20339000D9FB0220B07601E0B7F80480E28BDFF88892501C00FB08F140F6C41808FB01F029
:2033B00000902368D3F80CC06044DFF870C2D860DCF800E09A489EF800A003884FEA9A1A22
:2033D000BAF1030F13D199F80FC05FEACC7E48BF00230CD45B1C9BB2012B11BFB4F812C001
:2033F00004F59A7CBCF806C00CF2DC5C01E0B4F812C00CFB01FC4FF4C87EBCFBFEFCDFF88A
:2034100024A20CF1010CC4F814C0038084F820204FF01C0BA379A1610BFB03F3DAF800109B
:20343000226801F1080001F1080CC058D3681061A0790BFB00FE60691B1A4CF80E3001F19F
:203450000800A3790BFB03F3C058906001F10C02A0790BFB00F00C31125C02F0F00242F064
:2034700002020A54DAF80000A279811C0BFB02F200208852287908B910F0B0FBDAF800007D
:20349000A27900F1100128790BFB02F240088854A079DAF800100BFB00F00844002141742D
:2034B0002879042814D1A079DAF800100BFB00F001F110022B7A125C103142EA83020A54F2
:2034D000A179DAF800000BFB01F1084420214174DAF80000A27900F112010BFB02F20023A8
:2034F0008B525149A2790968520101F11403D4F814C09B5801F1140E03EB4C034EF8023001
:20351000B27E022A0AD1A279520101F114033E789B5808FB063301F11406B35099F80F2039
:20353000D30749D5A2790BFB02F200F1080300F108069B58A3F5A863B3500830A2792368FC
:203550000BFB02F282589A600098121A1A6101F11402A079400101F11403125802F5F6622A
:203570001A502879042807D1A079400101F11402125802F5B0621A5001F11400A279520179
:203590008058C4F8340101F11C03284AB888166BA57908FB00F730686D01381AA0F5167083
:2035B0005851A37901EB431021490D78012D0EBF0122916A4A7819E02879A37904280CBF80
:2035D0004FF44B604FF4E66001F114025B01D258101ABA8808FB02F2A2F516729042D2D3DD
:2035F0000821204610F042F801200FE0C272A179DAF800000F4A0BFB01F1084421684860F4
:203610000720107020460EF062FA0020BDE8F28F684E0020784F00205C4D0020084F0020F0
:20363000542000202C20002030200020B05C0100734F00206F4F00202DE9F04F09AFADF192
:203650003C0D08900A92388809911E46ADF81800101C08BF002000F08481002700F1010938
:203670004FF0FF3A4FF0010BB8466CE1252940F063811078521C0A922D2818BFADF80680E1
:2036900005D15846551CADF8060010780A9530281CBF4246434605D10A9908785A465B46E5
:2036B000491C0A912A28CDF80080554616D1306804930A99CDF808A0C01C4B1C20F003004C
:2036D000001D306050F8044C0A93002C0878009418D5ADF806B06442009413E044460AE0CF
:2036F000610001EBC4010918A1F130040A9908780094491C0A91302801DB3A28F0DBCDF8E4
:2037100008A004932E282BD10A9908782A2801F101010A9111D13068CDF80880C01C20F051
:203730000300001D306050F8045C002D48BF454608782B46491C0A9111E0454643460AE082
:20375000690001EBC5010918A1F130050A9908782B46491C0A91302801DB3A28F0DB0293CC
:203770000AB1224604926C2804D04C2818BFADF8048005D10A990878ADF804B0491C0A9152
:203790000BA9CDF80C800FAB07916428059300F08B80692800F08880BDF818C0752872D0AE
:2037B00078286ED06F286AD0702850D063283DD073281ED009980A990128A1F101010A91D5
:2037D00015D96B490C68B5F1FF3F03D0A84288BF6D1C00D8099D029508A80AA932466B46B1
:2037F000A0473F180A99039801F1010974E040462AE030680A99C01C20F00300001D306086
:2038100050F8040CBCF1000F01F10109014608B955A00146079110F06BFC0390B5F1FF3FCE
:203830005BD0A842C4BF281C039056E03068C01C20F00300001D306010F8040C5D468DF85F
:203850002C000A990395584601F1010945E0082035680490E81C20F00300001D306050F8CD
:20387000041C082210230FA80BF014FA401E0790402101700A99079801F1010929E00823C2
:2038900002E0102300E00A230A99306801F10109C01C20F00300001D306050F8041CAA42CF
:2038B000BCBF2A1C049210E00A99306801F10109C01C20F00300001D306050F8041CAA428A
:2038D000BCBF2A1C04926FF009030FA80BF0E2F90790059D281A0390009C241ABDF8065096
:2038F00000945DB906E008A8202109AA0FF01AFC7F1C009C641E0094F5D503980546401E14
:20391000039075B9BDF80600E8B10098401E009019D408A8202109AA0FF004FC00987F1C39
:20393000F4E70798411C0791017809AA08A80FF0F9FB03987F1CE1E708A809AA0FF0F2FBEC
:203950007F1C09F101094A460A9812F8011C401C00290A907FF48AAE089808B14146017044
:2039700038460FB0BDE8F08F286E756C6C2900C0845C01002DE9FE43BF4C0F460646F80B23
:2039900080F05081B80880F03D81E07ADFF8F492B90F80F0B680607A002840F0968038093A
:2039B000C0F09580A07A20B10020A07205200EF0F1FD00254FF001086570284684F8078051
:2039D00007F021FEAD4904F174002A4610F029FE207901281AD16079C0B9DFF8A482D8F8FF
:2039F000000000284CD048460068006B804761694346401A000BA0611968E2698018B0EB93
:203A1000C11F98BFE0613BD9E56101E084F80480DFF87482A8F115000068000A30D340F6BD
:203A30000900A08694F8410000F0F00040F0010084F84100E58694F8400000F0F00084F819
:203A50004000A56310F0E7FD08F6FF7211686FF0020321F00201116004F13401C8F8FB3F35
:203A70008A4AC8F8EB1F11688908FCD3C8F8FB3FD8F8FF1F41F00201C8F8FF1F11F0F2F8DA
:203A900065610EF081F88248056002200EF082FD112007F079FE307C10B90E2007F074FE60
:203AB000E5712572A07818B906F1380010F0C7FD784810F07BFC78490878F8B10D7004F19A
:203AD000D000042110F0C3FD18E0380914D2B80BC0F0C98004F1240010F0ADFD061C08D089
:203AF000706830B17568F068B6F91C1000222023A84727F40057B6E00020607227F0080779
:203B1000B1E020B104200EF045FD0020E072B168088840F602054FF0000885420AD0B0F5EA
:203B3000C15F07D00A8B4FF61F60104040F43470088306E00A8A4FF61F60104040F434700C
:203B500008826069E0B1D9F85400016804208847B0B1D9F80000006B80476169814226BF1A
:203B7000401A401E401A000BF060708AF168401840F6C411F06081422CBFB0F5FA7FF160A5
:203B900094F8410010F00F0F0BD1708CED1D854207D1B56930466FF4807142464FF0007387
:203BB000A8473E4904F17400424610F03AFD607958B10220ADF8000068460FF0C9FA84F8C2
:203BD0000580BDF80800A4F8700001206070E078401CE07004F1200084F8068010F02BFD53
:203BF000002808BF47F0020702D0192010F017FD7569414630464FF080630A46A84727F014
:203C1000005730E004F12C05284610F014FD06F0D3FC284610F00FFD27F0020708B147F039
:203C3000020720E010F0F7FC014604F1280010F002FD0646B569A80810D27EB125EA0500D6
:203C5000B061084611F00EF8706850B12A46F068B6F91C1075680023A84702E0084611F052
:203C700001F827F4804727B104F1D000394610F0EEFCBDE8FE83C046B0080020F934010021
:203C9000282000208C010010150004401010044000000460B9A7000024200020C19D0000CC
:203CB000BB482DE9F84F0025BA4CB849056094F8E200002800F06581012800F02F81B64ECA
:203CD00002283CD0032840F05C8151F8250CD4F8B8100029A0F5C060C4F8D400B8BF4942E8
:203CF0000028B8BF4042814226DA4FF08057D7F8A4014568B4F8BC0030214FF47F420823B1
:203D100000903046A847D7F8A4014568B4F8C00004214FF4F802122300903046A847D7F8B6
:203D3000A401B4F8D070456820214FF440620A2330460097A847012584F8D8501CE151F8D6
:203D5000258C10F045FB2F4600B901273946934F38680028FCD0B146012609F10409D9F821
:203D70002CA03E6009B110F039FBCAF30720C4F8BC0010F02DFBAA4600B9B2463B68002BE8
:203D9000FCD0D9F800B0BAF1000F3E6001D010F025FBCBF38440C4F8C00010F019FBAA467B
:203DB00000B9B2463B68002BFCD0D9F81C90BAF1000F3E6001D010F011FBC9F38120C4F8DD
:203DD000D000B8F5C061C4F8B81000F09C8094F8D80068B9C4F8D410D4F8C000C4F8C80070
:203DF000D4F8BC70C4F8C470D4F8D030C4F8CC30D4F8D410D4F8BC30002954BF02206FF022
:203E1000010004F1C802176801EB41014018411000EB917107EBA1001060D4F8C810C4F82C
:203E3000C43000291CDD1E293CDDD4F8CC0030B93429B4BF15391E21C4F8C81025E02A2932
:203E5000BABFD4F8C8000B381E20C4F8C800D4F8C4003F28B4BF401C3F20C4F8C4001FE09C
:203E7000D4F8CC00032812D011F10B0FC6BFD4F8C8000B30301CC4F8C800D4F8C400002895
:203E9000C4BF401E051CC4F8C450032508E011F1150FC6BFD4F8C8001530301CC4F8C800DC
:203EB000C4F8CC504FF08057D7F8A401B4F8C43030214FF47F424568374800930823A847C2
:203ED000D7F8A40104214FF400321123456832480096A847B4F8C860D7F8A40104214FF434
:203EF000F802122345682C480096A847D7F8A40120214FF440620A23B4F8CC604568264823
:203F10000096A84701E084F8D85040F2FF50404502D8801C40452FD2082030E051F8251CC3
:203F30001F4F4BF2F5204843060A3868C0F3814001280CD11B480068006880470DF006FE01
:203F500010F052FA3111C010484306EBE03694F8E50030B91448006820F07F40801946088D
:203F700001E084F8E5501148310C0660012741600F4D8760287808B90B2000E0052084F88A
:203F9000E40004F0D1FABDE8F88FC0462D400C402C500C40600F002000A00C4000800C4074
:203FB000B43F0050EC010010102009403C600C40965B01002DE9F04F0D46E80789B00BD5AE
:203FD00010F03CF928B100218160AE48006800B1804785F0010052E1A80710D500200690F8
:203FF0000021049000230290009005910393019101223C2010F032FE85F002003FE11E2471
:204010006807DFF88482A14F40F19B800020079082469F498878FF2804BF00200FF0DEFDBD
:20403000386890F8A00010F03BF806463868C07A96F82EB1022818BF032806F5947906D1D7
:2040500008F10D0010F006FE08B908F1070A4946584610F0FBFD88B33868807A002818BF82
:20407000012804D1414648460EF0F1FD04E04A46594640460BF038FBFF283DD060438346CA
:2040900008EB0B0406224946E01D0FF007FF18F80B0040F0020BE01D079006223868817EA2
:2040B00001F0010186F82E1104F10109386800F1140106F594700FF0F1FE1DE04946584684
:2040D0000FF098FFC0B14A46594640460BF00CFBFF2811D04443444404F10D0010F0BAFD42
:2040F00040B904F10D0010F0B5FD002804BF607F012801D14BF0020B06F12C005B460178B9
:204110000691418909090591728C079904920122C088029140080390CDF804A0CDF80090BB
:204130000020B17910F09AFDD6F89C0159498842B0790CBF0021012109F044FC85F00400CE
:204150009DE0280610D5002006900021049000230290009005910393019101223B2010F0D3
:204170007DFD85F080008AE0E8043CD508F1070108F10D0010F066FD38684179012923D177
:20419000017A012918BF04291ED1C17A022918BF032919D1817E00F1140240460BF0A4FAFF
:2041B000FF2811D04443444404F10D0010F052FD50B9E11D04F10D0010F044FD3868062275
:2041D000E11D14300FF06AFE334934484A6800784FF480510DF092F910B18E2010F02EFDCE
:2041F00085F480504BE0A80505D510F0F1F82C4901200860FEE7690504D508F058F885F4E0
:2042100080603CE0680405D5812010F017FD85F4804034E0A80431D5224C206810B10020C1
:204230000FF0DCFC4FF0FF3020600BF01BFC1E4C216851F8202F684690471C48C16A026B8B
:204250002468009101920021029100F134014A6809781368806A03938DF81010ADF812003A
:204270006B46D4F80080124A12491348C0471349086003F0F1FE85F4005000E0002009B0F0
:20429000BDE8F08F204F0020A8160020104F0020684E0020E7FF0000784E00206E4F00207F
:2042B000FC002043044F0020F04E0020F81200205C1F00204015002088490020EC4E002039
:2042D0002DE9F04FB64D686885B0019020B905B0BDE8F04F10F0AEBC0178DFF8C882B24E6A
:2042F000DFF8C892DFF8C8A201291CBF0229042946F2A81741F64C5B05D0402918BF80294C
:2043100000F09A8043E110F099F80028FAD00198007805F079FA0090446814B900200FF03B
:204330005DFC9AF80100002860D002F0DDFA0FF0B7FE02900168009801914F680AF05CFE7C
:20435000022827D000990A78012ADBD1994B19680A7A19F80230337018B910F067FC58449B
:20437000A0602069C17E01F0EF01C1762069C17E41F08001C1762069C17E01F0F00141F0C1
:204390000201C1768C48B96841182069C16101210098A0E001980178802913D10822874808
:2043B00032700178012903D09AF80100012803DD78690121C17213E0D8F828107A690878A5
:2043D000D0720DE07D49072030700A787869012A02D10123C37203E0D8F828104A78C27276
:2043F0000298817901988AF80210CBE00098002888D00199009A0078914205D101281CBFD0
:2044100000200FF0EBFB15E0012840F0C080694801680A7A19F80200307010F007FC391854
:20443000A06810F0FFFB18B910F000FC5844A0600120A8700098A5E09AF8010000287DD0A3
:2044500002F052FA0FF02CFE04462068029047689AF802000FF024FE03900FF0F5FF10F097
:20447000070F3DD0A87805F0CFF9019041680198009102990AF0C0FD022831D001990A782F
:20449000012A2AD14B4B19680A7A19F80230337028B910F0CBFB83440098C0F808B0009956
:2044B0000869C17E01F0EF01C17600980069C17E41F08001C17600980069C17E01F0F001D9
:2044D00041F00201C176009AB9683B4841181069C16101210198A97054E000200FF07EFB8F
:2044F0000398A04228D002980178802913D10822324832700178012903D09AF8010001281F
:2045100003DD78690121C17213E0D8F828107A690878D0720DE02949072030700A7878694C
:20453000012A02D10123C37203E0D8F828104A78C272A0798AF80200029823E00FF084FF77
:2045500010F0070F29D0A87805F05EF904462078D4F80480012820D116490A68107A19F818
:204570000010317010F062FB3918D8F8080010F059FB20B910F05AFB5844C8F808000120ED
:20459000A870204605B0BDE8F04F06F071BD05B0BDE8F04F00200FF021BB05B0BDE8F08F63
:2045B000FC1F0020B05C01006F4F0020289A0110684E0020104F0020F0D8FFFF734F0020F5
:2045D0002DE9FE4F0F46994C0168E16241688068E0609748A16080479648E16A0160A16877
:2045F000DFF870B24160E168DFF8648281609249002FA246C16069D03D68E8788DF808004C
:2046100028798DF8090002A810F008FBA86808B18A490160E86808B189490160894C287800
:20463000207068786070A878BE68A0703178E1707368636072696261B168A160F168E160EA
:20465000316921612E697B68A6621868A0616869E062A8692063287F84F834002A6AA26394
:20467000786886681EB900200FF0B8FA00E026627868C06818B900200FF0B0FA00E0606208
:204690007868406818B900200FF0A8FA00E0E0612869A062F86881680E6806B96B4E6A4952
:2046B0004FF001094E60C66881F801902EB900200FF094FAF868454601E045462E600068DA
:2046D0005C46FE68A0617068E06106E000200FF085FA4FF001095C46454628685E494668C9
:2046F000621C04F114035020B04710B1286880688047DAF808008047594F002683466946D2
:204710007E7056483E700422206130460EF0AAF80098B0F5801F0CD020B90EF057FC05F0BB
:204730002DFA08E00DF054F90FF0D8FC0420788001E00EF04BFC4B4FB0462868C7F8088094
:204750008069A660804778604748468080F8009014200FF09BFDFF211422A0620FF087FFB6
:20477000E01CFF2102220FF082FF14200FF08EFD3E4908600868142231460FF078FF3046B3
:20479000FCF718F948460DF0BBFF39480188FF2906D1022101807822001D31460FF067FF80
:2047B000032010F037FA042010F030FA052010F029FA062010F022FA07200BF027FB2D4EFE
:2047D0000820307006F1400010F014FA0BF0E8FD363605200A2132460FF0F5F838B140464D
:2047F000C0F10901401C06F8011B0A28F8DB2F68214909200DF10A0201AB7D680870102006
:204810004146A847A06ADAF80C10E2690A270A309DF80A307F1E00F8013BF9D1921E5846AC
:20483000E261884702F0E2FFBDE8FE8F7410002041490010F84400203C4D0100A92E010055
:20485000BD3D0100F8120020C01500204FFC000088160020FC130020653501007D3E01009F
:2048700084160020F01F00208016002048200020A0110020BC0C0020612000202DE9F04F52
:204890000546A64CA878216AADF11C0D801F00F03E81C01E00F02981401E78D0401E56D069
:2048B000C01E4AD0401E40F03581207A617A00283FD1607800283BD0A88810F097F9071C11
:2048D00000F02881A87A40080AD3787940B1E968890A05D2B91D01AA07F092FD0A2825D01D
:2048F000207B022802D1A87A00091FD36078AE887979C0B1607CB0B90120607405F1080248
:20491000304603F047FD002840F00481206A002800F000814368002B00F0FC800021304601
:204930000A469847F6E00521304603E0032100E00521A88810F056F9ECE0002900F0EA80EB
:204950004B68002B00F0E6806A780221CBE00FF07DFC002800F0DE80276A0FB1386868B963
:20497000286900280CBFE0690120698910F036F9002800F0CF8068890121DBE728690090BB
:204990003C6869892A7B6B7BE81CA047C2E068784FF00008002840F09580A8794008C0F0AC
:2049B0009180606A002840F08D8001A841460E220FF05DFEA88810F019F9061C00F0AA806F
:2049D0006869002859D081464146062209F111000FF08BF9C24620B3484606220FF085F993
:2049F000D8B999F8100009F1110B474605907F1C5846FFB28BF800700EF0FEFA0A280BDA53
:204A1000474B059A0101A1EB4001C9188879824202D1002FEBD100E01FB947464FF0010A93
:204A30006F61BAF1000F09D109F1110101A806220FF034FA99F810008DF80A00BAF1010F0D
:204A50001BD06F69CFB1387C07F1110106228DF80A0001A80FF022FA06F10C00B11D0622D1
:204A70000FF01CFAB01D07F1110106220FF016FA387C40F00200707107E07079B11D062276
:204A90008DF80A0001A80FF009FAA9799DF81120C1F3800010438DF81100080905D39DF849
:204AB000110040F008008DF8110001A8294602F00FFB28B92078022106F006FE40462AE0CD
:204AD0004FF015080FF0F0FC206A18B343680BB3A8886A7801219847B8F1000F1AD0206A82
:204AF000032142464368A8881BE7E878291D002207F086FC0A280DDA410001EB800005F120
:204B10000C0225300421C0B205F0DAFC02E0A8880BF0CAFC012007B0BDE8F08FBC0C002009
:204B3000AE0D00207CB5A34D144602460026A2F58062192A1BD8DFE812F031012A012201A9
:204B5000190111010C010401FD00F300E700DF00D700C500B9001A001A00970081007A0036
:204B700065005C00520047003A0030002500282880F29A80022940F09780218810F02AF823
:204B9000064614E1012940F011812178284601750121C1740FF08EFA09E1012940F00681B2
:204BB000002C00F0038128461230024614E0102940F0FC80002C00F0F98028465C301022B3
:204BD00021460FF06BF9F2E0012940F0EF80002C00F0EC802A46921D21781046E4E02629B7
:204BF00040F0E480002C00F0E180284626226C30E6E7012940F0DA80002C00F0D7802846E0
:204C1000401D9CE0602900D144B9012940F0CE80002C00F0CB8028460D3090E005F19200A2
:204C3000214660220FF03AF901206873BFE0012940F0BC8020780FF0C9FFB8E0012940F0C7
:204C5000B5802178022900F3B180284600F10C0211702178022918BF301C02D11021C1721B
:204C700001200FF0AFFFA2E0072940F09F80611C684606220EF0DCFF20786946324607F073
:204C9000BFFB04460A2C0FDA0FF098FF38B9204604F04EFE0EF038FB0BF082FB87E0284636
:204CB00001212C30015582E0022680E001297DD12A462178907B0028917378D12078012864
:204CD00075D1E9E72846027B01296FD1022A04D02178072901DB102904DD022A66D121789E
:204CF000102963D1C17262E001295FD121780A295CDA2846093057E0012957D12178022972
:204D100054DA284608304FE000294FD10FF056FF10B90FF085F9BDE7284601210F3043E007
:204D3000042943D12168244888423FD328461C3001603CE0012939D12B4603F10A002178DE
:204D500032E0012932D1217802292FDA2846C01D2AE010292AD128464C3030E7012925D18D
:204D70002178022922DA2846001D1DE001291DD1217804291ADC2846C01C02462DE7012937
:204D900014D12178022911DA2846821C25E702290CD1218828461630018008E0012905D189
:204DB0002178022902DC0548017000E0182630467CBDC046BC0C00203F420F00BD0C00204F
:204DD0002DE9FC41A0F2013714468846022F40F232819B4E9C493F1F0F2F04D9143F4CD0B2
:204DF000BF1E1CD011E0DFE817F0CF00C9000D01FA00C100B9002601AF00A7001000100064
:204E10009D008F007F0074006600282880F21381B8F1020F40F00F818849238807E1B8F120
:204E3000010F40F00881F078012800F00481324620781179107189B9002800F0FC805078DA
:204E5000012800F0B580042800F0B280062800F0AF80052800F0AC80BDE8FC81207800282E
:204E700040F0E9805078032800F0AF80072800F0AC80052840F0DF80A7E0B8F1010F40F000
:204E9000DA802078012840F0D68006F1EC000FF0C5F9002840F0CF803446002004F13A0150
:204EB00008F0A0FE002840F0C68004F1C8000FF0D6FBBDE8FC81B8F1020F40F0BC80208831
:204ED0000A28C0F2B880B0F5486F00F3B4808E1C17E0B8F1020F40F0AE802088B0F5FA7FA4
:204EF00080F2A9800E460CE0B8F1020F40F0A38020880628C0F29F80B0F5486F00F39B80A9
:204F10003E363080BDE8FC81B8F1020F40F0938020880628C0F28F80B0F5486F00F38B804D
:204F30003C36EEE7B8F1010F40F085802078062880F28180454E0EE0B8F1010F7BD12078D5
:204F5000042878DA0A3606E0B8F1010F73D12078082870DA09363070BDE8FC81B8F1010FD4
:204F700069D12078042866DA0836F4E7B8F1010F61D1207804285EDCF61DECE7B8F1020F41
:204F900059D120880E36BCE7B8F1010F53D13079012850D032462078D178D07069B9002896
:204FB00049D05078012803D0042818BF052842D101200FF063F9BDE8FC81207800283AD158
:204FD0005078022818BF052835D110780DF0E0FE1C490246102003F06FFBBDE8FC8106F10F
:204FF000830500211F22284609F043FA21464246284607F027FD44463078B4710DF0C8FE81
:20501000002311E006F1640500211F22284609F030FA21464246284607F014FD4446307882
:2050300074710DF0B5FE01230094094901950246102003F041FBBDE8FC81C046BD8401100A
:205050007005002099450110B0050020AA050020094501102DE9F04F9E4C20780E46F10B92
:20507000ADF11C0DC9036ED1B0085ED2606AA16A720807D2F00828BF86F0040680F02581C9
:20509000002023E1858861B904F11800924A00904FF6FF71022301200FF08CFD0146A1626F
:2050B00021B304A800900027019702230293FF220392228B28460DF1120301F00DFB58B969
:2050D0009DF813009DF81220A16A12EB002204D0498928460CF056FAA16A228B08463B4640
:2050F0004FF6FF710FF062FD0146A162206A00291CBF012186F001061FD168B14368616A97
:205110005BB18888002201219847206A676A4368B888032100229847616A88880EF0D4FF29
:205130000EF040FD86F00106CFE00020014601F0CFFF30B1012186F00206207806F0C4FA05
:20515000C3E00221F7E708F00BF85FEA000800F0BA80054628784FF0010AB03812D0401EC8
:2051700003D01F3800F0A580A7E02879002840F0A480B8F80200B8F80610B8F808200CF0F0
:2051900001FA9DE02879401E41D0083803D0743800F0828087E068781A2879D0688881463D
:2051B0000FF07CF9801E18D0401E7CD1288901280AD16889032807D1E9688A78484604218B
:2051D0000BF07EFC024600E01822206A00286AD04368002B67D0042116E02989688852469A
:2051F0000129814609D16989032906D1E9688F781FB910210BF064FC0246206A002852D007
:205210004368002B4FD00521484698474BE02B7A688805F10807082B814639D10FF03EF9F7
:20523000801E12D0401E33D1287B0A2818BF122205D16889042100220BF042FC0246206A83
:2052500030B3436823B3042120E07888102100220BF036FC237D834693B148460FF0C6FC39
:2052700070B11E490B784BB94179831D524601F00101084619460EF011FD01E05046E074A6
:20529000206A28B143681BB105215A467888984768880EF019FF06E06A880FF0FFF8014664
:2052B00010460BF091FD297905F108000FF016FD03E04046FFF7E2FA8246BAF1000F02D0BE
:2052D00028460EF0D5FA86F40046B0B207B0BDE8F08FC046BC0C0020FC5801005A4F00207A
:2052F0002DE9FC41884C894A2678894F894D8A490D2E30464FF4A0534CD8DFE816F00301A9
:205310000E000E000E000E00FB00FB006800FB00A700A700D800D800DF008049176041F29C
:2053300004464C887E4FB4421CBFB1F81AE0B6450BD0B1F83280B0451CBF41F20A46B44284
:2053500003D0B64518BFB04502D12E80176076E0022C744E2C8035D94FF48067E41B1AD098
:20537000241F012C1DD94FF47F77E41B1BD04FF44067E41B0FD0A41E012C0CD9241F0AD0DB
:20539000641E012C0DD940F2F937E41B012C19D9241F08D0AEE0022814BF2B80624E166071
:2053B0004DE0624EFBE762480468257A012D05D141F20240488048834886F0E74B804B831F
:2053D0004B86ECE700200EF009FC832096E059488178FF291ED01C2041435748176040F225
:2053F00004460068841C645A2C80A41B012C534D10D94FF47F76A41B15D00A3C012C14D930
:2054100040F6F636A41B032C84BF641F012C0ED9A41E012C76D940F2FD36A41B07D0641E97
:20543000012C02D905E041F20143801C4352156005E000200EF0D2FB85200FF043FCBDE8FA
:20545000FC413F480078012106F03EB94A882A8040F20443D21A55D040F6FC73D21A15D075
:20547000083A4FD04FF47F73D21A22D1354C364A2568364800680023CDE9002355F8086F73
:20549000334B0222B047334908803BE0092810D131490A68508960B1304908780AF0D0FE9B
:2054B000002100200FF07EFB002020702AE04888288000200EF092FB85201FE04A882A8026
:2054D000022A0DD940F20440121A1BD040F6FC70121A05D0083A15D04FF47F70121AE8D13C
:2054F000887B801CC0B2B528A8BF662088730020488007E000200EF071FB8420BDE8F641ED
:205510000FF0E0BBBDE8F3816F4F0020204F0020E5450100504F00209C1F0020204A00200C
:20553000B9270000D99F000039BB0000755B0110104F0020684E00202C200020D964000030
:205550006E4F0020F04E002002000080EC4E002061190100424F002038200020714F0020A0
:2055700010B50B7884074CBF43F0020303F0FD0304064CBF43F0800303F07F0304074CBFBC
:2055900043F0080303F0F70384064CBF43F0200303F0DF0310F0AA0F0B7004D0107840F050
:2055B0000C00107010BD18B9117801F0F301117010BDF8B50F4600263878022814461D4636
:2055D00067D1786801784278069801EB022189B2002818BFB1F5285F01D00B20F2BD4FF46E
:2055F0002850091A0AD0491E1ED0491E4BD0491E22D0491E28D0C53941D04AE0F8680FF0FF
:2056100038F8069B079980B2C21A8A42ACBF0846C01A80B2C118162904DA28800246F86824
:20563000C1180DE00D2636E0F8680088022129802070000A60702EE0062028800622F968C8
:2056500020460EF02BFC26E0F868B0B108212980018821700188090A61704188A1704188EC
:20567000090AE170818821718188090A6171C188A171C088000AE0710DE029800BE04A481C
:205690000178CA0705D401202880F8680178217001E02E8001263046F2BD2DE9F8460E4621
:2056B000814630780024022817469A4678D17068017842783C4D01EB022189B24FF42850FE
:2056D000091A08D0491E30D0491E55D0491E3FD0C63960D064E0F0680EF0CBFF089980B2F0
:2056F000884206D308460AEB0001162903DB0D2457E0072455E0F3685246394618440EF002
:20571000CDFB08985044ADF8200000210898F368C0F1160218440EF0AAFF686800281CBFFD
:205730000268002A3DD0002123E0089888BBBAF1020FDCD139787878F26801EB00211180AF
:20575000686800281CBF0268002A2AD0012110E00898F0B9BAF1060FC9D1F0680622394624
:205770000EF09CFB686800281CBF0268002A18D003214846904714E0089850B9BAF1010F54
:20579000B5D13878002813BF0128F1680870802407E00B2405E02878C10758BF032400D5B5
:2057B00001242046BDE8F286F01500202DE9F04F8246DAF800600C465FEA0208ADF11C0D51
:2057D00014BF00214FF0FF3106F1480083460EF0C9FC002818BF0B2040F0068100256570B0
:2057F0008448F460B8F1010F057004D065700220F4600DF0AFF82078012840F2AB80801ECC
:20581000012868D9801E012833D9801E012800F2DF800EF000FF06904FF0805000F5EE7727
:20583000D0F8DC01A378466A009321782846062908BF0120019001200290A068228AE168F6
:205850006368B047814606980FF00CFAB9F1000F40F0C080B8F1000F02D00EF0EFFA02E090
:2058700050460DF001FD002800F0A4803868806A2AE00EF0D0FE06904FF0805000F5EE77EC
:20589000D0F8DC01012306680093A168A27860682478AC46042C08BF9C466346B047814675
:2058B00006980FF0DFF9B9F1000F40F09380B8F1000F02D00EF0C2FA02E050460DF0D4FCDE
:2058D000002877D03868406880474949C1F8B0510D6081467EE00EF09EFE06904FF080501D
:2058F00000F5EE76D0F8DC01E38A87690093E0680190208B0290A0780390207D0490012196
:20591000059122782846022A08BF081CE1786268A368B847814606980FF0A4F9B9F1000FDB
:2059300058D1B8F1000F02D00EF088FA02E050460DF09AFC00283DD03068006A80475FEAD2
:20595000000947D13068C569A168E28A2369E078A847BEE70EF05FFE06904FF0805000F56E
:20597000EE76D0F8DC01E38AC7680093E0680190208B0290A0780390207D2946049001205D
:205990000590257805B9014608466268A368E178B847814606980FF065F9B9F1000F19D1E0
:2059B000B8F1000F02D00EF049FA02E050460DF05BFC08B9142017E03068406980475FEA03
:2059D000000907D1306802692169E078904780E74FF0FF39B8F1010F02D002200CF0DAFDBC
:2059F00058460EF02CFE484607B0BDE8F08FC04650450240602000202DE9F04FDFF80CB201
:205A10009BF80000002885B004D0401E032804D9801F012840F2F780EFE07D4DDFF8F481F6
:205A30002868DFF8F49103687C4E03F10807062207F1080103A80EF031FA0622B91C01A88F
:205A50000EF02CFA3878C0F380118DF800101E24C10900F00F02032A39D16879C0F3800031
:205A7000814233D12969062203A80DF0F1FE00282CD09DF8000001A90FF0E8F8002825D09F
:205A9000314601A80DF0E3F80746FF2F1ED0D9F80000807A6743002818BF02280BD00128F3
:205AB00018BF032812D1701CF25DC11940460FF075F810280AD0F41901AAE11D404609F003
:205AD00040FF062201A9E01D0EF0E8F990E000F00F00052840F097806879C0F3800081420F
:205AF000F4D12969062203A80DF0B2FE0028EDD09DF800003F7801A90FF0A8F87F0940F28B
:205B1000024A88B3314601A80DF0A1F88346BBF1FF0F6DD0D9F80000807A002804FB0BF18A
:205B300018BF012800910CD0022818BF03285FD10846711C325C014440460FF02FF81028FA
:205B500056D050460FF026F8009806EB000A01AA0AF10701404609F0F4FE062201A90AF1DD
:205B700007000EF09BF91CE09BF8000002283FD19DF8001001AA304609F0B6FD8346BBF1CC
:205B9000FF0F35D004FB0BF03118487F012805D070BB01F10D000FF05DF848B350460EF0CD
:205BB000F9FF04FB0BF4D9F80010305D88760622701C0119D9F8000014300EF06FF91849C9
:205BD00018488A78510604D5F90758BF41F20A4101D541F204414180418341861248134A3D
:205BF00001801348134908600121107805F06CFD29680A680020107105E000200DF0EEFF5A
:205C100086200FF05FF805B0BDE8F08F6F4F0020F44B0020CC470020104F0020A8160020D2
:205C3000B81F0020204A0020504F00206E4F0020B9270000204F00202DE9FE4F05467E4854
:205C5000002400680094C0090ED37C48007858B97C497B4851F8112C104040F0817041F865
:205C7000110C20200BF028FC012D40F0E080DFF80092D9F8DC00012840F0D6800220C9F832
:205C9000DC000DF045FD01200BF016FC5FEA000805D00120C9F8DC000DF04AFDC9E00EF0DC
:205CB000D2FCA34602906848684DC0F800B0A86A016801208847012804D1584609F008FABC
:205CD000012000906248634FC0F800B0386811200EF09CFB00B1012410200EF097FB08B18A
:205CF00044F002040F200EF091FB08B144F004040B200EF08BFB20B12868574E016B3088D3
:205D100088470A200EF082FB20B12868534E016B308888475248012606602868816944F035
:205D3000200088474F4806600EF06AFB00F001010191400814D2286A81684B4888478246AD
:205D5000BAF1040FF7D0BAF1010F04D1286A42684548032190474549086820F003000860E1
:205D7000584600F099F92B683868986B8047019801280CD0BAF1010F04D1286A42683A480A
:205D9000314690473949086840F0030008603048066028684169204688470B200EF036FB71
:205DB00020B128682C4BC16A188888470A200EF02DFB20B12868294BC16A18888847284832
:205DD00006600322C9F8DC20264BC3F800B02868416B204688470128F9D1386804200BF06C
:205DF0006BFB0446184806603868134800688009FBD30098012802D1304609F069F90EF000
:205E1000EDFA08200BF058FB07460298C9F8DC600EF0BCFEFBF7BAF80DF08AFC57EA04000D
:205E300018BF4FF0FF3804E06FF0040801E06FF001084046BDE8FE8F1410094048100020D0
:205E5000FFFFFCFC150009400C400940B8010010000222432C2009407A57010076570100E4
:205E700028200860800104430040034024220840600F00202DE9F0410246854D854C297827
:205E9000A068521EADF1280D00F08380521E7DD0921E5FD0521E4BD0521E04D0521E42D0C7
:205EB000521E3ED03BE004F170000EF0D6FB7549102002F001FC7449C6B201AB1020721E87
:205ED00002F0FAFB58B900962978A068002251A3C91CC9B20DF0E7F80DF106000EE006AE83
:205EF00040F21530314603F0B7FD2978A06800224CA3C91CC9B20DF0D6F830462D78A468F1
:205F10000AF0EEFC6D1C03460022E9B220460DF0CAF84FF6FF7000210CF0DCFD76E00A4689
:205F30002FE043A302E0C91C43A3C9B200226BE0142008F001FCA0682978002244A30DF0EF
:205F5000B2F800204FF6FF710CF0C4FD2A78501CC1B215E004F170000EF081FB142008F074
:205F7000EBFB2978A06800223CA3C91CC9B20DF09AF800204FF6FF710CF0ACFD2A7811461F
:205F9000A068921CD2B20EF00BFA3FE0002237A338E04FF4417008A903F05EFD9DF8217068
:205FB0008DF8057000268DF808609DF822308DF807609DF824108DF806309DF820008DF833
:205FD0000A109DF825208DF804009DF823708DF80B2001AB2D498DF809701A680A60586890
:205FF0004860D4F808802F7808A80AF079FC3F1D0346F9B2324640460DF055F8A06829788E
:206010001DA33246C91CC9B20DF04DF80AB0BDE8F081C0464E756D20436F6E6E733A2025F0
:206030006400C046436F6E6E656374656400C0464572726F7200C046436F6E6E656374650E
:2060500064204164766572746973696E6700C04654696D6564204F757400C0464469736352
:206070006F6E6E656374656400C046C04164766572746973696E6700496E697469616C6947
:206090007A656400F17F0110097F0110F70A002020150020080200202DE9F84FDFF804B209
:2060B0000746ABF13500DFF8F0810068800880F0E28075480068006880477E490831D1F88B
:2060D000009000254FEA29715FEA995201F101010AD2C0F13E0210F10A0F4FEAE202D8BF65
:2060F00008229142B8BF111C684BD3F87C21C2F30462162AA8BF203A1B68C3F30443162BF7
:20611000A8BF203B9A465218162A05DA12F10A0FB8BF6FF0090200E015225D4B5D4E02F0EB
:206130001F0141F4F8511980316811F0030F18BF0125C90828BF45F002050FB145F004057D
:20615000434693F90710411A052904DA9979A94208BF99886FD0DFF844E10F28A0F10F089D
:2061700029DB08EB0011A1F1F0084FEA28210091072984BF07210091062988BF06215EF84B
:2061900021600424774604EB81043C594FEA950CA41BEE0804F0FF0124BFC4F307263144C1
:2061B0006F08AE0824BFC4F3074631446E0828BF01EB146104E000214FEA950C6F080091A1
:2061D000009C5EF824E05FEA5C060EF0FF0424BFCEF3072634447E0824BFCEF307463444D5
:2061F0006E0828BF04EB1E64009E89B2A8EB06267143803104EB1124AAEB02010029D8BF48
:206210000121342209F0FF074A4391B24FF6FF727943B1FBF4F18A4238BF111C802889B251
:20623000998005DA10F1800FB8BF6FF07F0000E07F20D8719D711A4800681F2918604FF0D2
:20625000000008D340F2FF128A4206D24908401C8A42FBD301E01F219980134F0F3909092F
:2062700040EAC10047EA0001CBF8FB1F0026CBF8FF6FBDE8F88F0D490D4F434608200F60BF
:206290009B1D1870BDE8F88FEC0100103C1100506E620840242208401C2000209C130050E7
:2062B000082009403500094000E7A48030100940FDFDA400AC3F00502DE9F84F0024774D2D
:2062D000774EDFF8E0B1DFF8E0A1DFF8E081DFF8E091D9F800104A7A01231820A340604322
:2062F0001A420AEB000709D0087A38F810203A8000201BF80420BA73F87302E040F60100B9
:2063100038800020788007F118007860387B00F0EF0040F080003873097A01290ED141F209
:206330008830B860387B00F0F00040F005003873787B00F0F00040F0020019E0002C0CBF15
:206350000221002100F0F000084338733CB90EF06DFC00F5C870CAF80800022004E000209A
:20637000022CB860F9D10120797B01F0F00108437873641C3E61022C7D61AADDD9F800004D
:20639000017A01290EBFCAF834A00020CAF834000CF098FD3060474880690078C1074CBFEB
:2063B0001021002182074CBF2022002243074CBF4023002300074CBF802000201143194326
:2063D000014341F00F01317100207071D9F80010887A00F003007071CA7A920002F0040200
:2063F000104370718A7ED20002F0080242F0100210437071087A012818BF042806D1002066
:20641000B071F071B06001F1140216E0487FB07101F15D025078F071487F20B10B7FC3EBAA
:206430004313C8181E30B060507828B11278C2EB42128B1803F15F001F4AF060726101F118
:206450000C0030611D4BF07E727900F0E00040F08600F0761A48F061187828B1307900F02D
:20647000FE0042F040023071164B987843064CBF42F0200202F0DF02727100202880A8704A
:20649000E87028716871E8802881A872E872E8600868C0F804A0BDE8F18F00BFB44D002084
:2064B000F44B0020409A0110204A0020109A0110104F0020B05C0100D0470020784E002094
:2064D00000204E00B81F00207E488078FF2800D170472DE9F84F0DF0E3FD054605F2171037
:2064F0000178012908BF417800F0A28005F17400817B022903D105F174020020907305F569
:206510009276F18911B1307B05F0DEF868896E4F288105F58D78B87AFB793A7BF97A7C7B96
:20653000B8F800C000EB030E96448E4474441FFA84FEB8F80440641CA8F80440F444B8F8A0
:206550000240A8F800C00419A8F802404FF01C0C3468FCB1DFF8749195F806A0D9F800906A
:2065700009F10E0B0CFB0AFA09F10E091BF80AA034F81AB0F34424F81AB095F806A00CFBD2
:206590000AFA19F80A9004EB4904B4F84AE08644A4F84AE0002B08BF002904D1002A04BFBD
:2065B000797B002923D02A89E889821800202874AA81287F012804BF698CE983787868B119
:2065D0000121297705F174018878002804BF887B002803D1087F08B9698CE983307D80B30B
:2065F000022804BFF87A002827D1002128E0E98338B100202874287F012807D1698CE983C9
:2066100004E0B8F80600401CA8F80600A8892989814206D08842D1D2081A41F2AB02904211
:20663000CCDA287C08B1052901D0082100E03E212846BDE8F44F0DF019B8787A08B10221EE
:2066500031752348FA7B01682868D30708D53A69C26001F11400A97949010022425011E018
:2066700001F11402A97949015258184932610A68A97902F108030CFB01F29958C16000203A
:20669000E8832877134841690A7890074CBFB87B812085F874002846FCF72CFB01280ED063
:2066B0000121284607F01EFF28460CF055FEFCF797FD012803D0BDE8F14FFDF701BEBDE8A9
:2066D000F18F00BF684E00205C4D00202C20002030200020B05C01002DE9F0410C4684B016
:2066F0000746207A0026C10690461D460BD540460EF048FA030000F0F0800A222146384663
:206710009847060050D1207802281AD160680178427801EB022189B24FF42050091A012971
:2067300010D9891E41D0491E16D0FD3905D0491E00F08B80491E74D0491E7BD0491E00F03A
:20675000A180B8E00B98002831D1E0680A9A017811800278416891E00B98002827D10A98B4
:2067700001210180E0680178297000216089401C80B20EF003FA0A99098868B102780A9B0D
:20679000921C51181980418969704189090AA97002784168E81C72E00A98091D01800422B8
