:2000000000400020350F010001C9011001C9011001C9011001C9011001C9011001C9011019
:1C00200001C9011001C9011001C9011001C9011001C9011001C901103FC9011089
:20003C0080B54FF4FC720FF278011A480CF048FA012119484174002202210270C17601BDC0
:20005C002DE9F0410FF2502214493820136854689568D6681769D2F814C0D2F818E0D2F8F9
:20007C001C800B604C608D60CE600F61C1F814C0C1F818E0C1F81C8020322031401EE5D1DC
:20009C0050689368D46812680A6048608B60CC60BDE8F081480400215903002100C00021D1
:2000BC00410500217D0500212D06002170B51D46004C204787B2000010B5014800470000FD
:2000DC00D509000070B5614C6148254650358047022809D14034E1885E4A914204D1E97C5E
:2000FC00890601D4911DE18070BD70B557495A4A084650300378002B10D08379012B0DD181
:20011C00037C5B09DB0709D0097D544DC1746C7F20202043687790476C7770BDFF21C17420
:20013C00904770BD10B54E48484C804702280ED121464031CA88474B9A4208D1CA7C5209CE
:20015C00D20704D0227D920601D49A1DCA8010BD70B53E4843494030C07C4009C00707D032
:20017C003E4D41482C8B2043288388472C8370BD884770BD10B53B48344CAC388047214609
:20019C0053310A789309DB0705D04034A2730A7803231A430A7010BD2C4940310871182876
:2001BC0012D004DC0A280BD00B2804D10AE025280CD02A280CD02D4980004018C0687047DE
:2001DC002B4870472B4870472B4870472B4870472B48704770B504461C484E252D5CAE09AB
:2001FC00F60716D0067D3007000F052803D00120054202D00DE00220FAE7E80905D07006D1
:20021C0003D54868800F012803D05B085B0052085200062B03D01020022B11D011E0FB20F7
:20023C00024002232046FFF741FF002807DAC100611A2039497E1422114200D1002070BD93
:20025C00024303432046FFF731FF70BD4401002137CB000004140000EBC80000A800002142
:20027C00F5B4000053AD00002020000080DF00001D050021F9040021CD040021930400210F
:20029C006D04002110B5034CFFF716FF20680028FAD110BD0011044068610000F825F965B0
:2002BC00F9754500450045002600260057A3520052004C00401F401F401F3F000000000053
:2002DC00304000400140034007400F404F40CF40CF41CF43CF47CF4FCF3FCF2FCF1FCF0F6C
:2002FC00000000000000000000000F00080000003F00000040003F000000040068000E0093
:20031C00DC00060043001A00050000000000020000000000000000000400C00000000400B3
:20033C00C000000007000000000000000000000000000000000000003040004001400340A6
:20035C0007400F404F40CF40CF7FCF6FCF5FCF4FCF3FCF2FCF1FCF0F00000000000000009D
:20037C0050C00091007070C00091007082312100319110B10070018101B100A1823132910D
:20039C0010B101911110418141227740F106007051C0019130181039833108D01831416FD1
:2003BC003100319110B18314141683680070251050C00091F4C340C12014036F3110410497
:2003DC005082F0229840512622C082312100319110B163393110410482C08231210031919B
:2003FC0010B163393110A2C082312100319110B150101531051405920070676452C03110A6
:20041C0031066131C1026A6412C13110213971065131E1026A64007051C0019101CCE2C0CC
:20043C006A64676411C1C2C06A6450B054B0007140804022D6440022C94060B08180111EC9
:20045C00C944007054A064B0F0800022C9404012B09032B070C1DF6811C122C16A6470C1C0
:20047C00E46851C00191E2C0823160820200329110B130C2EE68538253395339B16460C347
:20049C00F4688012B09032B00070676401C122C16A6401C1C2C06A645382B164C012B09074
:2004BC0032B00070676472C281C06A6422C111C16A6402C011C16A6462C031C36A6462C3D2
:2004DC0011C16A6402C311C16A6453825339B164E2C36F6411221C4142C281C86A6452C24E
:2004FC0011C16A6472C2E1CE6A6402C281C86A6402C201C86A64B0C030690070676442C211
:20051C0001C86A6452C211C06A6472C2E1C06A6402C001C16A6462C001C36A6422C101C127
:20053C006A6462C301C16A6402C301C16A645382B16400708180111E5C4150B054B000712B
:20055C00408040225D4154A064B0F1800122514500700022514160B04E61000000000000AA
:20057C000000000000000000067305720B720E7250B00071818060B050A09280F0EFF1928C
:20059C0002936A6741228C458080F1C11004301601110114016CB561B661B761B861B9618D
:2005BC00BA61BB61BD61BF61C161C36126632D63F0C002043231412A121432160111211412
:2005DC00016CDA61C561E061C761CB61B561B561B561F461C561FA61C761CB61B561B56104
:2005FC00B561F461C561FA61C761CB61B561B561B561E761C561ED61C761CB61B561B56121
:20061C00B561CF61CF61CF61CF61CF61CF61C064CF61F964CF610665CF613265CF6174676A
:20063C00CF611166CF61C0644E65F964CF61066511663265CF618280E0DFF2926A67B0B044
:20065C00D661B1B00673057230B06C61D0CF6A6784C203C0C0C37C64207851788278E378B7
:20067C001579B6780062C0CF6A6784C203C0C0C37C64307861789278F3781579C678006250
:20069C00B0CF6A6784C203C0C0C37C6440787178A27803791579D678109221923292439281
:2006BC005492659256911FC0FF914039F00601101031101400927067CF61E3B054A0F08076
:2006DC0050221A4640800022BE461262E3A000C86091598150B0918041228E46A0CF6A6734
:2006FC0012828231823942398B641282F2062F101F312F141682D622334640C1346200C5AF
:20071C0020140D6F6D39DE10F4C34E0482C082312E006D39A2C082312D001A828A39FA0606
:20073C002082803180390BC00B18BC10AC18038239149B141082F0060110103110145181C2
:20075C0010140C14C622C94631D0C1266462021011C0013010C00118021882312100C126C2
:20077C00919103B013B063B053B041800122BE46B481C491D581B51C774E95186591F0803E
:20079C00102269428C623D9110B13E9110B1E08000228146E6228142E0B0951865910F926B
:2007BC005981F914F0805022114210228C464D6390CF6A6763B052A03082F2C0200402107E
:2007DC0011C0013010C00118021882312100C1269191919113B003B063B053B064B054B055
:2007FC00007141800122BE4663B064B0F08050221142B181C191D1819118619131B0A462D0
:20081C002967E0A059810582591480C0007163B0BA6A6962E3A0018262818231823D80EF61
:20083C00F19202936A6703A0007037824739873930828039F006021011C0013010C0011849
:20085C00021882312100C126819102B012B030824039F006021011C0013010C001180218E9
:20087C0082312100C126919103B013B063B053B0007153A062B052B041800122BE46A4816E
:20089C00C491D581B51CFE4E95186591F0801022F0428C62B481C491D4814518751C084FEB
:2008BC00F0801022F0428C623D9110B13E9110B1E08000221247E6221243E0B065910F92DC
:2008DC005981F914F0805022114210228C4630632967E0A0598105825914F0C0007162B038
:2008FC00226BF062A2808B64CF6112824239F2068B6050B00071CF6170CF6A674082418096
:20091C000122BE46A481C491D58195186591F18011228C46336B41800122BE46A481C491AB
:20093C00D581C51C1C4B95186591F08010223F438C6260CF6A67408241800122BE46B48169
:20095C00C491D58195186591F18011228C46506B41800122BE46B481C491D581C51CB44A55
:20097C0095186591F08010225C438C62E092D08200226B47C0B20070A080F022874330B033
:20099C0002C1623101C0A080001E8043F022814380F86031603981632010101A136F236E5A
:2009BC0011161216826B00702DE9F84FDFF81885DFF8181588F80000002008600921DFF891
:2009DC00100501700D2141804FF408718180DFF80405DFF8041501608A7EDFF80005027042
:2009FC00FF2ACB7E437008BFFF2B0D7F85704E7FC6708F7F0771C97F417115D1FF2D08BFE8
:200A1C00FF2E11D1FF2F08BFFF290DD1DFF8D0140A7802704A7842708A788270CA78C27025
:200A3C000A79027149794171DFF8B81402780A70FF2542784A7082788A70C278CA7002791E
:200A5C000A714079DFF8A02448710021DFF89C04057045708570C570057145711180DFF872
:200A7C009004DFF89014466BDFF88C247078087031781170B078DFF884140870716908791F
:200A9C00DFF87C14421E0A70F078DFF878140870B069DFF87414086008B912F0F7FEF069C5
:200ABC00DFF86844206008B912F0F0FE2068DFF8607401688847216851F8042F38469047A1
:200ADC00DFF85004DFF850143862DFF850047862306A086008B912F0D9FE706ADFF8401454
:200AFC00086008B912F0D2FEDFF838B4DFF838649BF8040013F026FA306008B900F045B9B0
:200B1C009BF80500DFF8247413F01CFA386008B9306837E19BF80600DFF8144413F012FAB9
:200B3C00206020B9306813F015FA38682AE19BF80700DFF8009413F005FAC9F8000038B932
:200B5C00306813F007FA386813F004FA206819E1DFF8A4130A789BF80000DFF8DCA3921C13
:200B7C00504380B213F0EEF9CAF8080058B9306813F0F0F9386813F0EDF9206813F0EAF954
:200B9C00D9F80000FEE0DC480078002800F00281BBF80210DFF8A4B3484380B213F0D2F9D5
:200BBC00CBF8040078B9306813F0D4F9386813F0D1F9206813F0CEF9D9F8000013F0CAF963
:200BDC00DAF80800DEE0CC48007813F0BBF9DC49086080B9306813F0BDF9386813F0BAF9B1
:200BFC00D9F8000013F0B6F9DAF8080013F0B2F9DBF80400C6E0C04800781C21484313F006
:200C1C00A1F9D04A1060B0B9306813F0A3F9386813F0A0F9206813F09DF9D9F8000013F0C3
:200C3C0099F9DAF8080013F095F9DBF8040013F091F9C348A5E0B0480078400113F082F978
:200C5C00C1490860D8B9306813F084F9386813F081F9206813F07EF9D9F8000013F07AF9F7
:200C7C00DAF8080013F076F9DBF8040013F072F9B348006813F06EF9B249086882E09E4847
:200C9C000078000113F05EF9B0490860F0B9306813F060F9386813F05DF9206813F05AF990
:200CBC00D9F8000013F056F9DAF8080013F052F9DBF8040013F04EF9A148006813F04AF915
:200CDC00A049086813F046F99F485AE08A480078000113F037F99E49086018BB306813F001
:200CFC0039F9386813F036F9206813F033F9D9F8000013F02FF9DAF8080013F02BF9DBF84D
:200D1C00040013F027F98E48006813F023F98D49086813F01FF98C48006813F01BF98B49AB
:200D3C0008682FE0744800783021484313F00AF9884A106070BB306813F00CF9386813F052
:200D5C0009F9206813F006F9D9F8000013F002F9DAF8080013F0FEF8DBF8040013F0FAF87D
:200D7C007748006813F0F6F87649086813F0F2F87548006813F0EEF87449086813F0EAF803
:200D9C007348006813F0E6F8002012F07FFD4FF4804192E031680120087130680573316843
:200DBC004D73306885733168CD7330680574002031684D743268D072A0223168487103214F
:200DDC003068C28001720720316848720020326890722821306841820121C17600203168BE
:200DFC004877326882F85E00012031680877326882F85D00396808713868057339684D7369
:200E1C00386885733968CD7338680574002039684D743A68D072396848713A6890724FF47D
:200E3C00207039680022C88008818A7401213A68D17421680D732268557321688D732268FD
:200E5C00D57321680D740021226855742368D9720121226811710021236859712168C88065
:200E7C000881002088722168887405202268D0743948016888472A490A6805461068804713
:200E9C0027490A6852F8043F0020984718481D4BC16818780A88314902430A802846304985
:200EBC000A6890470C212F4800F05EF80F4800F05FF800F061F84FF4005198F80000BDE833
:200EDC00F44F0AF0D7B900BF6E4F0020044F0020604E0020084F0020B63F00502C4E0020F6
:200EFC00E81200503C4E00200C4F0020344E0020545A01006D4F00207B4F00206B4F002076
:200F1C00724F00206C4F0020F04E0020F44E00207C4B0020613F0100F84E0020713F01009A
:200F3C00FC4E0020A0160020104F002028220020184F00202C220020FC210020684E002064
:200F5C00004F00202022002024220020884E00208C4E0020904E0020B4100020544F0020A9
:200F7C00B8100020F84D0020DFF800F0E5710110DFF800F01D6E0110DFF800F04D710110E1
:200F9C00B0B5174C241D20680004070C23D01248006800688047114991F90720824205DDF8
:200FBC0010F1800FB8BF6FF07F00C8718D88BD4210D80A68D4F8D40F801A801C1F2888BF16
:200FDC001F207F1B4008C7404FF6FF70EF19B84238BF071C8F80B0BDEC0100101022002032
:040FFC003010094068
:20100000B41200001810000015AB0110FDB301106DC00110FDAE011099B5011000000000F7
:08102000000000002D0000009B
:20102800B01200003C100000B1C00110A9BF011067C0011069B80110000000000000000035
:041048003000000074
:20104C00B012000060100000BDC00110CDB30110D9BD01106DB3011000000000000000005B
:04106C00310000004F
:2010700000000000C016002004000000000000000000000020000000E8C901103000000054
:2010900028100000C81600200400000000000000000000000C000000D8CA0110180000002F
:2010B0004C100000D016002004000000000000000000000024000000F0CA011018000000B3
:2010D00000000000D81600200400000000000000000000001000000018CA01102C000000BF
:2010F00000100000E8160020040000000000000000000000200000006CCA01102400000023
:20111000FFFFFFFFF01600200400000000000000000000002800000090CA011024000000E2
:20113000FFFFFFFFF81600200400000000000000000000001400000008CB01101800000061
:20115000FFFFFFFF0017002004000000000000000000000058000000B4C90110340000002E
:20117000FFFFFFFF081700200400000000000000000000001000000020CB011018000000FC
:20119000FFFFFFFF101700200400000000000000000000001C000000B4CA01102400000029
:2011B000FFFFFFFF181700200400000000000000000000003800000044CA01102800000051
:2011D000FFFFFFFF201700200400000000000000000000005400000078C901103C000000C6
:0811F00001000000305A01006B
:0411F80001000000F2
:0411FC0000000E00E1
:0412000000000F00DB
:0412040032000000B4
:0412080001000000E1
:04120C003015002079
:0412100000020000D8
:0412140000000000D6
:0412180001C90110F7
:04121C0000000000CE
:0412200000000000CA
:0412240008000000BE
:0412280000002200A0
:04122C0094130020F7
:0412300000000000BA
:0412340000000000B6
:0412380008000000AA
:04123C00F01400208A
:0412400000000000AA
:0412440000000000A6
:04124800080000009A
:04124C00000000009E
:04125000000000009A
:041254000000000096
:041258000000000092
:04125C00010000008D
:04126000FC1300205B
:041264000600000080
:041268000100000081
:04126C00C01200208C
:04127000000000007A
:041274000000000076
:041278000002000070
:04127C00000000006E
:02128000290043
:02128200010069
:02128400250043
:02128600300036
:02128800310033
:02128A002D0035
:02128C0001005F
:01128E00015E
:0812900003000000B459010045
:0812980000000000000000004E
:0412A0000000010049
:0412A4000000030043
:0412A80013C401105A
:0412AC00EF3C010012
:0412B000B812000070
:0412B400B81200006C
:0412B8000000000032
:0412BC0058160020A0
:0412C0002F3E0100BC
:0412C4002000000006
:0412C80010590100B8
:0412CC006457010062
:0412D00029C101101F
:0412D400AB0E01005C
:0412D8009F12010060
:0412DC00A1C7011095
:0412E000A3C701108F
:0412E4000000000006
:0412E8003759010071
:0412EC001C5601008B
:0412F000345601006F
:0412F400045601009B
:0212F8000200F2
:0212FA000900E9
:0212FC000100EF
:0212FE000000EE
:0113000001EB
:04130400BD3D0100EA
:04130800E9200100D7
:04130C00B1320100F9
:04131000992401001B
:04131400FF240100B1
:041318001D0E0100A5
:04131C00E9E50000FF
:04132000FD3F01008C
:0413240021FB0000A9
:0413280015C70110D4
:04132C0025C70110C0
:201330002DE9F04F0C4685B0834614F8010BDFF870278DF8000018280BF1FD010BF1E708C8
:201350000BF166090BF20D1A0BF5B0760BF59C750BF5C67700F29183DFE810F019006F0025
:201370005F0191008F038F03FA00690311012301FE000D0133018F038F037C018F036101D7
:2013900055017503D602D60227028F03740214F8010B8BF88600022221460BF1880013F05B
:2013B000D7FA014602220BF18A0013F0D1FA014602220BF18C0013F0CBFA014602220BF16B
:2013D0008E0013F0C5FA04469BF8860040008BF886000BF1860102224888400048800BF186
:2013F00086008188490081800BF1860108890001088121460BF1840013F0AAFAB9F81E10F9
:20141000BBF80800091A89B247F6FF7291422ADA0BF18601C8888A88401C520050430A8965
:20143000904203D33B208AF80B0039E2012089F81C000020ABF81E001EE0052221460BF1CA
:20145000610013F085FA014602220BF1920013F07FFA0BF1860047F6FF728189BBF808002F
:20147000091A89B2914280F218820BF18600012181720021ABF81E10012028700CE398F85E
:201490001600C1070AD41A2198F80D0088F80E10012808BF0D213FD00D21CDE1002089F860
:2014B000000089F806000822012088F8110021460BF1B00013F04CFA014602220BF1B8003E
:2014D00013F046FA0BF1A80601460822304613F03FFA04460821304613F036FA0BF19C0632
:2014F00004222146304613F033FA0421304613F02BFA0BF1A00013F023FA0BF1980013F093
:201510001BFADFF8A005018841F08001018098F80D00012806D10421584605B0BDE8F04F75
:2015300010F052BC99F81000012804BF99F811100F290BD158460EF04FFC042158460DF093
:20155000F5FC0F2089F81A00FD2175E1042173E1012088F80F009FE2002089F8000089F880
:20157000060088F800000B21012088F80D00002088F8010060E1012088F810008CE20020DA
:2015900002F10906235C365C33432354561C365C33400B54401C0828F2DB58460DF0C4FFAE
:2015B00070E2002002F10905235C2D5C2B432354551C2D5C2B400B54401C0828F2DB02207C
:2015D00048E299F8060008B93D2167E19AF800000128D3D014F8011B8AF80310022221462D
:2015F0000BF5897013F0B4F9014602220BF58A7013F0AEF901208AF800009AF802000028C4
:201610001BD10C2118E198F81600C10601D41221D1E058460FF04CF834E221783EE120783B
:2016300030706078707099F8100001280CD199F811100F2902D0162902D02DE268732BE2D7
:20165000387B40F0010016E205B0BDE8F04F002012F022B998F81600810707D410F0110FDF
:2016700008BF0F2000F009821A2252E02078617800EB01202882E178A07800EB01206882ED
:201690006179207900EB0120A882E179A07900EB0120E882207A2876A17A607A00EB01206F
:2016B0006883217BE07A00EB0120A883A17B607B00EB0120E883217CE07B00EB01202884E4
:2016D000A17C607C00EB01206884217DE07C00EB0120A884A17D607D00EB0120E8840BF564
:2016F000AA700490688B0390287E0290BBF808000190E88A0090AB8A6A8A298A58460CF0AA
:20171000BDFE68B198F81600410701D40F2152E01E22584605B0BDE8F04F0F2110F070BBEE
:20173000688A0BF186018880A88AC880E88A088102208BF8860000204880BBF83400C01DD0
:20175000A9F81E008888BBF83210884201BF0BF18600C188BBF83400814206D10BF186005D
:201770000189BBF8360081421DD099F81000012804BF99F811100F2907D099F8150020B171
:201790000F2189F81A10FE2156E0FC2158460DF0CDFBE88A0090AB8A6A8A298A9BF8060012
:2017B00013F0C6F878E1102146E098F8170010F0090F03D116218AF80C1060E1607821788E
:2017D00000F00700014021702078797B0140F97211D0481E01420CD0490704D5B87B10B175
:2017F0000421F97205E0F97A022001421AD14008FBD1F87A08B9B97AF972F87A042803D14A
:2018100058460EF0CCFFB083F87A13F08DF83871B28BB97B01230FF0EBFB0146308B884235
:2018300002D207E0F872E4E7B28BB97B387901230FF0DEFB78801721584605B0BDE8F04F23
:201850000DF074BB60782178814207D100F007000840207033D0421E10420FD01E22182164
:20187000584610F0CDFA9BF80610002300221E200AF09EFC387B40F04000FCE0F87247F68D
:20189000FF72A078E17800EB012038813989BBF80800091A89B2914206DB28218AF80B101C
:2018B00001208AF80A00F7E00120B871F87A042803D158460EF073FFB083F87A0BE099F8A9
:2018D0001100162806D1BA7A9BF80610134600200AF06EFCB87A3871B28BB97B38790123F7
:2018F0000FF086FB0146308B884205D3B28BB97B387901230FF07CFB78800121387B40F0FB
:20191000400038732970C7E02078617800EB01207082E178A07800EB0120F08261792079BB
:2019300000EB01203082E179A07900EB0120B082B18AF089884288BF0846B97A042905D1DF
:2019500040F691229042B8BF4FF42960F28BF0839042B87A14BF01240024042803D15846CB
:201970000EF01DFF04E0B089F18A884288BF0846B28BB083904214BF012100210C433089E6
:20199000718A328B884288BF0846904214BF012100210C433083B28BB97B387901230FF0F1
:2019B00027FB0146308B884205D3B28BB97B387901230FF01DFB78807189308A728B814288
:2019D00088BF0146718391429BF8063014BF0120002004438A4234490A6802EB4311728B85
:2019F0008041121DC00F0A7610B1584610F062FC9DF80000142810D144B1F08B0090738B2B
:201A1000B28B318B9BF8060012F08AFF584605B0BDE8F04F15210BF09FBE1CB1387840F027
:201A300008003870397841F02001397034E020780E280ED00F2809D0122804D014280CD044
:201A5000162812D028E00020287225E00120287322E0032088F815001EE0387840F0020039
:201A7000387040F01000387016E0387B40F00200387340F0100038730EE08AF80C0058463B
:201A90000EF0DEFA40B905B0BDE8F04F074800784FF4804109F0F4BB05B0BDE8F08F00BFC3
:201AB000B8210020524F0020242200206E4F00202DE9F04FCD4C04F118012046ADF1340D58
:201AD0000EF0B6FC00264FF6FF70012132466670CF4F2082134604F1A400009139460EF03C
:201AF000F7FC0221324604F1C8000091134639460EF0EEFC0425324604F1EC0039460095A4
:201B100013460EF0E5FC04F14409AA4610224846314684F802A00CF0DBFA04F1540B10229F
:201B3000584631460CF0D4FA04F11C08C8F8006004F10A073E70E671267207206072CDF81C
:201B50000090DFF80093022210200346494606F0BBFC102003224946CDF800B0034606F00A
:201B7000B3FC1020524653464946CDF8008006F0ABFC4FF0080B4FF0030907F12A0007907E
:201B900007F17900089007F11E00099007F15A000A9024370B9717E06078A28FE18FB4F878
:201BB0004050B4F8423006280ED1ADF80A20ADF80C10ADF80E50BA48ADF8103012F074FB6F
:201BD000012002A90BF040FDA069B44A31464FF0FF3312F0A1FE071CF6D0059606A80DF131
:201BF0001A0105AA10F06AFC002840F0BF81BDF818102078102940F0B5819DF81A10884270
:201C100040F0B081059D29884FF6FF728A4200F09E812B78A23B00F081812E3B40F0A28141
:201C3000A978B046002900F03D81891E00F00C81491E012940F2DC80891E00F09C80491E49
:201C50006FD0491E5CD0083900F05881891E40F05B8194F83A30A888052BADF8080047D0CB
:201C700001208DF812008E4812F01EFB94F83A0001281ED004281CD003280DD002280BD0A9
:201C90000598C188ADF80A100189ADF80C104189ADF80E10818927E0A08FE58FADF80A0054
:201CB000B4F84030ADF80C50B4F84210ADF80E301AE0A08FE9888842D8BF081CADF80A0048
:201CD0002989E08F8842D8BF081CADF80C006989B4F840008842D8BF081CADF80E00A98955
:201CF000B4F84200884200DC0846ADF8100001E08DF81260A949102002AA06F0E5FB03E1DD
:201D1000A74812F0D1FA6B78002B40F0FD80E88860822889A0826889E082614812F0E0F841
:201D3000F2E0AA88B549102006F0CEFB0798414606220CF0CDF96682A682E682A879207366
:201D5000574812F0B1FA964812F0AEFA4FF001084FF6FF702379208253B9A879082812BF37
:201D700084F801A005206070404612F0E9F8CBE084F80190C8E06B787BBB291D07980A6808
:201D90000260898881800623637068892082E8896082288AA082688AE082E878E07294F877
:201DB0003A00012818BF02280BD19A4910201F2206F08AFB4FF47A7180B2414338480FF0A1
:201DD00077FF68895346009091490193EA7810202D1D2B4606F078FB99E06878312840F05D
:201DF0008A80E67084F801A091E0C046A00500206B78002B7FD1A878E1896278032814D049
:201E1000E078257931B9012814BF2671E67007E0513F0100054303D07F480FF049FF62786E
:201E3000072ADFD10620607071E0062A07D0E578002D08BF84F8019069D00220F3E70720A9
:201E5000F1E7C046773601006B78002B53D1EB78617893B902291DD007291BD0062902D1F7
:201E70002079012816D1032914D06B4812F038F880B9012012F064F80CE010F0E9FD0246E2
:201E9000A07962490090089843460190102006F01BFB68706D78002D2DD135E00700008064
:201EB000680600206B7833BB5C485749009002221020034606F008FB59484A4652490090ED
:201ED0001020034606F000FBED1C099829680160A988012381802078637010F0B9FD02462D
:201EF00001230A9D6079494900901020019506F0EBFAC0B258B184F801B008E0AA8841491F
:201F10001020052306F0E0FAB8F1010F2AD1256A45B3296831B36078884723E06879132813
:201F300020D12889012808D1607B022805D11C4812F0BAF910F0F4FA14E036491020052241
:201F500006F0C2FA81B216480FF0B2FE0AE06888C00B07D333482C4952465346009010201F
:201F700006F0B2FA059808B112F05DF92579E078790830D355EA00032DD0204600788DB924
:201F9000E179257A8DF808100B9A8DF8095013680DF10A052B609288AA8005E005160110B0
:201FB0008C0600208DF80890617A8DF81010A17A8DF8111010F04CFD1149024602AB102039
:201FD00006F082FA38B1256A84F801B01DB1296809B158468847B80803D3134930460BF0F1
:201FF00033FBF808FFF4F0AD607B401E3FF4D4AD401E7FF4E9AD10F093FAE5E5A9000100BE
:2020100059440110C117011099A0000009450110A99C0000F584011044060020E40500203F
:20203000F4050020BC050020DA0500202DE9F84F012010F08DF901280ED1DFF8F8743968A7
:202050000020487138680EF0F5FF04F061FE040003D1812012F05CFC68E201206071DFF8CC
:20207000D854DFF8D8044178491C41703968A07981F8A00040200BF077FE206028790128B5
:202090001CBF002011F008FCE8682168DFF8B05400F5B060C860286801680A79032A1CBFCB
:2020B000002011F0F9FB2868DFF898840168DFF898B401F10809062299F80000C0F38010ED
:2020D00084F82E0109F1020104F5947011F050FD042209F10E0104F1240011F049FDD8F89E
:2020F0000000A67900F10C03042209F10E0103EB461011F03DFDD8F80000A37900EB4310D9
:20211000032209F11201103011F032FD04F12C0699F81500B070022209F1160104F13000C6
:2021300011F026FD022209F1180104F1320011F01FFD022209F11A0104F1340011F018FD78
:2021500030896084022209F11C0104F1360011F00FFDB078F18872894000B0704900B088E2
:2021700040001201B080F180728189B2638C5B1C4800434392B2934200D231B99BF8000091
:20219000802109F07DF83B21FEE004F12E01204611F05EF90520A081204611F029FB05220C
:2021B00009F11E0104F1610011F0E2FC99F823004009307012F0A8FB60823A68E34F518AEE
:2021D000401A04F59771888104F1610199F82300DFF87C9300F01F00F07320460FF036F895
:2021F00029680A68002010711C25A1793868694341F6210242520022A17969430144001D4C
:202210004A80A1796943425099F80200410609D5D049088841F20A4290420CBFCE48CF48E2
:20223000C4F89C012046D4F89C1188473968A37901F10E026B43D054A17938686943084444
:202250000021C173C648017881B1B08870B9002171730120208160812046D4F89C118847A9
:202270003968A37901F10E026B43D0543868A27900F10E016A43885C707394F8960108B9AA
:2022900011F00AFBA1793868DFF8D8A26943084494F896114A1E02740023A179386869438B
:2022B000084400214174A279396801F112006A4301F1140C8352A279D8F8000000EB42136D
:2022D0006A434CF80230A2796A431144A64A8A61DAF814100B78DA074CBF4FF0100C4FF0D4
:2022F000000C99074CBF202100215A074CBF402200221B0700F10803A07941EA0C014CBF4B
:202310004FF0800E4FF0000E0A4340014EEA020242F00F021A54D8F80000A17900EB4110F2
:202330000B224272D8F80010A07901EB401104228A728E4A1378D8F80000A179012B00EBF0
:20235000411002D10121C17203E0DAF828104A78C272D8F80000A17900EB41101F22027632
:20237000D8F80010A07901EB401100224A76A07909F0D4FBA279D8F8001052018850A27913
:202390005301C85820B90721204610F0DFFFCDE07748016801EB021012F0B2FA744AA0791C
:2023B0001368D8F8001003EB00130A1D40011350081DA27952018058F063A079400109586D
:2023D000716404219BF8000008F05AFF644BB2881978901C11B10AB9F088801C618A94F8D9
:2023F00006B041434FF4C87205FB0BFBB1FBF2F1491CA061616140F6C41C23683A68CDF851
:2024100000B002F1080ED3F80CB00CFB00B0411A0098A1F5A8614EF8001002F10800A179B8
:2024300069434058986002F10C01A07968430C32095C01F0EF011154A0793968684301F14C
:202450000C020C31125C02F07F020A54A0793968684301F10C020C31125C02F0F00242F0BC
:2024700002020A54A179386869430844417B01F0F00141F0010141733868A27900F10801FE
:202490006A438858216808616369D8F80000A17996F802E05B0000F1140249010CFB0E3393
:2024B00003F5F6635350A17900EB4110C27C02F0F00242F00402C274D8F80010A079DAF867
:2024D000303001EB4012F0880CFB00F61868301AA0F51670D061A27901EB4210C17E01F03A
:2024F000F00141F00401C176A17938684D4321684019486099F80100810614D504F5977197
:20251000488F1B2804BF888F1B2808D1C88FB0F5A47F04BFB4F86E11B1F5A47F03D01421BD
:2025300020460CF003FD134907200870BDE8F14F01F0CEBD104F0020B44D0020684E002057
:20255000F44B0020242200206E4F002020220020B8210020504F0020D7FB00009D0301003C
:20257000784E0020545A01005C4D0020734F00208C4E00206F4F00202DE9F843040014D1F9
:20259000002011F089F910E020460DF059FD012808D065E08A0740F1548101F0FD010170A2
:2025B0000020B07120460DF017FC04F16605687D002855D0697CDFF8A494022904F1EC07BB
:2025D00004F59E7804F5B07604F5C67035D0042949D005295CD0062900F08A800729D3D0ED
:2025F000092900F0EC800B2900F0C1800C2900F008810D2900F0D0800E2900F0EA800F29EB
:2026100000F02881102900F04281112900F05C81122900F00E81142900F08781162900F000
:202630005A81172900F07581FC2919D0FD2900F09581FE2900F09B81A2E7297C012909D1EA
:2026500099F80300002815D01621204610F07EFE012006E020460DF0E8F82874E88A2883AD
:202670000020BDE8F283297C012940F0948199F80200002800F0E580FC2120460FF0A4FBCB
:20269000A07904F1B80204F1B00112F035F98CE7297C01290FD199F8020020B184F89410E6
:2026B000002038607860B87A012868D1062120460FF08AFB79E704F1E7063078012809D1E8
:2026D00020460FF081FA0128CAD10020B87201202874C5E770780028C2D004F1C70204F13E
:2026F000A00104F1D70012F003F9012030705CE7297C012940F0538199F8020000283ED0BF
:20271000618CE18320460DF067FB0120287020460EF05AFD0120A871397A787C012900F024
:2027300010000FD148B1002088F80500D8F8001098F8060049080CF0FDFCA079002112F003
:20275000D3F80EE040B1D8F80020C54804F5A1735208214611F0EEFCA0790122002112F0AA
:20277000BFF8002038723873F872B8721DE7287C012805D1F97A012908BFFC2197D060E0BA
:2027900020460CF007FC0128A3D10020F87284F894000120287408E7297C012940F003815E
:2027B00099F80200002809D0002184F894100120287020460EF008FD0120A87188E0297CCB
:2027D000012940F0F48099F80200D0B3618CE183E8E6287C012840F0EE80387C022804F1A8
:2027F000FD0204D1A179002012F076F8DAE6032840F0EA80A1791A2012F06EF8002038743E
:20281000D0E6287C012804F20D1140F0E8800B78012B04F5897240F0E8804878012807D17D
:202830005388009300201388CA78A17912F050F8B8E6297C012940F0E78099F802000028FA
:20285000F6D1298B481E288380B200287FF408AF2221FAE6287C012840F0DA8098F8091035
:20287000012902D130780F281BE098F80800012826D1002188F80810288D000900901A2078
:20289000AA8CEB8CA179520812F01EF88AE6287C012840F0C18098F80910012910D13078E5
:2028B00010281CBF002010F0F7FF002088F80900288D00090090AA8CEB8CA1797078E2E770
:2028D000287F0028E2D1BCE7297C012940F0A88099F80300F5E7297C012940F0A580017B8C
:2028F0004A061DD4CA0709D501F0FE0101730023A1797078002209F05BFC53E68A0740F1E2
:20291000988001F0FD0101730023A17900221A20F1E7297C012940F09980027B510690D56A
:20293000017B01F0BF0101733CE6297C012940F08F8001788A067FF52DAE01F0DF010A077C
:2029500001700AD501F0F7010170F08B0090738BB28B318BA07911F0E3FF21E6A97E20462B
:202970000FF032FA15E7002010F096FF78E6A87E0F28F8D1FC2120460FF026FAB8F8120083
:202990000090B8F81030B8F80E20B8F80C10A07911F0CEFF64E620460AF022F95DE62046A8
:2029B0000DF0F8FB59E620460EF012FE55E620460CF0BAFD51E620460CF0DCF82874E88A95
:2029D0002883012038744BE6288B401E288380B20028F8D1A179222011F07EFF38E7012045
:2029F000887020460BF010FD37E6288B401E288380B20028E7D15088009022201388CA78EF
:202A1000A17911F065FF23E720460DF029FE24E6204609F01DFC20E6204609F069FC1CE645
:202A300020460CF0A3FE18E61621204609F0D2F913E6288B401E288380B20028C3D1A17967
:202A500000230022222009F0B3FB01E71721ECE7142120460AF080FEFFE500BF5C4D0020C6
:202A7000A5E300002DE9F04FADF1240D00F06EFCA64CDFF89CA2DFF89C92A74EE068A74A06
:202A900000214FF0FF3311F047FF5FEA000BF5D0002001900DF11A0101AA02A80FF00EFD0B
:202AB000002840F0C480BDF8081020780127102940F0B8809DF81A10884240F0B380019DB2
:202AD00029884FF6FF728A4279D02B78913B2DD01F3B40F0A7806978162910D02A79A068A2
:202AF00031787E2A08D07F2A1AD12A89A3A30092002210F039F913E02A7AA4A3F7E70FF06F
:202B1000A7FF03463846A54900906A88102005F0DBFC28B938460BF003FC0027656181E025
:202B3000297905F1080011F0CBFE7BE068780E3823D0801E3ED02E3874D1A8780C2871D1BA
:202B5000EB78A1683078ABB9401CC2B2BFA308461146002210F008F9E879012814BFC0A036
:202B7000C1A00090A1683078C1A3801CC2B20846114654E0401CC2A3F8E7A88842F203014E
:202B900081424FD1A9680D78002D4BD1491C0DF10A000A68496802600DF10A054160287823
:202BB000D0490DF10A0200F0FD002870102005F08BFC37E00820002104F042FC32E068881D
:202BD00040082FD365696DB3607805F10803401C6070C34900936A882B79102005F074FCDE
:202BF0005FFA80F8B8F1160F12D02078B8F1040F0ED065690FF02CFF034600206749009071
:202C10006A88102005F060FC40460BF089FB09E0607800903178A0689EA3491CC9B20022E7
:202C300010F0A2F8019810B10FB111F0FCFA5FEADB70C0F0808079E02069054611F03CFE2D
:202C5000854208BF002702D087680FF0B1FA381CB8466BD00188491E62D0491E35D0891E82
:202C700002D00C394ED05EE0807871787268030919D2400957D313790846834211D0FF2805
:202C900051D002EBC000C7682FB902EBC10210690FF006FA47E002EBC102126908469047A0
:202CB00041E09068F4E71079884207D0FF2909D0481CC0B20FF0CEFBFF2802D100200FF02E
:202CD000C9FB707007F068F82DE083783578A7686D1C43B19B1E26D102200DF11B010EF0BE
:202CF000CBFF71A305E000200DF11B010EF0C4FF70A39DF81B00E9B200220090384610F078
:202D100033F810E080780AF04BFB0CE0080200203416002048150020C41500200D0000C08D
:202D3000807802F0AFFF40460FF042FA206911F0BFFD002880D05FEA5B0006D36B4811F03B
:202D5000B1FA022007A90EF097FF5FEADB00FFF495AE674811F0A6FA99F8000090F0FF0197
:202D700080F0FF0089F80000D9F8040018D0FF2923D1D9F810000EF0ABFC1EE04D545520E0
:202D900053697A653A20256400C046C046432056696F6C617465643A202564001D3E0100BF
:202DB00000210DF0EBFFD9F8080000210DF0E6FFD9F80C0000210DF0E1FF10F001FE0146FE
:202DD000DAF80400AAF8001011F0DCF9CAF80800BAF80000A0F209300FF022FE3EA20CCA69
:202DF00006F0A8F90BF04AFD3A490BF030F90FF03BF982B23C49AAF800200B680DF1120012
:202E10000360097901710025ADF8142004278DF816500DF112029DF8161012F8010B7F1EB7
:202E300080EA01008DF81600F5D1606A401C60620090A06809212A4621A30FF095FF032022
:202E500005210DF1120207F0C3FF17E65048592055706461746520436F6D706C65746500A7
:202E700032204D62707300C031204D62707300C043757272656E74205048593A2025730015
:202E9000504859204368616E6765206661696C75726500C05273702073656E642072657499
:202EB00072793A20256400C04368617220333A20256400C04368617220313A20256400C08E
:202ED00050485920707265666572656E63653A20256400C000401C4600000000006898402D
:202EF000DDFE001095B40010F758010080020020A40200202DE9F84FDFF82844A178FF29E5
:202F100004BF002010F0C8FCA07810F01DFF044604F1680604F5C9753168086804F190074D
:202F300010B10022E28310E0B17B002904BFB07E00280AD13978002904BF2878002804D1C6
:202F5000217F012904BF608CE0832189E08B4118491C6181204610F09BFA01281EBFDFF8F8
:202F7000C8030178012904D120890022401CE2836081B07E01280CD1B28B6189208911F08C
:202F900093FC30B121896289481C82422AD0B28B1FE0387801280CD17A886189208911F072
:202FB00083FC30B121896289481C82421AD07A880FE02878012815D16A886189208911F0D4
:202FD00073FC00281FBF2189481C6289824209D06A88824206D0501E608180B211F060FC6C
:202FF000401EE0832878012801BF69882089401C814207D16A792A71002028701346A1793D
:2030100009F0D6F804F59A71087920B120890021401CE183608104F12E07B07E012801BFD7
:20303000B08B2189491C884238D1608104F18601204610F00DFAB08C6189608400202077D8
:20305000E083E0894118A181B08B218911F028FC8046B988308C728C01FB0808F08C8A42FA
:2030700004BF3989884202BFB18CFB88994207D000090090B38CA1795208002011F024FC31
:20309000B07F3870708CB880B08CF880F08C3881204610F0ADFB0220B07601E0B7F80480C2
:2030B000E28BDFF88892501C00FB08F140F6C41808FB01F000902368D3F80CC06044DFF80F
:2030D00070C2D860DCF800E09A489EF800A003884FEA9A1ABAF1030F13D199F80FC05FEAE8
:2030F000CC7E48BF00230CD45B1C9BB2012B11BFB4F812C004F59A7CBCF806C00CF2DC5C6F
:2031100001E0B4F812C00CFB01FC4FF4C87EBCFBFEFCDFF824A20CF1010CC4F814C0038048
:2031300084F820204FF01C0BA379A1610BFB03F3DAF80010226801F1080001F1080CC058BF
:20315000D3681061A0790BFB00FE60691B1A4CF80E3001F10800A3790BFB03F3C0589060FC
:2031700001F10C02A0790BFB00F00C31125C02F0F00242F002020A54DAF80000A279811C83
:203190000BFB02F200208852287908B910F084FBDAF80000A27900F1100128790BFB02F2C0
:2031B00040088854A079DAF800100BFB00F00844002141742879042814D1A079DAF800101B
:2031D0000BFB00F001F110022B7A125C103142EA83020A54A179DAF800000BFB01F1084452
:2031F00020214174DAF80000A27900F112010BFB02F200238B525149A2790968520101F173
:203210001403D4F814C09B5801F1140E03EB4C034EF80230B27E022A0AD1A279520101F194
:2032300014033E789B5808FB063301F11406B35099F80F20D30749D5A2790BFB02F200F1B5
:20325000080300F108069B58A3F5A863B3500830A27923680BFB02F282589A600098121A4B
:203270001A6101F11402A079400101F11403125802F5F6621A502879042807D1A079400136
:2032900001F11402125802F5B0621A5001F11400A27952018058C4F8340101F11C03284A79
:2032B000B888166BA57908FB00F730686D01381AA0F516705851A37901EB431021490D78BF
:2032D000012D0EBF0122916A4A7819E02879A37904280CBF4FF44B604FF4E66001F11402D7
:2032F0005B01D258101ABA8808FB02F2A2F516729042D2D30821204610F028F801200FE080
:20331000C272A179DAF800000F4A0BFB01F10844216848600720107020460EF019FA002071
:20333000BDE8F28F684E0020784F00205C4D0020084F002048220020202200202422002008
:20335000545A0100734F00206F4F00202DE9F047D54C04F10C012046ADF1580D0DF068F8B8
:2033700004F138050021284611F096FA41F288320023CE49256104F17800012500950DF019
:20339000A7F8002001460CF0AFFAC94F1F220623A0603946102005F097F80020ADF82C00CC
:2033B00008268DF84A508046ADF82E6029468DF84B800DF14A02ADF832802820ADF830003A
:2033D0004FF47A70ADF8340040F2053001F000FC40F2063002210BAA01F0FAFB4FF4427068
:2033F0001E2104F1590201F0F3FB40F20730072104F1280201F0ECFB4FF4447029460DF163
:203410004B0201F0E5FB40F2113002210DF12E0201F0DEFB40F2123002210CAA01F0D8FBDF
:2034300040F2133002210DF1320201F0D1FB4FF4457002210DAA01F0CBFB04F144004246AB
:203450001523B6490090102005F03EF8394610200622A02305F038F8394610200722A023E0
:2034700005F032F8394610203246A02305F02CF8394610200922A02305F026F88DF84C5049
:203490008DF84D500AA80090CDF82880AA468DF84E804FF481620423A14D8DF84FA0102029
:2034B000294605F011F813A84FF48062009053462946102005F008F80DF14D0040F2024231
:2034D000009053462946102004F0FEFF0DF14E0040F20342009053462946102004F0F4FFB1
:2034F0000DF14F0040F20642009053462946102004F0EAFF8B4910204FF0FF3204F0E4FF05
:20351000894910204FF0FF3204F0DEFF1027DFF81C928748874A0097132349460190384691
:2035300004F0D2FF844E3078800010F0A7FE834D0146A96069B14FF6FF700EF005FE80495F
:20355000384605F11C02009011230191494604F0BBFF7C4908A80B790A6803714FF002090D
:203570000260FF2306A88DF850904A1D8DF8513013681279036001F10A0302711A6804A82E
:2035900002601979017108AA4046052107F020FC504614AA014607F01BFC51460DF15102B3
:2035B000484607F015FC06AA0320052107F010FC0420052104AA07F00BFC04F1200004F169
:2035D000300261496860384604F07EFF20780FF03FFA5E490246384604F076FF20780FF00B
:2035F00037FA5B490246384604F06EFF5949384604F06AFF58493846042204F065FF574D01
:2036100042A04FF6FF71286040460FF0F1F8A36853B1284605793DB1514A052111709360EF
:203630004146D1600EF03CFD4E49384604F04CFF4D4D6B782878ABB904F11C0129620FF01A
:2036500007FACDF80080024605F1540305F1440001904649029305F11C030393AB78384644
:2036700004F032FF424938460C2204F02DFF0AF0BDFA6FF07F400EF02BF804F19C05042014
:2036900032223C490090134628460CF021FF284610F008FE3078800010F0F0FD364D01467B
:2036B000696091B106E0C04608020020D13E0100BD8401104FF6FF700EF046FD2F4B05F112
:2036D0001C0005213A460FF07DF90DF13600414614220AF0FDFC05F108000DF13601142256
:2036F00008F0F4FE18342C600DF0F2FD04A810F03FFD032004A90DF00BFE214C606010B160
:2037100010F05EF9208016B0BDE8F087424C45205065726970686572616C00C0D1D500005B
:203730004549000091310100C1340100D529010090590100BC0B0020694F00206C0E0020F0
:203750009C590100E858010095360100518801103181011035CE0000F13A0100AC1400209A
:20377000C4150020C5AB0010A00500209711010081B30010C13E01005412002084590100AA
:20379000341600202DE9FE43BF4C0F460646F80B80F05081B80880F03D81E07ADFF8F492C3
:2037B000B90F80F0B680607A002840F096803809C0F09580A07A20B10020A07205200EF0FD
:2037D00045FD00254FF001086570284684F8078006F0DDFBAD4904F174002A4610F04CFDFE
:2037F000207901281AD16079C0B9DFF8A482D8F8000000284CD048460068006B80476169B7
:203810004346401A000BA0611968E2698018B0EBC11F98BFE0613BD9E56101E084F80480F7
:20383000DFF87482A8F115000068000A30D340F60900A08694F8410000F0F00040F0010045
:2038500084F84100E58694F8400000F0F00084F84000A56310F00AFD08F6FF7211686FF072
:20387000020321F00201116004F13401C8F8FB3F8A4AC8F8EB1F11688908FCD3C8F8FB3F19
:20389000D8F8FF1F41F00201C8F8FF1F11F000F865610DF0D7FF8248056002200EF0D6FC65
:2038B000112007F0ABFD307C10B90E2007F0A6FDE5712572A07818B906F1380010F0EAFC00
:2038D000784810F0A7FB78490878F8B10D7004F1D000042110F0E4FC18E0380914D2B80B63
:2038F000C0F0C98004F1240010F0D0FC061C08D0706830B17568F068B6F91C1000222023B2
:20391000A84727F40057B6E00020607227F00807B1E020B104200EF099FC0020E072B168E4
:20393000088840F602054FF0000885420AD0B0F5C15F07D00A8B4FF61F60104040F43470A5
:20395000088306E00A8A4FF61F60104040F4347008826069E0B1D9F8540001680420884701
:20397000B0B1D9F80000006B80476169814226BF401A401E401A000BF060708AF168401849
:2039900040F6C411F06081422CBFB0F5FA7FF16094F8410010F00F0F0BD1708CED1D85420B
:2039B00007D1B56930466FF4807142464FF00073A8473E4904F17400424610F05DFC607964
:2039D00058B10220ADF8000068460FF021FA84F80580BDF80800A4F8700001206070E0782C
:2039F000401CE07004F1200084F8068010F04EFC002808BF47F0020702D0192010F03AFC3A
:203A10007569414630464FF080630A46A84727F0005730E004F12C05284610F037FC06F01F
:203A3000AFFB284610F032FC27F0020708B147F0020720E010F01AFC014604F1280010F09D
:203A500025FC0646B569A80810D27EB125EA0500B061084610F01CFF706850B12A46F068DB
:203A7000B6F91C1075680023A84702E0084610F00FFF27F4804727B104F1D000394610F030
:203A90000FFCBDE8FE83C046E0080020B53101001C2200208C010010150004401010044038
:203AB0000000046089A2000018220020959A0000BB482DE9F84F0025BA4CB849056094F861
:203AD000E200002800F06581012800F02F81B64E02283CD0032840F05C8151F8250CD4F875
:203AF000B8100029A0F5C060C4F8D400B8BF49420028B8BF4042814226DA4FF08057D7F8B5
:203B1000A4014568B4F8BC0030214FF47F42082300903046A847D7F8A4014568B4F8C000D9
:203B300004214FF4F802122300903046A847D7F8A401B4F8D070456820214FF440620A2389
:203B500030460097A847012584F8D8501CE151F8258C10F077FA2F4600B901273946934F70
:203B700038680028FCD0B146012609F10409D9F82CA03E6009B110F06BFACAF30720C4F882
:203B9000BC0010F05FFAAA4600B9B2463B68002BFCD0D9F800B0BAF1000F3E6001D010F01B
:203BB00057FACBF38440C4F8C00010F04BFAAA4600B9B2463B68002BFCD0D9F81C90BAF1FE
:203BD000000F3E6001D010F043FAC9F38120C4F8D000B8F5C061C4F8B81000F09C8094F847
:203BF000D80068B9C4F8D410D4F8C000C4F8C800D4F8BC70C4F8C470D4F8D030C4F8CC30A0
:203C1000D4F8D410D4F8BC30002954BF02206FF0010004F1C802176801EB41014018411059
:203C300000EB917107EBA1001060D4F8C810C4F8C43000291CDD1E293CDDD4F8CC0030B92D
:203C50003429B4BF15391E21C4F8C81025E02A29BABFD4F8C8000B381E20C4F8C800D4F82D
:203C7000C4003F28B4BF401C3F20C4F8C4001FE0D4F8CC00032812D011F10B0FC6BFD4F84A
:203C9000C8000B30301CC4F8C800D4F8C4000028C4BF401E051CC4F8C450032508E011F1A5
:203CB000150FC6BFD4F8C8001530301CC4F8C800C4F8CC504FF08057D7F8A401B4F8C430A0
:203CD00030214FF47F424568374800930823A847D7F8A40104214FF400321123456832483D
:203CF0000096A847B4F8C860D7F8A40104214FF4F802122345682C480096A847D7F8A40136
:203D100020214FF440620A23B4F8CC60456826480096A84701E084F8D85040F2FF5040453D
:203D300002D8801C40452FD2082030E051F8251C1F4F4BF2F5204843060A3868C0F3814046
:203D500001280CD11B480068006880470DF05CFD10F084F93111C010484306EBE03694F850
:203D7000E50030B91448006820F07F408019460801E084F8E5501148310C06600127416094
:203D90000F4D8760287808B90B2000E0052084F8E40004F0D1FABDE8F88FC0462D400C4035
:203DB0002C500C40980F002000A00C4000800C40B43F0050EC010010102009403C600C400B
:203DD000465901002DE9F04F0D46E80789B00BD510F096F828B100218160AE48006800B10B
:203DF000804785F0010052E1A80710D5002006900021049000230290009005910393019141
:203E100001223C2010F040FD85F002003FE11E246807DFF88482A14F40F19B8000200790BE
:203E300082469F498878FF2804BF00200FF034FD386890F8A0000FF087FF06463868C07A15
:203E500096F82EB1022818BF032806F5947906D108F10D0010F014FD08B908F1070A494669
:203E7000584610F009FD88B33868807A002818BF012804D1414648460EF05FFD04E04A46D9
:203E9000594640460BF0F0F9FF283DD06043834608EB0B0406224946E01D0FF069FE18F83D
:203EB0000B0040F0020BE01D079006223868817E01F0010186F82E1104F10109386800F10F
:203ED000140106F594700FF053FE1DE0494658460FF0E4FEC0B14A46594640460BF0C4F985
:203EF000FF2811D04443444404F10D0010F0C8FC40B904F10D0010F0C3FC002804BF607F51
:203F1000012801D14BF0020B06F12C005B4601780691418909090591728C079904920122B1
:203F3000C088029140080390CDF804A0CDF800900020B17910F0A8FCD6F89C015949884238
:203F5000B0790CBF0021012109F06EFA85F004009DE0280610D50020069000210490002322
:203F70000290009005910393019101223B2010F08BFC85F080008AE0E8043CD508F10701EF
:203F900008F10D0010F074FC38684179012923D1017A012918BF04291ED1C17A022918BF4E
:203FB000032919D1817E00F1140240460BF05CF9FF2811D04443444404F10D0010F060FC8A
:203FD00050B9E11D04F10D0010F052FC38680622E11D14300FF0CCFD334934484A68007886
:203FF0004FF480510DF08CF810B18E2010F03CFC85F480504BE0A80505D510F023F82C49EA
:2040100001200860FEE7690504D506F0E0FE85F480603CE0680405D5812010F025FC85F411
:20403000804034E0A80431D5224C206810B100200FF032FC4FF0FF3020600BF067FB1E4C31
:20405000216851F8202F684690471C48C16A026B2468009101920021029100F134014A6872
:2040700009781368806A03938DF81010ADF812006B46D4F80080124A12491348C0471349E6
:20409000086003F0F1FE85F4005000E0002009B0BDE8F08F204F002058170020104F002083
:2040B000684E0020D7FB0000784E00206E4F0020FC002043044F0020F04E002058130020CA
:2040D0005C210020E415002088490020EC4E00202DE9F04FB64D686885B0019020B905B053
:2040F000BDE8F04F10F0BCBB0178DFF8C882B24EDFF8C892DFF8C8A201291CBF02290429EC
:2041100046F2A81741F64C5B05D0402918BF802900F09A8043E10FF0BFFF0028FAD0019886
:20413000007805F067FA0090446814B900200FF0B3FB9AF80100002860D002F0DDFA0FF018
:2041500003FE02900168009801914F680AF048FD022827D000990A78012ADBD1994B1968BB
:204170000A7A19F80230337018B910F075FB5844A0602069C17E01F0EF01C1762069C17E40
:2041900041F08001C1762069C17E01F0F00141F00201C1768C48B96841182069C1610121F6
:2041B0000098A0E001980178802913D10822874832700178012903D09AF80100012803DD8B
:2041D00078690121C17213E0D8F828107A690878D0720DE07D49072030700A787869012AF1
:2041F00002D10123C37203E0D8F828104A78C2720298817901988AF80210CBE00098002876
:2042100088D00199009A0078914205D101281CBF00200FF041FB15E0012840F0C080694843
:2042300001680A7A19F80200307010F015FB3918A06810F00DFB18B910F00EFB5844A060E7
:204250000120A8700098A5E09AF8010000287DD002F052FA0FF078FD04462068029047682B
:204270009AF802000FF070FD03900FF01BFF10F0070F3DD0A87805F0BDF9019041680198C1
:20429000009102990AF0ACFC022831D001990A78012A2AD14B4B19680A7A19F80230337052
:2042B00028B910F0D9FA83440098C0F808B000990869C17E01F0EF01C17600980069C17ECA
:2042D00041F08001C17600980069C17E01F0F00141F00201C176009AB9683B484118106948
:2042F000C16101210198A97054E000200FF0D4FA0398A04228D002980178802913D1082258
:20431000324832700178012903D09AF80100012803DD78690121C17213E0D8F828107A694B
:204330000878D0720DE02949072030700A787869012A02D10123C37203E0D8F828104A781E
:20435000C272A0798AF80200029823E00FF0AAFE10F0070F29D0A87805F04CF904462078ED
:20437000D4F80480012820D116490A68107A19F80010317010F070FA3918D8F8080010F013
:2043900067FA20B910F068FA5844C8F808000120A870204605B0BDE8F04F06F047BC05B027
:2043B000BDE8F04F00200FF077BA05B0BDE8F08FFC210020545A01006F4F0020289A011043
:2043D000684E0020104F0020F0D8FFFF734F00202DE9FE4F0F46994C0168E16241688068F6
:2043F000E0609748A16080479648E16A0160A168DFF870B24160E168DFF8648281609249D7
:20441000002FA246C16069D03D68E8788DF8080028798DF8090002A810F016FAA86808B1D7
:204430008A490160E86808B189490160894C2878207068786070A878BE68A0703178E170F7
:204450007368636072696261B168A160F168E160316921612E697B68A6621868A06168696C
:20447000E062A8692063287F84F834002A6AA263786886681EB900200FF00EFA00E0266232
:204490007868C06818B900200FF006FA00E060627868406818B900200FF0FEF900E0E061E2
:2044B0002869A062F86881680E6806B96B4E6A494FF001094E60C66881F801902EB9002039
:2044D0000FF0EAF9F868454601E045462E6000685C46FE68A0617068E06106E000200FF076
:2044F000DBF94FF001095C46454628685E494668621C04F114035020B04710B12868806853
:204510008047DAF808008047594F0026834669467E7056483E700422206130460EF018F878
:204530000098B0F5801F0CD020B90EF0C5FB05F01BFA08E00DF0ACF80FF024FC042078804E
:2045500001E00EF0B9FB4B4FB0462868C7F808808069A660804778604748468080F8009066
:2045700014200FF0F5FCFF211422A0620FF0A4FEE01CFF2102220FF09FFE14200FF0E8FC1B
:204590003E4908600868142231460FF095FE3046FCF710FA48460DF00FFF39480188FF292F
:2045B00006D1022101807822001D31460FF084FE032010F045F9042010F03EF9052010F0E0
:2045D00037F9062010F030F907200BF073FA2D4E0820307006F1400010F022F90BF0D8FC59
:2045F000363605200A2132460FF03DF838B14046C0F10901401C06F8011B0A28F8DB2F6807
:20461000214909200DF10A0201AB7D68087010204146A847A06ADAF80C10E2690A270A3090
:204630009DF80A307F1E00F8013BF9D1921E5846E261884702F0E2FFBDE8FE8FAC100020BF
:2046500041490010F844002068490100952B0100913A01005813002080160020F7F80000E5
:20467000301700205C14002021320100513B01000C130020F02100209C0500203C220020A3
:20469000D8110020EC0C0020532200202DE9F04F0546A64CA878216AADF11C0D801F00F0C1
:2046B0003E81C01E00F02981401E78D0401E56D0C01E4AD0401E40F03581207A617A0028B0
:2046D0003FD1607800283BD0A88810F0A5F8071C00F02881A87A40080AD3787940B1E968AC
:2046F000890A05D2B91D01AA07F01EFC0A2825D0207B022802D1A87A00091FD36078AE88C4
:204710007979C0B1607CB0B90120607405F10802304603F047FD002840F00481206A0028B0
:2047300000F000814368002B00F0FC80002130460A469847F6E00521304603E0032100E097
:204750000521A88810F064F8ECE0002900F0EA804B68002B00F0E6806A780221CBE00FF065
:20477000D7FB002800F0DE80276A0FB1386868B9286900280CBFE0690120698910F044F8B3
:20479000002800F0CF8068890121DBE7286900903C6869892A7B6B7BE81CA047C2E068781E
:2047B0004FF00008002840F09580A8794008C0F09180606A002840F08D8001A841460E227C
:2047D0000FF07AFDA88810F027F8061C00F0AA806869002859D081464146062209F1110025
:2047F0000FF0E1F8C24620B3484606220FF0DBF8D8B999F8100009F1110B474605907F1C69
:204810005846FFB28BF800700EF06CFA0A280BDA474B059A0101A1EB4001C9188879824225
:2048300002D1002FEBD100E01FB947464FF0010A6F61BAF1000F09D109F1110101A80622DA
:204850000FF096F999F810008DF80A00BAF1010F1BD06F69CFB1387C07F1110106228DF821
:204870000A0001A80FF084F906F10C00B11D06220FF07EF9B01D07F1110106220FF078F91B
:20489000387C40F00200707107E07079B11D06228DF80A0001A80FF06BF9A9799DF81120F8
:2048B000C1F3800010438DF81100080905D39DF8110040F008008DF8110001A8294602F064
:2048D0000FFB28B92078022106F0DAFC40462AE04FF015080FF016FC206A18B343680BB39B
:2048F000A8886A7801219847B8F1000F1AD0206A032142464368A8881BE7E878291D002218
:2049100007F012FB0A280DDA410001EB800005F10C0225300421C0B205F0B6FB02E0A88815
:204930000BF0BAFB012007B0BDE8F08FEC0C0020DE0D00207CB5A34D144602460026A2F518
:204950008062192A1BD8DFE812F031012A012201190111010C010401FD00F300E700DF00F2
:20497000D700C500B9001A001A00970081007A0065005C00520047003A00300025002828D3
:2049900080F29A80022940F0978021880FF038FF064614E1012940F0118121782846017580
:2049B0000121C1740FF0DAF909E1012940F00681002C00F0038128461230024614E010292E
:2049D00040F0FC80002C00F0F98028465C30102221460FF0CDF8F2E0012940F0EF80002C68
:2049F00000F0EC802A46921D21781046E4E0262940F0E480002C00F0E180284626226C30C7
:204A1000E6E7012940F0DA80002C00F0D7802846401D9CE0602900D144B9012940F0CE804C
:204A3000002C00F0CB8028460D3090E005F19200214660220FF09CF801206873BFE001291B
:204A500040F0BC8020780FF0D7FEB8E0012940F0B5802178022900F3B180284600F10C02F2
:204A700011702178022918BF301C02D11021C17201200FF0BDFEA2E0072940F09F80611C2E
:204A9000684606220EF032FF20786946324607F04BFA04460A2C0FDA0FF0A6FE38B92046A3
:204AB00004F03CFE0EF090FA0BF072FA87E0284601212C30015582E0022680E001297DD1BE
:204AD0002A462178907B0028917378D12078012875D1E9E72846027B01296FD1022A04D011
:204AF0002178072901DB102904DD022A66D12178102963D1C17262E001295FD121780A29E3
:204B10005CDA2846093057E0012957D12178022954DA284608304FE000294FD10FF064FEAE
:204B300010B90FF0D1F8BDE7284601210F3043E0042943D12168244888423FD328461C3072
:204B500001603CE0012939D12B4603F10A00217832E0012932D1217802292FDA2846C01D35
:204B70002AE010292AD128464C3030E7012925D12178022922DA2846001D1DE001291DD166
:204B9000217804291ADC2846C01C02462DE7012914D12178022911DA2846821C25E70229A2
:204BB0000CD1218828461630018008E0012905D12178022902DC0548017000E0182630464E
:204BD0007CBDC046EC0C00203F420F00ED0C00202DE9FC41A0F2013714468846022F40F21D
:204BF00032819B4E9C493F1F0F2F04D9143F4CD0BF1E1CD011E0DFE817F0CF00C9000D010E
:204C1000FA00C100B9002601AF00A700100010009D008F007F0074006600282880F2138198
:204C3000B8F1020F40F00F818849238807E1B8F1010F40F00881F078012800F00481324696
:204C500020781179107189B9002800F0FC805078012800F0B580042800F0B280062800F049
:204C7000AF80052800F0AC80BDE8FC812078002840F0E9805078032800F0AF80072800F000
:204C9000AC80052840F0DF80A7E0B8F1010F40F0DA802078012840F0D68006F1EC000FF029
:204CB0001FF9002840F0CF803446002004F13A0108F0CAFC002840F0C68004F1C8000FF043
:204CD000F3FABDE8FC81B8F1020F40F0BC8020880A28C0F2B880B0F5486F00F3B4808E1C9E
:204CF00017E0B8F1020F40F0AE802088B0F5FA7F80F2A9800E460CE0B8F1020F40F0A380E7
:204D100020880628C0F29F80B0F5486F00F39B803E363080BDE8FC81B8F1020F40F093802F
:204D300020880628C0F28F80B0F5486F00F38B803C36EEE7B8F1010F40F085802078062877
:204D500080F28180454E0EE0B8F1010F7BD12078042878DA0A3606E0B8F1010F73D1207879
:204D7000082870DA09363070BDE8FC81B8F1010F69D12078042866DA0836F4E7B8F1010FDF
:204D900061D1207804285EDCF61DECE7B8F1020F59D120880E36BCE7B8F1010F53D13079F4
:204DB000012850D032462078D178D07069B9002849D05078012803D0042818BF052842D197
:204DD00001200FF0BDF8BDE8FC81207800283AD15078022818BF052835D110780DF038FE4A
:204DF0001C490246102003F06FFBBDE8FC8106F1830500211F22284609F06AF921464246AD
:204E1000284607F063FB44463078B4710DF020FE002311E006F1640500211F22284609F010
:204E300057F921464246284607F050FB4446307874710DF00DFE012300940949019502466C
:204E5000102003F041FBBDE8FC81C046BD840110A005002099450110E0050020DA050020B1
:204E7000094501102DE9F04F9E4C20780E46F10BADF11C0DC9036ED1B0085ED2606AA16A0D
:204E9000720807D2F00828BF86F0040680F02581002023E1858861B904F11800924A009076
:204EB0004FF6FF71022301200FF09AFC0146A16221B304A800900027019702230293FF225E
:204ED0000392228B28460DF1120301F00DFB58B99DF813009DF81220A16A12EB002204D088
:204EF000498928460CF02EF9A16A228B08463B464FF6FF710FF070FC0146A162206A00299B
:204F10001CBF012186F001061FD168B14368616A5BB18888002201219847206A676A436843
:204F3000B888032100229847616A88880EF020FF0EF096FC86F00106CFE00020014601F0F0
:204F5000CFFF30B1012186F00206207806F098F9C3E00221F7E707F0AFFD5FEA000800F04B
:204F7000BA80054628784FF0010AB03812D0401E03D01F3800F0A580A7E02879002840F0CB
:204F9000A480B8F80200B8F80610B8F808200CF0D9F89DE02879401E41D0083803D0743874
:204FB00000F0828087E068781A2879D0688881460FF0A2F8801E18D0401E7CD128890128C2
:204FD0000AD16889032807D1E9688A78484604210BF096FB024600E01822206A00286AD012
:204FF0004368002B67D0042116E02989688852460129814609D16989032906D1E9688F7827
:205010001FB910210BF07CFB0246206A002852D04368002B4FD00521484698474BE02B7A91
:20503000688805F10807082B814639D10FF064F8801E12D0401E33D1287B0A2818BF12224A
:2050500005D16889042100220BF05AFB0246206A30B3436823B3042120E078881021002234
:205070000BF04EFB237D834693B148460FF0D4FB70B11E490B784BB94179831D524601F0E1
:205090000101084619460EF067FC01E05046E074206A28B143681BB105215A4678889847A6
:2050B00068880EF065FE06E06A880FF025F8014610460BF0F3FC297905F108000FF000FC79
:2050D00003E04046FFF7E2FA8246BAF1000F02D028460EF02DFA86F40046B0B207B0BDE820
:2050F000F08FC046EC0C0020965601005A4F00202DE9FC41884C894A2678894F894D8A4934
:205110000D2E30464FF4A0534CD8DFE816F003010E000E000E000E00FB00FB006800FB0012
:20513000A700A700D800D800DF008049176041F204464C887E4FB4421CBFB1F81AE0B645B5
:205150000BD0B1F83280B0451CBF41F20A46B44203D0B64518BFB04502D12E80176076E0D8
:20517000022C744E2C8035D94FF48067E41B1AD0241F012C1DD94FF47F77E41B1BD04FF496
:205190004067E41B0FD0A41E012C0CD9241F0AD0641E012C0DD940F2F937E41B012C19D974
:2051B000241F08D0AEE0022814BF2B80624E16604DE0624EFBE762480468257A012D05D1F0
:2051D00041F20240488048834886F0E74B804B834B86ECE700200EF05FFB832096E05948A3
:2051F0008178FF291ED01C2041435748176040F204460068841C645A2C80A41B012C534D40
:2052100010D94FF47F76A41B15D00A3C012C14D940F6F636A41B032C84BF641F012C0ED92F
:20523000A41E012C76D940F2FD36A41B07D0641E012C02D905E041F20143801C4352156099
:2052500005E000200EF028FB85200FF061FBBDE8FC413F480078012106F012B84A882A80D9
:2052700040F20443D21A55D040F6FC73D21A15D0083A4FD04FF47F73D21A22D1354C364AA8
:205290002568364800680023CDE9002355F8086F334B0222B047334908803BE0092810D101
:2052B00031490A68508960B1304908780AF0C0FD002100200FF08CFA002020702AE0488808
:2052D000288000200EF0E8FA85201FE04A882A80022A0DD940F20440121A1BD040F6FC70B5
:2052F000121A05D0083A15D04FF47F70121AE8D1887B801CC0B2B528A8BF66208873002069
:20531000488007E000200EF0C7FA8420BDE8F6410FF0FEBABDE8F3816F4F0020204F002032
:2053300043420100504F00209C210020204A00203D200000A19B000065B80000755B01101A
:20535000104F0020684E002020220020E96200006E4F0020F04E002002000080EC4E002024
:2053700021160100424F00202C220020714F002010B50B7884074CBF43F0020303F0FD03DD
:2053900004064CBF43F0800303F07F0304074CBF43F0080303F0F70384064CBF43F0200391
:2053B00003F0DF0310F0AA0F0B7004D0107840F00C00107010BD18B9117801F0F30111702F
:2053D00010BDF8B50F4600263878022814461D4667D1786801784278069801EB022189B2FE
:2053F000002818BFB1F5285F01D00B20F2BD4FF42850091A0AD0491E1ED0491E4BD0491ED0
:2054100022D0491E28D0C53941D04AE0F8680EF055FF069B079980B2C21A8A42ACBF08466C
:20543000C01A80B2C118162904DA28800246F868C1180DE00D2636E0F86800880221298047
:205450002070000A60702EE0062028800622F96820460EF08DFB26E0F868B0B108212980E8
:20547000018821700188090A61704188A1704188090AE170818821718188090A6171C188BC
:20549000A171C088000AE0710DE029800BE04A480178CA0705D401202880F86801782170DE
:2054B00001E02E8001263046F2BD2DE9F8460E46814630780024022817469A4678D170683E
:2054D000017842783C4D01EB022189B24FF42850091A08D0491E30D0491E55D0491E3FD097
:2054F000C63960D064E0F0680EF0E8FE089980B2884206D308460AEB0001162903DB0D24E5
:2055100057E0072455E0F3685246394618440EF02FFB08985044ADF8200000210898F368D9
:20553000C0F1160218440EF0C7FE686800281CBF0268002A3DD0002123E0089888BBBAF14D
:20555000020FDCD139787878F26801EB00211180686800281CBF0268002A2AD0012110E071
:205570000898F0B9BAF1060FC9D1F068062239460EF0FEFA686800281CBF0268002A18D034
:2055900003214846904714E0089850B9BAF1010FB5D13878002813BF0128F168087080244C
:2055B00007E00B2405E02878C10758BF032400D501242046BDE8F286A81600202DE9F04F8A
:2055D0008246DAF800600C465FEA0208ADF11C0D14BF00214FF0FF3106F1480083460EF0EC
:2055F0000CFC002818BF0B2040F00681002565708448F460B8F1010F057004D0657002209F
:20561000F4600DF035F82078012840F2AB80801E012868D9801E012833D9801E012800F24A
:20563000DF800EF023FE06904FF0805000F5EE77D0F8DC01A378466A0093217828460629A4
:2056500008BF0120019001200290A068228AE1686368B047814606980FF01AF9B9F1000F1F
:2056700040F0C080B8F1000F02D00EF051FA02E050460DF059FC002800F0A4803868806A47
:205690002AE00EF0F3FD06904FF0805000F5EE77D0F8DC01012306680093A168A27860684E
:2056B0002478AC46042C08BF9C466346B047814606980FF0EDF8B9F1000F40F09380B8F1E5
:2056D000000F02D00EF024FA02E050460DF02CFC002877D03868406880474949C1F8B05156
:2056F0000D6081467EE00EF0C1FD06904FF0805000F5EE76D0F8DC01E38A87690093E06871
:205710000190208B0290A0780390207D04900121059122782846022A08BF081CE1786268D5
:20573000A368B847814606980FF0B2F8B9F1000F58D1B8F1000F02D00EF0EAF902E050467C
:205750000DF0F2FB00283DD03068006A80475FEA000947D13068C569A168E28A2369E078C8
:20577000A847BEE70EF082FD06904FF0805000F5EE76D0F8DC01E38AC7680093E06801905D
:20579000208B0290A0780390207D2946049001200590257805B9014608466268A368E1789D
:2057B000B847814606980FF073F8B9F1000F19D1B8F1000F02D00EF0ABF902E050460DF0C7
:2057D000B3FB08B9142017E03068406980475FEA000907D1306802692169E078904780E7CA
:2057F0004FF0FF39B8F1010F02D002200CF02EFD58460EF04FFD484607B0BDE8F08FC046F7
:2058100050450240522200202DE9F04FDFF80CB29BF80000002885B004D0401E032804D9F9
:20583000801F012840F2F780EFE07D4DDFF8F4812868DFF8F49103687C4E03F108070622B6
:2058500007F1080103A80EF093F90622B91C01A80EF08EF93878C0F380118DF800101E240C
:20587000C10900F00F02032A39D16879C0F38000814233D12969062203A80DF049FE00286A
:205890002CD09DF8000001A90EF0F6FF002825D0314601A80DF051F80746FF2F1ED0D9F80D
:2058B0000000807A6743002818BF02280BD0012818BF032812D1701CF25DC11940460EF0E9
:2058D00083FF10280AD0F41901AAE11D404609F05CFE062201A9E01D0EF04AF990E000F025
:2058F0000F00052840F097806879C0F380008142F4D12969062203A80DF00AFE0028EDD02A
:205910009DF800003F7801A90EF0B6FF7F0940F2024A88B3314601A80DF00FF88346BBF1F4
:20593000FF0F6DD0D9F80000807A002804FB0BF118BF012800910CD0022818BF03285FD155
:205950000846711C325C014440460EF03DFF102856D050460EF034FF009806EB000A01AA66
:205970000AF10701404609F010FE062201A90AF107000EF0FDF81CE09BF8000002283FD1F7
:205990009DF8001001AA304609F06EFC8346BBF1FF0F35D004FB0BF03118487F012805D03E
:2059B00070BB01F10D000EF06BFF48B350460EF007FF04FB0BF4D9F80010305D887606221E
:2059D000701C0119D9F8000014300EF0D1F8184918488A78510604D5F90758BF41F20A41AD
:2059F00001D541F204414180418341861248134A01801348134908600121107805F040FCCB
:205A100029680A680020107105E000200DF044FF86200EF07DFF05B0BDE8F08F6F4F0020B6
:205A3000F44B0020CC470020104F002058170020B8210020204A0020504F00206E4F002097
:205A50003D200000204F00202DE9FE4F05467E48002400680094C0090ED37C48007858B9BF
:205A70007C497B4851F8112C104040F0817041F8110C20200BF022FB012D40F0E080DFF854
:205A90000092D9F8DC00012840F0D6800220C9F8DC000DF0ADFC01200BF010FB5FEA00082B
:205AB00005D00120C9F8DC000DF0B2FCC9E00EF0F3FBA34602906848684DC0F800B0A86AA9
:205AD000016801208847012804D1584609F0F4F8012000906248634FC0F800B03868112096
:205AF0000EF0C8FA00B1012410200EF0C3FA08B144F002040F200EF0BDFA08B144F0040449
:205B10000B200EF0B7FA20B12868574E016B308888470A200EF0AEFA20B12868534E016B64
:205B3000308888475248012606602868816944F0200088474F4806600EF096FA00F001018D
:205B50000191400814D2286A81684B4888478246BAF1040FF7D0BAF1010F04D1286A42687F
:205B70004548032190474549086820F003000860584600F099F92B683868986B804701985E
:205B900001280CD0BAF1010F04D1286A42683A48314690473949086840F00300086030484F
:205BB000066028684169204688470B200EF062FA20B128682C4BC16A188888470A200EF0E1
:205BD00059FA20B12868294BC16A18888847284806600322C9F8DC20264BC3F800B02868CF
:205BF000416B204688470128F9D1386804200BF065FA0446184806603868134800688009A7
:205C1000FBD30098012802D1304609F055F80EF01FFA08200BF052FA07460298C9F8DC60EC
:205C30000EF0CAFDFBF7B2F90DF0F2FB57EA040018BF4FF0FF3804E06FF0040801E06FF0E7
:205C500001084046BDE8FE8F1410094080100020FFFFFCFC150009400C400940B8010010A4
:205C7000000222432C200940985501009455010028200860800104430040034024220840B7
:205C9000980F00202DE9F0410246834D814C2978A068521EADF1280D00F08380521E7DD065
:205CB000921E5FD0521E4BD0521E04D0521E42D0521E3ED03BE004F178000EF0F3FA7749F3
:205CD000102002F001FC7649C6B201AB1020721E02F0FAFB58B900962978A068002251A3A5
:205CF000C91CC9B20DF040F80DF106000EE006AE40F21530314603F0A5FD2978A06800220B
:205D10004CA3C91CC9B20DF02FF830462D78A4680AF006FC6D1C03460022E9B220460DF0EB
:205D300023F84FF6FF7000210CF062FD76E00A462FE043A302E0C91C43A3C9B200226BE0D8
:205D5000142008F0EDFAA0682978002244A30DF00BF800204FF6FF710CF04AFD2A78501C48
:205D7000C1B215E004F178000EF09EFA142008F0D7FA2978A06800223CA3C91CC9B20CF0A5
:205D9000F3FF00204FF6FF710CF032FD2A781146A068921CD2B20EF037F93FE0002237A385
:205DB00038E04FF4417008A903F04CFD9DF821708DF8057000268DF808609DF822308DF83B
:205DD00007609DF824108DF806309DF820008DF80A109DF825208DF804009DF823708DF864
:205DF0000B2001AB2F498DF809701A680A6058684860D4F808802F7808A80AF091FB3F1D65
:205E10000346F9B2324640460CF0AEFFA06829781DA33246C91CC9B20CF0A6FF0AB0BDE896
:205E3000F081C0464E756D20436F6E6E733A20256400C046436F6E6E656374656400C04608
:205E50004572726F7200C046436F6E6E6563746564204164766572746973696E6700C046E9
:205E700054696D6564204F757400C046446973636F6E6E656374656400C046C041647665A8
:205E900072746973696E6700496E697469616C697A65640008020020C4150020F17F0110D8
:205EB000097F0110270B00202DE9F84FDFF804B20746ABF13500DFF8F0810068800880F037
:205ED000E28075480068006880477E490831D1F8009000254FEA29715FEA995201F1010183
:205EF0000AD2C0F13E0210F10A0F4FEAE202D8BF08229142B8BF111C684BD3F87C21C2F386
:205F10000462162AA8BF203A1B68C3F30443162BA8BF203B9A465218162A05DA12F10A0F02
:205F3000B8BF6FF0090200E015225D4B5D4E02F01F0141F4F8511980316811F0030F18BF5A
:205F50000125C90828BF45F002050FB145F00405434693F90710411A052904DA9979A94289
:205F700008BF99886FD0DFF844E10F28A0F10F0829DB08EB0011A1F1F0084FEA282100916A
:205F9000072984BF07210091062988BF06215EF821600424774604EB81043C594FEA950C89
:205FB000A41BEE0804F0FF0124BFC4F3072631446F08AE0824BFC4F3074631446E0828BF06
:205FD00001EB146104E000214FEA950C6F080091009C5EF824E05FEA5C060EF0FF0424BFE4
:205FF000CEF3072634447E0824BFCEF3074634446E0828BF04EB1E64009E89B2A8EB0626D6
:206010007143803104EB1124AAEB02010029D8BF0121342209F0FF074A4391B24FF6FF7292
:206030007943B1FBF4F18A4238BF111C802889B2998005DA10F1800FB8BF6FF07F0000E073
:206050007F20D8719D711A4800681F2918604FF0000008D340F2FF128A4206D24908401C02
:206070008A42FBD301E01F219980134F0F39090940EAC10047EA0001CBF8FB1F0026CBF89D
:20609000FF6FBDE8F88F0D490D4F434608200F609B1D1870BDE8F88FEC0100103C1100507E
:2060B0006E62084024220840102200209C130050082009403500094000E7A4803010094056
:2060D000FDFDA400AC3F00502DE9F84F0024774D774EDFF8E0B1DFF8E0A1DFF8E081DFF8FE
:2060F000E091D9F800104A7A01231820A34060431A420AEB000709D0087A38F810203A80CB
:2061100000201BF80420BA73F87302E040F6010038800020788007F118007860387B00F00C
:20613000EF0040F080003873097A01290ED141F28830B860387B00F0F00040F00500387303
:20615000787B00F0F00040F0020019E0002C0CBF0221002100F0F000084338733CB90EF02D
:206170007BFB00F5C870CAF80800022004E00020022CB860F9D10120797B01F0F00108432A
:206190007873641C3E61022C7D61AADDD9F80000017A01290EBFCAF834A00020CAF8340063
:2061B0000CF006FD3060474880690078C1074CBF1021002182074CBF2022002243074CBFDE
:2061D0004023002300074CBF8020002011431943014341F00F01317100207071D9F800109E
:2061F000887A00F003007071CA7A920002F00402104370718A7ED20002F0080242F010029D
:2062100010437071087A012818BF042806D10020B071F071B06001F1140216E0487FB0711D
:2062300001F15D025078F071487F20B10B7FC3EB4313C8181E30B060507828B11278C2EB98
:2062500042128B1803F15F001F4AF060726101F10C0030611D4BF07E727900F0E00040F008
:206270008600F0761A48F061187828B1307900F0FE0042F040023071164B987843064CBF95
:2062900042F0200202F0DF02727100202880A870E87028716871E8802881A872E872E8606D
:2062B0000868C0F804A0BDE8F18F00BFB44D0020F44B0020409A0110204A0020109A01106E
:2062D000104F0020545A0100D0470020784E002000204E00B82100207E488078FF2800D146
:2062F00070472DE9F84F0DF02FFD054605F217100178012908BF417800F0A28005F1740049
:20631000817B022903D105F174020020907305F59276F18911B1307B04F0B2FF68896E4FA7
:20633000288105F58D78B87AFB793A7BF97A7C7BB8F800C000EB030E96448E4474441FFAF7
:2063500084FEB8F80440641CA8F80440F444B8F80240A8F800C00419A8F802404FF01C0C63
:206370003468FCB1DFF8749195F806A0D9F8009009F10E0B0CFB0AFA09F10E091BF80AA068
:2063900034F81AB0F34424F81AB095F806A00CFB0AFA19F80A9004EB4904B4F84AE0864415
:2063B000A4F84AE0002B08BF002904D1002A04BF797B002923D02A89E889821800202874A0
:2063D000AA81287F012804BF698CE983787868B10121297705F174018878002804BF887B6A
:2063F000002803D1087F08B9698CE983307D80B3022804BFF87A002827D1002128E0E983F4
:2064100038B100202874287F012807D1698CE98304E0B8F80600401CA8F80600A88929893F
:20643000814206D08842D1D2081A41F2AB029042CCDA287C08B1052901D0082100E03E2108
:206450002846BDE8F44F0CF081BF787A08B1022131752348FA7B01682868D30708D53A69F3
:20647000C26001F11400A97949010022425011E001F11402A97949015258184932610A684F
:20649000A97902F108030CFB01F29958C1600020E8832877134841690A7890074CBFB87B3A
:2064B000812085F874002846FCF766F801280ED00121284607F046FE28460CF099FDFCF7B6
:2064D00019FD012803D0BDE8F14FFDF701BEBDE8F18F00BF684E00205C4D0020202200201D
:2064F00024220020545A01002DE9F0410C4684B00746207A0026C10690461D460BD5404637
:206510000EF056F9030000F0F0800A22214638469847060050D1207802281AD160680178B6
:20653000427801EB022189B24FF42050091A012910D9891E41D0491E16D0FD3905D0491EE7
:2065500000F08B80491E74D0491E7BD0491E00F0A180B8E00B98002831D1E0680A9A017891
:2065700011800278416891E00B98002827D10A9801210180E0680178297000216089401C1E
:2065900080B20EF011F90A99098868B102780A9B921C51181980418969704189090AA970FC
:2065B00002784168E81C72E00A98091D018004220021681C0DF080FE98E00B9800286BD144
:2065D000E06807880A98042101802F70380A68700DF1020138460EF0E7F804001FD0E76835
:2065F000BDF802204FF6FF786B4641460EF0F4F840B9237862683F4802210EF0D1F808B946
:20661000ADF80080387802280BD179680222281D0DF0AEFA0A980188891C018001E0ADF8C9
:206630000070BDF80000A870BDF80000000AE8705CE00B9800282FD1E068016838460DF0C3
:20665000FFFB03E00B9838BBE06800880A9A022111802870000A687048E0E0680DF02EFE7C
:206670000B9B80B29842B8BF07263FDB834208BF002006D00C99C9188142B2BF0C98C01AE0
:2066900080B20A9908800246E068C11828460DF06FFA2BE00B9808B10B2627E00A9AE068C5
:2066B0000721118002782A70417869704188A9704188090AE97001792971C1886971C088D5
:2066D000000AA87112E040460EF066F806000CD00D980C990A9B029001912A460B9800901B
:2066F00021463846B047064600E00E26304604B0BDE8F0819C5601002DE9FE4F7D4C617816
:2067100011B900200DF0C8F80EF0A6F88146002709F6C4190026784DDFF8E0810EE03046D5
:206730000DF012FB417939B129688279CA5549467F1C00F0E7F8FFB2761CF6B298F800007C
:206750008642ECDB009761788F4205D000200DF0A3F882200EF0DCF86078012840F0A38004
:20677000002601E0761CF6B298F80000864280F2948030460DF0E8FA074678790028F1D06E
:206790002868B979027891421CBF00200DF084F8B87980E0286810F809000DF0D5FA006800
