:2000000000400020011B010001C9011001C9011001C9011001C9011001C9011001C9011041
:1C00200001C9011001C9011001C9011001C9011001C9011001C901103FC9011089
:20003C0080B54FF4FC720FF278011A480CF0E6FE012119484174002202210270C17601BD1E
:20005C002DE9F0410FF2502214493820136854689568D6681769D2F814C0D2F818E0D2F8F9
:20007C001C800B604C608D60CE600F61C1F814C0C1F818E0C1F81C8020322031401EE5D1DC
:20009C0050689368D46812680A6048608B60CC60BDE8F081480400215903002100C00021D1
:2000BC00410500217D0500212D06002170B51D46004C204787B2000010B5014800470000FD
:2000DC00D509000070B5614C6148254650358047022809D14034E1885E4A914204D1E97C5E
:2000FC00890601D4911DE18070BD70B557495A4A084650300378002B10D08379012B0DD181
:20011C00037C5B09DB0709D0097D544DC1746C7F20202043687790476C7770BDFF21C17420
:20013C00904770BD10B54E48484C804702280ED121464031CA88474B9A4208D1CA7C5209CE
:20015C00D20704D0227D920601D49A1DCA8010BD70B53E4843494030C07C4009C00707D032
:20017C003E4D41482C8B2043288388472C8370BD884770BD10B53B48344CAC388047214609
:20019C0053310A789309DB0705D04034A2730A7803231A430A7010BD2C4940310871182876
:2001BC0012D004DC0A280BD00B2804D10AE025280CD02A280CD02D4980004018C0687047DE
:2001DC002B4870472B4870472B4870472B4870472B48704770B504461C484E252D5CAE09AB
:2001FC00F60716D0067D3007000F052803D00120054202D00DE00220FAE7E80905D07006D1
:20021C0003D54868800F012803D05B085B0052085200062B03D01020022B11D011E0FB20F7
:20023C00024002232046FFF741FF002807DAC100611A2039497E1422114200D1002070BD93
:20025C00024303432046FFF731FF70BD4401002137CB000004140000EBC80000A800002142
:20027C00F5B4000053AD00002020000080DF00001D050021F9040021CD040021930400210F
:20029C006D04002110B5034CFFF716FF20680028FAD110BD0011044068610000F825F965B0
:2002BC00F9754500450045002600260057A3520052004C00401F401F401F3F000000000053
:2002DC00304000400140034007400F404F40CF40CF41CF43CF47CF4FCF3FCF2FCF1FCF0F6C
:2002FC00000000000000000000000F00080000003F00000040003F000000040068000E0093
:20031C00DC00060043001A00050000000000020000000000000000000400C00000000400B3
:20033C00C000000007000000000000000000000000000000000000003040004001400340A6
:20035C0007400F404F40CF40CF7FCF6FCF5FCF4FCF3FCF2FCF1FCF0F00000000000000009D
:20037C0050C00091007070C00091007082312100319110B10070018101B100A1823132910D
:20039C0010B101911110418141227740F106007051C0019130181039833108D01831416FD1
:2003BC003100319110B18314141683680070251050C00091F4C340C12014036F3110410497
:2003DC005082F0229840512622C082312100319110B163393110410482C08231210031919B
:2003FC0010B163393110A2C082312100319110B150101531051405920070676452C03110A6
:20041C0031066131C1026A6412C13110213971065131E1026A64007051C0019101CCE2C0CC
:20043C006A64676411C1C2C06A6450B054B0007140804022D6440022C94060B08180111EC9
:20045C00C944007054A064B0F0800022C9404012B09032B070C1DF6811C122C16A6470C1C0
:20047C00E46851C00191E2C0823160820200329110B130C2EE68538253395339B16460C347
:20049C00F4688012B09032B00070676401C122C16A6401C1C2C06A645382B164C012B09074
:2004BC0032B00070676472C281C06A6422C111C16A6402C011C16A6462C031C36A6462C3D2
:2004DC0011C16A6402C311C16A6453825339B164E2C36F6411221C4142C281C86A6452C24E
:2004FC0011C16A6472C2E1CE6A6402C281C86A6402C201C86A64B0C030690070676442C211
:20051C0001C86A6452C211C06A6472C2E1C06A6402C001C16A6462C001C36A6422C101C127
:20053C006A6462C301C16A6402C301C16A645382B16400708180111E5C4150B054B000712B
:20055C00408040225D4154A064B0F1800122514500700022514160B04E61000000000000AA
:20057C000000000000000000067305720B720E7250B00071818060B050A09280F0EFF1928C
:20059C0002936A6741228C458080F1C11004301601110114016CB561B661B761B861B9618D
:2005BC00BA61BB61BD61BF61C161C36126632D63F0C002043231412A121432160111211412
:2005DC00016CDA61C561E061C761CB61B561B561B561F461C561FA61C761CB61B561B56104
:2005FC00B561F461C561FA61C761CB61B561B561B561E761C561ED61C761CB61B561B56121
:20061C00B561CF61CF61CF61CF61CF61CF61C064CF61F964CF610665CF613265CF6174676A
:20063C00CF611166CF61C0644E65F964CF61066511663265CF618280E0DFF2926A67B0B044
:20065C00D661B1B00673057230B06C61D0CF6A6784C203C0C0C37C64207851788278E378B7
:20067C001579B6780062C0CF6A6784C203C0C0C37C64307861789278F3781579C678006250
:20069C00B0CF6A6784C203C0C0C37C6440787178A27803791579D678109221923292439281
:2006BC005492659256911FC0FF914039F00601101031101400927067CF61E3B054A0F08076
:2006DC0050221A4640800022BE461262E3A000C86091598150B0918041228E46A0CF6A6734
:2006FC0012828231823942398B641282F2062F101F312F141682D622334640C1346200C5AF
:20071C0020140D6F6D39DE10F4C34E0482C082312E006D39A2C082312D001A828A39FA0606
:20073C002082803180390BC00B18BC10AC18038239149B141082F0060110103110145181C2
:20075C0010140C14C622C94631D0C1266462021011C0013010C00118021882312100C126C2
:20077C00919103B013B063B053B041800122BE46B481C491D581B51C774E95186591F0803E
:20079C00102269428C623D9110B13E9110B1E08000228146E6228142E0B0951865910F926B
:2007BC005981F914F0805022114210228C464D6390CF6A6763B052A03082F2C0200402107E
:2007DC0011C0013010C00118021882312100C1269191919113B003B063B053B064B054B055
:2007FC00007141800122BE4663B064B0F08050221142B181C191D1819118619131B0A462D0
:20081C002967E0A059810582591480C0007163B0BA6A6962E3A0018262818231823D80EF61
:20083C00F19202936A6703A0007037824739873930828039F006021011C0013010C0011849
:20085C00021882312100C126819102B012B030824039F006021011C0013010C001180218E9
:20087C0082312100C126919103B013B063B053B0007153A062B052B041800122BE46A4816E
:20089C00C491D581B51CFE4E95186591F0801022F0428C62B481C491D4814518751C084FEB
:2008BC00F0801022F0428C623D9110B13E9110B1E08000221247E6221243E0B065910F92DC
:2008DC005981F914F0805022114210228C4630632967E0A0598105825914F0C0007162B038
:2008FC00226BF062A2808B64CF6112824239F2068B6050B00071CF6170CF6A674082418096
:20091C000122BE46A481C491D58195186591F18011228C46336B41800122BE46A481C491AB
:20093C00D581C51C1C4B95186591F08010223F438C6260CF6A67408241800122BE46B48169
:20095C00C491D58195186591F18011228C46506B41800122BE46B481C491D581C51CB44A55
:20097C0095186591F08010225C438C62E092D08200226B47C0B20070A080F022874330B033
:20099C0002C1623101C0A080001E8043F022814380F86031603981632010101A136F236E5A
:2009BC0011161216826B00702DE9F84FDFF81885DFF8181588F80000002008600921DFF891
:2009DC00100501700D2141804FF408718180DFF80405DFF8041501608A7EDFF80005027042
:2009FC00FF2ACB7E437008BFFF2B0D7F85704E7FC6708F7F0771C97F417115D1FF2D08BFE8
:200A1C00FF2E11D1FF2F08BFFF290DD1DFF8D0140A7802704A7842708A788270CA78C27025
:200A3C000A79027149794171DFF8B81402780A70FF2542784A7082788A70C278CA7002791E
:200A5C000A714079DFF8A02448710021DFF89C04057045708570C570057145711180DFF872
:200A7C009004DFF89014466BDFF88C247078087031781170B078DFF884140870716908791F
:200A9C00DFF87C14421E0A70F078DFF878140870B069DFF87414086008B913F0BBFDF06901
:200ABC00DFF86844206008B913F0B4FD2068DFF8607401688847216851F8042F38469047DD
:200ADC00DFF85004DFF850143862DFF850047862306A086008B913F09DFD706ADFF8401490
:200AFC00086008B913F096FDDFF838B4DFF838649BF8040014F014F9306008B900F045B9FE
:200B1C009BF80500DFF8247414F00AF9386008B9306837E19BF80600DFF8144414F000F9DD
:200B3C00206020B9306814F003F938682AE19BF80700DFF8009414F0F3F8C9F8000038B957
:200B5C00306814F0F5F8386814F0F2F8206819E1DFF8A4130A789BF80000DFF8DCA3921C39
:200B7C00504380B214F0DCF8CAF8080058B9306814F0DEF8386814F0DBF8206814F0D8F89C
:200B9C00D9F80000FEE0DC480078002800F00281BBF80210DFF8A4B3484380B214F0C0F8E7
:200BBC00CBF8040078B9306814F0C2F8386814F0BFF8206814F0BCF8D9F8000014F0B8F8AB
:200BDC00DAF80800DEE0CC48007814F0A9F8DC49086080B9306814F0ABF8386814F0A8F8E7
:200BFC00D9F8000014F0A4F8DAF8080014F0A0F8DBF80400C6E0C04800781C21484314F029
:200C1C008FF8D04A1060B0B9306814F091F8386814F08EF8206814F08BF8D9F8000014F00B
:200C3C0087F8DAF8080014F083F8DBF8040014F07FF8C348A5E0B0480078400114F070F8C1
:200C5C00C1490860D8B9306814F072F8386814F06FF8206814F06CF8D9F8000014F068F83F
:200C7C00DAF8080014F064F8DBF8040014F060F8B348006814F05CF8B249086882E09E487D
:200C9C000078000114F04CF8B0490860F0B9306814F04EF8386814F04BF8206814F048F8D8
:200CBC00D9F8000014F044F8DAF8080014F040F8DBF8040014F03CF8A148006814F038F85D
:200CDC00A049086814F034F89F485AE08A480078000114F025F89E49086018BB306814F024
:200CFC0027F8386814F024F8206814F021F8D9F8000014F01DF8DAF8080014F019F8DBF8A8
:200D1C00040014F015F88E48006814F011F88D49086814F00DF88C48006814F009F88B49F3
:200D3C0008682FE0744800783021484313F0F8FF884A106070BB306813F0FAFF386813F06A
:200D5C00F7FF206813F0F4FFD9F8000013F0F0FFDAF8080013F0ECFFDBF8040013F0E8FFB7
:200D7C007748006813F0E4FF7649086813F0E0FF7548006813F0DCFF7449086813F0D8FF2F
:200D9C007348006813F0D4FF002013F043FC4FF4804192E03168012008713068057331688A
:200DBC004D73306885733168CD7330680574002031684D743268D072A0223168487103214F
:200DDC003068C28001720720316848720020326890722821306841820121C17600203168BE
:200DFC004877326882F85E00012031680877326882F85D00396808713868057339684D7369
:200E1C00386885733968CD7338680574002039684D743A68D072396848713A6890724FF47D
:200E3C00207039680022C88008818A7401213A68D17421680D732268557321688D732268FD
:200E5C00D57321680D740021226855742368D9720121226811710021236859712168C88065
:200E7C000881002088722168887405202268D0743948016888472A490A6805461068804713
:200E9C0027490A6852F8043F0020984718481D4BC16818780A88314902430A802846304985
:200EBC000A6890470C212F4800F05EF80F4800F05FF800F061F84FF4005198F80000BDE833
:200EDC00F44F0AF081BD00BF6E4F0020044F0020604E0020084F0020B63F00502C4E002048
:200EFC00E81200503C4E00200C4F0020344E0020946801006D4F00207B4F00206B4F002028
:200F1C00724F00206C4F0020F04E0020F44E00207C4B00203D4D0100F84E00204D4D0100C6
:200F3C00FC4E0020DC160020104F002000220020184F002004220020C8210020684E0020AC
:200F5C00004F0020F8210020FC210020884E00208C4E0020904E0020B4100020544F0020FB
:200F7C00B8100020F84D0020DFF800F0E5710110DFF800F01D6E0110DFF800F04D710110E1
:200F9C00B0B5174C241D20680004070C23D01248006800688047114991F90720824205DDF8
:200FBC0010F1800FB8BF6FF07F00C8718D88BD4210D80A68D4F8D40F801A801C1F2888BF16
:200FDC001F207F1B4008C7404FF6FF70EF19B84238BF071C8F80B0BDEC010010E82100205B
:040FFC003010094068
:20100000B41200001810000015AB0110FDB301106DC00110FDAE011099B5011000000000F7
:08102000000000002D0000009B
:20102800B01200003C100000B1C00110A9BF011067C0011069B80110000000000000000035
:041048003000000074
:20104C00B012000060100000BDC00110CDB30110D9BD01106DB3011000000000000000005B
:04106C00310000004F
:2010700000000000FC16002004000000000000000000000020000000E8C901103000000018
:2010900028100000041700200400000000000000000000000C000000D8CA011018000000F2
:2010B0004C1000000C17002004000000000000000000000024000000F0CA01101800000076
:2010D00000000000141700200400000000000000000000001000000018CA01102C00000082
:2010F0000010000024170020040000000000000000000000200000006CCA011024000000E6
:20111000FFFFFFFF2C1700200400000000000000000000002800000090CA011024000000A5
:20113000FFFFFFFF341700200400000000000000000000001400000008CB01101800000024
:20115000FFFFFFFF3C17002004000000000000000000000058000000B4C9011034000000F2
:20117000FFFFFFFF441700200400000000000000000000001000000020CB011018000000C0
:20119000FFFFFFFF4C1700200400000000000000000000001C000000B4CA011024000000ED
:2011B000FFFFFFFF541700200400000000000000000000003800000044CA01102800000015
:2011D000FFFFFFFF5C1700200400000000000000000000005400000078C901103C0000008A
:0811F000010000005868010035
:0411F80001000000F2
:0411FC0000000E00E1
:0412000000000F00DB
:0412040032000000B4
:0412080001000000E1
:04120C009415002015
:0412100000020000D8
:0412140000000000D6
:0412180001C90110F7
:04121C0000000000CE
:0412200000000000CA
:0412240008000000BE
:0412280000002200A0
:04122C00DC130020AF
:0412300000000000BA
:0412340000000000B6
:0412380008000000AA
:04123C003815002041
:0412400000000000AA
:0412440000000000A6
:04124800080000009A
:04124C00000000009E
:04125000000000009A
:041254000000000096
:041258000000000092
:04125C00010000008D
:041260004414002012
:041264000600000080
:041268000100000081
:04126C00C01200208C
:04127000000000007A
:041274000000000076
:041278000002000070
:04127C00000000006E
:02128000290043
:02128200010069
:02128400250043
:02128600300036
:02128800310033
:02128A002D0035
:02128C0001005F
:01128E00015E
:0812900003000000D467010017
:0812980000000000000000004E
:0412A0000000010049
:0412A4000000030043
:0412A80013C401105A
:0412AC00A34A010050
:0412B000B812000070
:0412B400B81200006C
:0412B8000000000032
:0412BC008C1600206C
:0412C000094C0100D4
:0412C4002000000006
:0412C8002867010092
:0412CC005865010060
:0412D00029C101101F
:0412D400B71401004A
:0412D8006317010097
:0412DC00A1C7011095
:0412E000A3C701108F
:0412E4000000000006
:0412E800A7650100F5
:0412EC009863010002
:0412F000B0630100E6
:0412F4008063010012
:0212F8000200F2
:0212FA000900E9
:0212FC000100EF
:0212FE000000EE
:0113000001EB
:04130400854B010014
:04130800DD2D0100D6
:04130C00D53F0100C8
:041310002531010082
:041314008B31010018
:04131800A519010012
:04131C00E9F00000F4
:04132000354E010045
:041324009506010029
:0413280015C70110D4
:04132C0025C70110C0
:201330002DE9F04F0C4685B0834614F8010BDFF870278DF8000018280BF1FD010BF1E708C8
:201350000BF166090BF20D1A0BF5B0760BF59C750BF5C67700F29183DFE810F019006F0025
:201370005F0191008F038F03FA00690311012301FE000D0133018F038F037C018F036101D7
:2013900055017503D602D60227028F03740214F8010B8BF88600022221460BF1880014F05A
:2013B00025FA014602220BF18A0014F01FFA014602220BF18C0014F019FA014602220BF17F
:2013D0008E0014F013FA04469BF8860040008BF886000BF1860102224888400048800BF137
:2013F00086008188490081800BF1860108890001088121460BF1840014F0F8F9B9F81E10AB
:20141000BBF80800091A89B247F6FF7291422ADA0BF18601C8888A88401C520050430A8965
:20143000904203D33B208AF80B0039E2012089F81C000020ABF81E001EE0052221460BF1CA
:20145000610014F0D3F9014602220BF1920014F0CDF90BF1860047F6FF728189BBF8080093
:20147000091A89B2914280F218820BF18600012181720021ABF81E10012028700CE398F85E
:201490001600C1070AD41A2198F80D0088F80E10012808BF0D213FD00D21CDE1002089F860
:2014B000000089F806000822012088F8110021460BF1B00014F09AF9014602220BF1B800F0
:2014D00014F094F90BF1A80601460822304614F08DF904460821304614F084F90BF19C0648
:2014F00004222146304614F081F90421304614F079F90BF1A00014F071F90BF1980014F0A8
:2015100069F9DFF8A005018841F08001018098F80D00012806D10421584605B0BDE8F04F28
:2015300011F0CCBA99F81000012804BF99F811100F290BD158460FF037FA042158460EF032
:20155000E1FA0F2089F81A00FD2175E1042173E1012088F80F009FE2002089F8000089F896
:20157000060088F800000B21012088F80D00002088F8010060E1012088F810008CE20020DA
:2015900002F10906235C365C33432354561C365C33400B54401C0828F2DB58460EF07EFDF5
:2015B00070E2002002F10905235C2D5C2B432354551C2D5C2B400B54401C0828F2DB02207C
:2015D00048E299F8060008B93D2167E19AF800000128D3D014F8011B8AF80310022221462D
:2015F0000BF5897014F002F9014602220BF58A7014F0FCF801208AF800009AF80200002827
:201610001BD10C2118E198F81600C10601D41221D1E058460FF034FE34E221783EE120784D
:2016300030706078707099F8100001280CD199F811100F2902D0162902D02DE268732BE2D7
:20165000387B40F0010016E205B0BDE8F04F002012F0E6BF98F81600810707D410F0110F15
:2016700008BF0F2000F009821A2252E02078617800EB01202882E178A07800EB01206882ED
:201690006179207900EB0120A882E179A07900EB0120E882207A2876A17A607A00EB01206F
:2016B0006883217BE07A00EB0120A883A17B607B00EB0120E883217CE07B00EB01202884E4
:2016D000A17C607C00EB01206884217DE07C00EB0120A884A17D607D00EB0120E8840BF564
:2016F000AA700490688B0390287E0290BBF808000190E88A0090AB8A6A8A298A58460DF0A9
:201710003DFC68B198F81600410701D40F2152E01E22584605B0BDE8F04F0F2111F0EAB9F7
:20173000688A0BF186018880A88AC880E88A088102208BF8860000204880BBF83400C01DD0
:20175000A9F81E008888BBF83210884201BF0BF18600C188BBF83400814206D10BF186005D
:201770000189BBF8360081421DD099F81000012804BF99F811100F2907D099F8150020B171
:201790000F2189F81A10FE2156E0FC2158460EF0B9F9E88A0090AB8A6A8A298A9BF8060027
:2017B00014F014F878E1102146E098F8170010F0090F03D116218AF80C1060E1607821783F
:2017D00000F00700014021702078797B0140F97211D0481E01420CD0490704D5B87B10B175
:2017F0000421F97205E0F97A022001421AD14008FBD1F87A08B9B97AF972F87A042803D14A
:2018100058460FF0DCFDB083F87A13F0DBFF3871B28BB97B012310F0D1F90146308B8842EC
:2018300002D207E0F872E4E7B28BB97B3879012310F0C4F978801721584605B0BDE8F04F3E
:201850000EF060B960782178814207D100F007000840207033D0421E10420FD01E22182179
:20187000584611F047F99BF80610002300221E200BF09CF8387B40F04000FCE0F87247F618
:20189000FF72A078E17800EB012038813989BBF80800091A89B2914206DB28218AF80B101C
:2018B00001208AF80A00F7E00120B871F87A042803D158460FF083FDB083F87A0BE099F89A
:2018D0001100162806D1BA7A9BF80610134600200BF06CF8B87A3871B28BB97B38790123FC
:2018F00010F06CF90146308B884205D3B28BB97B3879012310F062F978800121387B40F031
:20191000400038732970C7E02078617800EB01207082E178A07800EB0120F08261792079BB
:2019300000EB01203082E179A07900EB0120B082B18AF089884288BF0846B97A042905D1DF
:2019500040F691229042B8BF4FF42960F28BF0839042B87A14BF01240024042803D15846CB
:201970000FF02DFD04E0B089F18A884288BF0846B28BB083904214BF012100210C433089D7
:20199000718A328B884288BF0846904214BF012100210C433083B28BB97B3879012310F0F0
:2019B0000DF90146308B884205D3B28BB97B3879012310F003F978807189308A728B8142BF
:2019D00088BF0146718391429BF8063014BF0120002004438A4234490A6802EB4311728B85
:2019F0008041121DC00F0A7610B1584611F0C2FA9DF80000142810D144B1F08B0090738BCC
:201A1000B28B318B9BF8060013F0D8FE584605B0BDE8F04F15210CF063BC1CB1387840F016
:201A300008003870397841F02001397034E020780E280ED00F2809D0122804D014280CD044
:201A5000162812D028E00020287225E00120287322E0032088F815001EE0387840F0020039
:201A7000387040F01000387016E0387B40F00200387340F0100038730EE08AF80C0058463B
:201A90000FF0C6F840B905B0BDE8F04F074800784FF4804109F09EBF05B0BDE8F08F00BF2E
:201AB00084210020524F0020FC2100206E4F00202DE9F04FCD4C04F118012046ADF1340DB5
:201AD0000FF09EFA00264FF6FF70012132466670CF4F2082134604F1A400009139460FF054
:201AF000DFFA0221324604F1C8000091134639460FF0D6FA0425324604F1EC0039460095D7
:201B100013460FF0CDFA04F14409AA4610224846314684F802A00DF01FF804F1540B102275
:201B3000584631460DF018F804F11C08C8F8006004F10A073E70E671267207206072CDF8D9
:201B50000090DFF80093022210200346494606F09FFE102003224946CDF800B0034606F024
:201B700097FE1020524653464946CDF8008006F08FFE4FF0080B4FF0030907F12A000790B2
:201B900007F17900089007F11E00099007F15A000A9024370B9717E06078A28FE18FB4F878
:201BB0004050B4F8423006280ED1ADF80A20ADF80C10ADF80E50BA48ADF8103013F0B0FA33
:201BD000012002A90CF004FBA069B44A31464FF0FF3313F0EFFD071CF6D0059606A80DF120
:201BF0001A0105AA11F0B0FA002840F0BF81BDF818102078102940F0B5819DF81A1088422B
:201C100040F0B081059D29884FF6FF728A4200F09E812B78A23B00F081812E3B40F0A28141
:201C3000A978B046002900F03D81891E00F00C81491E012940F2DC80891E00F09C80491E49
:201C50006FD0491E5CD0083900F05881891E40F05B8194F83A30A888052BADF8080047D0CB
:201C700001208DF812008E4813F05AFA94F83A0001281ED004281CD003280DD002280BD06D
:201C90000598C188ADF80A100189ADF80C104189ADF80E10818927E0A08FE58FADF80A0054
:201CB000B4F84030ADF80C50B4F84210ADF80E301AE0A08FE9888842D8BF081CADF80A0048
:201CD0002989E08F8842D8BF081CADF80C006989B4F840008842D8BF081CADF80E00A98955
:201CF000B4F84200884200DC0846ADF8100001E08DF81260A949102002AA06F0C9FD03E1F7
:201D1000A74813F00DFA6B78002B40F0FD80E88860822889A0826889E082614812F0CEFF0F
:201D3000F2E0AA88B549102006F0B2FD0798414606220CF011FF6682A682E682A879207336
:201D5000574813F0EDF9964813F0EAF94FF001084FF6FF702379208253B9A879082812BFBF
:201D700084F801A005206070404612F0D7FFCBE084F80190C8E06B787BBB291D07980A6813
:201D90000260898881800623637068892082E8896082288AA082688AE082E878E07294F877
:201DB0003A00012818BF02280BD19A4910201F2206F06EFD4FF47A7180B24143384810F0BA
:201DD000F1FD68895346009091490193EA7810202D1D2B4606F05CFD99E06878312840F0FF
:201DF0008A80E67084F801A091E0C046A00500206B78002B7FD1A878E1896278032814D049
:201E1000E078257931B9012814BF2671E67007E02D4D0100054303D07F4810F0C3FD62780B
:201E3000072ADFD10620607071E0062A07D0E578002D08BF84F8019069D00220F3E70720A9
:201E5000F1E7C046FF4301006B78002B53D1EB78617893B902291DD007291BD0062902D162
:201E70002079012816D1032914D06B4812F026FF80B9012012F052FF0CE011F075FC02466C
:201E9000A07962490090089843460190102006F0FFFC68706D78002D2DD135E0070000807F
:201EB000680600206B7833BB5C485749009002221020034606F0ECFC59484A465249009008
:201ED0001020034606F0E4FCED1C099829680160A988012381802078637011F045FC0246BC
:201EF00001230A9D6079494900901020019506F0CFFCC0B258B184F801B008E0AA88414939
:201F10001020052306F0C4FCB8F1010F2AD1256A45B3296831B36078884723E0687913282D
:201F300020D12889012808D1607B022805D11C4813F0F6F811F03AF914E0364910200522BF
:201F500006F0A6FC81B2164810F02CFD0AE06888C00B07D333482C495246534600901020BF
:201F700006F096FC059808B113F089F82579E078790830D355EA00032DD0204600788DB912
:201F9000E179257A8DF808100B9A8DF8095013680DF10A052B609288AA8005E005160110B0
:201FB0008C0600208DF80890617A8DF81010A17A8DF8111011F0D8FB1149024602AB1020AE
:201FD00006F066FC38B1256A84F801B01DB1296809B158468847B80803D3134930460CF00A
:201FF000F7F8F808FFF4F0AD607B401E3FF4D4AD401E7FF4E9AD11F0D9F8E5E5790C0100DC
:2020100059440110C1170110E1A7000009450110F1A30000F584011044060020E4050020A1
:20203000F4050020BC050020DA0500202DE9F84F012010F0EDFF01280ED1DFF8F874396841
:202050000020487138680FF0DBFD05F045F8040003D1812013F0AAFB68E201206071DFF8BA
:20207000D854DFF8D8044178491C41703968A07981F8A00040200CF0BBFB20602879012873
:202090001CBF002012F0CCFAE8682168DFF8B05400F5B060C860286801680A79032A1CBF08
:2020B000002012F0BDFA2868DFF898840168DFF898B401F10809062299F80000C0F3801029
:2020D00084F82E0109F1020104F5947012F014FC042209F10E0104F1240012F00DFCD8F816
:2020F0000000A67900F10C03042209F10E0103EB461012F001FCD8F80000A37900EB431015
:20211000032209F11201103012F0F6FB04F12C0699F81500B070022209F1160104F1300003
:2021300012F0EAFB022209F1180104F1320012F0E3FB022209F11A0104F1340012F0DCFB2F
:2021500030896084022209F11C0104F1360012F0D3FBB078F18872894000B0704900B0881F
:2021700040001201B080F180728189B2638C5B1C4800434392B2934200D231B99BF8000091
:20219000802109F027FC3B21FEE004F12E01204612F012F80520A081204612F0EDF90522E7
:2021B00009F11E0104F1610012F0A6FB99F823004009307013F0F6FA60823A68E34F518ADC
:2021D000401A04F59771888104F1610199F82300DFF87C9300F01F00F07320460FF03EFE87
:2021F00029680A68002010711C25A1793868694341F6210242520022A17969430144001D4C
:202210004A80A1796943425099F80200410609D5D049088841F20A4290420CBFCE48CF48E2
:20223000C4F89C012046D4F89C1188473968A37901F10E026B43D054A17938686943084444
:202250000021C173C648017881B1B08870B9002171730120208160812046D4F89C118847A9
:202270003968A37901F10E026B43D0543868A27900F10E016A43885C707394F8960108B9AA
:2022900012F0CEF9A1793868DFF8D8A26943084494F896114A1E02740023A17938686943C8
:2022B000084400214174A279396801F112006A4301F1140C8352A279D8F8000000EB42136D
:2022D0006A434CF80230A2796A431144A64A8A61DAF814100B78DA074CBF4FF0100C4FF0D4
:2022F000000C99074CBF202100215A074CBF402200221B0700F10803A07941EA0C014CBF4B
:202310004FF0800E4FF0000E0A4340014EEA020242F00F021A54D8F80000A17900EB4110F2
:202330000B224272D8F80010A07901EB401104228A728E4A1378D8F80000A179012B00EBF0
:20235000411002D10121C17203E0DAF828104A78C272D8F80000A17900EB41101F22027632
:20237000D8F80010A07901EB401100224A76A07909F078FFA279D8F8001052018850A2796B
:202390005301C85820B90721204611F082FECDE07748016801EB021013F000FA744AA0792A
:2023B0001368D8F8001003EB00130A1D40011350081DA27952018058F063A079400109586D
:2023D000716404219BF8000009F004FB644BB2881978901C11B10AB9F088801C618A94F832
:2023F00006B041434FF4C87205FB0BFBB1FBF2F1491CA061616140F6C41C23683A68CDF851
:2024100000B002F1080ED3F80CB00CFB00B0411A0098A1F5A8614EF8001002F10800A179B8
:2024300069434058986002F10C01A07968430C32095C01F0EF011154A0793968684301F14C
:202450000C020C31125C02F07F020A54A0793968684301F10C020C31125C02F0F00242F0BC
:2024700002020A54A179386869430844417B01F0F00141F0010141733868A27900F10801FE
:202490006A438858216808616369D8F80000A17996F802E05B0000F1140249010CFB0E3393
:2024B00003F5F6635350A17900EB4110C27C02F0F00242F00402C274D8F80010A079DAF867
:2024D000303001EB4012F0880CFB00F61868301AA0F51670D061A27901EB4210C17E01F03A
:2024F000F00141F00401C176A17938684D4321684019486099F80100810614D504F5977197
:20251000488F1B2804BF888F1B2808D1C88FB0F5A47F04BFB4F86E11B1F5A47F03D01421BD
:2025300020460DF0EFFA134907200870BDE8F14F01F0B2BF104F0020B44D0020684E002087
:20255000F44B0020FC2100206E4F0020F821002084210020504F0020A70701006D0F010009
:20257000784E0020946801005C4D0020734F00208C4E00206F4F00202DE9F843040014D1AB
:20259000002012F04DF810E020460EF041FB012808D065E08A0740F1548101F0FD010170F7
:2025B0000020B07120460EF0FFF904F16605687D002855D0697CDFF8A494022904F1EC07D5
:2025D00004F59E7804F5B07604F5C67035D0042949D005295CD0062900F08A800729D3D0ED
:2025F000092900F0EC800B2900F0C1800C2900F008810D2900F0D0800E2900F0EA800F29EB
:2026100000F02881102900F04281112900F05C81122900F00E81142900F08781162900F000
:202630005A81172900F07581FC2919D0FD2900F09581FE2900F09B81A2E7297C012909D1EA
:2026500099F80300002815D01621204611F021FD012006E020460DF0A2FE2874E88A28834A
:202670000020BDE8F283297C012940F0948199F80200002800F0E580FC21204610F01EFA51
:20269000A07904F1B80204F1B00113F083F88CE7297C01290FD199F8020020B184F8941098
:2026B000002038607860B87A012868D10621204610F004FA79E704F1E7063078012809D16E
:2026D000204610F0A7F80128CAD10020B87201202874C5E770780028C2D004F1C70204F119
:2026F000A00104F1D70013F051F8012030705CE7297C012940F0538199F8020000283ED071
:20271000618CE18320460EF04FF90120287020460FF062FB0120A871397A787C012900F036
:2027300010000FD148B1002088F80500D8F8001098F8060049080DF0E9FAA079002113F017
:2027500021F80EE040B1D8F80020C54804F5A1735208214612F010FCA0790122002113F038
:202770000DF8002038723873F872B8721DE7287C012805D1F97A012908BFFC2197D060E06C
:2027900020460DF0F3F90128A3D10020F87284F894000120287408E7297C012940F0038174
:2027B00099F80200002809D0002184F894100120287020460FF010FB0120A87188E0297CC4
:2027D000012940F0F48099F80200D0B3618CE183E8E6287C012840F0EE80387C022804F1A8
:2027F000FD0204D1A179002012F0C4FFDAE6032840F0EA80A1791A2012F0BCFF0020387494
:20281000D0E6287C012804F20D1140F0E8800B78012B04F5897240F0E8804878012807D17D
:202830005388009300201388CA78A17912F09EFFB8E6297C012940F0E78099F802000028A5
:20285000F6D1298B481E288380B200287FF408AF2221FAE6287C012840F0DA8098F8091035
:20287000012902D130780F281BE098F80800012826D1002188F80810288D000900901A2078
:20289000AA8CEB8CA179520812F06CFF8AE6287C012840F0C18098F80910012910D1307890
:2028B00010281CBF002011F0BBFE002088F80900288D00090090AA8CEB8CA1797078E2E7AC
:2028D000287F0028E2D1BCE7297C012940F0A88099F80300F5E7297C012940F0A580017B8C
:2028F0004A061DD4CA0709D501F0FE0101730023A179707800220AF059F853E68A0740F1E7
:20291000988001F0FD0101730023A17900221A20F1E7297C012940F09980027B510690D56A
:20293000017B01F0BF0101733CE6297C012940F08F8001788A067FF52DAE01F0DF010A077C
:2029500001700AD501F0F7010170F08B0090738BB28B318BA07912F031FF21E6A97E2046DC
:2029700010F0ACF815E7002011F05AFE78E6A87E0F28F8D1FC21204610F0A0F8B8F81200CD
:202990000090B8F81030B8F80E20B8F80C10A07912F01CFF64E620460AF0A2FE5DE62046D4
:2029B0000EF0E0F959E620460FF0FAFB55E620460DF074FB51E620460CF094FE2874E88A51
:2029D0002883012038744BE6288B401E288380B20028F8D1A179222012F0CCFE38E70120F7
:2029F000887020460CF090FA37E6288B401E288380B20028E7D15088009022201388CA7871
:202A1000A17912F0B3FE23E720460EF011FC24E620460AF01BF820E620460AF067F81CE61A
:202A300020460DF05DFC18E61621204609F0CCFD13E6288B401E288380B20028C3D1A179B0
:202A500000230022222009F0B1FF01E71721ECE7142120460BF044FCFFE500BF5C4D002001
:202A7000A5EE00002DE9F04FADF1240D00F054FAB54CB648DFF8D8B2B74E8146E068B74ADC
:202A900000214FF0FF3312F095FE071CF6D00020049008A904AA05A810F056FB002840F0AD
:202AB000C580BDF8141020784FF00108102940F0B6809DF82010884240F0B180049D298827
:202AD0004FF6FF728A4277D02B78913B2ED01F3B40F0A5806978162910D02A79A0683178AD
:202AF0007E2A08D07F2A1BD12A898FA30092002210F0DBFF14E02A7A8FA3F7E710F034FE64
:202B100003464046934900906A88102005F0C0FE30B940460CF084F94FF0000865617EE042
:202B3000297905F1080012F019FE78E068780E3823D0801E3BD02E3871D1A8780C286ED177
:202B5000EB78A1683078ABB9401CC2B2C6A308461146002210F0A9FFE879012814BFC7A081
:202B7000C8A00090A1683078C8A3801CC2B20846114651E0401CC9A3F8E7A88842F203013C
:202B900081424CD1A9680D78002D48D1491C02A80A684968026002AD41602878B14902AA3F
:202BB00000F0FD002870102005F072FE37E00820002104F029FE32E0688840082FD3656956
:202BD0006DB3607805F10803401C6070CB4900936A882B79102005F05BFE5FFA80FABAF187
:202BF000160F12D02078BAF1040F0ED0656910F0BBFD03460020574900906A88102005F054
:202C100047FE50460CF00CF909E0607800903178A068A7A3491CC9B2002210F046FF049899
:202C300020B1B8F1000F01D012F029FAF80FC0F0A3809BE02069054612F08CFD854208BFC3
:202C5000002502D0856810F013F9281CA84600F08D800188491E00F08380491E41D0891E43
:202C700002D00C395BD07EE08078010920D2400979D30E2011F02EFF002874D17068717891
:202C900003790A46934211D0FF2A6CD000EBC203DD682DB900EBC100006910F07BF862E098
:202CB00000EBC2000369084698475CE08068F4E70D2011F00FFF002855D1716870780979F2
:202CD000814207D0FF2809D0401CC0B210F008FAFF2802D1002010F003FA707007F07EFC12
:202CF00041E083783578D4F808A06D1C43B19B1E39D102200DF121010FF01CFE71A305E0F3
:202D100000200DF121010FF015FE71A39DF82100E9B200220090504610F0C7FE23E08078E4
:202D30000BF002F91FE0C0464D54552053697A653A20256400C046C046432056696F6C618A
:202D50007465643A202564000802002078150020CC160020F74B0100041600200D0000C020
:202D7000807803F073F9404610F082F8206912F0EDFC00283FF45EAF780807D3624812F00A
:202D9000CDF902200DF122010FF0D4FDF808FFF475AE5E4812F0C2F95948D9F80070008867
:202DB000ADF808002FB95B4859490AF0C7F8C9F80000022702AD287811F096FE4FF000085B
:202DD00008B94FF001082978D9F8000042460FF095FD6D1C7F1EEED1DBF804000DF116017E
:202DF00012F0EDF800280CBFBDF81600BBF80000A0F2093010F089FC3EA20CCA06F02CFC47
:202E10000CF0BCFA3A490BF066FE0FF0A7FF82B23C49ABF800200B6806A803600979017175
:202E30000025ADF81A2004278DF81C5006AA9DF81C1012F8010B7F1E80EA01008DF81C0032
:202E5000F5D1606A401C60620090A06809212A4622A310F02AFE0320052106AA08F062FB47
:202E70000CE6C04695B400105048592055706461746520436F6D706C6574650032204D6223
:202E9000707300C031204D62707300C043757272656E74205048593A2025730050485920E5
:202EB0004368616E6765206661696C75726500C05273702073656E642072657472793A2045
:202ED000256400C04368617220333A20256400C04368617220313A20256400C050485920A2
:202EF000707265666572656E63653A20256400C000401C460000000000689840DDFE001033
:202F100032630100FB66010080020020A4020020881500207C1500202DE9F047BA4C04F18B
:202F30000C012046ADF1580D0EF06AF804F138050021284612F006FC012741F288320023AE
:202F5000B249256104F1780000970EF0A9F84FF0804000210DF082FADFF8B4921F2206231D
:202F7000A0604946102005F093FC0020ADF82C0008268DF84B0010258DF84A708046ADF830
:202F90002E603946ADF830500DF14A02ADF832804FF47A70ADF8340040F2053001F0FCFFF5
:202FB00040F2063002210BAA01F0F6FF4FF442701E2104F1590201F0EFFF40F207300721E7
:202FD00004F1280201F0E8FF4FF4447039460DF14B0201F0E1FF40F2113002210DF12E0294
:202FF00001F0DAFF40F2123002210CAA01F0D4FF40F2133002210DF1320201F0CDFF4FF41C
:20301000457002210DAA01F0C7FF04F1440042461523C9490090284605F03AFC4946284629
:203030000622A02305F034FC494628460722A02305F02EFC494628463246A02305F028FC17
:20305000494628460922A02305F022FCCDF828808DF84C700AA88DF84D70BA468DF84E806D
:20307000B64E00904FF4816204238DF84FA03146284605F00DFC13A84FF480623B46009017
:203090003146284605F004FC0DF14D0040F202423B4600903146284605F0FAFB0DF14E0059
:2030B00040F203423B4600903146284605F0F0FB0DF14F0040F206423B46009031462846F6
:2030D00005F0E6FB9E4928464FF0FF3205F0E0FB9C4928464FF0FF3205F0DAFBA9469B4816
:2030F000CDF8009013239A4A974F01903946284605F0CEFB974D2878800011F0F5FF964E52
:203110000146B16069B14FF6FF700FF097FE9349484606F11C02009011230191394605F09C
:20313000B7FB8F4908A80B790A68037102270260FF2306A88DF850704A1D8DF85130136853
:203150001279036001F10A0302711A6804A802601979017108AA4046052108F0E3F95046A3
:2031700014AA014608F0DEF951460DF15102384608F0D8F906AA0320052108F0D3F904205B
:20319000052104AA08F0CEF904F1200004F1300274497060484605F07BFB207810F0E4FA54
:2031B00071490246484605F073FB207810F0DCFA6E490246484605F06BFB6D49484605F07D
:2031D00067FB6C494846042205F062FB6A4E56A04FF6FF713060404610F050F9A76857B1E9
:2031F000304606793EB1654A0521117097604146D1600FF0CFFD6249484605F049FB614EEA
:2032100077783078E7B905E008020020AD4C0100BD84011004F11C01316210F0A5FA06F1D1
:203230005407CDF80080024606F14400019006F11C03029754490393B378484605F028FB17
:20325000524948460C2205F023FB514E06F1180006F10C0109F072FE4E49B06011F01AFE19
:203270004D4FB0684FF4E0213A46521E0FF034FEB0684FF4E0213A460FF02EFE474FB06870
:203290004FF0C0513A46521E0FF026FEB0684FF0C0513A460FF020FE4149CDF8008006F1F0
:2032B0002400142243460DF0FBFE04F19C0764223C483D49706013460426384600960DF099
:2032D000EFFE384611F02AFF2878800011F00CFF364D0146696051B14FF6FF700FF0AEFD2A
:2032F000334B05F11C0005214A4610F0C9F90DF13600414614220BF02FFC05F108000DF1A3
:203310003601142209F080FD18342C600EF0E8FD04A811F04FFE404604A90EF001FE254967
:20333000086016B0BDE8F087424C45205065726970686572616C00C059E100000D4D0000E0
:20335000D93E01002942010091360100B0670100BC0B0020694F00206C0E0020BC6701007C
:20337000EC6601001D4401005188011031810110A5D8000079480100F4140020041600203A
:20339000C5AB0010A0050020A71D010081B300100C130020D52801000E0007800E000010DF
:2033B0002924010033B500009D4C01005412002098670100D01600202DE9F84FDFF82844B1
:2033D000A178FF2904BF002011F02AF9A07811F09FFB044604F1680604F5C97531680868F5
:2033F00004F1900710B10022E28310E0B17B002904BFB07E00280AD13978002904BF287873
:20341000002804D1217F012904BF608CE0832189E08B4118491C6181204610F0EDFE012894
:203430001EBFDFF8C8030178012904D120890022401CE2836081B07E01280CD1B28B6189BD
:20345000208912F07BF930B121896289481C82422AD0B28B1FE0387801280CD17A886189C7
:20347000208912F06BF930B121896289481C82421AD07A880FE02878012815D16A88618929
:20349000208912F05BF900281FBF2189481C6289824209D06A88824206D0501E608180B274
:2034B00012F048F9401EE0832878012801BF69882089401C814207D16A792A7100202870A8
:2034D0001346A17909F072FA04F59A71087920B120890021401CE183608104F12E07B07EEB
:2034F000012801BFB08B2189491C884238D1608104F18601204610F05FFEB08C618960848C
:2035100000202077E083E0894118A181B08B218912F010F98046B988308C728C01FB0808E0
:20353000F08C8A4204BF3989884202BFB18CFB88994207D000090090B38CA1795208002045
:2035500012F010F9B07F3870708CB880B08CF880F08C3881204611F00FF80220B07601E0C5
:20357000B7F80480E28BDFF88892501C00FB08F140F6C41808FB01F000902368D3F80CC092
:203590006044DFF870C2D860DCF800E09A489EF800A003884FEA9A1ABAF1030F13D199F8C0
:2035B0000FC05FEACC7E48BF00230CD45B1C9BB2012B11BFB4F812C004F59A7CBCF806C0C8
:2035D0000CF2DC5C01E0B4F812C00CFB01FC4FF4C87EBCFBFEFCDFF824A20CF1010CC4F8A5
:2035F00014C0038084F820204FF01C0BA379A1610BFB03F3DAF80010226801F1080001F1D0
:20361000080CC058D3681061A0790BFB00FE60691B1A4CF80E3001F10800A3790BFB03F313
:20363000C058906001F10C02A0790BFB00F00C31125C02F0F00242F002020A54DAF800006E
:20365000A279811C0BFB02F200208852287908B910F0E6FFDAF80000A27900F110012879D7
:203670000BFB02F240088854A079DAF800100BFB00F00844002141742879042814D1A0793E
:20369000DAF800100BFB00F001F110022B7A125C103142EA83020A54A179DAF800000BFBE9
:2036B00001F1084420214174DAF80000A27900F112010BFB02F200238B525149A2790968B5
:2036D000520101F11403D4F814C09B5801F1140E03EB4C034EF80230B27E022A0AD1A279D0
:2036F000520101F114033E789B5808FB063301F11406B35099F80F20D30749D5A2790BFB91
:2037100002F200F1080300F108069B58A3F5A863B3500830A27923680BFB02F282589A6065
:203730000098121A1A6101F11402A079400101F11403125802F5F6621A502879042807D107
:20375000A079400101F11402125802F5B0621A5001F11400A27952018058C4F8340101F1EB
:203770001C03284AB888166BA57908FB00F730686D01381AA0F516705851A37901EB431058
:2037900021490D78012D0EBF0122916A4A7819E02879A37904280CBF4FF44B604FF4E6602B
:2037B00001F114025B01D258101ABA8808FB02F2A2F516729042D2D30821204610F069FC7E
:2037D00001200FE0C272A179DAF800000F4A0BFB01F10844216848600720107020460EF0D0
:2037F000BEFD0020BDE8F28F684E0020784F00205C4D0020084F002020220020F821002020
:20381000FC21002094680100734F00206F4F00202DE9F04F09AFADF13C0D08900A923888B6
:2038300009911E46ADF81800101C08BF002000F08481002700F101094FF0FF3A4FF0010BD0
:20385000B8466CE1252940F063811078521C0A922D2818BFADF8068005D15846551CADF838
:20387000060010780A9530281CBF4246434605D10A9908785A465B46491C0A912A28CDF876
:203890000080554616D1306804930A99CDF808A0C01C4B1C20F00300001D306050F8044C3C
:2038B0000A93002C0878009418D5ADF806B06442009413E044460AE0610001EBC4010918FF
:2038D000A1F130040A9908780094491C0A91302801DB3A28F0DBCDF808A004932E282BD1A4
:2038F0000A9908782A2801F101010A9111D13068CDF80880C01C20F00300001D306050F809
:20391000045C002D48BF454608782B46491C0A9111E0454643460AE0690001EBC50109185C
:20393000A1F130050A9908782B46491C0A91302801DB3A28F0DB02930AB1224604926C28D9
:2039500004D04C2818BFADF8048005D10A990878ADF804B0491C0A910BA9CDF80C800FABFE
:2039700007916428059300F08B80692800F08880BDF818C0752872D078286ED06F286AD0DC
:20399000702850D063283DD073281ED009980A990128A1F101010A9115D96B490C68B5F1E6
:2039B000FF3F03D0A84288BF6D1C00D8099D029508A80AA932466B46A0473F180A9903980F
:2039D00001F1010974E040462AE030680A99C01C20F00300001D306050F8040CBCF1000F0C
:2039F00001F10109014608B955A00146079111F0B7F80390B5F1FF3F5BD0A842C4BF281CDC
:203A1000039056E03068C01C20F00300001D306010F8040C5D468DF82C000A990395584654
:203A300001F1010945E0082035680490E81C20F00300001D306050F8041C082210230FA8BC
:203A50000BF0D4FC401E0790402101700A99079801F1010929E0082302E0102300E00A2330
:203A70000A99306801F10109C01C20F00300001D306050F8041CAA42BCBF2A1C049210E0C8
:203A90000A99306801F10109C01C20F00300001D306050F8041CAA42BCBF2A1C04926FF039
:203AB00009030FA80BF0A2FC0790059D281A0390009C241ABDF8065000945DB906E008A867
:203AD000202109AA10F030F87F1C009C641E0094F5D503980546401E039075B9BDF80600E3
:203AF000E8B10098401E009019D408A8202109AA10F01AF800987F1CF4E70798411C079152
:203B1000017809AA08A810F00FF803987F1CE1E708A809AA10F008F87F1C09F101094A4622
:203B30000A9812F8011C401C00290A907FF48AAE089808B14146017038460FB0BDE8F08F30
:203B5000286E756C6C2900C0646801002DE9FE43BF4C0F460646F80B80F05081B80880F045
:203B70003D81E07ADFF8F492B90F80F0B680607A002840F096803809C0F09580A07A20B119
:203B90000020A07205200FF0C1F900254FF001086570284684F8078007F01BFFAD4904F156
:203BB00074002A4611F09EFA207901281AD16079C0B9DFF8A482D8F8000000284CD04846DA
:203BD0000068006B804761694346401A000BA0611968E2698018B0EBC11F98BFE0613BD9F7
:203BF000E56101E084F80480DFF87482A8F115000068000A30D340F60900A08694F841006C
:203C100000F0F00040F0010084F84100E58694F8400000F0F00084F84000A56311F05CFA94
:203C300008F6FF7211686FF0020321F00201116004F13401C8F8FB3F8A4AC8F8EB1F116868
:203C50008908FCD3C8F8FB3FD8F8FF1F41F00201C8F8FF1F11F06AFD65610EF019FC8248EF
:203C7000056002200FF052F9112007F013FF307C10B90E2007F00EFFE5712572A07818B9AC
:203C900006F1380011F03CFA784811F0DFF878490878F8B10D7004F1D000042111F038FA92
:203CB00018E0380914D2B80BC0F0C98004F1240011F022FA061C08D0706830B17568F068FB
:203CD000B6F91C1000222023A84727F40057B6E00020607227F00807B1E020B104200FF000
:203CF00015F90020E072B168088840F602054FF0000885420AD0B0F5C15F07D00A8B4FF6F0
:203D10001F60104040F43470088306E00A8A4FF61F60104040F4347008826069E0B1D9F846
:203D30005400016804208847B0B1D9F80000006B80476169814226BF401A401E401A000BD0
:203D5000F060708AF168401840F6C411F06081422CBFB0F5FA7FF16094F8410010F00F0FF5
:203D70000BD1708CED1D854207D1B56930466FF4807142464FF00073A8473E4904F17400B1
:203D9000424611F0AFF9607958B10220ADF8000068460FF0DFFE84F80580BDF80800A4F855
:203DB000700001206070E078401CE07004F1200084F8068011F0A0F9002808BF47F00207AE
:203DD00002D0192011F08CF97569414630464FF080630A46A84727F0005730E004F12C0562
:203DF000284611F089F906F06FFD284611F084F927F0020708B147F0020720E011F06CF9F5
:203E1000014604F1280011F077F90646B569A80810D27EB125EA0500B061084611F086FC9C
:203E3000706850B12A46F068B6F91C1075680023A84702E0084611F079FC27F4804727B1A7
:203E500004F1D000394611F063F9BDE8FE83C046E0080020FD3E0100F42100208C0100106F
:203E7000150004401010044000000460C9AA0000F0210020D1A00000BB482DE9F84F002577
:203E9000BA4CB849056094F8E200002800F06581012800F02F81B64E02283CD0032840F0DC
:203EB0005C8151F8250CD4F8B8100029A0F5C060C4F8D400B8BF49420028B8BF40428142B3
:203ED00026DA4FF08057D7F8A4014568B4F8BC0030214FF47F42082300903046A847D7F8EF
:203EF000A4014568B4F8C00004214FF4F802122300903046A847D7F8A401B4F8D07045685B
:203F100020214FF440620A2330460097A847012584F8D8501CE151F8258C10F0A9FF2F4664
:203F300000B901273946934F38680028FCD0B146012609F10409D9F82CA03E6009B110F081
:203F50009DFFCAF30720C4F8BC0010F091FFAA4600B9B2463B68002BFCD0D9F800B0BAF162
:203F7000000F3E6001D010F089FFCBF38440C4F8C00010F07DFFAA4600B9B2463B68002B42
:203F9000FCD0D9F81C90BAF1000F3E6001D010F075FFC9F38120C4F8D000B8F5C061C4F8B8
:203FB000B81000F09C8094F8D80068B9C4F8D410D4F8C000C4F8C800D4F8BC70C4F8C47000
:203FD000D4F8D030C4F8CC30D4F8D410D4F8BC30002954BF02206FF0010004F1C8021768E9
:203FF00001EB41014018411000EB917107EBA1001060D4F8C810C4F8C43000291CDD1E292D
:204010003CDDD4F8CC0030B93429B4BF15391E21C4F8C81025E02A29BABFD4F8C8000B385D
:204030001E20C4F8C800D4F8C4003F28B4BF401C3F20C4F8C4001FE0D4F8CC00032812D065
:2040500011F10B0FC6BFD4F8C8000B30301CC4F8C800D4F8C4000028C4BF401E051CC4F89A
:20407000C450032508E011F1150FC6BFD4F8C8001530301CC4F8C800C4F8CC504FF08057CA
:20409000D7F8A401B4F8C43030214FF47F424568374800930823A847D7F8A40104214FF4F2
:2040B00000321123456832480096A847B4F8C860D7F8A40104214FF4F802122345682C48DE
:2040D0000096A847D7F8A40120214FF440620A23B4F8CC60456826480096A84701E084F8AF
:2040F000D85040F2FF50404502D8801C40452FD2082030E051F8251C1F4F4BF2F520484379
:20411000060A3868C0F3814001280CD11B480068006880470EF09EF910F0B6FE3111C01010
:20413000484306EBE03694F8E50030B91448006820F07F408019460801E084F8E55011481E
:20415000310C0660012741600F4D8760287808B90B2000E0052084F8E40004F0D1FABDE84B
:20417000F88FC0462D400C402C500C40980F002000A00C4000800C40B43F0050EC01001062
:20419000102009403C600C405E6701002DE9F04F0D46E80789B00BD510F0A0FD28B10021A1
:2041B0008160AE48006800B1804785F0010052E1A80710D5002006900021049000230290DB
:2041D000009005910393019101223C2011F0AAFA85F002003FE11E246807DFF88482A14F48
:2041F00040F19B800020079082469F498878FF2804BF002010F014FA386890F8A00010F01C
:2042100087FC06463868C07A96F82EB1022818BF032806F5947906D108F10D0011F07EFAEE
:2042300008B908F1070A4946584611F073FA88B33868807A002818BF012804D14146484621
:204250000FF0D9F904E04A46594640460BF0F8FDFF283DD06043834608EB0B04062249469B
:20427000E01D10F049FB18F80B0040F0020BE01D079006223868817E01F0010186F82E118A
:2042900004F10109386800F1140106F5947010F033FB1DE04946584610F0DAFBC0B14A463C
:2042B000594640460BF0CCFDFF2811D04443444404F10D0011F032FA40B904F10D0011F0C3
:2042D0002DFA002804BF607F012801D14BF0020B06F12C005B460178069141890909059154
:2042F000728C079904920122C088029140080390CDF804A0CDF800900020B17911F012FA8C
:20431000D6F89C0159498842B0790CBF0021012109F04EFE85F004009DE0280610D5002011
:2043300006900021049000230290009005910393019101223B2011F0F5F985F080008AE053
:20435000E8043CD508F1070108F10D0011F0DEF938684179012923D1017A012918BF042950
:204370001ED1C17A022918BF032919D1817E00F1140240460BF064FDFF2811D044434444EC
:2043900004F10D0011F0CAF950B9E11D04F10D0011F0BCF938680622E11D143010F0ACFAD8
:2043B000334934484A6800784FF480510DF08EFC10B18E2011F0A6F985F480504BE0A80500
:2043D00005D510F055FD2C4901200860FEE7690504D508F04EF985F480603CE0680405D57D
:2043F000812011F08FF985F4804034E0A80431D5224C206810B1002010F012F94FF0FF3034
:2044100020600BF03DFF1E4C216851F8202F684690471C48C16A026B2468009101920021F8
:20443000029100F134014A6809781368806A03938DF81010ADF812006B46D4F80080124AD0
:2044500012491348C0471349086003F0F1FE85F4005000E0002009B0BDE8F08F204F0020B4
:2044700098170020104F0020684E0020A7070100784E00206E4F0020FC002043044F0020C4
:20449000F04E0020A0130020282100202416002088490020EC4E00202DE9F04FB64D6868A5
:2044B00085B0019020B905B0BDE8F04F11F026B90178DFF8C882B24EDFF8C892DFF8C8A2C8
:2044D00001291CBF0229042946F2A81741F64C5B05D0402918BF802900F09A8043E110F0AE
:2044F000FDFC0028FAD00198007805F015FB0090446814B9002010F093F89AF8010000283C
:2045100060D002F0DDFA10F003FB02900168009801914F680BF01CF9022827D000990A786C
:20453000012ADBD1994B19680A7A19F80230337018B911F0DFF85844A0602069C17E01F0C7
:20455000EF01C1762069C17E41F08001C1762069C17E01F0F00141F00201C1768C48B96869
:2045700041182069C16101210098A0E001980178802913D10822874832700178012903D03D
:204590009AF80100012803DD78690121C17213E0D8F828107A690878D0720DE07D490720BF
:2045B00030700A787869012A02D10123C37203E0D8F828104A78C2720298817901988AF801
:2045D0000210CBE00098002888D00199009A0078914205D101281CBF002010F021F815E06F
:2045F000012840F0C080694801680A7A19F80200307011F07FF83918A06811F077F818B9AF
:2046100011F078F85844A0600120A8700098A5E09AF8010000287DD002F052FA10F078FA6F
:2046300004462068029047689AF8020010F070FA039010F059FC10F0070F3DD0A87805F039
:204650006BFA019041680198009102990BF080F8022831D001990A78012A2AD14B4B1968EF
:204670000A7A19F80230337028B911F043F883440098C0F808B000990869C17E01F0EF01AA
:20469000C17600980069C17E41F08001C17600980069C17E01F0F00141F00201C176009A83
:2046B000B9683B4841181069C16101210198A97054E000200FF0B4FF0398A04228D0029869
:2046D0000178802913D10822324832700178012903D09AF80100012803DD78690121C17236
:2046F00013E0D8F828107A690878D0720DE02949072030700A787869012A02D10123C3722A
:2047100003E0D8F828104A78C272A0798AF80200029823E010F0E8FB10F0070F29D0A8785C
:2047300005F0FAF904462078D4F80480012820D116490A68107A19F80010317010F0DAFF3F
:204750003918D8F8080010F0D1FF20B910F0D2FF5844C8F808000120A870204605B0BDE849
:20477000F04F06F00DBE05B0BDE8F04F00200FF057BF05B0BDE8F08FC8210020946801007C
:204790006F4F0020289A0110684E0020104F0020F0D8FFFF734F00202DE9FE4F0F46994CBE
:2047B0000168E16241688068E0609748A16080479648E16A0160A168DFF870B24160E1684F
:2047D000DFF8648281609249002FA246C16069D03D68E8788DF8080028798DF8090002A874
:2047F00010F080FFA86808B18A490160E86808B189490160894C2878207068786070A8781C
:20481000BE68A0703178E1707368636072696261B168A160F168E160316921612E697B68D2
:20483000A6621868A0616869E062A8692063287F84F834002A6AA263786886681EB9002083
:204850000FF0EEFE00E026627868C06818B900200FF0E6FE00E060627868406818B90020FE
:204870000FF0DEFE00E0E0612869A062F86881680E6806B96B4E6A494FF001094E60C6688A
:2048900081F801902EB900200FF0CAFEF868454601E045462E6000685C46FE68A061706802
:2048B000E06106E000200FF0BBFE4FF001095C46454628685E494668621C04F11403502094
:2048D000B04710B1286880688047DAF808008047594F0026834669467E7056483E7004228A
:2048F000206130460EF07AFC0098B0F5801F0CD020B90FF06DF805F0C9FA08E00DF0B0FCFF
:2049100010F024F90420788001E00FF061F84B4FB0462868C7F808808069A6608047786020
:204930004748468080F80090142010F0FFF9FF211422A06210F0FCFBE01CFF21022210F04F
:20495000F7FB142010F0F2F93E49086008681422314610F0EDFB3046FCF72CF848460EF029
:204970008BFB39480188FF2906D1022101807822001D314610F0DCFB032010F0AFFE0420FB
:2049900010F0A8FE052010F0A1FE062010F09AFE07200BF049FE2D4E0820307006F14000FC
:2049B00010F08CFE0CF0DCF8363605200A2132460FF01DFD38B14046C0F10901401C06F8BC
:2049D000011B0A28F8DB2F68214909200DF10A0201AB7D68087010204146A847A06ADAF8E7
:2049F0000C10E2690A270A309DF80A307F1E00F8013BF9D1921E5846E261884702F0E2FF38
:204A1000BDE8FE8FAC10002041490010F844002004580100AD38010019480100A01300200A
:204A3000B4160020FBF3000074170020A4140020693F0100D948010054130020BC210020BC
:204A50009C05002014220020D8110020EC0C00202D2200202DE9F04F0546A64CA878216A62
:204A7000ADF11C0D801F00F03E81C01E00F02981401E78D0401E56D0C01E4AD0401E40F0E9
:204A90003581207A617A00283FD1607800283BD0A88810F00FFE071C00F02881A87A400835
:204AB0000AD3787940B1E968890A05D2B91D01AA07F088FE0A2825D0207B022802D1A87A8D
:204AD00000091FD36078AE887979C0B1607CB0B90120607405F10802304603F047FD00284B
:204AF00040F00481206A002800F000814368002B00F0FC80002130460A469847F6E00521CA
:204B1000304603E0032100E00521A88810F0CEFDECE0002900F0EA804B68002B00F0E68084
:204B30006A780221CBE010F0E1F8002800F0DE80276A0FB1386868B9286900280CBFE06987
:204B50000120698910F0AEFD002800F0CF8068890121DBE7286900903C6869892A7B6B7B09
:204B7000E81CA047C2E068784FF00008002840F09580A8794008C0F09180606A002840F0B8
:204B90008D8001A841460E2210F0D2FAA88810F091FD061C00F0AA806869002859D08146E9
:204BB0004146062209F111000FF0C1FDC24620B3484606220FF0BBFDD8B999F8100009F1FA
:204BD000110B474605907F1C5846FFB28BF800700EF014FF0A280BDA474B059A0101A1EBC3
:204BF0004001C9188879824202D1002FEBD100E01FB947464FF0010A6F61BAF1000F09D10D
:204C100009F1110101A806220FF076FE99F810008DF80A00BAF1010F1BD06F69CFB1387C52
:204C300007F1110106228DF80A0001A80FF064FE06F10C00B11D06220FF05EFEB01D07F180
:204C5000110106220FF058FE387C40F00200707107E07079B11D06228DF80A0001A80FF0F1
:204C70004BFEA9799DF81120C1F3800010438DF81100080905D39DF8110040F008008DF88A
:204C9000110001A8294602F00FFB28B92078022106F0A0FE40462AE04FF0150810F054F976
:204CB000206A18B343680BB3A8886A7801219847B8F1000F1AD0206A032142464368A88860
:204CD0001BE7E878291D002207F07CFD0A280DDA410001EB800005F10C0225300421C0B2D4
:204CF00005F076FD02E0A8880BF0BEFF012007B0BDE8F08FEC0C0020DE0D00207CB5A34D32
:204D1000144602460026A2F58062192A1BD8DFE812F031012A012201190111010C01040185
:204D3000FD00F300E700DF00D700C500B9001A001A00970081007A0065005C005200470038
:204D50003A0030002500282880F29A80022940F09780218810F0A2FC064614E1012940F084
:204D700011812178284601750121C1740FF0DAFE09E1012940F00681002C00F0038128460D
:204D90001230024614E0102940F0FC80002C00F0F98028465C30102221460FF0ADFDF2E0FD
:204DB000012940F0EF80002C00F0EC802A46921D21781046E4E0262940F0E480002C00F0C1
:204DD000E180284626226C30E6E7012940F0DA80002C00F0D7802846401D9CE0602900D17B
:204DF00044B9012940F0CE80002C00F0CB8028460D3090E005F19200214660220FF07CFD93
:204E100001206873BFE0012940F0BC80207810F041FCB8E0012940F0B5802178022900F39E
:204E3000B180284600F10C0211702178022918BF301C02D11021C172012010F027FCA2E05F
:204E5000072940F09F80611C684606220FF012FC20786946324607F0B5FC04460A2C0FDA93
:204E700010F010FC38B9204604F0EAFE0EF04EFF0BF076FE87E0284601212C30015582E01E
:204E9000022680E001297DD12A462178907B0028917378D12078012875D1E9E72846027BB7
:204EB00001296FD1022A04D02178072901DB102904DD022A66D12178102963D1C17262E0DB
:204ED00001295FD121780A295CDA2846093057E0012957D12178022954DA284608304FE06F
:204EF00000294FD110F0CEFB10B90FF0C7FDBDE7284601210F3043E0042943D12168244838
:204F100088423FD328461C3001603CE0012939D12B4603F10A00217832E0012932D121785A
:204F300002292FDA2846C01D2AE010292AD128464C3030E7012925D12178022922DA284655
:204F5000001D1DE001291DD1217804291ADC2846C01C02462DE7012914D12178022911DAEF
:204F70002846821C25E702290CD1218828461630018008E0012905D12178022902DC05484C
:204F9000017000E0182630467CBDC046EC0C00203F420F00ED0C00202DE9FC41A0F20137DF
:204FB00014468846022F40F232819B4E9C493F1F0F2F04D9143F4CD0BF1E1CD011E0DFE86C
:204FD00017F0CF00C9000D01FA00C100B9002601AF00A700100010009D008F007F007400E4
:204FF0006600282880F21381B8F1020F40F00F818849238807E1B8F1010F40F00881F0782D
:20501000012800F00481324620781179107189B9002800F0FC805078012800F0B5800428AF
:2050300000F0B280062800F0AF80052800F0AC80BDE8FC812078002840F0E980507803283A
:2050500000F0AF80072800F0AC80052840F0DF80A7E0B8F1010F40F0DA802078012840F05F
:20507000D68006F1EC000FF029FE002840F0CF803446002004F13A0109F0AAF8002840F05D
:20509000C68004F1C80010F04BF8BDE8FC81B8F1020F40F0BC8020880A28C0F2B880B0F509
:2050B000486F00F3B4808E1C17E0B8F1020F40F0AE802088B0F5FA7F80F2A9800E460CE0A8
:2050D000B8F1020F40F0A38020880628C0F29F80B0F5486F00F39B803E363080BDE8FC815C
:2050F000B8F1020F40F0938020880628C0F28F80B0F5486F00F38B803C36EEE7B8F1010FB2
:2051100040F085802078062880F28180454E0EE0B8F1010F7BD12078042878DA0A3606E04F
:20513000B8F1010F73D12078082870DA09363070BDE8FC81B8F1010F69D12078042866DA58
:205150000836F4E7B8F1010F61D1207804285EDCF61DECE7B8F1020F59D120880E36BCE7E4
:20517000B8F1010F53D13079012850D032462078D178D07069B9002849D05078012803D090
:20519000042818BF052842D101200FF0C7FDBDE8FC81207800283AD15078022818BF0528F5
:2051B00035D110780EF0E0FA1C490246102003F06FFBBDE8FC8106F1830500211F222846CE
:2051D00009F0CAFC21464246284607F01DFE44463078B4710EF0C8FA002311E006F1640506
:2051F00000211F22284609F0B7FC21464246284607F00AFE4446307874710EF0B5FA0123DF
:205210000094094901950246102003F041FBBDE8FC81C046BD840110A0050020994501102D
:20523000E0050020DA050020094501102DE9F04F9E4C20780E46F10BADF11C0DC9036ED102
:20525000B0085ED2606AA16A720807D2F00828BF86F0040680F02581002023E1858861B96E
:2052700004F11800924A00904FF6FF710223012010F004FA0146A16221B304A8009000272B
:20529000019702230293FF220392228B28460DF1120301F00DFB58B99DF813009DF812204F
:2052B000A16A12EB002204D0498928460CF052FDA16A228B08463B464FF6FF7110F0DAF946
:2052D0000146A162206A00291CBF012186F001061FD168B14368616A5BB188880022012168
:2052F0009847206A676A4368B888032100229847616A88880FF020FC0FF076F986F0010673
:20531000CFE00020014601F0CFFF30B1012186F00206207806F05EFBC3E00221F7E708F0A4
:2053300001F95FEA000800F0BA80054628784FF0010AB03812D0401E03D01F3800F0A5804C
:20535000A7E02879002840F0A480B8F80200B8F80610B8F808200CF0FDFC9DE02879401ED8
:2053700041D0083803D0743800F0828087E068781A2879D0688881460FF0E0FD801E18D070
:20539000401E7CD1288901280AD16889032807D1E9688A78484604210BF09AFF024600E0E7
:2053B0001822206A00286AD04368002B67D0042116E02989688852460129814609D1698998
:2053D000032906D1E9688F781FB910210BF080FF0246206A002852D04368002B4FD00521A8
:2053F000484698474BE02B7A688805F10807082B814639D10FF0A2FD801E12D0401E33D1E7
:20541000287B0A2818BF122205D16889042100220BF05EFF0246206A30B3436823B30421DB
:2054300020E07888102100220BF052FF237D834693B1484610F03EF970B11E490B784BB93C
:205450004179831D524601F00101084619460FF047F901E05046E074206A28B143681BB1C6
:2054700005215A467888984768880FF065FB06E06A880FF063FD014610460CF0D3F82979EB
:2054900005F1080010F06AF903E04046FFF7E2FA8246BAF1000F02D028460EF0FDFE86F42B
:2054B0000046B0B207B0BDE8F08FC046EC0C00208E6401005A4F00202DE9FC41884C894A85
:2054D0002678894F894D8A490D2E30464FF4A0534CD8DFE816F003010E000E000E000E0089
:2054F000FB00FB006800FB00A700A700D800D800DF008049176041F204464C887E4FB44212
:205510001CBFB1F81AE0B6450BD0B1F83280B0451CBF41F20A46B44203D0B64518BFB045E9
:2055300002D12E80176076E0022C744E2C8035D94FF48067E41B1AD0241F012C1DD94FF4A7
:205550007F77E41B1BD04FF44067E41B0FD0A41E012C0CD9241F0AD0641E012C0DD940F2DB
:20557000F937E41B012C19D9241F08D0AEE0022814BF2B80624E16604DE0624EFBE76248ED
:205590000468257A012D05D141F20240488048834886F0E74B804B834B86ECE700200FF0E3
:2055B0003FF8832096E059488178FF291ED01C2041435748176040F204460068841C645AC3
:2055D0002C80A41B012C534D10D94FF47F76A41B15D00A3C012C14D940F6F636A41B032C0E
:2055F00084BF641F012C0ED9A41E012C76D940F2FD36A41B07D0641E012C02D905E041F2E6
:205610000143801C4352156005E000200FF008F8852010F0CBF8BDE8FC413F480078012121
:2056300006F0D8B94A882A8040F20443D21A55D040F6FC73D21A15D0083A4FD04FF47F73C1
:20565000D21A22D1354C364A2568364800680023CDE9002355F8086F334B0222B047334912
:2056700008803BE0092810D131490A68508960B1304908780BF0C4F9002100200FF0F6FFA9
:20569000002020702AE04888288000200EF0C8FF85201FE04A882A80022A0DD940F204403B
:2056B000121A1BD040F6FC70121A05D0083A15D04FF47F70121AE8D1887B801CC0B2B528F4
:2056D000A8BF662088730020488007E000200EF0A7FF8420BDE8F64110F068B8BDE8F38186
:2056F0006F4F0020204F0020A7500100504F002068210020204A00203D200000E9A200005B
:20571000FDBE0000755B0110104F0020684E0020F8210020B16600006E4F0020F04E0020FD
:2057300002000080EC4E0020F1210100424F002004220020714F002010B50B7884074CBFB5
:2057500043F0020303F0FD0304064CBF43F0800303F07F0304074CBF43F0080303F0F7038D
:2057700084064CBF43F0200303F0DF0310F0AA0F0B7004D0107840F00C00107010BD18B96F
:20579000117801F0F301117010BDF8B50F4600263878022814461D4667D178680178427833
:2057B000069801EB022189B2002818BFB1F5285F01D00B20F2BD4FF42850091A0AD0491EFB
:2057D0001ED0491E4BD0491E22D0491E28D0C53941D04AE0F8680FF0ADFC069B079980B2DD
:2057F000C21A8A42ACBF0846C01A80B2C118162904DA28800246F868C1180DE00D2636E0D7
:20581000F8680088022129802070000A60702EE0062028800622F96820460FF06DF826E025
:20583000F868B0B108212980018821700188090A61704188A1704188090AE170818821719C
:205850008188090A6171C188A171C088000AE0710DE029800BE04A480178CA0705D40120F5
:205870002880F8680178217001E02E8001263046F2BD2DE9F8460E468146307800240228C6
:2058900017469A4678D17068017842783C4D01EB022189B24FF42850091A08D0491E30D077
:2058B000491E55D0491E3FD0C63960D064E0F0680FF040FC089980B2884206D308460AEB17
:2058D0000001162903DB0D2457E0072455E0F3685246394618440FF00FF808985044ADF825
:2058F000200000210898F368C0F1160218440FF01FFC686800281CBF0268002A3DD0002188
:2059100023E0089888BBBAF1020FDCD139787878F26801EB00211180686800281CBF026852
:20593000002A2AD0012110E00898F0B9BAF1060FC9D1F068062239460EF0DEFF68680028AC
:205950001CBF0268002A18D003214846904714E0089850B9BAF1010FB5D13878002813BFCF
:205970000128F1680870802407E00B2405E02878C10758BF032400D501242046BDE8F2865B
:20599000E41600202DE9F04F8246DAF800600C465FEA0208ADF11C0D14BF00214FF0FF31BF
:2059B00006F1480083460FF015F9002818BF0B2040F00681002565708448F460B8F1010F0E
:2059D000057004D065700220F4600DF097FC2078012840F2AB80801E012868D9801E0128A6
:2059F00033D9801E012800F2DF800FF075FB06904FF0805000F5EE77D0F8DC01A378466A95
:205A1000009321782846062908BF0120019001200290A068228AE1686368B047814606985D
:205A30000FF084FEB9F1000F40F0C080B8F1000F02D00EF031FF02E050460EF017F9002846
:205A500000F0A4803868806A2AE00FF045FB06904FF0805000F5EE77D0F8DC010123066819
:205A70000093A168A27860682478AC46042C08BF9C466346B047814606980FF057FEB9F12E
:205A9000000F40F09380B8F1000F02D00EF004FF02E050460EF0EAF8002877D0386840680A
:205AB00080474949C1F8B0510D6081467EE00FF013FB06904FF0805000F5EE76D0F8DC0181
:205AD000E38A87690093E0680190208B0290A0780390207D04900121059122782846022AE8
:205AF00008BF081CE1786268A368B847814606980FF01CFEB9F1000F58D1B8F1000F02D094
:205B10000EF0CAFE02E050460EF0B0F800283DD03068006A80475FEA000947D13068C56963
:205B3000A168E28A2369E078A847BEE70FF0D4FA06904FF0805000F5EE76D0F8DC01E38A8B
:205B5000C7680093E0680190208B0290A0780390207D2946049001200590257805B90146BA
:205B700008466268A368E178B847814606980FF0DDFDB9F1000F19D1B8F1000F02D00EF031
:205B90008BFE02E050460EF071F808B9142017E03068406980475FEA000907D1306802696C
:205BB0002169E078904780E74FF0FF39B8F1010F02D002200DF0AAF958460FF0A1FA48462B
:205BD00007B0BDE8F08FC046504502402C2200202DE9F04FDFF80CB29BF80000002885B0B5
:205BF00004D0401E032804D9801F012840F2F780EFE07D4DDFF8F4812868DFF8F4910368AE
:205C10007C4E03F10807062207F1080103A80EF073FE0622B91C01A80EF06EFE3878C0F3F1
:205C300080118DF800101E24C10900F00F02032A39D16879C0F38000814233D12969062255
:205C500003A80EF019FB00282CD09DF8000001A90FF060FD002825D0314601A80DF0CBFCB7
:205C70000746FF2F1ED0D9F80000807A6743002818BF02280BD0012818BF032812D1701C98
:205C9000F25DC11940460FF0EDFC10280AD0F41901AAE11D40460AF032FA062201A9E01D1A
:205CB0000EF02AFE90E000F00F00052840F097806879C0F380008142F4D12969062203A8CA
:205CD0000EF0DAFA0028EDD09DF800003F7801A90FF020FD7F0940F2024A88B3314601A88A
:205CF0000DF089FC8346BBF1FF0F6DD0D9F80000807A002804FB0BF118BF012800910CD0F7
:205D1000022818BF03285FD10846711C325C014440460FF0A7FC102856D050460FF09EFCB4
:205D3000009806EB000A01AA0AF1070140460AF0E6F9062201A90AF107000EF0DDFD1CE00B
:205D50009BF8000002283FD19DF8001001AA30460AF076F88346BBF1FF0F35D004FB0BF0B6
:205D70003118487F012805D070BB01F10D000FF0D5FC48B350460FF071FC04FB0BF4D9F83F
:205D90000010305D88760622701C0119D9F8000014300EF0B1FD184918488A78510604D5D6
:205DB000F90758BF41F20A4101D541F204414180418341861248134A01801348134908604D
:205DD0000121107805F006FE29680A680020107105E000200EF024FC86200FF0E7FC05B00C
:205DF000BDE8F08F6F4F0020F44B0020CC470020104F00209817002084210020204A002062
:205E1000504F00206E4F00203D200000204F00202DE9FE4F05467E48002400680094C0098D
:205E30000ED37C48007858B97C497B4851F8112C104040F0817041F8110C20200BF024FFF1
:205E5000012D40F0E080DFF80092D9F8DC00012840F0D6800220C9F8DC000EF06DF901206B
:205E70000BF012FF5FEA000805D00120C9F8DC000EF072F9C9E00FF047F9A34602906848A6
:205E9000684DC0F800B0A86A016801208847012804D1584609F0C8FC012000906248634F04
:205EB000C0F800B0386811200FF000F800B1012410200EF0FBFF08B144F002040F200EF084
:205ED000F5FF08B144F004040B200EF0EFFF20B12868574E016B308888470A200EF0E6FFAC
:205EF00020B12868534E016B308888475248012606602868816944F0200088474F480660DC
:205F10000EF0CEFF00F001010191400814D2286A81684B4888478246BAF1040FF7D0BAF11F
:205F3000010F04D1286A42684548032190474549086820F003000860584600F099F92B687C
:205F50003868986B8047019801280CD0BAF1010F04D1286A42683A4831469047394908689B
:205F700040F0030008603048066028684169204688470B200EF09AFF20B128682C4BC16A64
:205F9000188888470A200EF091FF20B12868294BC16A18888847284806600322C9F8DC20A3
:205FB000264BC3F800B02868416B204688470128F9D1386804200BF067FE0446184806605D
:205FD0003868134800688009FBD30098012802D1304609F029FC0EF051FF08200BF054FE0C
:205FF00007460298C9F8DC600FF034FBFAF7CEFF0EF0B2F857EA040018BF4FF0FF3804E0A3
:206010006FF0040801E06FF001084046BDE8FE8F1410094080100020FFFFFCFC1500094093
:206030000C400940B8010010000222432C2009401463010010630100282008608001044392
:206050000040034024220840980F00202DE9F0410246834D814C2978A068521EADF1280D40
:2060700000F08380521E7DD0921E5FD0521E4BD0521E04D0521E42D0521E3ED03BE004F1A2
:2060900078000FF04BF87749102002F001FC7649C6B201AB1020721E02F0FAFB58B9009626
:2060B0002978A068002251A3C91CC9B20DF0FDFC0DF106000EE006AE40F21530314603F034
:2060D00053FE2978A06800224CA3C91CC9B20DF0ECFC30462D78A4680BF00AF86D1C03466A
:2060F0000022E9B220460DF0E0FC4FF6FF7000210DF0C4F976E00A462FE043A302E0C91CA3
:2061100043A3C9B200226BE0142008F089FEA0682978002244A30DF0C8FC00204FF6FF71A6
:206130000DF0ACF92A78501CC1B215E004F178000EF0F6FF142008F073FE2978A06800226F
:206150003CA3C91CC9B20DF0B0FC00204FF6FF710DF094F92A781146A068921CD2B20EF0B7
:206170006FFE3FE0002237A338E04FF4417008A903F0FAFD9DF821708DF8057000268DF815
:2061900008609DF822308DF807609DF824108DF806309DF820008DF80A109DF825208DF87D
:2061B00004009DF823708DF80B2001AB2F498DF809701A680A6058684860D4F808802F7882
:2061D00008A80AF095FF3F1D0346F9B2324640460DF06BFCA06829781DA33246C91CC9B27E
:2061F0000DF063FC0AB0BDE8F081C0464E756D20436F6E6E733A20256400C046436F6E6E95
:20621000656374656400C0464572726F7200C046436F6E6E6563746564204164766572743A
:206230006973696E6700C04654696D6564204F757400C046446973636F6E6E65637465640A
:2062500000C046C04164766572746973696E6700496E697469616C697A6564000802002048
:2062700004160020F17F0110097F0110270B00202DE9F84FDFF804B20746ABF13500DFF889
:20629000F0810068800880F0E28075480068006880477E490831D1F8009000254FEA297116
:2062B0005FEA995201F101010AD2C0F13E0210F10A0F4FEAE202D8BF08229142B8BF111C6A
:2062D000684BD3F87C21C2F30462162AA8BF203A1B68C3F30443162BA8BF203B9A465218AA
:2062F000162A05DA12F10A0FB8BF6FF0090200E015225D4B5D4E02F01F0141F4F8511980DF
:20631000316811F0030F18BF0125C90828BF45F002050FB145F00405434693F90710411A4B
:20633000052904DA9979A94208BF99886FD0DFF844E10F28A0F10F0829DB08EB0011A1F1A8
:20635000F0084FEA28210091072984BF07210091062988BF06215EF821600424774604EBAE
:2063700081043C594FEA950CA41BEE0804F0FF0124BFC4F3072631446F08AE0824BFC4F36D
:20639000074631446E0828BF01EB146104E000214FEA950C6F080091009C5EF824E05FEA47
:2063B0005C060EF0FF0424BFCEF3072634447E0824BFCEF3074634446E0828BF04EB1E6464
:2063D000009E89B2A8EB06267143803104EB1124AAEB02010029D8BF0121342209F0FF07BD
:2063F0004A4391B24FF6FF727943B1FBF4F18A4238BF111C802889B2998005DA10F1800F5F
:20641000B8BF6FF07F0000E07F20D8719D711A4800681F2918604FF0000008D340F2FF125A
:206430008A4206D24908401C8A42FBD301E01F219980134F0F39090940EAC10047EA00014E
:20645000CBF8FB1F0026CBF8FF6FBDE8F88F0D490D4F434608200F609B1D1870BDE8F88F8E
:20647000EC0100103C1100506E62084024220840E82100209C1300500820094035000940B5
:2064900000E7A48030100940FDFDA400AC3F00502DE9F84F0024774D774EDFF8E0B1DFF836
:2064B000E0A1DFF8E081DFF8E091D9F800104A7A01231820A34060431A420AEB000709D013
:2064D000087A38F810203A8000201BF80420BA73F87302E040F6010038800020788007F140
:2064F00018007860387B00F0EF0040F080003873097A01290ED141F28830B860387B00F07D
:20651000F00040F005003873787B00F0F00040F0020019E0002C0CBF0221002100F0F00082
:20653000084338733CB90FF0E5F800F5C870CAF80800022004E00020022CB860F9D1012036
:20655000797B01F0F00108437873641C3E61022C7D61AADDD9F80000017A01290EBFCAF868
:2065700034A00020CAF834000DF0AEF93060474880690078C1074CBF1021002182074CBF44
:206590002022002243074CBF4023002300074CBF8020002011431943014341F00F01317103
:2065B00000207071D9F80010887A00F003007071CA7A920002F00402104370718A7ED20037
:2065D00002F0080242F0100210437071087A012818BF042806D10020B071F071B06001F10E
:2065F000140216E0487FB07101F15D025078F071487F20B10B7FC3EB4313C8181E30B060B9
:20661000507828B11278C2EB42128B1803F15F001F4AF060726101F10C0030611D4BF07E57
:20663000727900F0E00040F08600F0761A48F061187828B1307900F0FE0042F040023071AB
:20665000164B987843064CBF42F0200202F0DF02727100202880A870E87028716871E88049
:206670002881A872E872E8600868C0F804A0BDE8F18F00BFB44D0020F44B0020409A01108A
:20669000204A0020109A0110104F002094680100D0470020784E002000204E0084210020D9
:2066B0007E488078FF2800D170472DE9F84F0EF02FFA054605F217100178012908BF41784D
:2066D00000F0A28005F17400817B022903D105F174020020907305F59276F18911B1307BBB
:2066F00005F078F968896E4F288105F58D78B87AFB793A7BF97A7C7BB8F800C000EB030E9D
:2067100096448E4474441FFA84FEB8F80440641CA8F80440F444B8F80240A8F800C004196B
:20673000A8F802404FF01C0C3468FCB1DFF8749195F806A0D9F8009009F10E0B0CFB0AFA29
:2067500009F10E091BF80AA034F81AB0F34424F81AB095F806A00CFB0AFA19F80A9004EB70
:206770004904B4F84AE08644A4F84AE0002B08BF002904D1002A04BF797B002923D02A89B6
:20679000E889821800202874AA81287F012804BF698CE983787868B10121297705F17401CD
