:2000000000400020550F010001C9011001C9011001C9011001C9011001C9011001C90110F9
:1C00200001C9011001C9011001C9011001C9011001C9011001C901103FC9011089
:20003C0080B54FF4FC720FF278011A480CF084FA012119484174002202210270C17601BD84
:20005C002DE9F0410FF2502214493820136854689568D6681769D2F814C0D2F818E0D2F8F9
:20007C001C800B604C608D60CE600F61C1F814C0C1F818E0C1F81C8020322031401EE5D1DC
:20009C0050689368D46812680A6048608B60CC60BDE8F081480400215903002100C00021D1
:2000BC00410500217D0500212D06002170B51D46004C204787B2000010B5014800470000FD
:2000DC00D509000070B5614C6148254650358047022809D14034E1885E4A914204D1E97C5E
:2000FC00890601D4911DE18070BD70B557495A4A084650300378002B10D08379012B0DD181
:20011C00037C5B09DB0709D0097D544DC1746C7F20202043687790476C7770BDFF21C17420
:20013C00904770BD10B54E48484C804702280ED121464031CA88474B9A4208D1CA7C5209CE
:20015C00D20704D0227D920601D49A1DCA8010BD70B53E4843494030C07C4009C00707D032
:20017C003E4D41482C8B2043288388472C8370BD884770BD10B53B48344CAC388047214609
:20019C0053310A789309DB0705D04034A2730A7803231A430A7010BD2C4940310871182876
:2001BC0012D004DC0A280BD00B2804D10AE025280CD02A280CD02D4980004018C0687047DE
:2001DC002B4870472B4870472B4870472B4870472B48704770B504461C484E252D5CAE09AB
:2001FC00F60716D0067D3007000F052803D00120054202D00DE00220FAE7E80905D07006D1
:20021C0003D54868800F012803D05B085B0052085200062B03D01020022B11D011E0FB20F7
:20023C00024002232046FFF741FF002807DAC100611A2039497E1422114200D1002070BD93
:20025C00024303432046FFF731FF70BD4401002137CB000004140000EBC80000A800002142
:20027C00F5B4000053AD00002020000080DF00001D050021F9040021CD040021930400210F
:20029C006D04002110B5034CFFF716FF20680028FAD110BD0011044068610000F825F965B0
:2002BC00F9754500450045002600260057A3520052004C00401F401F401F3F000000000053
:2002DC00304000400140034007400F404F40CF40CF41CF43CF47CF4FCF3FCF2FCF1FCF0F6C
:2002FC00000000000000000000000F00080000003F00000040003F000000040068000E0093
:20031C00DC00060043001A00050000000000020000000000000000000400C00000000400B3
:20033C00C000000007000000000000000000000000000000000000003040004001400340A6
:20035C0007400F404F40CF40CF7FCF6FCF5FCF4FCF3FCF2FCF1FCF0F00000000000000009D
:20037C0050C00091007070C00091007082312100319110B10070018101B100A1823132910D
:20039C0010B101911110418141227740F106007051C0019130181039833108D01831416FD1
:2003BC003100319110B18314141683680070251050C00091F4C340C12014036F3110410497
:2003DC005082F0229840512622C082312100319110B163393110410482C08231210031919B
:2003FC0010B163393110A2C082312100319110B150101531051405920070676452C03110A6
:20041C0031066131C1026A6412C13110213971065131E1026A64007051C0019101CCE2C0CC
:20043C006A64676411C1C2C06A6450B054B0007140804022D6440022C94060B08180111EC9
:20045C00C944007054A064B0F0800022C9404012B09032B070C1DF6811C122C16A6470C1C0
:20047C00E46851C00191E2C0823160820200329110B130C2EE68538253395339B16460C347
:20049C00F4688012B09032B00070676401C122C16A6401C1C2C06A645382B164C012B09074
:2004BC0032B00070676472C281C06A6422C111C16A6402C011C16A6462C031C36A6462C3D2
:2004DC0011C16A6402C311C16A6453825339B164E2C36F6411221C4142C281C86A6452C24E
:2004FC0011C16A6472C2E1CE6A6402C281C86A6402C201C86A64B0C030690070676442C211
:20051C0001C86A6452C211C06A6472C2E1C06A6402C001C16A6462C001C36A6422C101C127
:20053C006A6462C301C16A6402C301C16A645382B16400708180111E5C4150B054B000712B
:20055C00408040225D4154A064B0F1800122514500700022514160B04E61000000000000AA
:20057C000000000000000000067305720B720E7250B00071818060B050A09280F0EFF1928C
:20059C0002936A6741228C458080F1C11004301601110114016CB561B661B761B861B9618D
:2005BC00BA61BB61BD61BF61C161C36126632D63F0C002043231412A121432160111211412
:2005DC00016CDA61C561E061C761CB61B561B561B561F461C561FA61C761CB61B561B56104
:2005FC00B561F461C561FA61C761CB61B561B561B561E761C561ED61C761CB61B561B56121
:20061C00B561CF61CF61CF61CF61CF61CF61C064CF61F964CF610665CF613265CF6174676A
:20063C00CF611166CF61C0644E65F964CF61066511663265CF618280E0DFF2926A67B0B044
:20065C00D661B1B00673057230B06C61D0CF6A6784C203C0C0C37C64207851788278E378B7
:20067C001579B6780062C0CF6A6784C203C0C0C37C64307861789278F3781579C678006250
:20069C00B0CF6A6784C203C0C0C37C6440787178A27803791579D678109221923292439281
:2006BC005492659256911FC0FF914039F00601101031101400927067CF61E3B054A0F08076
:2006DC0050221A4640800022BE461262E3A000C86091598150B0918041228E46A0CF6A6734
:2006FC0012828231823942398B641282F2062F101F312F141682D622334640C1346200C5AF
:20071C0020140D6F6D39DE10F4C34E0482C082312E006D39A2C082312D001A828A39FA0606
:20073C002082803180390BC00B18BC10AC18038239149B141082F0060110103110145181C2
:20075C0010140C14C622C94631D0C1266462021011C0013010C00118021882312100C126C2
:20077C00919103B013B063B053B041800122BE46B481C491D581B51C774E95186591F0803E
:20079C00102269428C623D9110B13E9110B1E08000228146E6228142E0B0951865910F926B
:2007BC005981F914F0805022114210228C464D6390CF6A6763B052A03082F2C0200402107E
:2007DC0011C0013010C00118021882312100C1269191919113B003B063B053B064B054B055
:2007FC00007141800122BE4663B064B0F08050221142B181C191D1819118619131B0A462D0
:20081C002967E0A059810582591480C0007163B0BA6A6962E3A0018262818231823D80EF61
:20083C00F19202936A6703A0007037824739873930828039F006021011C0013010C0011849
:20085C00021882312100C126819102B012B030824039F006021011C0013010C001180218E9
:20087C0082312100C126919103B013B063B053B0007153A062B052B041800122BE46A4816E
:20089C00C491D581B51CFE4E95186591F0801022F0428C62B481C491D4814518751C084FEB
:2008BC00F0801022F0428C623D9110B13E9110B1E08000221247E6221243E0B065910F92DC
:2008DC005981F914F0805022114210228C4630632967E0A0598105825914F0C0007162B038
:2008FC00226BF062A2808B64CF6112824239F2068B6050B00071CF6170CF6A674082418096
:20091C000122BE46A481C491D58195186591F18011228C46336B41800122BE46A481C491AB
:20093C00D581C51C1C4B95186591F08010223F438C6260CF6A67408241800122BE46B48169
:20095C00C491D58195186591F18011228C46506B41800122BE46B481C491D581C51CB44A55
:20097C0095186591F08010225C438C62E092D08200226B47C0B20070A080F022874330B033
:20099C0002C1623101C0A080001E8043F022814380F86031603981632010101A136F236E5A
:2009BC0011161216826B00702DE9F84FDFF81885DFF8181588F80000002008600921DFF891
:2009DC00100501700D2141804FF408718180DFF80405DFF8041501608A7EDFF80005027042
:2009FC00FF2ACB7E437008BFFF2B0D7F85704E7FC6708F7F0771C97F417115D1FF2D08BFE8
:200A1C00FF2E11D1FF2F08BFFF290DD1DFF8D0140A7802704A7842708A788270CA78C27025
:200A3C000A79027149794171DFF8B81402780A70FF2542784A7082788A70C278CA7002791E
:200A5C000A714079DFF8A02448710021DFF89C04057045708570C570057145711180DFF872
:200A7C009004DFF89014466BDFF88C247078087031781170B078DFF884140870716908791F
:200A9C00DFF87C14421E0A70F078DFF878140870B069DFF87414086008B912F01DFFF0699E
:200ABC00DFF86844206008B912F016FF2068DFF8607401688847216851F8042F384690477A
:200ADC00DFF85004DFF850143862DFF850047862306A086008B912F0FFFE706ADFF840142E
:200AFC00086008B912F0F8FEDFF838B4DFF838649BF8040013F040FA306008B900F045B970
:200B1C009BF80500DFF8247413F036FA386008B9306837E19BF80600DFF8144413F02CFA85
:200B3C00206020B9306813F02FFA38682AE19BF80700DFF8009413F01FFAC9F8000038B9FE
:200B5C00306813F021FA386813F01EFA206819E1DFF8A4130A789BF80000DFF8DCA3921CDF
:200B7C00504380B213F008FACAF8080058B9306813F00AFA386813F007FA206813F004FAE8
:200B9C00D9F80000FEE0DC480078002800F00281BBF80210DFF8A4B3484380B213F0ECF9BB
:200BBC00CBF8040078B9306813F0EEF9386813F0EBF9206813F0E8F9D9F8000013F0E4F9FB
:200BDC00DAF80800DEE0CC48007813F0D5F9DC49086080B9306813F0D7F9386813F0D4F963
:200BFC00D9F8000013F0D0F9DAF8080013F0CCF9DBF80400C6E0C04800781C21484313F0D2
:200C1C00BBF9D04A1060B0B9306813F0BDF9386813F0BAF9206813F0B7F9D9F8000013F05B
:200C3C00B3F9DAF8080013F0AFF9DBF8040013F0ABF9C348A5E0B0480078400113F09CF910
:200C5C00C1490860D8B9306813F09EF9386813F09BF9206813F098F9D9F8000013F094F98F
:200C7C00DAF8080013F090F9DBF8040013F08CF9B348006813F088F9B249086882E09E48F9
:200C9C000078000113F078F9B0490860F0B9306813F07AF9386813F077F9206813F074F928
:200CBC00D9F8000013F070F9DAF8080013F06CF9DBF8040013F068F9A148006813F064F9AD
:200CDC00A049086813F060F99F485AE08A480078000113F051F99E49086018BB306813F0CD
:200CFC0053F9386813F050F9206813F04DF9D9F8000013F049F9DAF8080013F045F9DBF8CB
:200D1C00040013F041F98E48006813F03DF98D49086813F039F98C48006813F035F98B4943
:200D3C0008682FE0744800783021484313F024F9884A106070BB306813F026F9386813F01E
:200D5C0023F9206813F020F9D9F8000013F01CF9DAF8080013F018F9DBF8040013F014F9F9
:200D7C007748006813F010F97649086813F00CF97548006813F008F97449086813F004F997
:200D9C007348006813F000F9002012F0A5FD4FF4804192E031680120087130680573316802
:200DBC004D73306885733168CD7330680574002031684D743268D072A0223168487103214F
:200DDC003068C28001720720316848720020326890722821306841820121C17600203168BE
:200DFC004877326882F85E00012031680877326882F85D00396808713868057339684D7369
:200E1C00386885733968CD7338680574002039684D743A68D072396848713A6890724FF47D
:200E3C00207039680022C88008818A7401213A68D17421680D732268557321688D732268FD
:200E5C00D57321680D740021226855742368D9720121226811710021236859712168C88065
:200E7C000881002088722168887405202268D0743948016888472A490A6805461068804713
:200E9C0027490A6852F8043F0020984718481D4BC16818780A88314902430A802846304985
:200EBC000A6890470C212F4800F05EF80F4800F05FF800F061F84FF4005198F80000BDE833
:200EDC00F44F0AF0C1B900BF6E4F0020044F0020604E0020084F0020B63F00502C4E00200C
:200EFC00E81200503C4E00200C4F0020344E0020705A01006D4F00207B4F00206B4F00205A
:200F1C00724F00206C4F0020F04E0020F44E00207C4B0020953F0100F84E0020A53F010032
:200F3C00FC4E0020A0160020104F002030220020184F00203422002004220020684E00204B
:200F5C00004F0020282200202C220020884E00208C4E0020904E0020B4100020544F002099
:200F7C00B8100020F84D0020DFF800F0E5710110DFF800F01D6E0110DFF800F04D710110E1
:200F9C00B0B5174C241D20680004070C23D01248006800688047114991F90720824205DDF8
:200FBC0010F1800FB8BF6FF07F00C8718D88BD4210D80A68D4F8D40F801A801C1F2888BF16
:200FDC001F207F1B4008C7404FF6FF70EF19B84238BF071C8F80B0BDEC010010182200202A
:040FFC003010094068
:20100000B41200001810000015AB0110FDB301106DC00110FDAE011099B5011000000000F7
:08102000000000002D0000009B
:20102800B01200003C100000B1C00110A9BF011067C0011069B80110000000000000000035
:041048003000000074
:20104C00B012000060100000BDC00110CDB30110D9BD01106DB3011000000000000000005B
:04106C00310000004F
:2010700000000000C016002004000000000000000000000020000000E8C901103000000054
:2010900028100000C81600200400000000000000000000000C000000D8CA0110180000002F
:2010B0004C100000D016002004000000000000000000000024000000F0CA011018000000B3
:2010D00000000000D81600200400000000000000000000001000000018CA01102C000000BF
:2010F00000100000E8160020040000000000000000000000200000006CCA01102400000023
:20111000FFFFFFFFF01600200400000000000000000000002800000090CA011024000000E2
:20113000FFFFFFFFF81600200400000000000000000000001400000008CB01101800000061
:20115000FFFFFFFF0017002004000000000000000000000058000000B4C90110340000002E
:20117000FFFFFFFF081700200400000000000000000000001000000020CB011018000000FC
:20119000FFFFFFFF101700200400000000000000000000001C000000B4CA01102400000029
:2011B000FFFFFFFF181700200400000000000000000000003800000044CA01102800000051
:2011D000FFFFFFFF201700200400000000000000000000005400000078C901103C000000C6
:0811F000010000004C5A01004F
:0411F80001000000F2
:0411FC0000000E00E1
:0412000000000F00DB
:0412040032000000B4
:0412080001000000E1
:04120C003015002079
:0412100000020000D8
:0412140000000000D6
:0412180001C90110F7
:04121C0000000000CE
:0412200000000000CA
:0412240008000000BE
:0412280000002200A0
:04122C0094130020F7
:0412300000000000BA
:0412340000000000B6
:0412380008000000AA
:04123C00F01400208A
:0412400000000000AA
:0412440000000000A6
:04124800080000009A
:04124C00000000009E
:04125000000000009A
:041254000000000096
:041258000000000092
:04125C00010000008D
:04126000FC1300205B
:041264000600000080
:041268000100000081
:04126C00C01200208C
:04127000000000007A
:041274000000000076
:041278000002000070
:04127C00000000006E
:02128000290043
:02128200010069
:02128400250043
:02128600300036
:02128800310033
:02128A002D0035
:02128C0001005F
:01128E00015E
:0812900003000000D059010029
:0812980000000000000000004E
:0412A0000000010049
:0412A4000000030043
:0412A80013C401105A
:0412AC00233D0100DD
:0412B000B812000070
:0412B400B81200006C
:0412B8000000000032
:0412BC0058160020A0
:0412C000633E010088
:0412C4002000000006
:0412C80028590100A0
:0412CC009057010036
:0412D00029C101101F
:0412D400CB0E01003C
:0412D800BF12010040
:0412DC00A1C7011095
:0412E000A3C701108F
:0412E4000000000006
:0412E8004F59010059
:0412EC00485601005F
:0412F0006056010043
:0412F400305601006F
:0212F8000200F2
:0212FA000900E9
:0212FC000100EF
:0212FE000000EE
:0113000001EB
:04130400F13D0100B6
:04130800452101007A
:04130C00DD320100CD
:04131000F5240100BF
:041314005B25010054
:041318003D0E010085
:04131C0049E500009F
:041320003140010057
:0413240041FB000089
:0413280015C70110D4
:04132C0025C70110C0
:201330002DE9F04FBA4C04F10C012046ADF1540D0FF08EF804F130050021284613F01EFB81
:2013500041F288320023B349256104F17C00012500950FF0CDF8002001460EF0D5FAAE4ECB
:201370001F220623A0603146102007F097F80020ADF8320080468DF8475029468DF8488031
:201390000DF14702ADF838800820ADF834005020ADF836004FF47A70ADF83A0040F20530DA
:2013B00003F0F2FB40F2063002210DF1320203F0EBFB4FF442701E2104F15D0203F0E4FB4D
:2013D00040F20730072104F1200203F0DDFB4FF44470294612AA03F0D7FB40F2113002210D
:2013F0000DAA03F0D1FB40F2123002210DF1360203F0CAFB40F2133002210EAA03F0C4FBE0
:201410004FF4457002210DF13A0203F0BDFB04F1480042461523CC490090102007F03EF8BD
:20143000314610200622A02307F038F8314610200722A02307F032F8314610200822A0239B
:2014500007F02CF8314610200922A02307F026F88DF84950A946CDF82C800BA88DF84B8036
:20147000CD4D00904FF481628DF84A9004238DF84C902946102007F011F80DF149004FF47C
:20149000806200904B462946102007F007F80DF14A0040F2024200904B462946102006F030
:2014B000FDFF0DF14B0040F2034200904B462946102006F0F3FF13A840F2064200904B4662
:2014D0002946102006F0EAFFC54910204FF0FF3206F0E4FFC34910204FF0FF3206F0DEFF78
:2014F000C14EC24F10201323C14A00903146019706F0D4FFBF480078800012F0D5FEBE4D04
:201510000146A96069B14FF6FF7010F04BFEBB49102005F11C02009011230191314606F049
:20153000BDFFCC4908A80A680F79026002260771FF238DF84D604F1D8DF84E3006AE3B6804
:201550003A79336001F10A07327104AB3A6839791A604046197108AA052109F023FC484684
:201570000DF14D02014609F01DFC022049460DF14E0209F017FC06AA0320052109F012FCAA
:201590000420052104AA09F00DFC04F11C0004F12802BB496860102006F080FF207811F007
:2015B0006DFAC9490246102006F078FF207811F065FAC6490246102006F070FFC44910209C
:2015D00006F06CFFC3491020042206F067FFC24DB9A04FF6FF712860404611F037F9A76871
:2015F000DFF8F8A257B12E7946B150468760052101704146C160284610F080FDC9491020DB
:2016100006F04CFFC84E77783078EFB906E0C04608020020053F0100BD84011004F1180169
:20163000316211F02BFA06F15407CDF80080024606F14400019006F11C050297C4490395E0
:20165000B378102006F02AFFC24910200C2206F025FF0FF033FA0FF04BFE04A812F0A2FDBC
:20167000042004A90FF064FEC24E70600CF06EFAFF2010F03DF804F1A00704200A22BE499D
:201690000090134638460EF033FF384612F020FE5546C246B346E068C14A51464FF0FF330E
:2016B00013F068F95FEA0009F5D0CDF828A00CA80DF146010AAA10F02FFF002840F0DB8084
:2016D000BDF8301020780127102940F0CF809DF84610884240F0CA800A9E31884FF6FF7247
:2016F0008A4200F08D803378913B2FD01F3B40F0BD807178162910D03279A06829787E2AD0
:2017100008D07F2A1AD13289A8A30092524611F041FB13E0327AA9A3F7E711F0AFF9034625
:201730003846BC4900907288102006F0B7FE28B938460CF0A5FD5746666197E0317906F138
:20175000080013F013F991E031D5000070780E3827D0801E3FD02E3840F08880B0780C281F
:2017700040F08480F378A1682878BBB9401CC2B296A308461146524611F00CFBF0790128BD
:2017900014BF97A098A00090A168287898A3801CC2B20846114666E0FD480000401C98A3AC
:2017B000F6E7B08842F2030181425FD1B1680E78002E5BD1491C04A80A684968026004AE98
:2017D00041603078CF4904AA00F0FD003070102006F064FE4AE00820514605F01BFE45E0B9
:2017F000BD310100ED340100312A0100AC590100BC0B0020694F00206C0E0020B8590100FB
:201810007088400832D3666986B3607806F10803401C6070CE49009372883379102006F0EF
:201830003DFE5FFA80F8B8F1160F15D02078B8F1040F11D0666911F021F9CDF800A0754997
:2018500072880346102006F029FE40460CF018FD0CE0C04650590100607800902978A068A4
:20187000BCA3491CC9B2524611F094FA0A9810B10FB112F0EEFC5FEAD970C0F0D980D1E097
:20189000E13601002069064613F06CF8864208BF574602D0876810F0B9FC381CB84600F000
:2018B000C1800188491E00F0B780491E54D0891E16D00C3976D0B2E0424C45205065726908
:2018D00070686572616C00C05188011031810110ADCE0000253B0100AC140020C41500205A
:2018F000807869786A68030920D24009C0F0978013790846834212D0FF2800F0908002EB8A
:20191000C000C7682FB902EBC102106910F0F6FB85E002EBC1021269084690477FE09068BA
:20193000F4E7C046C5AB0010A00500201079884207D0FF2909D0481CC0B210F0B9FDFF2893
:2019500002D1504610F0B4FD687008F00FFA66E0B711010081B3001083782E78A768761CEF
:2019700063B19B1E5BD102200DF14F0110F0B2F97DA30CE034160020F53E010050460DF105
:201990004F0110F0A7F901207AA384F844009DF84F00F1B252460090384611F0FBF93EE009
:2019B0000D0000C080780BF0ABFC38E04D54552053697A653A20256400C046C0464320563F
:2019D000696F6C617465643A202564005048592055706461746520436F6D706C6574650065
:2019F00032204D62707300C031204D62707300C043757272656E74205048593A20257300AA
:201A1000504859204368616E6765206661696C75726500C0513E0100807803F0D1FE4046C7
:201A300010F0F4FB206912F099FF00283FF42AAF5FEA590006D3584812F04AFC022014A90E
:201A500010F048F95FEAD900FFF425AE534812F03FFC94F83C006188012855D000285ED11F
:201A7000491C88B23228D8BF608005DD504660804FF47F4010F040F894F8440001284ED13C
:201A900050460DF13E0184F8440010F023F99DF83E00A52843D19DF83F0001283FD10420A2
:201AB0000DF13E03514613F8012B401E82EA0101F9D19DF84200884231D1BDF8400011F0DA
:201AD0007DFD32A20CCA07F01FFB0CF087FE2E490CF06DFA2C4908F0C9F92B4902460DF07E
:201AF000F5FD1CD2274910460DF0C0FD17D224490CF05DFA10F0C2FC01462648006812F0F0
:201B10006AFB0CE095B40010491C89B23229D8BF618004DD50466080FF200FF0EDFFDBF864
:201B300004000FA912F043FBB0F1FF3F19BFBDF83C10BDF83C004FF6FF70011CABF800007C
:201B5000DBF8040012F038FBCBF80800A3E5C046DDFE00105273702073656E6420726574BB
:201B700072793A20256400C04368617220333A20256400C04368617220313A20256400C0E1
:201B90000000804FCDCC4C3FCDCCCC3E000000000088C3404422002084020020A80200201E
:201BB0002DE9F04F0C4685B0834614F8010BDFF870278DF8000018280BF1FD010BF1E70840
:201BD0000BF166090BF20D1A0BF5B0760BF59C750BF5C67700F29183DFE810F019006F009D
:201BF0005F0191008F038F03FA00690311012301FE000D0133018F038F037C018F0361014F
:201C100055017503D602D60227028F03740214F8010B8BF88600022221460BF1880012F0D3
:201C300099FE014602220BF18A0012F093FE014602220BF18C0012F08DFE014602220BF192
:201C50008E0012F087FE04469BF8860040008BF886000BF1860102224888400048800BF138
:201C700086008188490081800BF1860108890001088121460BF1840012F06CFEB9F81E10AB
:201C9000BBF80800091A89B247F6FF7291422ADA0BF18601C8888A88401C520050430A89DD
:201CB000904203D33B208AF80B0039E2012089F81C000020ABF81E001EE0052221460BF142
:201CD000610012F047FE014602220BF1920012F041FE0BF1860047F6FF728189BBF808001D
:201CF000091A89B2914280F218820BF18600012181720021ABF81E10012028700CE398F8D6
:201D10001600C1070AD41A2198F80D0088F80E10012808BF0D213FD00D21CDE1002089F8D7
:201D3000000089F806000822012088F8110021460BF1B00012F00EFE014602220BF1B800F0
:201D500012F008FE0BF1A80601460822304612F001FE04460821304612F0F8FD0BF19C065B
:201D700004222146304612F0F5FD0421304612F0EDFD0BF1A00012F0E5FD0BF1980012F0BF
:201D9000DDFDDFF8A005018841F08001018098F80D00012806D10421584605B0BDE8F04F28
:201DB00010F040B899F81000012804BF99F811100F290BD158460EF01FF8042158460DF055
:201DD00065F80F2089F81A00FD2175E1042173E1012088F80F009FE2002089F8000089F88C
:201DF000060088F800000B21012088F80D00002088F8010060E1012088F810008CE2002052
:201E100002F10906235C365C33432354561C365C33400B54401C0828F2DB58460DF034FBB9
:201E300070E2002002F10905235C2D5C2B432354551C2D5C2B400B54401C0828F2DB0220F3
:201E500048E299F8060008B93D2167E19AF800000128D3D014F8011B8AF8031002222146A4
:201E70000BF5897012F076FD014602220BF58A7012F070FD01208AF800009AF802000028B1
:201E90001BD10C2118E198F81600C10601D41221D1E058460EF01CFC34E221783EE12078E0
:201EB00030706078707099F8100001280CD199F811100F2902D0162902D02DE268732BE24F
:201ED000387B40F0010016E205B0BDE8F04F002011F008BD98F81600810707D410F0110F6E
:201EF00008BF0F2000F009821A2252E02078617800EB01202882E178A07800EB0120688265
:201F10006179207900EB0120A882E179A07900EB0120E882207A2876A17A607A00EB0120E6
:201F30006883217BE07A00EB0120A883A17B607B00EB0120E883217CE07B00EB012028845B
:201F5000A17C607C00EB01206884217DE07C00EB0120A884A17D607D00EB0120E8840BF5DB
:201F7000AA700490688B0390287E0290BBF808000190E88A0090AB8A6A8A298A58460CF021
:201F90002DFA68B198F81600410701D40F2152E01E22584605B0BDE8F04F0F210FF05EBF09
:201FB000688A0BF186018880A88AC880E88A088102208BF8860000204880BBF83400C01D48
:201FD000A9F81E008888BBF83210884201BF0BF18600C188BBF83400814206D10BF18600D5
:201FF0000189BBF8360081421DD099F81000012804BF99F811100F2907D099F8150020B1E9
:202010000F2189F81A10FE2156E0FC2158460CF03DFFE88A0090AB8A6A8A298A9BF8060016
:2020300012F088FC78E1102146E098F8170010F0090F03D116218AF80C1060E16078217840
:2020500000F00700014021702078797B0140F97211D0481E01420CD0490704D5B87B10B1EC
:202070000421F97205E0F97A022001421AD14008FBD1F87A08B9B97AF972F87A042803D1C1
:2020900058460EF09CFBB083F87A12F04FFC3871B28BB97B01230EF0BBFF0146308B884249
:2020B00002D207E0F872E4E7B28BB97B387901230EF0AEFF78801721584605B0BDE8F04FC8
:2020D0000CF0E4BE60782178814207D100F007000840207033D0421E10420FD01E2218216A
:2020F00058460FF0BBFE9BF80610002300221E200AF09AF8387B40F04000FCE0F87247F61C
:20211000FF72A078E17800EB012038813989BBF80800091A89B2914206DB28218AF80B1093
:2021300001208AF80A00F7E00120B871F87A042803D158460EF043FBB083F87A0BE099F854
:202150001100162806D1BA7A9BF80610134600200AF06AF8B87A3871B28BB97B3879012376
:202170000EF056FF0146308B884205D3B28BB97B387901230EF04CFF78800121387B40F0CC
:20219000400038732970C7E02078617800EB01207082E178A07800EB0120F0826179207933
:2021B00000EB01203082E179A07900EB0120B082B18AF089884288BF0846B97A042905D157
:2021D00040F691229042B8BF4FF42960F28BF0839042B87A14BF01240024042803D1584643
:2021F0000EF0EDFA04E0B089F18A884288BF0846B28BB083904214BF012100210C43308993
:20221000718A328B884288BF0846904214BF012100210C433083B28BB97B387901230EF069
:20223000F7FE0146308B884205D3B28BB97B387901230EF0EDFE78807189308A728B81425A
:2022500088BF0146718391429BF8063014BF0120002004438A4234490A6802EB4311728BFC
:202270008041121DC00F0A7610B1584610F050F89DF80000142810D144B1F08B0090738BB8
:20229000B28B318B9BF8060012F04CFB584605B0BDE8F04F15210BF00FBA1CB1387840F075
:2022B00008003870397841F02001397034E020780E280ED00F2809D0122804D014280CD0BC
:2022D000162812D028E00020287225E00120287322E0032088F815001EE0387840F00200B1
:2022F000387040F01000387016E0387B40F00200387340F0100038730EE08AF80C005846B3
:202310000DF0AEFE40B905B0BDE8F04F074800784FF4804108F09EBF05B0BDE8F08F00BFBA
:20233000C0210020524F00202C2200206E4F00202DE9F04FCD4C04F118012046ADF1340DBF
:202350000EF086F800264FF6FF70012132466670CF4F2082134604F1A400009139460EF0E7
:20237000C7F80221324604F1C8000091134639460EF0BEF80425324604F1EC003946009583
:2023900013460EF0B5F804F14409AA4610224846314684F802A00BF04BFE04F1540B1022D8
:2023B000584631460BF044FE04F11C08C8F8006004F10A073E70E671267207206072CDF821
:2023D0000090DFF80093022210200346494606F065F8102003224946CDF800B0034606F0DC
:2023F0005DF81020524653464946CDF8008006F055F84FF0080B4FF0030907F12A000790AA
:2024100007F17900089007F11E00099007F15A000A9024370B9717E06078A28FE18FB4F8EF
:202430004050B4F8423006280ED1ADF80A20ADF80C10ADF80E50BA48ADF8103011F04AFF0D
:20245000012002A90BF0B0F8A069B44A31464FF0FF3312F08FFA071CF6D0059606A80DF153
:202470001A0105AA10F058F8002840F0BF81BDF818102078102940F0B5819DF81A108842FD
:2024900040F0B081059D29884FF6FF728A4200F09E812B78A23B00F081812E3B40F0A281B9
:2024B000A978B046002900F03D81891E00F00C81491E012940F2DC80891E00F09C80491EC1
:2024D0006FD0491E5CD0083900F05881891E40F05B8194F83A30A888052BADF8080047D043
:2024F00001208DF812008E4811F0F4FE94F83A0001281ED004281CD003280DD002280BD049
:202510000598C188ADF80A100189ADF80C104189ADF80E10818927E0A08FE58FADF80A00CB
:20253000B4F84030ADF80C50B4F84210ADF80E301AE0A08FE9888842D8BF081CADF80A00BF
:202550002989E08F8842D8BF081CADF80C006989B4F840008842D8BF081CADF80E00A989CC
:20257000B4F84200884200DC0846ADF8100001E08DF81260A949102002AA05F08FFF03E1A7
:20259000A74811F0A7FE6B78002B40F0FD80E88860822889A0826889E082614811F0BAFC03
:2025B000F2E0AA88B549102005F078FF0798414606220BF03DFD6682A682E682A8792073BE
:2025D000574811F087FE964811F084FE4FF001084FF6FF702379208253B9A879082812BFFD
:2025F00084F801A005206070404611F0C3FCCBE084F80190C8E06B787BBB291D07980A68A3
:202610000260898881800623637068892082E8896082288AA082688AE082E878E07294F8EE
:202630003A00012818BF02280BD19A4910201F2205F034FF4FF47A7180B2414338480FF06B
:2026500065FB68895346009091490193EA7810202D1D2B4605F022FF99E06878312840F03D
:202670008A80E67084F801A091E0C046A00500206B78002B7FD1A878E1896278032814D0C0
:20269000E078257931B9012814BF2671E67007E0853F0100054303D07F480FF037FB6278C8
:2026B000072ADFD10620607071E0062A07D0E578002D08BF84F8019069D00220F3E7072021
:2026D000F1E7C046C33601006B78002B53D1EB78617893B902291DD007291BD0062902D123
:2026F0002079012816D1032914D06B4811F012FC80B9012011F03EFC0CE010F0BFF90246CE
:20271000A07962490090089843460190102005F0C5FE68706D78002D2DD135E0070000802F
:20273000680600206B7833BB5C485749009002221020034605F0B2FE59484A4652490090B8
:202750001020034605F0AAFEED1C099829680160A988012381802078637010F08FF9024626
:2027700001230A9D6079494900901020019505F095FEC0B258B184F801B008E0AA884149E9
:202790001020052305F08AFEB8F1010F2AD1256A45B3296831B36078884723E068791328DE
:2027B00020D12889012808D1607B022805D11C4811F090FD0FF0E2FE14E0364910200522EF
:2027D00005F06CFE81B216480FF0A0FA0AE06888C00B07D333482C49524653460090102000
:2027F00005F05CFE059808B111F033FD2579E078790830D355EA00032DD0204600788DB916
:20281000E179257A8DF808100B9A8DF8095013680DF10A052B609288AA8005E00516011027
:202830008C0600208DF80890617A8DF81010A17A8DF8111010F022F91149024602AB1020DE
:2028500005F02CFE38B1256A84F801B01DB1296809B158468847B80803D3134930460AF0BC
:20287000A3FEF808FFF4F0AD607B401E3FF4D4AD401E7FF4E9AD0FF081FEE5E5C9000100B1
:2028900059440110C11701106DA00000094501107D9C0000F584011044060020E40500200F
:2028B000F4050020BC050020DA0500202DE9F84F01200FF07BFD01280ED1DFF8F87439682E
:2028D0000020487138680EF0C5FB04F00BFA040003D1812012F022F868E201206071DFF810
:2028F000D854DFF8D8044178491C41703968A07981F8A00040200BF0E7F9206028790128C2
:202910001CBF002010F0EEFFE8682168DFF8B05400F5B060C860286801680A79032A1CBF5A
:20293000002010F0DFFF2868DFF898840168DFF898B401F10809062299F80000C0F380107B
:2029500084F82E0109F1020104F5947011F02AF9042209F10E0104F1240011F023F9D8F869
:202970000000A67900F10C03042209F10E0103EB461011F017F9D8F80000A37900EB43107A
:20299000032209F11201103011F00CF904F12C0699F81500B070022209F1160104F1300068
:2029B00011F000F9022209F1180104F1320011F0F9F8022209F11A0104F1340011F0F2F870
:2029D00030896084022209F11C0104F1360011F0E9F8B078F18872894000B0704900B08885
:2029F00040001201B080F180728189B2638C5B1C4800434392B2934200D231B99BF8000009
:202A1000802108F027FC3B21FEE004F12E01204610F034FD0520A081204610F00FFF052214
:202A300009F11E0104F1610011F0BCF899F823004009307011F06EFF60823A68E34F518AC6
:202A5000401A04F59771888104F1610199F82300DFF87C9300F01F00F07320460EF006FC39
:202A700029680A68002010711C25A1793868694341F6210242520022A17969430144001DC3
:202A90004A80A1796943425099F80200410609D5D049088841F20A4290420CBFCE48CF485A
:202AB000C4F89C012046D4F89C1188473968A37901F10E026B43D054A179386869430844BC
:202AD0000021C173C648017881B1B08870B9002171730120208160812046D4F89C11884721
:202AF0003968A37901F10E026B43D0543868A27900F10E016A43885C707394F8960108B922
:202B100010F0F0FEA1793868DFF8D8A26943084494F896114A1E02740023A179386869431A
:202B3000084400214174A279396801F112006A4301F1140C8352A279D8F8000000EB4213E4
:202B50006A434CF80230A2796A431144A64A8A61DAF814100B78DA074CBF4FF0100C4FF04B
:202B7000000C99074CBF202100215A074CBF402200221B0700F10803A07941EA0C014CBFC2
:202B90004FF0800E4FF0000E0A4340014EEA020242F00F021A54D8F80000A17900EB41106A
:202BB0000B224272D8F80010A07901EB401104228A728E4A1378D8F80000A179012B00EB68
:202BD000411002D10121C17203E0DAF828104A78C272D8F80000A17900EB41101F220276AA
:202BF000D8F80010A07901EB401100224A76A07908F07EFFA279D8F8001052018850A279DE
:202C10005301C85820B90721204610F0B5FBCDE07748016801EB021011F078FE744AA079F8
:202C30001368D8F8001003EB00130A1D40011350081DA27952018058F063A07940010958E4
:202C5000716404219BF8000008F004FB644BB2881978901C11B10AB9F088801C618A94F8AA
:202C700006B041434FF4C87205FB0BFBB1FBF2F1491CA061616140F6C41C23683A68CDF8C8
:202C900000B002F1080ED3F80CB00CFB00B0411A0098A1F5A8614EF8001002F10800A17930
:202CB00069434058986002F10C01A07968430C32095C01F0EF011154A0793968684301F1C4
:202CD0000C020C31125C02F07F020A54A0793968684301F10C020C31125C02F0F00242F034
:202CF00002020A54A179386869430844417B01F0F00141F0010141733868A27900F1080176
:202D10006A438858216808616369D8F80000A17996F802E05B0000F1140249010CFB0E330A
:202D300003F5F6635350A17900EB4110C27C02F0F00242F00402C274D8F80010A079DAF8DE
:202D5000303001EB4012F0880CFB00F61868301AA0F51670D061A27901EB4210C17E01F0B1
:202D7000F00141F00401C176A17938684D4321684019486099F80100810614D504F597710E
:202D9000488F1B2804BF888F1B2808D1C88FB0F5A47F04BFB4F86E11B1F5A47F03D0142135
:202DB00020460CF073F8134907200870BDE8F14F01F06AB9104F0020B44D0020684E0020CC
:202DD000F44B00202C2200206E4F002028220020C0210020504F0020F7FB0000BD0301005C
:202DF000784E0020705A01005C4D0020734F00208C4E00206F4F00202DE9F843040014D155
:202E1000002010F06FFD10E020460DF029F9012808D065E08A0740F1548101F0FD01017064
:202E30000020B07120460CF0E7FF04F16605687D002855D0697CDFF8A494022904F1EC0760
:202E500004F59E7804F5B07604F5C67035D0042949D005295CD0062900F08A800729D3D064
:202E7000092900F0EC800B2900F0C1800C2900F008810D2900F0D0800E2900F0EA800F2962
:202E900000F02881102900F04281112900F05C81122900F00E81142900F08781162900F078
:202EB0005A81172900F07581FC2919D0FD2900F09581FE2900F09B81A2E7297C012909D162
:202ED00099F80300002815D01621204610F054FA012006E020460CF0B8FC2874E88A288380
:202EF0000020BDE8F283297C012940F0948199F80200002800F0E580FC2120460EF092FF52
:202F1000A07904F1B80204F1B00111F0FBFC8CE7297C01290FD199F8020020B184F8941095
:202F3000002038607860B87A012868D1062120460EF078FF79E704F1E7063078012809D16E
:202F500020460EF06FFE0128CAD10020B87201202874C5E770780028C2D004F1C70204F1C4
:202F7000A00104F1D70011F0C9FC012030705CE7297C012940F0538199F8020000283ED06E
:202F9000618CE18320460CF037FF0120287020460EF02AF90120A871397A787C012900F0FD
:202FB00010000FD148B1002088F80500D8F8001098F8060049080CF06DF8A079002111F010
:202FD00099FC0EE040B1D8F80020C54804F5A1735208214611F0C8F8A0790122002111F083
:202FF00085FC002038723873F872B8721DE7287C012805D1F97A012908BFFC2197D060E068
:2030100020460BF077FF0128A3D10020F87284F894000120287408E7297C012940F0038163
:2030300099F80200002809D0002184F894100120287020460EF0D8F80120A87188E0297C77
:20305000012940F0F48099F80200D0B3618CE183E8E6287C012840F0EE80387C022804F11F
:20307000FD0204D1A179002011F03CFCDAE6032840F0EA80A1791A2011F034FC0020387423
:20309000D0E6287C012804F20D1140F0E8800B78012B04F5897240F0E8804878012807D1F5
:2030B0005388009300201388CA78A17911F016FCB8E6297C012940F0E78099F802000028A9
:2030D000F6D1298B481E288380B200287FF408AF2221FAE6287C012840F0DA8098F80910AD
:2030F000012902D130780F281BE098F80800012826D1002188F80810288D000900901A20F0
:20311000AA8CEB8CA179520811F0E4FB8AE6287C012840F0C18098F80910012910D1307894
:2031300010281CBF002010F0DDFB002088F80900288D00090090AA8CEB8CA1797078E2E705
:20315000287F0028E2D1BCE7297C012940F0A88099F80300F5E7297C012940F0A580017B03
:203170004A061DD4CA0709D501F0FE0101730023A1797078002209F057F853E68A0740F161
:20319000988001F0FD0101730023A17900221A20F1E7297C012940F09980027B510690D5E2
:2031B000017B01F0BF0101733CE6297C012940F08F8001788A067FF52DAE01F0DF010A07F4
:2031D00001700AD501F0F7010170F08B0090738BB28B318BA07911F0A5FB21E6A97E2046E5
:2031F0000EF020FE15E7002010F07CFB78E6A87E0F28F8D1FC2120460EF014FEB8F8120037
:203210000090B8F81030B8F80E20B8F80C10A07911F090FB64E6204609F01EFD5DE6204662
:203230000CF0C8FF59E620460EF0E2F955E620460CF02AF951E620460BF04CFC2874E88A8F
:203250002883012038744BE6288B401E288380B20028F8D1A179222011F044FB38E70120FA
:20327000887020460BF080F837E6288B401E288380B20028E7D15088009022201388CA78FB
:20329000A17911F02BFB23E720460DF0F9F924E6204609F019F820E6204609F065F81CE640
:2032B00020460CF073FA18E61621204608F07CFD13E6288B401E288380B20028C3D1A17966
:2032D00000230022222008F0AFFF01E71721ECE7142120460AF0F0F9FFE500BF5C4D0020D4
:2032F00005E300002DE9F84FDFF82844A178FF2904BF002010F0F6FAA07810F03FFD044684
:2033100004F1680604F5C9753168086804F1900710B10022E28310E0B17B002904BFB07EF0
:2033300000280AD13978002904BF2878002804D1217F012904BF608CE0832189E08B4118F6
:20335000491C6181204610F0B9F801281EBFDFF8C8030178012904D120890022401CE28353
:203370006081B07E01280CD1B28B6189208911F0ADFA30B121896289481C82422AD0B28BDB
:203390001FE0387801280CD17A886189208911F09DFA30B121896289481C82421AD07A88B1
:2033B0000FE02878012815D16A886189208911F08DFA00281FBF2189481C6289824209D0B6
:2033D0006A88824206D0501E608180B211F07AFA401EE0832878012801BF69882089401C1B
:2033F000814207D16A792A71002028701346A17908F01AFF04F59A71087920B12089002148
:20341000401CE183608104F12E07B07E012801BFB08B2189491C884238D1608104F1860140
:20343000204610F02BF8B08C6189608400202077E083E0894118A181B08B218911F042FAC9
:203450008046B988308C728C01FB0808F08C8A4204BF3989884202BFB18CFB88994207D0C5
:2034700000090090B38CA1795208002011F032FAB07F3870708CB880B08CF880F08C3881AF
:20349000204610F0DBF90220B07601E0B7F80480E28BDFF88892501C00FB08F140F6C418B6
:2034B00008FB01F000902368D3F80CC06044DFF870C2D860DCF800E09A489EF800A003881A
:2034D0004FEA9A1ABAF1030F13D199F80FC05FEACC7E48BF00230CD45B1C9BB2012B11BF91
:2034F000B4F812C004F59A7CBCF806C00CF2DC5C01E0B4F812C00CFB01FC4FF4C87EBCFBDC
:20351000FEFCDFF824A20CF1010CC4F814C0038084F820204FF01C0BA379A1610BFB03F3AB
:20353000DAF80010226801F1080001F1080CC058D3681061A0790BFB00FE60691B1A4CF8EC
:203550000E3001F10800A3790BFB03F3C058906001F10C02A0790BFB00F00C31125C02F057
:20357000F00242F002020A54DAF80000A279811C0BFB02F200208852287908B910F0B2F92A
:20359000DAF80000A27900F1100128790BFB02F240088854A079DAF800100BFB00F0084430
:2035B000002141742879042814D1A079DAF800100BFB00F001F110022B7A125C103142EAFE
:2035D00083020A54A179DAF800000BFB01F1084420214174DAF80000A27900F112010BFBDB
:2035F00002F200238B525149A2790968520101F11403D4F814C09B5801F1140E03EB4C0361
:203610004EF80230B27E022A0AD1A279520101F114033E789B5808FB063301F11406B35080
:2036300099F80F20D30749D5A2790BFB02F200F1080300F108069B58A3F5A863B3500830E1
:20365000A27923680BFB02F282589A600098121A1A6101F11402A079400101F114031258D2
:2036700002F5F6621A502879042807D1A079400101F11402125802F5B0621A5001F1140097
:20369000A27952018058C4F8340101F11C03284AB888166BA57908FB00F730686D01381A2F
:2036B000A0F516705851A37901EB431021490D78012D0EBF0122916A4A7819E02879A3795B
:2036D00004280CBF4FF44B604FF4E66001F114025B01D258101ABA8808FB02F2A2F516725C
:2036F0009042D2D3082120460FF046FE01200FE0C272A179DAF800000F4A0BFB01F10844A4
:20371000216848600720107020460EF031F80020BDE8F28F684E0020784F00205C4D002068
:20373000084F002054220020282200202C220020705A0100734F00206F4F00202DE9FE43B2
:20375000BF4C0F460646F80B80F05081B80880F03D81E07ADFF8F492B90F80F0B680607A7C
:20377000002840F096803809C0F09580A07A20B10020A07205200EF097FD00254FF0010884
:203790006570284684F8078006F0EBFBAD4904F174002A4610F086FD207901281AD160791F
:2037B000C0B9DFF8A482D8F8000000284CD048460068006B804761694346401A000BA0618E
:2037D0001968E2698018B0EBC11F98BFE0613BD9E56101E084F80480DFF87482A8F11500AC
:2037F0000068000A30D340F60900A08694F8410000F0F00040F0010084F84100E58694F84D
:20381000400000F0F00084F84000A56310F044FD08F6FF7211686FF0020321F002011160A2
:2038300004F13401C8F8FB3F8A4AC8F8EB1F11688908FCD3C8F8FB3FD8F8FF1F41F00201C1
:20385000C8F8FF1F11F03AF865610EF00BF88248056002200EF028FD112007F0B9FD307C82
:2038700010B90E2007F0B4FDE5712572A07818B906F1380010F024FD784810F0E5FB784912
:203890000878F8B10D7004F1D000042110F01EFD18E0380914D2B80BC0F0C98004F1240079
:2038B00010F00AFD061C08D0706830B17568F068B6F91C1000222023A84727F40057B6E0D2
:2038D0000020607227F00807B1E020B104200EF0EBFC0020E072B168088840F602054FF0BE
:2038F000000885420AD0B0F5C15F07D00A8B4FF61F60104040F43470088306E00A8A4FF6A8
:203910001F60104040F4347008826069E0B1D9F85400016804208847B0B1D9F80000006BEE
:2039300080476169814226BF401A401E401A000BF060708AF168401840F6C411F060814208
:203950002CBFB0F5FA7FF16094F8410010F00F0F0BD1708CED1D854207D1B56930466FF49A
:20397000807142464FF00073A8473E4904F17400424610F097FC607958B10220ADF8000069
:2039900068460FF05BFA84F80580BDF80800A4F8700001206070E078401CE07004F1200041
:2039B00084F8068010F088FC002808BF47F0020702D0192010F074FC7569414630464FF0AD
:2039D00080630A46A84727F0005730E004F12C05284610F071FC06F0BDFB284610F06CFCB2
:2039F00027F0020708B147F0020720E010F054FC014604F1280010F05FFC0646B569A80875
:203A100010D27EB125EA0500B061084610F056FF706850B12A46F068B6F91C107568002341
:203A3000A84702E0084610F049FF27F4804727B104F1D000394610F049FCBDE8FE83C046A0
:203A5000E0080020E1310100242200208C0100101500044010100440000004605DA2000018
:203A700020220020699A0000BB482DE9F84F0025BA4CB849056094F8E200002800F0658174
:203A9000012800F02F81B64E02283CD0032840F05C8151F8250CD4F8B8100029A0F5C060EF
:203AB000C4F8D400B8BF49420028B8BF4042814226DA4FF08057D7F8A4014568B4F8BC00E1
:203AD00030214FF47F42082300903046A847D7F8A4014568B4F8C00004214FF4F80212233D
:203AF00000903046A847D7F8A401B4F8D070456820214FF440620A2330460097A84701253F
:203B100084F8D8501CE151F8258C10F0B5FA2F4600B901273946934F38680028FCD0B14609
:203B3000012609F10409D9F82CA03E6009B110F0A9FACAF30720C4F8BC0010F09DFAAA46CC
:203B500000B9B2463B68002BFCD0D9F800B0BAF1000F3E6001D010F095FACBF38440C4F893
:203B7000C00010F089FAAA4600B9B2463B68002BFCD0D9F81C90BAF1000F3E6001D010F011
:203B900081FAC9F38120C4F8D000B8F5C061C4F8B81000F09C8094F8D80068B9C4F8D4102E
:203BB000D4F8C000C4F8C800D4F8BC70C4F8C470D4F8D030C4F8CC30D4F8D410D4F8BC3011
:203BD000002954BF02206FF0010004F1C802176801EB41014018411000EB917107EBA10082
:203BF0001060D4F8C810C4F8C43000291CDD1E293CDDD4F8CC0030B93429B4BF15391E2191
:203C1000C4F8C81025E02A29BABFD4F8C8000B381E20C4F8C800D4F8C4003F28B4BF401CD0
:203C30003F20C4F8C4001FE0D4F8CC00032812D011F10B0FC6BFD4F8C8000B30301CC4F879
:203C5000C800D4F8C4000028C4BF401E051CC4F8C450032508E011F1150FC6BFD4F8C800B3
:203C70001530301CC4F8C800C4F8CC504FF08057D7F8A401B4F8C43030214FF47F4245681B
:203C9000374800930823A847D7F8A40104214FF400321123456832480096A847B4F8C86026
:203CB000D7F8A40104214FF4F802122345682C480096A847D7F8A40120214FF440620A237C
:203CD000B4F8CC60456826480096A84701E084F8D85040F2FF50404502D8801C40452FD2D5
:203CF000082030E051F8251C1F4F4BF2F5204843060A3868C0F3814001280CD11B480068B2
:203D1000006880470DF090FD10F0C2F93111C010484306EBE03694F8E50030B9144800685D
:203D300020F07F408019460801E084F8E5501148310C0660012741600F4D8760287808B9C2
:203D50000B2000E0052084F8E40004F0DFFABDE8F88FC0462D400C402C500C40980F00207C
:203D700000A00C4000800C40B43F0050EC010010102009403C600C406E5901002DE9F04FBD
:203D90000D46E80789B00BD510F0D4F828B100218160AE48006800B1804785F0010052E192
:203DB000A80710D5002006900021049000230290009005910393019101223C2010F07AFDFB
:203DD00085F002003FE11E246807DFF88482A14F40F19B800020079082469F498878FF28E4
:203DF00004BF00200FF07EFD386890F8A0000FF0C5FF06463868C07A96F82EB1022818BF37
:203E1000032806F5947906D108F10D0010F04EFD08B908F1070A4946584610F043FD88B3C4
:203E30003868807A002818BF012804D1414648460EF0B1FD04E04A46594640460BF0C4F9C9
:203E5000FF283DD06043834608EB0B0406224946E01D0FF0A7FE18F80B0040F0020BE01D03
:203E7000079006223868817E01F0010186F82E1104F10109386800F1140106F594700FF081
:203E900091FE1DE0494658460FF022FFC0B14A46594640460BF098F9FF2811D04443444470
:203EB00004F10D0010F002FD40B904F10D0010F0FDFC002804BF607F012801D14BF0020BF0
:203ED00006F12C005B4601780691418909090591728C079904920122C0880291400803907F
:203EF000CDF804A0CDF800900020B17910F0E2FCD6F89C0159498842B0790CBF00210121BE
:203F100009F042FA85F004009DE0280610D500200690002104900023029000900591039377
:203F3000019101223B2010F0C5FC85F080008AE0E8043CD508F1070108F10D0010F0AEFC93
:203F500038684179012923D1017A012918BF04291ED1C17A022918BF032919D1817E00F1FE
:203F7000140240460BF030F9FF2811D04443444404F10D0010F09AFC50B9E11D04F10D00B9
:203F900010F08CFC38680622E11D14300FF00AFE334934484A6800784FF480510DF0C0F88D
:203FB00010B18E2010F076FC85F480504BE0A80505D510F061F82C4901200860FEE769056B
:203FD00004D506F0EEFE85F480603CE0680405D5812010F05FFC85F4804034E0A80431D560
:203FF000224C206810B100200FF07CFC4FF0FF3020600BF09BFB1E4C216851F8202F6846AB
:2040100090471C48C16A026B2468009101920021029100F134014A6809781368806A039305
:204030008DF81010ADF812006B46D4F80080124A12491348C0471349086003F0FFFE85F4D1
:20405000005000E0002009B0BDE8F08F204F002060170020104F0020684E0020F7FB0000B6
:20407000784E00206E4F0020FC002043044F0020F04E00205813002064210020E4150020F4
:2040900088490020EC4E00202DE9F04FB64D686885B0019020B905B0BDE8F04F10F0F6BBB4
:2040B0000178DFF8C882B24EDFF8C892DFF8C8A201291CBF0229042946F2A81741F64C5BB2
:2040D00005D0402918BF802900F09A8043E10FF0FDFF0028FAD00198007805F075FA0090F2
:2040F000446814B900200FF0FDFB9AF80100002860D002F0EBFA0FF041FE0290016800988D
:2041100001914F680AF01CFD022827D000990A78012ADBD1994B19680A7A19F80230337051
:2041300018B910F0AFFB5844A0602069C17E01F0EF01C1762069C17E41F08001C17620693E
:20415000C17E01F0F00141F00201C1768C48B96841182069C16101210098A0E0019801787E
:20417000802913D10822874832700178012903D09AF80100012803DD78690121C17213E0CC
:20419000D8F828107A690878D0720DE07D49072030700A787869012A02D10123C37203E04B
:2041B000D8F828104A78C2720298817901988AF80210CBE00098002888D00199009A0078C1
:2041D000914205D101281CBF00200FF08BFB15E0012840F0C080694801680A7A19F802003E
:2041F000307010F04FFB3918A06810F047FB18B910F048FB5844A0600120A8700098A5E024
:204210009AF8010000287DD002F060FA0FF0B6FD04462068029047689AF802000FF0AEFD37
:2042300003900FF059FF10F0070F3DD0A87805F0CBF9019041680198009102990AF080FC13
:20425000022831D001990A78012A2AD14B4B19680A7A19F80230337028B910F013FB8344AA
:204270000098C0F808B000990869C17E01F0EF01C17600980069C17E41F08001C176009804
:204290000069C17E01F0F00141F00201C176009AB9683B4841181069C16101210198A97013
:2042B00054E000200FF01EFB0398A04228D002980178802913D10822324832700178012984
:2042D00003D09AF80100012803DD78690121C17213E0D8F828107A690878D0720DE029492A
:2042F000072030700A787869012A02D10123C37203E0D8F828104A78C272A0798AF80200AF
:20431000029823E00FF0E8FE10F0070F29D0A87805F05AF904462078D4F80480012820D148
:2043300016490A68107A19F80010317010F0AAFA3918D8F8080010F0A1FA20B910F0A2FA73
:204350005844C8F808000120A870204605B0BDE8F04F06F055BC05B0BDE8F04F00200FF0F2
:20437000C1BA05B0BDE8F08F04220020705A01006F4F0020289A0110684E0020104F0020C2
:20439000F0D8FFFF734F00202DE9FE4F0F46994C0168E16241688068E0609748A1608047A4
:2043B0009648E16A0160A168DFF870B24160E168DFF8648281609249002FA246C16069D08D
:2043D0003D68E8788DF8080028798DF8090002A810F050FAA86808B18A490160E86808B112
:2043F00089490160894C2878207068786070A878BE68A0703178E170736863607269626139
:20441000B168A160F168E160316921612E697B68A6621868A0616869E062A8692063287F6B
:2044300084F834002A6AA263786886681EB900200FF058FA00E026627868C06818B90020AC
:204450000FF050FA00E060627868406818B900200FF048FA00E0E0612869A062F8688168AA
:204470000E6806B96B4E6A494FF001094E60C66881F801902EB900200FF034FAF86845463D
:2044900001E045462E6000685C46FE68A0617068E06106E000200FF025FA4FF001095C4679
:2044B000454628685E494668621C04F114035020B04710B1286880688047DAF808008047EA
:2044D000594F0026834669467E7056483E700422206130460EF06AF80098B0F5801F0CD017
:2044F00020B90EF0FFFB05F029FA08E00DF0E0F80FF062FC0420788001E00EF0F3FB4B4F26
:20451000B0462868C7F808808069A660804778604748468080F8009014200FF033FDFF2150
:204530001422A0620FF0DEFEE01CFF2102220FF0D9FE14200FF026FD3E4908600868142257
:2045500031460FF0CFFE3046FCF734FA48460DF061FF39480188FF2906D10221018078223F
:20457000001D31460FF0BEFE032010F07FF9042010F078F9052010F071F9062010F06AF994
:2045900007200BF0A7FA2D4E0820307006F1400010F05CF90BF00CFD363605200A21324641
:2045B0000FF087F838B14046C0F10901401C06F8011B0A28F8DB2F68214909200DF10A0294
:2045D00001AB7D68087010204146A847A06ADAF80C10E2690A270A309DF80A307F1E00F80A
:2045F000013BF9D1921E5846E261884702F0F0FFBDE8FE8FAC10002041490010F844002060
:2046100094490100C12B0100C53A0100581300208016002017F90000341700205C14002073
:204630004D320100853B010030170020F82100200C13002048220020D8110020EC0C00209F
:204650005F2200202DE9F04F0546A64CA878216AADF11C0D801F00F03E81C01E00F02981DF
:20467000401E78D0401E56D0C01E4AD0401E40F03581207A617A00283FD1607800283BD00C
:20469000A88810F0DFF8071C00F02881A87A40080AD3787940B1E968890A05D2B91D01AAE2
:2046B00007F02CFC0A2825D0207B022802D1A87A00091FD36078AE887979C0B1607CB0B939
:2046D0000120607405F10802304603F055FD002840F00481206A002800F000814368002B44
:2046F00000F0FC80002130460A469847F6E00521304603E0032100E00521A88810F09EF833
:20471000ECE0002900F0EA804B68002B00F0E6806A780221CBE00FF015FC002800F0DE80D0
:20473000276A0FB1386868B9286900280CBFE0690120698910F07EF8002800F0CF806889A9
:204750000121DBE7286900903C6869892A7B6B7BE81CA047C2E068784FF00008002840F017
:204770009580A8794008C0F09180606A002840F08D8001A841460E220FF0B4FDA88810F07B
:2047900061F8061C00F0AA806869002859D081464146062209F111000FF02BF9C24620B3D3
:2047B000484606220FF025F9D8B999F8100009F1110B474605907F1C5846FFB28BF80070CF
:2047D0000EF0A6FA0A280BDA474B059A0101A1EB4001C9188879824202D1002FEBD100E0D0
:2047F0001FB947464FF0010A6F61BAF1000F09D109F1110101A806220FF0D4F999F810004C
:204810008DF80A00BAF1010F1BD06F69CFB1387C07F1110106228DF80A0001A80FF0C2F923
:2048300006F10C00B11D06220FF0BCF9B01D07F1110106220FF0B6F9387C40F00200707147
:2048500007E07079B11D06228DF80A0001A80FF0A9F9A9799DF81120C1F3800010438DF8B5
:204870001100080905D39DF8110040F008008DF8110001A8294602F01DFB28B920780221FC
:2048900006F0E8FC40462AE04FF015080FF054FC206A18B343680BB3A8886A780121984722
:2048B000B8F1000F1AD0206A032142464368A8881BE7E878291D002207F020FB0A280DDA40
:2048D000410001EB800005F10C0225300421C0B205F0C4FB02E0A8880BF0EEFB012007B0A9
:2048F000BDE8F08FEC0C0020DE0D00207CB5A34D144602460026A2F58062192A1BD8DFE802
:2049100012F031012A012201190111010C010401FD00F300E700DF00D700C500B9001A00A2
:204930001A00970081007A0065005C00520047003A0030002500282880F29A80022940F09B
:20495000978021880FF072FF064614E1012940F011812178284601750121C1740FF018FA05
:2049700009E1012940F00681002C00F0038128461230024614E0102940F0FC80002C00F0CF
:20499000F98028465C30102221460FF00BF9F2E0012940F0EF80002C00F0EC802A46921DB6
:2049B00021781046E4E0262940F0E480002C00F0E180284626226C30E6E7012940F0DA8001
:2049D000002C00F0D7802846401D9CE0602900D144B9012940F0CE80002C00F0CB80284639
:2049F0000D3090E005F19200214660220FF0DAF801206873BFE0012940F0BC8020780FF0F0
:204A100011FFB8E0012940F0B5802178022900F3B180284600F10C0211702178022918BFDE
:204A3000301C02D11021C17201200FF0F7FEA2E0072940F09F80611C684606220EF07CFF01
:204A500020786946324607F059FA04460A2C0FDA0FF0E0FE38B9204604F04AFE0EF0CAFAA2
:204A70000BF0A6FA87E0284601212C30015582E0022680E001297DD12A462178907B002844
:204A9000917378D12078012875D1E9E72846027B01296FD1022A04D02178072901DB1029AF
:204AB00004DD022A66D12178102963D1C17262E001295FD121780A295CDA2846093057E0ED
:204AD000012957D12178022954DA284608304FE000294FD10FF09EFE10B90FF00FF9BDE755
:204AF000284601210F3043E0042943D12168244888423FD328461C3001603CE0012939D137
:204B10002B4603F10A00217832E0012932D1217802292FDA2846C01D2AE010292AD128467A
:204B30004C3030E7012925D12178022922DA2846001D1DE001291DD1217804291ADC284628
:204B5000C01C02462DE7012914D12178022911DA2846821C25E702290CD1218828461630D2
:204B7000018008E0012905D12178022902DC0548017000E0182630467CBDC046EC0C002071
:204B90003F420F00ED0C00202DE9FC41A0F2013714468846022F40F232819B4E9C493F1FD5
:204BB0000F2F04D9143F4CD0BF1E1CD011E0DFE817F0CF00C9000D01FA00C100B900260192
:204BD000AF00A700100010009D008F007F0074006600282880F21381B8F1020F40F00F81FA
:204BF0008849238807E1B8F1010F40F00881F078012800F00481324620781179107189B96C
:204C1000002800F0FC805078012800F0B580042800F0B280062800F0AF80052800F0AC80F6
:204C3000BDE8FC812078002840F0E9805078032800F0AF80072800F0AC80052840F0DF80D0
:204C5000A7E0B8F1010F40F0DA802078012840F0D68006F1EC000FF05DF9002840F0CF8054
:204C70003446002004F13A0108F09EFC002840F0C68004F1C8000FF02DFBBDE8FC81B8F17B
:204C9000020F40F0BC8020880A28C0F2B880B0F5486F00F3B4808E1C17E0B8F1020F40F0B5
:204CB000AE802088B0F5FA7F80F2A9800E460CE0B8F1020F40F0A38020880628C0F29F8061
:204CD000B0F5486F00F39B803E363080BDE8FC81B8F1020F40F0938020880628C0F28F8080
:204CF000B0F5486F00F38B803C36EEE7B8F1010F40F085802078062880F28180454E0EE05B
:204D1000B8F1010F7BD12078042878DA0A3606E0B8F1010F73D12078082870DA0936307054
:204D3000BDE8FC81B8F1010F69D12078042866DA0836F4E7B8F1010F61D1207804285EDC48
:204D5000F61DECE7B8F1020F59D120880E36BCE7B8F1010F53D13079012850D0324620780B
:204D7000D178D07069B9002849D05078012803D0042818BF052842D101200FF0FBF8BDE878
:204D9000FC81207800283AD15078022818BF052835D110780DF072FE1C490246102003F0FA
:204DB0007DFBBDE8FC8106F1830500211F22284609F03EF921464246284607F0C3FB44462E
:204DD0003078B4710DF05AFE002311E006F1640500211F22284609F02BF9214642462846E3
:204DF00007F0B0FB4446307874710DF047FE01230094094901950246102003F04FFBBDE8AE
:204E1000FC81C046BD840110A005002099450110E0050020DA050020094501102DE9F04F41
:204E30009E4C20780E46F10BADF11C0DC9036ED1B0085ED2606AA16A720807D2F00828BFCF
:204E500086F0040680F02581002023E1858861B904F11800924A00904FF6FF7102230120ED
:204E70000FF0D4FC0146A16221B304A800900027019702230293FF220392228B28460DF1B1
:204E9000120301F01BFB58B99DF813009DF81220A16A12EB002204D0498928460CF062F9D1
:204EB000A16A228B08463B464FF6FF710FF0AAFC0146A162206A00291CBF012186F001068A
:204ED0001FD168B14368616A5BB18888002201219847206A676A4368B88803210022984799
:204EF000616A88880EF05EFF0EF0E0FC86F00106CFE00020014601F0DDFF30B1012186F0B9
:204F10000206207806F0A6F9C3E00221F7E707F00FFE5FEA000800F0BA80054628784FF0FF
:204F3000010AB03812D0401E03D01F3800F0A580A7E02879002840F0A480B8F80200B8F8E9
:204F50000610B8F808200CF00DF99DE02879401E41D0083803D0743800F0828087E06878CC
:204F70001A2879D0688881460FF0E0F8801E18D0401E7CD1288901280AD16889032807D12E
:204F9000E9688A78484604210BF0CAFB024600E01822206A00286AD04368002B67D00421BB
:204FB00016E02989688852460129814609D16989032906D1E9688F781FB910210BF0B0FBEA
:204FD0000246206A002852D04368002B4FD00521484698474BE02B7A688805F10807082B25
:204FF000814639D10FF0A2F8801E12D0401E33D1287B0A2818BF122205D168890421002267
:205010000BF08EFB0246206A30B3436823B3042120E07888102100220BF082FB237D83466D
:2050300093B148460FF00EFC70B11E490B784BB94179831D524601F00101084619460EF0E6
:20505000B1FC01E05046E074206A28B143681BB105215A467888984768880EF0A3FE06E0D4
:205070006A880FF063F8014610460BF001FD297905F108000FF07AFC03E04046FFF7E2FAEE
:205090008246BAF1000F02D028460EF067FA86F40046B0B207B0BDE8F08FC046EC0C0020C4
:2050B000C25601005A4F00202DE9FC41884C894A2678894F894D8A490D2E30464FF4A053FE
:2050D0004CD8DFE816F003010E000E000E000E00FB00FB006800FB00A700A700D800D8003C
:2050F000DF008049176041F204464C887E4FB4421CBFB1F81AE0B6450BD0B1F83280B045C9
:205110001CBF41F20A46B44203D0B64518BFB04502D12E80176076E0022C744E2C8035D999
:205130004FF48067E41B1AD0241F012C1DD94FF47F77E41B1BD04FF44067E41B0FD0A41E39
:20515000012C0CD9241F0AD0641E012C0DD940F2F937E41B012C19D9241F08D0AEE0022828
:2051700014BF2B80624E16604DE0624EFBE762480468257A012D05D141F2024048804883FB
:205190004886F0E74B804B834B86ECE700200EF0A9FB832096E059488178FF291ED01C2056
:2051B00041435748176040F204460068841C645A2C80A41B012C534D10D94FF47F76A41BEB
:2051D00015D00A3C012C14D940F6F636A41B032C84BF641F012C0ED9A41E012C76D940F2E0
:2051F000FD36A41B07D0641E012C02D905E041F20143801C4352156005E000200EF072FBDA
:2052100085200FF08BFBBDE8FC413F480078012106F020B84A882A8040F20443D21A55D07D
:2052300040F6FC73D21A15D0083A4FD04FF47F73D21A22D1354C364A2568364800680023DC
:20525000CDE9002355F8086F334B0222B047334908803BE0092810D131490A68508960B101
:20527000304908780AF0F4FD002100200FF0C6FA002020702AE04888288000200EF032FBBD
:2052900085201FE04A882A80022A0DD940F20440121A1BD040F6FC70121A05D0083A15D075
:2052B0004FF47F70121AE8D1887B801CC0B2B528A8BF662088730020488007E000200EF004
:2052D00011FB8420BDE8F6410FF028BBBDE8F3816F4F0020204F00206F420100504F002059
:2052F000A4210020204A0020BD280000759B000039B80000755B0110104F0020684E002013
:2053100028220020BD6200006E4F0020F04E002002000080EC4E002041160100424F0020D4
:2053300034220020714F002010B50B7884074CBF43F0020303F0FD0304064CBF43F0800333
:2053500003F07F0304074CBF43F0080303F0F70384064CBF43F0200303F0DF0310F0AA0F0E
:205370000B7004D0107840F00C00107010BD18B9117801F0F301117010BDF8B50F46002608
:205390003878022814461D4667D1786801784278069801EB022189B2002818BFB1F5285F07
:2053B00001D00B20F2BD4FF42850091A0AD0491E1ED0491E4BD0491E22D0491E28D0C539ED
:2053D00041D04AE0F8680EF08FFF069B079980B2C21A8A42ACBF0846C01A80B2C11816299E
:2053F00004DA28800246F868C1180DE00D2636E0F8680088022129802070000A60702EE034
:20541000062028800622F96820460EF0CBFB26E0F868B0B108212980018821700188090AAC
:2054300061704188A1704188090AE170818821718188090A6171C188A171C088000AE071FD
:205450000DE029800BE04A480178CA0705D401202880F8680178217001E02E8001263046A7
:20547000F2BD2DE9F8460E46814630780024022817469A4678D17068017842783C4D01EB02
:20549000022189B24FF42850091A08D0491E30D0491E55D0491E3FD0C63960D064E0F068B4
:2054B0000EF022FF089980B2884206D308460AEB0001162903DB0D2457E0072455E0F368C3
:2054D0005246394618440EF06DFB08985044ADF8200000210898F368C0F1160218440EF0AB
:2054F00001FF686800281CBF0268002A3DD0002123E0089888BBBAF1020FDCD13978787817
:20551000F26801EB00211180686800281CBF0268002A2AD0012110E00898F0B9BAF1060F07
:20553000C9D1F068062239460EF03CFB686800281CBF0268002A18D003214846904714E0C1
:20555000089850B9BAF1010FB5D13878002813BF0128F1680870802407E00B2405E028786E
:20557000C10758BF032400D501242046BDE8F286A81600202DE9F04F8246DAF800600C4619
:205590005FEA0208ADF11C0D14BF00214FF0FF3106F1480083460EF04AFC002818BF0B2008
:2055B00040F00681002565708448F460B8F1010F057004D065700220F4600DF087F82078A9
:2055D000012840F2AB80801E012868D9801E012833D9801E012800F2DF800EF05DFE069053
:2055F0004FF0805000F5EE77D0F8DC01A378466A009321782846062908BF0120019001205F
:205610000290A068228AE1686368B047814606980FF054F9B9F1000F40F0C080B8F1000F97
:2056300002D00EF08FFA02E050460DF093FC002800F0A4803868806A2AE00EF02DFE06906E
:205650004FF0805000F5EE77D0F8DC01012306680093A168A27860682478AC46042C08BF97
:205670009C466346B047814606980FF027F9B9F1000F40F09380B8F1000F02D00EF062FA34
:2056900002E050460DF066FC002877D03868406880474949C1F8B0510D6081467EE00EF0C9
:2056B000FBFD06904FF0805000F5EE76D0F8DC01E38A87690093E0680190208B0290A07821
:2056D0000390207D04900121059122782846022A08BF081CE1786268A368B847814606988D
:2056F0000FF0ECF8B9F1000F58D1B8F1000F02D00EF028FA02E050460DF02CFC00283DD059
:205710003068006A80475FEA000947D13068C569A168E28A2369E078A847BEE70EF0BCFDDC
:2057300006904FF0805000F5EE76D0F8DC01E38AC7680093E0680190208B0290A0780390C6
:20575000207D2946049001200590257805B9014608466268A368E178B847814606980FF062
:20577000ADF8B9F1000F19D1B8F1000F02D00EF0E9F902E050460DF0EDFB08B9142017E01E
:205790003068406980475FEA000907D1306802692169E078904780E74FF0FF39B8F1010F74
:2057B00002D002200CF080FD58460EF089FD484607B0BDE8F08FC046504502405E22002064
:2057D0002DE9F04102468A4D884C2978A068521EADF1280D00F09280521E00F08580921E7C
:2057F00066D0521E52D0521E04D0521E4BD0521E46D043E004F17C000EF06AFD7D4910208D
:2058100002F04CFE7C49C7B201AB10207A1E02F045FE98B9002684F83C6000972978A06886
:2058300056A33246C91CC9B20DF0B4FA2D78A4680DF106000AF084FE324613E006AE40F25A
:205850001530314603F0E8FF2978A06800224FA3C91CC9B20DF09EFA2D78A46830460AF0CF
:205870006FFE002203466D1C2046E9B20DF092FA4FF6FF7000210CF0E9FF7CE00A462EE0BA
:20589000002245A375E0002245A370E0142008F0F7FCA0682978002247A30DF07BFA0020D9
:2058B0004FF6FF710CF0D2FF2A78501CC1B215E004F17C000EF00EFD142008F0E1FC2978BC
:2058D000A06800223FA3C91CC9B20DF063FA00204FF6FF710CF0BAFF2A781146A068921CB9
:2058F000D2B20EF0ABFB46E0C91C002239A3C9B20DF050FA012084F83C003CE04FF44170BC
:2059100008A903F089FF9DF821708DF8057000268DF808609DF822308DF807609DF824107C
:205930008DF806309DF820008DF80A109DF825208DF804009DF823708DF80B2001AB2F49E9
:205950008DF809701A680A6058684860D4F808802F7808A80AF0F4FD3F1D0346F9B2324687
:2059700040460DF017FAA06829781DA33246C91CC9B20DF00FFA0AB0BDE8F0814E756D201C
:20599000436F6E6E733A20256400C046436F6E6E656374656400C0464572726F7200C04664
:2059B000436F6E6E6563746564204164766572746973696E6700C04654696D6564204F75C7
:2059D0007400C046446973636F6E6E656374656400C046C04164766572746973696E670024
:2059F000496E697469616C697A65640008020020C4150020F17F0110097F0110270B002092
:205A10002DE9F04FDFF80CB29BF80000002885B004D0401E032804D9801F012840F2F780F1
:205A3000EFE07D4DDFF8F4812868DFF8F49103687C4E03F10807062207F1080103A80EF07B
:205A5000B1F80622B91C01A80EF0ACF83878C0F380118DF800101E24C10900F00F02032A82
:205A700039D16879C0F38000814233D12969062203A80DF063FD00282CD09DF8000001A90C
:205A90000EF010FF002825D0314601A80CF083FF0746FF2F1ED0D9F80000807A6743002828
:205AB00018BF02280BD0012818BF032812D1701CF25DC11940460EF09DFE10280AD0F419F9
:205AD00001AAE11D404609F010FD062201A9E01D0EF068F890E000F00F00052840F0978071
:205AF0006879C0F380008142F4D12969062203A80DF024FD0028EDD09DF800003F7801A99C
:205B10000EF0D0FE7F0940F2024A88B3314601A80CF041FF8346BBF1FF0F6DD0D9F800007B
:205B3000807A002804FB0BF118BF012800910CD0022818BF03285FD10846711C325C0144C1
:205B500040460EF057FE102856D050460EF04EFE009806EB000A01AA0AF10701404609F05E
:205B7000C4FC062201A90AF107000EF01BF81CE09BF8000002283FD19DF8001001AA3046E1
:205B900009F022FB8346BBF1FF0F35D004FB0BF03118487F012805D070BB01F10D000EF027
:205BB00085FE48B350460EF021FE04FB0BF4D9F80010305D88760622701C0119D9F800009B
:205BD00014300DF0EFFF184918488A78510604D5F90758BF41F20A4101D541F204414180EF
:205BF000418341861248134A01801348134908600121107805F02EFB29680A680020107147
:205C100005E000200DF06EFE86200EF087FE05B0BDE8F08F6F4F0020F44B0020CC47002094
:205C3000104F002060170020C0210020204A0020504F00206E4F0020BD280000204F0020A3
:205C50002DE9FE4F05467E48002400680094C0090ED37C48007858B97C497B4851F8112C9B
:205C7000104040F0817041F8110C20200BF036FA012D40F0E080DFF80092D9F8DC000128E5
:205C900040F0D6800220C9F8DC000DF0C7FB01200BF024FA5FEA000805D00120C9F8DC00D2
:205CB0000DF0CCFBC9E00EF00DFBA34602906848684DC0F800B0A86A016801208847012885
:205CD00004D1584608F0A8FF012000906248634FC0F800B0386811200EF0E6F900B10124A9
:205CF00010200EF0E1F908B144F002040F200EF0DBF908B144F004040B200EF0D5F920B1DB
:205D10002868574E016B308888470A200EF0CCF920B12868534E016B3088884752480126A8
:205D300006602868816944F0200088474F4806600EF0B4F900F001010191400814D2286A64
:205D500081684B4888478246BAF1040FF7D0BAF1010F04D1286A42684548032190474549B9
:205D7000086820F003000860584600F087F82B683868986B8047019801280CD0BAF1010FC5
:205D900004D1286A42683A48314690473949086840F0030008603048066028684169204607
:205DB00088470B200EF080F920B128682C4BC16A188888470A200EF077F920B12868294B83
:205DD000C16A18888847284806600322C9F8DC20264BC3F800B02868416B204688470128EB
:205DF000F9D1386804200BF079F90446184806603868134800688009FBD30098012802D13A
:205E1000304608F009FF0EF03DF908200BF066F907460298C9F8DC600EF0E4FCFBF7B6F8E4
:205E30000DF00CFB57EA040018BF4FF0FF3804E06FF0040801E06FF001084046BDE8FE8F6C
:205E50001410094080100020FFFFFCFC150009400C400940B8010010000222432C20094067
:205E7000C4550100C055010028200860800104430040034024220840980F00202DE9F84F35
:205E9000DFF804B20746ABF13500DFF8F0810068800880F0E28075480068006880477E4922
:205EB0000831D1F8009000254FEA29715FEA995201F101010AD2C0F13E0210F10A0F4FEA00
:205ED000E202D8BF08229142B8BF111C684BD3F87C21C2F30462162AA8BF203A1B68C3F326
:205EF0000443162BA8BF203B9A465218162A05DA12F10A0FB8BF6FF0090200E015225D4B23
:205F10005D4E02F01F0141F4F8511980316811F0030F18BF0125C90828BF45F002050FB140
:205F300045F00405434693F90710411A052904DA9979A94208BF99886FD0DFF844E10F2829
:205F5000A0F10F0829DB08EB0011A1F1F0084FEA28210091072984BF07210091062988BF42
:205F700006215EF821600424774604EB81043C594FEA950CA41BEE0804F0FF0124BFC4F308
:205F9000072631446F08AE0824BFC4F3074631446E0828BF01EB146104E000214FEA950C29
:205FB0006F080091009C5EF824E05FEA5C060EF0FF0424BFCEF3072634447E0824BFCEF3B4
:205FD000074634446E0828BF04EB1E64009E89B2A8EB06267143803104EB1124AAEB020165
:205FF0000029D8BF0121342209F0FF074A4391B24FF6FF727943B1FBF4F18A4238BF111C97
:20601000802889B2998005DA10F1800FB8BF6FF07F0000E07F20D8719D711A4800681F29C8
:2060300018604FF0000008D340F2FF128A4206D24908401C8A42FBD301E01F219980134FF4
:206050000F39090940EAC10047EA0001CBF8FB1F0026CBF8FF6FBDE8F88F0D490D4F43461E
:2060700008200F609B1D1870BDE8F88FEC0100103C1100506E620840242208401822002073
:206090009C130050082009403500094000E7A48030100940FDFDA400AC3F00502DE9F84F38
:2060B0000024774D774EDFF8E0B1DFF8E0A1DFF8E081DFF8E091D9F800104A7A01231820E2
:2060D000A34060431A420AEB000709D0087A38F810203A8000201BF80420BA73F87302E08C
:2060F00040F6010038800020788007F118007860387B00F0EF0040F080003873097A012907
:206110000ED141F28830B860387B00F0F00040F005003873787B00F0F00040F0020019E01C
:20613000002C0CBF0221002100F0F000084338733CB90EF0A7FB00F5C870CAF80800022090
:2061500004E00020022CB860F9D10120797B01F0F00108437873641C3E61022C7D61AADD3C
:20617000D9F80000017A01290EBFCAF834A00020CAF834000CF032FD306047488069007875
:20619000C1074CBF1021002182074CBF2022002243074CBF4023002300074CBF8020002025
:2061B00011431943014341F00F01317100207071D9F80010887A00F003007071CA7A92006A
:2061D00002F00402104370718A7ED20002F0080242F0100210437071087A012818BF042887
:2061F00006D10020B071F071B06001F1140216E0487FB07101F15D025078F071487F20B10E
:206210000B7FC3EB4313C8181E30B060507828B11278C2EB42128B1803F15F001F4AF060C7
:20623000726101F10C0030611D4BF07E727900F0E00040F08600F0761A48F061187828B123
:20625000307900F0FE0042F040023071164B987843064CBF42F0200202F0DF027271002093
:206270002880A870E87028716871E8802881A872E872E8600868C0F804A0BDE8F18F00BF07
:20629000B44D0020F44B0020409A0110204A0020109A0110104F0020705A0100D0470020BD
:2062B000784E002000204E00C02100207E488078FF2800D170472DE9F84F0DF05FFD05460B
:2062D00005F217100178012908BF417800F0A28005F17400817B022903D105F1740200206A
:2062F000907305F59276F18911B1307B04F0B2FF68896E4F288105F58D78B87AFB793A7B4C
:20631000F97A7C7BB8F800C000EB030E96448E4474441FFA84FEB8F80440641CA8F8044040
:20633000F444B8F80240A8F800C00419A8F802404FF01C0C3468FCB1DFF8749195F806A005
:20635000D9F8009009F10E0B0CFB0AFA09F10E091BF80AA034F81AB0F34424F81AB095F840
:2063700006A00CFB0AFA19F80A9004EB4904B4F84AE08644A4F84AE0002B08BF002904D11F
:20639000002A04BF797B002923D02A89E889821800202874AA81287F012804BF698CE98357
:2063B000787868B10121297705F174018878002804BF887B002803D1087F08B9698CE98304
:2063D000307D80B3022804BFF87A002827D1002128E0E98338B100202874287F012807D16C
:2063F000698CE98304E0B8F80600401CA8F80600A8892989814206D08842D1D2081A41F252
:20641000AB029042CCDA287C08B1052901D0082100E03E212846BDE8F44F0CF0ADBF787AD3
:2064300008B1022131752348FA7B01682868D30708D53A69C26001F11400A97949010022E1
:20645000425011E001F11402A97949015258184932610A68A97902F108030CFB01F299581A
:20647000C1600020E8832877134841690A7890074CBFB87B812085F874002846FCF7BCFCBA
:2064900001280ED00121284607F00CFE28460CF0C5FDFCF727FF012803D0BDE8F14FFDF73A
:2064B000F3BDBDE8F18F00BF684E00205C4D0020282200202C220020705A01002DE9F041AF
:2064D0000C4684B00746207A0026C10690461D460BD540460EF082F9030000F0F0800A22AB
:2064F000214638469847060050D1207802281AD160680178427801EB022189B24FF42050FC
:20651000091A012910D9891E41D0491E16D0FD3905D0491E00F08B80491E74D0491E7BD066
:20653000491E00F0A180B8E00B98002831D1E0680A9A017811800278416891E00B98002819
:2065500027D10A9801210180E0680178297000216089401C80B20EF03DF90A99098868B17B
:2065700002780A9B921C51181980418969704189090AA97002784168E81C72E00A98091D62
:20659000018004220021681C0DF0ACFE98E00B9800286BD1E06807880A98042101802F70BB
:2065B000380A68700DF1020138460EF013F904001FD0E768BDF802204FF6FF786B4641461B
:2065D0000EF020F940B9237862683F4802210EF0FDF808B9ADF80080387802280BD179681C
:2065F0000222281D0DF0DEFA0A980188891C018001E0ADF80070BDF80000A870BDF8000084
:20661000000AE8705CE00B9800282FD1E068016838460DF02FFC03E00B9838BBE068008861
:206630000A9A022111802870000A687048E0E0680DF05AFE0B9B80B29842B8BF07263FDB43
:20665000834208BF002006D00C99C9188142B2BF0C98C01A80B20A9908800246E068C118AA
:2066700028460DF09FFA2BE00B9808B10B2627E00A9AE0680721118002782A70417869701C
:206690004188A9704188090AE97001792971C1886971C088000AA87112E040460EF092F831
:2066B00006000CD00D980C990A9B029001912A460B98009021463846B047064600E00E26F6
:2066D000304604B0BDE8F081C85601002DE9FE4F7D4C617811B900200DF004F90EF0D2F89A
:2066F0008146002709F6C4190026784DDFF8E0810EE030460DF042FB417939B129688279CF
:20671000CA5549467F1C00F0E7F8FFB2761CF6B298F800008642ECDB009761788F4205D031
:2067300000200DF0DFF882200EF0F8F86078012840F0A380002601E0761CF6B298F80000A0
:20675000864280F2948030460DF018FB074678790028F1D02868B979027891421CBF002024
:206770000DF0C0F8B87980E0286810F809000DF005FB00684268DAF808109068814204BFAB
:20679000B84609F1010900F088808BE0296891F800B04FF0010910E0626811F8093002F57E
