:2000000000400020790E010001C9011001C9011001C9011001C9011001C9011001C90110D6
:1C00200001C9011001C9011001C9011001C9011001C9011001C901103FC9011089
:20003C0080B54FF4FC720FF278011A480CF076FA012119484174002202210270C17601BD92
:20005C002DE9F0410FF2502214493820136854689568D6681769D2F814C0D2F818E0D2F8F9
:20007C001C800B604C608D60CE600F61C1F814C0C1F818E0C1F81C8020322031401EE5D1DC
:20009C0050689368D46812680A6048608B60CC60BDE8F081480400215903002100C00021D1
:2000BC00410500217D0500212D06002170B51D46004C204787B2000010B5014800470000FD
:2000DC00D509000070B5614C6148254650358047022809D14034E1885E4A914204D1E97C5E
:2000FC00890601D4911DE18070BD70B557495A4A084650300378002B10D08379012B0DD181
:20011C00037C5B09DB0709D0097D544DC1746C7F20202043687790476C7770BDFF21C17420
:20013C00904770BD10B54E48484C804702280ED121464031CA88474B9A4208D1CA7C5209CE
:20015C00D20704D0227D920601D49A1DCA8010BD70B53E4843494030C07C4009C00707D032
:20017C003E4D41482C8B2043288388472C8370BD884770BD10B53B48344CAC388047214609
:20019C0053310A789309DB0705D04034A2730A7803231A430A7010BD2C4940310871182876
:2001BC0012D004DC0A280BD00B2804D10AE025280CD02A280CD02D4980004018C0687047DE
:2001DC002B4870472B4870472B4870472B4870472B48704770B504461C484E252D5CAE09AB
:2001FC00F60716D0067D3007000F052803D00120054202D00DE00220FAE7E80905D07006D1
:20021C0003D54868800F012803D05B085B0052085200062B03D01020022B11D011E0FB20F7
:20023C00024002232046FFF741FF002807DAC100611A2039497E1422114200D1002070BD93
:20025C00024303432046FFF731FF70BD4401002137CB000004140000EBC80000A800002142
:20027C00F5B4000053AD00002020000080DF00001D050021F9040021CD040021930400210F
:20029C006D04002110B5034CFFF716FF20680028FAD110BD0011044068610000F825F965B0
:2002BC00F9754500450045002600260057A3520052004C00401F401F401F3F000000000053
:2002DC00304000400140034007400F404F40CF40CF41CF43CF47CF4FCF3FCF2FCF1FCF0F6C
:2002FC00000000000000000000000F00080000003F00000040003F000000040068000E0093
:20031C00DC00060043001A00050000000000020000000000000000000400C00000000400B3
:20033C00C000000007000000000000000000000000000000000000003040004001400340A6
:20035C0007400F404F40CF40CF7FCF6FCF5FCF4FCF3FCF2FCF1FCF0F00000000000000009D
:20037C0050C00091007070C00091007082312100319110B10070018101B100A1823132910D
:20039C0010B101911110418141227740F106007051C0019130181039833108D01831416FD1
:2003BC003100319110B18314141683680070251050C00091F4C340C12014036F3110410497
:2003DC005082F0229840512622C082312100319110B163393110410482C08231210031919B
:2003FC0010B163393110A2C082312100319110B150101531051405920070676452C03110A6
:20041C0031066131C1026A6412C13110213971065131E1026A64007051C0019101CCE2C0CC
:20043C006A64676411C1C2C06A6450B054B0007140804022D6440022C94060B08180111EC9
:20045C00C944007054A064B0F0800022C9404012B09032B070C1DF6811C122C16A6470C1C0
:20047C00E46851C00191E2C0823160820200329110B130C2EE68538253395339B16460C347
:20049C00F4688012B09032B00070676401C122C16A6401C1C2C06A645382B164C012B09074
:2004BC0032B00070676472C281C06A6422C111C16A6402C011C16A6462C031C36A6462C3D2
:2004DC0011C16A6402C311C16A6453825339B164E2C36F6411221C4142C281C86A6452C24E
:2004FC0011C16A6472C2E1CE6A6402C281C86A6402C201C86A64B0C030690070676442C211
:20051C0001C86A6452C211C06A6472C2E1C06A6402C001C16A6462C001C36A6422C101C127
:20053C006A6462C301C16A6402C301C16A645382B16400708180111E5C4150B054B000712B
:20055C00408040225D4154A064B0F1800122514500700022514160B04E61000000000000AA
:20057C000000000000000000067305720B720E7250B00071818060B050A09280F0EFF1928C
:20059C0002936A6741228C458080F1C11004301601110114016CB561B661B761B861B9618D
:2005BC00BA61BB61BD61BF61C161C36126632D63F0C002043231412A121432160111211412
:2005DC00016CDA61C561E061C761CB61B561B561B561F461C561FA61C761CB61B561B56104
:2005FC00B561F461C561FA61C761CB61B561B561B561E761C561ED61C761CB61B561B56121
:20061C00B561CF61CF61CF61CF61CF61CF61C064CF61F964CF610665CF613265CF6174676A
:20063C00CF611166CF61C0644E65F964CF61066511663265CF618280E0DFF2926A67B0B044
:20065C00D661B1B00673057230B06C61D0CF6A6784C203C0C0C37C64207851788278E378B7
:20067C001579B6780062C0CF6A6784C203C0C0C37C64307861789278F3781579C678006250
:20069C00B0CF6A6784C203C0C0C37C6440787178A27803791579D678109221923292439281
:2006BC005492659256911FC0FF914039F00601101031101400927067CF61E3B054A0F08076
:2006DC0050221A4640800022BE461262E3A000C86091598150B0918041228E46A0CF6A6734
:2006FC0012828231823942398B641282F2062F101F312F141682D622334640C1346200C5AF
:20071C0020140D6F6D39DE10F4C34E0482C082312E006D39A2C082312D001A828A39FA0606
:20073C002082803180390BC00B18BC10AC18038239149B141082F0060110103110145181C2
:20075C0010140C14C622C94631D0C1266462021011C0013010C00118021882312100C126C2
:20077C00919103B013B063B053B041800122BE46B481C491D581B51C774E95186591F0803E
:20079C00102269428C623D9110B13E9110B1E08000228146E6228142E0B0951865910F926B
:2007BC005981F914F0805022114210228C464D6390CF6A6763B052A03082F2C0200402107E
:2007DC0011C0013010C00118021882312100C1269191919113B003B063B053B064B054B055
:2007FC00007141800122BE4663B064B0F08050221142B181C191D1819118619131B0A462D0
:20081C002967E0A059810582591480C0007163B0BA6A6962E3A0018262818231823D80EF61
:20083C00F19202936A6703A0007037824739873930828039F006021011C0013010C0011849
:20085C00021882312100C126819102B012B030824039F006021011C0013010C001180218E9
:20087C0082312100C126919103B013B063B053B0007153A062B052B041800122BE46A4816E
:20089C00C491D581B51CFE4E95186591F0801022F0428C62B481C491D4814518751C084FEB
:2008BC00F0801022F0428C623D9110B13E9110B1E08000221247E6221243E0B065910F92DC
:2008DC005981F914F0805022114210228C4630632967E0A0598105825914F0C0007162B038
:2008FC00226BF062A2808B64CF6112824239F2068B6050B00071CF6170CF6A674082418096
:20091C000122BE46A481C491D58195186591F18011228C46336B41800122BE46A481C491AB
:20093C00D581C51C1C4B95186591F08010223F438C6260CF6A67408241800122BE46B48169
:20095C00C491D58195186591F18011228C46506B41800122BE46B481C491D581C51CB44A55
:20097C0095186591F08010225C438C62E092D08200226B47C0B20070A080F022874330B033
:20099C0002C1623101C0A080001E8043F022814380F86031603981632010101A136F236E5A
:2009BC0011161216826B00702DE9F84FDFF81885DFF8181588F80000002008600921DFF891
:2009DC00100501700D2141804FF408718180DFF80405DFF8041501608A7EDFF80005027042
:2009FC00FF2ACB7E437008BFFF2B0D7F85704E7FC6708F7F0771C97F417115D1FF2D08BFE8
:200A1C00FF2E11D1FF2F08BFFF290DD1DFF8D0140A7802704A7842708A788270CA78C27025
:200A3C000A79027149794171DFF8B81402780A70FF2542784A7082788A70C278CA7002791E
:200A5C000A714079DFF8A02448710021DFF89C04057045708570C570057145711180DFF872
:200A7C009004DFF89014466BDFF88C247078087031781170B078DFF884140870716908791F
:200A9C00DFF87C14421E0A70F078DFF878140870B069DFF87414086008B912F0AFFEF0690D
:200ABC00DFF86844206008B912F0A8FE2068DFF8607401688847216851F8042F38469047E9
:200ADC00DFF85004DFF850143862DFF850047862306A086008B912F091FE706ADFF840149C
:200AFC00086008B912F08AFEDFF838B4DFF838649BF8040013F0D2F9306008B900F045B94D
:200B1C009BF80500DFF8247413F0C8F9386008B9306837E19BF80600DFF8144413F0BEF963
:200B3C00206020B9306813F0C1F938682AE19BF80700DFF8009413F0B1F9C9F8000038B9DC
:200B5C00306813F0B3F9386813F0B0F9206819E1DFF8A4130A789BF80000DFF8DCA3921CBD
:200B7C00504380B213F09AF9CAF8080058B9306813F09CF9386813F099F9206813F096F9A4
:200B9C00D9F80000FEE0DC480078002800F00281BBF80210DFF8A4B3484380B213F07EF929
:200BBC00CBF8040078B9306813F080F9386813F07DF9206813F07AF9D9F8000013F076F9B3
:200BDC00DAF80800DEE0CC48007813F067F9DC49086080B9306813F069F9386813F066F9AD
:200BFC00D9F8000013F062F9DAF8080013F05EF9DBF80400C6E0C04800781C21484313F0AE
:200C1C004DF9D04A1060B0B9306813F04FF9386813F04CF9206813F049F9D9F8000013F013
:200C3C0045F9DAF8080013F041F9DBF8040013F03DF9C348A5E0B0480078400113F02EF9C8
:200C5C00C1490860D8B9306813F030F9386813F02DF9206813F02AF9D9F8000013F026F947
:200C7C00DAF8080013F022F9DBF8040013F01EF9B348006813F01AF9B249086882E09E4843
:200C9C000078000113F00AF9B0490860F0B9306813F00CF9386813F009F9206813F006F9E0
:200CBC00D9F8000013F002F9DAF8080013F0FEF8DBF8040013F0FAF8A148006813F0F6F868
:200CDC00A049086813F0F2F89F485AE08A480078000113F0E3F89E49086018BB306813F0AB
:200CFC00E5F8386813F0E2F8206813F0DFF8D9F8000013F0DBF8DAF8080013F0D7F8DBF8F6
:200D1C00040013F0D3F88E48006813F0CFF88D49086813F0CBF88C48006813F0C7F88B49FF
:200D3C0008682FE0744800783021484313F0B6F8884A106070BB306813F0B8F8386813F0FC
:200D5C00B5F8206813F0B2F8D9F8000013F0AEF8DAF8080013F0AAF8DBF8040013F0A6F824
:200D7C007748006813F0A2F87649086813F09EF87548006813F09AF87449086813F096F853
:200D9C007348006813F092F8002012F037FD4FF4804192E0316801200871306805733168DF
:200DBC004D73306885733168CD7330680574002031684D743268D072A0223168487103214F
:200DDC003068C28001720720316848720020326890722821306841820121C17600203168BE
:200DFC004877326882F85E00012031680877326882F85D00396808713868057339684D7369
:200E1C00386885733968CD7338680574002039684D743A68D072396848713A6890724FF47D
:200E3C00207039680022C88008818A7401213A68D17421680D732268557321688D732268FD
:200E5C00D57321680D740021226855742368D9720121226811710021236859712168C88065
:200E7C000881002088722168887405202268D0743948016888472A490A6805461068804713
:200E9C0027490A6852F8043F0020984718481D4BC16818780A88314902430A802846304985
:200EBC000A6890470C212F4800F05EF80F4800F05FF800F061F84FF4005198F80000BDE833
:200EDC00F44F0AF0B3B900BF6E4F0020044F0020604E0020084F0020B63F00502C4E00201A
:200EFC00E81200503C4E00200C4F0020344E0020945901006D4F00207B4F00206B4F002037
:200F1C00724F00206C4F0020F04E0020F44E00207C4B0020B93E0100F84E0020C93E0100EC
:200F3C00FC4E0020A4160020104F002030220020184F00203422002004220020684E002047
:200F5C00004F0020282200202C220020884E00208C4E0020904E0020BC100020544F002091
:200F7C00C0100020F84D0020DFF800F0E5710110DFF800F01D6E0110DFF800F04D710110D9
:200F9C00B0B5174C241D20680004070C23D01248006800688047114991F90720824205DDF8
:200FBC0010F1800FB8BF6FF07F00C8718D88BD4210D80A68D4F8D40F801A801C1F2888BF16
:200FDC001F207F1B4008C7404FF6FF70EF19B84238BF071C8F80B0BDEC010010182200202A
:040FFC003010094068
:20100000B41200001810000015AB0110FDB301106DC00110FDAE011099B5011000000000F7
:08102000000000002D0000009B
:20102800B01200003C100000B1C00110A9BF011067C0011069B80110000000000000000035
:041048003000000074
:20104C00B012000060100000BDC00110CDB30110D9BD01106DB3011000000000000000005B
:04106C00310000004F
:2010700000000000C416002004000000000000000000000020000000E8C901103000000050
:2010900028100000CC1600200400000000000000000000000C000000D8CA0110180000002B
:2010B0004C100000D416002004000000000000000000000024000000F0CA011018000000AF
:2010D00000000000DC1600200400000000000000000000001000000018CA01102C000000BB
:2010F00000100000EC160020040000000000000000000000200000006CCA0110240000001F
:20111000FFFFFFFFF41600200400000000000000000000002800000090CA011024000000DE
:20113000FFFFFFFFFC1600200400000000000000000000001400000008CB0110180000005D
:20115000FFFFFFFF0417002004000000000000000000000058000000B4C90110340000002A
:20117000FFFFFFFF0C1700200400000000000000000000001000000020CB011018000000F8
:20119000FFFFFFFF141700200400000000000000000000001C000000B4CA01102400000025
:2011B000FFFFFFFF1C1700200400000000000000000000003800000044CA0110280000004D
:2011D000FFFFFFFF241700200400000000000000000000005400000078C901103C000000C2
:0811F00001000000705901002C
:0411F80001000000F2
:0411FC0000000E00E1
:0412000000000F00DB
:0412040032000000B4
:0412080001000000E1
:04120C003815002071
:0412100000020000D8
:0412140000000000D6
:0412180001C90110F7
:04121C0000000000CE
:0412200000000000CA
:0412240008000000BE
:0412280000002200A0
:04122C009C130020EF
:0412300000000000BA
:0412340000000000B6
:0412380008000000AA
:04123C00F814002082
:0412400000000000AA
:0412440000000000A6
:04124800080000009A
:04124C00000000009E
:04125000000000009A
:041254000000000096
:041258000000000092
:04125C00010000008D
:041260000414002052
:041264000600000080
:041268000100000081
:04126C00C812002084
:04127000000000007A
:041274000000000076
:041278000002000070
:04127C00000000006E
:02128000290043
:02128200010069
:02128400250043
:02128600300036
:02128800310033
:02128A002D0035
:02128C0001005F
:01128E00015E
:0812900003000000F458010006
:0812980000000000000000004E
:0412A0000000010049
:0412A4000000030043
:0412A80013C401105A
:0412AC00473C0100BA
:0412B000B812000070
:0412B400B81200006C
:0412B8000000000032
:0412BC0054160020A4
:0412C000873D010065
:0412C4002000000006
:0412C8004C5801007D
:0412CC00B456010013
:0412D00029C101101F
:0412D400EF0D010019
:0412D800E31101001D
:0412DC00A1C7011095
:0412E000A3C701108F
:0412E4000000000006
:0412E8007358010036
:0412EC006C5501003C
:0412F0008455010020
:0412F400545501004C
:0212F8000200F2
:0212FA000900E9
:0212FC000100EF
:0212FE000000EE
:0113000001EB
:04130400153D010092
:041308006920010057
:04130C0001320100A9
:04131000192401009B
:041314007F24010031
:04131800610D010062
:04131C002DE50000BB
:04132000553F010034
:0413240065FA000066
:0413280015C70110D4
:04132C0025C70110C0
:201330002DE9F04FBA4C04F10C012046ADF1540D0FF020F804F134050021284613F0B0FA5A
:2013500041F288320023B349256104F18400012500950FF05FF8002001460EF067FAAE4E9F
:201370001F220623A0603146102007F089F80020ADF832008DF848004FF4FA51ADF8341099
:201390008346ADF836100DF147028DF847504FF47A70ADF838B02946ADF83A0040F20530B7
:2013B00003F0E4FB40F2063002210DF1320203F0DDFB4FF442701E2104F1650203F0D6FB6F
:2013D00040F20730072104F1240203F0CFFB4FF44470294612AA03F0C9FB40F21130022125
:2013F0000DAA03F0C3FB40F2123002210DF1360203F0BCFB40F2133002210EAA03F0B6FB0A
:201410004FF4457002210DF13A0203F0AFFB04F150005A461523CC490090102007F030F8B9
:20143000314610200622A02307F02AF8314610200722A02307F024F8314610200822A023B7
:2014500007F01EF8314610200922A02307F018F80BA88DF84950A946CDF82CB0D8460090C4
:20147000CD4D8DF84A904FF481628DF84B8004238DF84C902946102007F002F80DF149000E
:201490004FF4806200904B462946102006F0F8FF0DF14A0040F2024200904B4629461020EC
:2014B00006F0EEFF0DF14B0040F2034200904B462946102006F0E4FF13A840F2064200901B
:2014D0004B462946102006F0DBFFC54910204FF0FF3206F0D5FFC34910204FF0FF3206F0E2
:2014F000CFFFC14EC14F10201323C14A00903146019706F0C5FFBF480078800012F066FEC0
:20151000BD4D0146A96069B14FF6FF7010F0DCFDBA49102005F11C020090112301913146A6
:2015300006F0AEFFCB4908A80A680F79026002260771FF238DF84D604F1D8DF84E3006AEC1
:201550003B683A79336001F10A07327104AB3A6839791A605846197108AA052109F014FC66
:2015700048460DF14D02014609F00EFC022049460DF14E0209F008FC06AA0320052109F048
:2015900003FC0420052104AA09F0FEFB04F11C0004F12C02BA496860102006F071FF207825
:2015B00011F0FEF9C8490246102006F069FF207811F0F6F9C5490246102006F061FFC449CB
:2015D000102006F05DFFC3491020042206F058FFC14DB9A04FF6FF712860584611F0C8F8C7
:2015F000A768DFF8F8A257B12E7946B150468760052101705946C160284610F011FDC84954
:20161000102006F03DFFC74E77783078E7B905E008020020293E0100BD84011004F1180135
:20163000316211F0BDF906F15407CDF800B0024606F14400019006F11C050297C349039520
:20165000B378102006F01CFFC14910200C2206F017FF0FF0C5F90FF0DDFD04A812F034FD25
:20167000042004A90FF0F6FDC14E30600CF060FAFF200FF0CFFF04F1A80704200522C649B8
:201690000090134638460EF0C5FE384612F0B2FD5546DA46E068C14A59464FF0FF3313F0C2
:2016B000FBF85FEA0009F5D0CDF828A00CA80DF146010AAA10F0C2FE002840F0DC80BDF8AD
:2016D000301020780127102940F0D0809DF84610884240F0CB800A9E31884FF6FF728A422E
:2016F00000F08E803378913B30D01F3B40F0BE807178162910D03279A06829787E2A08D0C1
:201710007F2A1AD13289A8A300925A4611F0D4FA13E0327AA8A3F7E711F042F90346384653
:20173000A94900907288102006F0AAFE28B938460CF098FD5F46666198E0317906F10800D2
:2017500013F0A6F892E0C04615D5000070780E3827D0801E3FD02E3840F08880B0780C28AA
:2017700040F08480F378A1682878BBB9401CC2B2C8A3084611465A4611F09EFAF0790128F2
:2017900014BFC9A0CAA00090A1682878CAA3801CC2B20846114666E0E1480000401CCAA300
:2017B000F6E7B08842F2030181425FD1B1680E78002E5BD1491C04A80A684968026004AE98
:2017D00041603078C54904AA00F0FD003070102006F056FE4AE00820594605F00DFE45E0D7
:2017F000E13001001134010055290100D0580100C40B0020694F0020740E0020DC5801003B
:201810007088400832D3666986B3607806F10803401C6070C749009372883379102006F0F6
:201830002FFE5FFA80F8B8F1160F15D02078B8F1040F11D0666911F0B3F8CDF800A0624927
:2018500072880346102006F01BFE40460CF00AFD0CE0C04674580100607800902978A0689D
:20187000B5A3491CC9B25A4611F026FA0A9810B10FB112F080FC5FEAD970C0F0B380ABE0BE
:20189000053601002069064612F0FEFF864208BF5F4602D0876810F04BFC381CB84600F0AA
:2018B0009B800188491E00F09180491E52D0891E16D00C3974D08CE0424C4520506572697E
:2018D00070686572616C00C0518801103181011091CE0000493A0100B4140020CC15002043
:2018F000807869786A6803091ED2400971D313790846834211D0FF286BD002EBC000C768E6
:201910002FB902EBC102106910F08AFB61E002EBC1021269084690475BE09068F4E7C0467C
:20193000C5AB0010A80500201079884207D0FF2909D0481CC0B210F04DFDFF2802D1584667
:2019500010F048FD687008F003FA42E0DB10010081B3001083782E78A768761C53B19B1E14
:2019700037D102200DF14F0110F046F977A30AE04422002058460DF14F0110F03DF90120D3
:2019900075A384F848009DF84F00F1B25A460090384611F091F91CE0193E01000D0000C07A
:2019B00080780BF09FFC14E04D54552053697A653A20256400C046C046432056696F6C6197
:2019D0007465643A20256400753D0100807803F0E9FE404610F0ACFB206912F051FF002822
:2019F0003FF450AF5FEA590006D3634812F002FC022014A910F000F95FEAD900FFF44AAE9A
:201A10005E4812F0F7FB94F840006188012867D0002870D1491C88B23228D4BF6080A4F896
:201A300002B094F84800012865D184F848B04FF47F400FF0F3FF58460DF13E0110F0DCF89B
:201A50009DF83E00A52856D19DF83F00012852D104200DF13E03594613F8012B401E82EA8C
:201A70000101F9D19DF84200884244D1BDF8400011F036FD3DA20CCA07F038FB0CF0A0FE32
:201A900039490CF086FA384908F0E2F920623949486030E050485920557064617465204351
:201AB0006F6D706C6574650032204D62707300C031204D62707300C043757272656E7420D6
:201AD0005048593A20257300504859204368616E6765206661696C75726500C095B400109B
:201AF000491C89B23229D8BF618004DDA4F802B0FF200FF093FF206A1A490CF04AFA10F057
:201B10004FFC01461B48006812F0F7FA1C4800680FA912F0DEFAB0F1FF3F14BFBDF83C1054
:201B30004FF0FF311648006889B212F0D7FAE064B0E5C046DDFE00105273702073656E6489
:201B50002072657472793A20256400C04368617220333A20256400C04368617220313A20DF
:201B7000256400C00000804FCDCC4C3D000000000088C3409C1600208C020020B00200203E
:201B9000442200202DE9F04F0C4685B0834614F8010BDFF870278DF8000018280BF1FD01C5
:201BB0000BF1E7080BF166090BF20D1A0BF5B0760BF59C750BF5C67700F29183DFE810F05A
:201BD00019006F005F0191008F038F03FA00690311012301FE000D0133018F038F037C01DB
:201BF0008F03610155017503D602D60227028F03740214F8010B8BF88600022221460BF18A
:201C1000880012F039FE014602220BF18A0012F033FE014602220BF18C0012F02DFE014668
:201C300002220BF18E0012F027FE04469BF8860040008BF886000BF186010222488840005C
:201C500048800BF186008188490081800BF1860108890001088121460BF1840012F00CFE46
:201C7000B9F81E10BBF80800091A89B247F6FF7291422ADA0BF18601C8888A88401C520044
:201C900050430A89904203D33B208AF80B0039E2012089F81C000020ABF81E001EE005229F
:201CB00021460BF1610012F0E7FD014602220BF1920012F0E1FD0BF1860047F6FF72818957
:201CD000BBF80800091A89B2914280F218820BF18600012181720021ABF81E1001202870BA
:201CF0000CE398F81600C1070AD41A2198F80D0088F80E10012808BF0D213FD00D21CDE11A
:201D1000002089F8000089F806000822012088F8110021460BF1B00012F0AEFD0146022284
:201D30000BF1B80012F0A8FD0BF1A80601460822304612F0A1FD04460821304612F098FD87
:201D50000BF19C0604222146304612F095FD0421304612F08DFD0BF1A00012F085FD0BF1FB
:201D7000980012F07DFDDFF8A005018841F08001018098F80D00012806D10421584605B0F2
:201D9000BDE8F04F0FF0E0BF99F81000012804BF99F811100F290BD158460DF0BFFF0421E0
:201DB00058460DF065F80F2089F81A00FD2175E1042173E1012088F80F009FE2002089F892
:201DD000000089F8060088F800000B21012088F80D00002088F8010060E1012088F810007F
:201DF0008CE2002002F10906235C365C33432354561C365C33400B54401C0828F2DB584678
:201E10000DF034FB70E2002002F10905235C2D5C2B432354551C2D5C2B400B54401C0828D6
:201E3000F2DB022048E299F8060008B93D2167E19AF800000128D3D014F8011B8AF8031060
:201E5000022221460BF5897012F016FD014602220BF58A7012F010FD01208AF800009AF830
:201E7000020000281BD10C2118E198F81600C10601D41221D1E058460EF0BCFB34E22178EE
:201E90003EE1207830706078707099F8100001280CD199F811100F2902D0162902D02DE2A0
:201EB00068732BE2387B40F0010016E205B0BDE8F04F002011F0A8BC98F81600810707D427
:201ED00010F0110F08BF0F2000F009821A2252E02078617800EB01202882E178A07800EB70
:201EF000012068826179207900EB0120A882E179A07900EB0120E882207A2876A17A607A08
:201F100000EB01206883217BE07A00EB0120A883A17B607B00EB0120E883217CE07B00EB3C
:201F300001202884A17C607C00EB01206884217DE07C00EB0120A884A17D607D00EB01209A
:201F5000E8840BF5AA700490688B0390287E0290BBF808000190E88A0090AB8A6A8A298A6F
:201F700058460CF02DFA68B198F81600410701D40F2152E01E22584605B0BDE8F04F0F21AB
:201F90000FF0FEBE688A0BF186018880A88AC880E88A088102208BF8860000204880BBF8BE
:201FB0003400C01DA9F81E008888BBF83210884201BF0BF18600C188BBF83400814206D166
:201FD0000BF186000189BBF8360081421DD099F81000012804BF99F811100F2907D099F86D
:201FF000150020B10F2189F81A10FE2156E0FC2158460CF03DFFE88A0090AB8A6A8A298AEA
:202010009BF8060012F028FC78E1102146E098F8170010F0090F03D116218AF80C1060E198
:202030006078217800F00700014021702078797B0140F97211D0481E01420CD0490704D58F
:20205000B87B10B10421F97205E0F97A022001421AD14008FBD1F87A08B9B97AF972F87AED
:20207000042803D158460EF03CFBB083F87A12F0EFFB3871B28BB97B01230EF05BFF01460F
:20209000308B884202D207E0F872E4E7B28BB97B387901230EF04EFF78801721584605B0A7
:2020B000BDE8F04F0CF0E4BE60782178814207D100F007000840207033D0421E10420FD01F
:2020D0001E22182158460FF05BFE9BF80610002300221E200AF09AF8387B40F04000FCE0CA
:2020F000F87247F6FF72A078E17800EB012038813989BBF80800091A89B2914206DB2821AA
:202110008AF80B1001208AF80A00F7E00120B871F87A042803D158460EF0E3FAB083F87AB4
:202130000BE099F81100162806D1BA7A9BF80610134600200AF06AF8B87A3871B28BB97BEF
:20215000387901230EF0F6FE0146308B884205D3B28BB97B387901230EF0ECFE78800121BC
:20217000387B40F0400038732970C7E02078617800EB01207082E178A07800EB0120F082E3
:202190006179207900EB01203082E179A07900EB0120B082B18AF089884288BF0846B97A07
:2021B000042905D140F691229042B8BF4FF42960F28BF0839042B87A14BF012400240428D2
:2021D00003D158460EF08DFA04E0B089F18A884288BF0846B28BB083904214BF01210021A9
:2021F0000C433089718A328B884288BF0846904214BF012100210C433083B28BB97B3879A4
:2022100001230EF097FE0146308B884205D3B28BB97B387901230EF08DFE78807189308AD8
:20223000728B814288BF0146718391429BF8063014BF0120002004438A4234490A6802EBAD
:202250004311728B8041121DC00F0A7610B158460FF0F0FF9DF80000142810D144B1F08B6F
:202270000090738BB28B318B9BF8060012F0ECFA584605B0BDE8F04F15210BF00FBA1CB148
:20229000387840F008003870397841F02001397034E020780E280ED00F2809D0122804D014
:2022B00014280CD0162812D028E00020287225E00120287322E0032088F815001EE03878EB
:2022D00040F00200387040F01000387016E0387B40F00200387340F0100038730EE08AF84B
:2022F0000C0058460DF04EFE40B905B0BDE8F04F074800784FF4804108F09EBF05B0BDE8CF
:20231000F08F00BFC0210020524F00202C2200206E4F00202DE9F04FCD4C04F11801204680
:20233000ADF1340D0EF026F800264FF6FF70012132466670CF4F2082134604F1A400009105
:2023500039460EF067F80221324604F1C8000091134639460EF05EF80425324604F1EC00FA
:202370003946009513460EF055F804F14409AA4610224846314684F802A00BF04BFE04F1D5
:20239000540B1022584631460BF044FE04F11C08C8F8006004F10A073E70E6712672072047
:2023B0006072CDF80090DFF80093022210200346494606F065F8102003224946CDF800B0A4
:2023D000034606F05DF81020524653464946CDF8008006F055F84FF0080B4FF0030907F14C
:2023F0002A00079007F17900089007F11E00099007F15A000A9024370B9717E06078A28F6B
:20241000E18FB4F84050B4F8423006280ED1ADF80A20ADF80C10ADF80E50BA48ADF810305B
:2024300011F0EAFE012002A90BF0B0F8A069B44A31464FF0FF3312F02FFA071CF6D0059696
:2024500006A80DF11A0105AA0FF0F8FF002840F0BF81BDF818102078102940F0B5819DF8BF
:202470001A10884240F0B081059D29884FF6FF728A4200F09E812B78A23B00F081812E3B38
:2024900040F0A281A978B046002900F03D81891E00F00C81491E012940F2DC80891E00F011
:2024B0009C80491E6FD0491E5CD0083900F05881891E40F05B8194F83A30A888052BADF8FF
:2024D000080047D001208DF812008E4811F094FE94F83A0001281ED004281CD003280DD0AF
:2024F00002280BD00598C188ADF80A100189ADF80C104189ADF80E10818927E0A08FE58F96
:20251000ADF80A00B4F84030ADF80C50B4F84210ADF80E301AE0A08FE9888842D8BF081CDF
:20253000ADF80A002989E08F8842D8BF081CADF80C006989B4F840008842D8BF081CADF87D
:202550000E00A989B4F84200884200DC0846ADF8100001E08DF81260A949102002AA05F0F9
:202570008FFF03E1A74811F047FE6B78002B40F0FD80E88860822889A0826889E0826148C8
:2025900011F05AFCF2E0AA88B549102005F078FF0798414606220BF03DFD6682A682E6823B
:2025B000A8792073574811F027FE964811F024FE4FF001084FF6FF702379208253B9A8792A
:2025D000082812BF84F801A005206070404611F063FCCBE084F80190C8E06B787BBB291D33
:2025F00007980A680260898881800623637068892082E8896082288AA082688AE082E878DC
:20261000E07294F83A00012818BF02280BD19A4910201F2205F034FF4FF47A7180B241432C
:2026300038480FF005FB68895346009091490193EA7810202D1D2B4605F022FF99E06878C7
:20265000312840F08A80E67084F801A091E0C046A80500206B78002B7FD1A878E18962785E
:20267000032814D0E078257931B9012814BF2671E67007E0A93E0100054303D07F480FF0C2
:20269000D7FA6278072ADFD10620607071E0062A07D0E578002D08BF84F8019069D0022097
:2026B000F3E70720F1E7C046E73501006B78002B53D1EB78617893B902291DD007291BD021
:2026D000062902D12079012816D1032914D06B4811F0B2FB80B9012011F0DEFB0CE010F0AE
:2026F0005FF90246A07962490090089843460190102005F0C5FE68706D78002D2DD135E037
:2027100007000080700600206B7833BB5C485749009002221020034605F0B2FE59484A4674
:20273000524900901020034605F0AAFEED1C099829680160A988012381802078637010F0EB
:202750002FF9024601230A9D6079494900901020019505F095FEC0B258B184F801B008E055
:20277000AA8841491020052305F08AFEB8F1010F2AD1256A45B3296831B36078884723E05E
:202790006879132820D12889012808D1607B022805D11C4811F030FD0FF082FE14E036490A
:2027B0001020052205F06CFE81B216480FF040FA0AE06888C00B07D333482C4952465346E9
:2027D0000090102005F05CFE059808B111F0D3FC2579E078790830D355EA00032DD0204695
:2027F00000788DB9E179257A8DF808100B9A8DF8095013680DF10A052B609288AA8005E0B6
:2028100005160110940600208DF80890617A8DF81010A17A8DF8111010F0C2F81149024608
:2028300002AB102005F02CFE38B1256A84F801B01DB1296809B158468847B80803D313496F
:2028500030460AF0A3FEF808FFF4F0AD607B401E3FF4D4AD401E7FF4E9AD0FF021FEE5E58B
:20287000EDFF000059440110C117011051A0000009450110619C0000F58401104C0600207C
:20289000EC050020FC050020C4050020E20500202DE9F84F01200FF01BFD01280ED1DFF892
:2028B000F87439680020487138680EF065FB04F00BFA040003D1812011F0C2FF68E2012085
:2028D0006071DFF8D854DFF8D8044178491C41703968A07981F8A00040200BF0E7F9206004
:2028F000287901281CBF002010F08EFFE8682168DFF8B05400F5B060C860286801680A7919
:20291000032A1CBF002010F07FFF2868DFF898840168DFF898B401F10809062299F8000036
:20293000C0F3801084F82E0109F1020104F5947011F0CAF8042209F10E0104F1240011F093
:20295000C3F8D8F80000A67900F10C03042209F10E0103EB461011F0B7F8D8F80000A379AE
:2029700000EB4310032209F11201103011F0ACF804F12C0699F81500B070022209F11601D0
:2029900004F1300011F0A0F8022209F1180104F1320011F099F8022209F11A0104F1340017
:2029B00011F092F830896084022209F11C0104F1360011F089F8B078F18872894000B070FB
:2029D0004900B08840001201B080F180728189B2638C5B1C4800434392B2934200D231B93B
:2029F0009BF80000802108F027FC3B21FEE004F12E01204610F0D4FC0520A081204610F038
:202A1000AFFE052209F11E0104F1610011F05CF899F823004009307011F00EFF60823A68DF
:202A3000E34F518A401A04F59771888104F1610199F82300DFF87C9300F01F00F07320464C
:202A50000EF0A6FB29680A68002010711C25A1793868694341F6210242520022A1796943A6
:202A70000144001D4A80A1796943425099F80200410609D5D049088841F20A4290420CBF45
:202A9000CE48CF48C4F89C012046D4F89C1188473968A37901F10E026B43D054A1793868A7
:202AB000694308440021C173C648017881B1B08870B9002171730120208160812046D4F8C5
:202AD0009C1188473968A37901F10E026B43D0543868A27900F10E016A43885C707394F81E
:202AF000960108B910F090FEA1793868DFF8D8A26943084494F896114A1E02740023A1798F
:202B100038686943084400214174A279396801F112006A4301F1140C8352A279D8F80000F8
:202B300000EB42136A434CF80230A2796A431144A64A8A61DAF814100B78DA074CBF4FF086
:202B5000100C4FF0000C99074CBF202100215A074CBF402200221B0700F10803A07941EA9F
:202B70000C014CBF4FF0800E4FF0000E0A4340014EEA020242F00F021A54D8F80000A179AE
:202B900000EB41100B224272D8F80010A07901EB401104228A728E4A1378D8F80000A17963
:202BB000012B00EB411002D10121C17203E0DAF828104A78C272D8F80000A17900EB41106C
:202BD0001F220276D8F80010A07901EB401100224A76A07908F07EFFA279D8F80010520138
:202BF0008850A2795301C85820B90721204610F055FBCDE07748016801EB021011F018FEBD
:202C1000744AA0791368D8F8001003EB00130A1D40011350081DA27952018058F063A079CF
:202C300040010958716404219BF8000008F004FB644BB2881978901C11B10AB9F088801C9F
:202C5000618A94F806B041434FF4C87205FB0BFBB1FBF2F1491CA061616140F6C41C2368D8
:202C70003A68CDF800B002F1080ED3F80CB00CFB00B0411A0098A1F5A8614EF8001002F10B
:202C90000800A17969434058986002F10C01A07968430C32095C01F0EF011154A07939685F
:202CB000684301F10C020C31125C02F07F020A54A0793968684301F10C020C31125C02F0DB
:202CD000F00242F002020A54A179386869430844417B01F0F00141F0010141733868A2796C
:202CF00000F108016A438858216808616369D8F80000A17996F802E05B0000F11402490179
:202D10000CFB0E3303F5F6635350A17900EB4110C27C02F0F00242F00402C274D8F80010A1
:202D3000A079DAF8303001EB4012F0880CFB00F61868301AA0F51670D061A27901EB421016
:202D5000C17E01F0F00141F00401C176A17938684D4321684019486099F80100810614D5FF
:202D700004F59771488F1B2804BF888F1B2808D1C88FB0F5A47F04BFB4F86E11B1F5A47F5C
:202D900003D0142120460CF073F8134907200870BDE8F14F01F06AB9104F0020B44D0020BA
:202DB000684E0020F44B00202C2200206E4F002028220020C0210020504F00201BFB000043
:202DD000E1020100784E0020945901005C4D0020734F00208C4E00206F4F00202DE9F84357
:202DF000040014D1002010F00FFD10E020460DF0C9F8012808D065E08A0740F1548101F0CC
:202E1000FD0101700020B07120460CF087FF04F16605687D002855D0697CDFF8A494022959
:202E300004F1EC0704F59E7804F5B07604F5C67035D0042949D005295CD0062900F08A806F
:202E50000729D3D0092900F0EC800B2900F0C1800C2900F008810D2900F0D0800E2900F051
:202E7000EA800F2900F02881102900F04281112900F05C81122900F00E81142900F0878125
:202E9000162900F05A81172900F07581FC2919D0FD2900F09581FE2900F09B81A2E7297C57
:202EB000012909D199F80300002815D01621204610F0F4F9012006E020460CF058FC28747A
:202ED000E88A28830020BDE8F283297C012940F0948199F80200002800F0E580FC212046E4
:202EF0000EF032FFA07904F1B80204F1B00111F09BFC8CE7297C01290FD199F8020020B107
:202F100084F89410002038607860B87A012868D1062120460EF018FF79E704F1E7063078D1
:202F3000012809D120460EF00FFE0128CAD10020B87201202874C5E770780028C2D004F1FF
:202F5000C70204F1A00104F1D70011F069FC012030705CE7297C012940F0538199F8020066
:202F700000283ED0618CE18320460CF0D7FE0120287020460EF0CAF80120A871397A787CC3
:202F9000012900F010000FD148B1002088F80500D8F8001098F8060049080CF06DF8A07938
:202FB000002111F039FC0EE040B1D8F80020C54804F5A1735208214611F068F8A079012263
:202FD000002111F025FC002038723873F872B8721DE7287C012805D1F97A012908BFFC216D
:202FF00097D060E020460BF077FF0128A3D10020F87284F894000120287408E7297C012991
:2030100040F0038199F80200002809D0002184F894100120287020460EF078F80120A87150
:2030300088E0297C012940F0F48099F80200D0B3618CE183E8E6287C012840F0EE80387C51
:20305000022804F1FD0204D1A179002011F0DCFBDAE6032840F0EA80A1791A2011F0D4FBB2
:2030700000203874D0E6287C012804F20D1140F0E8800B78012B04F5897240F0E88048784A
:20309000012807D15388009300201388CA78A17911F0B6FBB8E6297C012940F0E78099F853
:2030B00002000028F6D1298B481E288380B200287FF408AF2221FAE6287C012840F0DA804C
:2030D00098F80910012902D130780F281BE098F80800012826D1002188F80810288D000931
:2030F00000901A20AA8CEB8CA179520811F084FB8AE6287C012840F0C18098F809100129D4
:2031100010D1307810281CBF002010F07DFB002088F80900288D00090090AA8CEB8CA179AD
:203130007078E2E7287F0028E2D1BCE7297C012940F0A88099F80300F5E7297C012940F013
:20315000A580017B4A061DD4CA0709D501F0FE0101730023A1797078002209F057F853E6A2
:203170008A0740F1988001F0FD0101730023A17900221A20F1E7297C012940F09980027BFC
:20319000510690D5017B01F0BF0101733CE6297C012940F08F8001788A067FF52DAE01F049
:2031B000DF010A0701700AD501F0F7010170F08B0090738BB28B318BA07911F045FB21E601
:2031D000A97E20460EF0C0FD15E7002010F01CFB78E6A87E0F28F8D1FC2120460EF0B4FDAE
:2031F000B8F812000090B8F81030B8F80E20B8F80C10A07911F030FB64E6204609F01EFDCA
:203210005DE620460CF068FF59E620460EF082F955E620460CF02AF951E620460BF04CFCD4
:203230002874E88A2883012038744BE6288B401E288380B20028F8D1A179222011F0E4FAAD
:2032500038E70120887020460BF080F837E6288B401E288380B20028E7D1508800902220B8
:203270001388CA78A17911F0CBFA23E720460DF099F924E6204609F019F820E6204609F0A3
:2032900065F81CE620460CF013FA18E61621204608F07CFD13E6288B401E288380B2002835
:2032B000C3D1A17900230022222008F0AFFF01E71721ECE7142120460AF0F0F9FFE500BF0F
:2032D0005C4D0020E9E200002DE9F84FDFF82844A178FF2904BF002010F096FAA07810F0DE
:2032F000DFFC044604F1680604F5C9753168086804F1900710B10022E28310E0B17B0029DD
:2033100004BFB07E00280AD13978002904BF2878002804D1217F012904BF608CE0832189E9
:20333000E08B4118491C6181204610F059F801281EBFDFF8C8030178012904D120890022D0
:20335000401CE2836081B07E01280CD1B28B6189208911F04DFA30B121896289481C8242D1
:203370002AD0B28B1FE0387801280CD17A886189208911F03DFA30B121896289481C8242E6
:203390001AD07A880FE02878012815D16A886189208911F02DFA00281FBF2189481C6289E7
:2033B000824209D06A88824206D0501E608180B211F01AFA401EE0832878012801BF698803
:2033D0002089401C814207D16A792A71002028701346A17908F01AFF04F59A71087920B12D
:2033F00020890021401CE183608104F12E07B07E012801BFB08B2189491C884238D1608113
:2034100004F1860120460FF0CBFFB08C6189608400202077E083E0894118A181B08B218904
:2034300011F0E2F98046B988308C728C01FB0808F08C8A4204BF3989884202BFB18CFB88BB
:20345000994207D000090090B38CA1795208002011F0D2F9B07F3870708CB880B08CF880B3
:20347000F08C3881204610F07BF90220B07601E0B7F80480E28BDFF88892501C00FB08F113
:2034900040F6C41808FB01F000902368D3F80CC06044DFF870C2D860DCF800E09A489EF853
:2034B00000A003884FEA9A1ABAF1030F13D199F80FC05FEACC7E48BF00230CD45B1C9BB282
:2034D000012B11BFB4F812C004F59A7CBCF806C00CF2DC5C01E0B4F812C00CFB01FC4FF4FD
:2034F000C87EBCFBFEFCDFF824A20CF1010CC4F814C0038084F820204FF01C0BA379A161CB
:203510000BFB03F3DAF80010226801F1080001F1080CC058D3681061A0790BFB00FE606989
:203530001B1A4CF80E3001F10800A3790BFB03F3C058906001F10C02A0790BFB00F00C315E
:20355000125C02F0F00242F002020A54DAF80000A279811C0BFB02F200208852287908B995
:2035700010F052F9DAF80000A27900F1100128790BFB02F240088854A079DAF800100BFB41
:2035900000F00844002141742879042814D1A079DAF800100BFB00F001F110022B7A125C4F
:2035B000103142EA83020A54A179DAF800000BFB01F1084420214174DAF80000A27900F1A7
:2035D00012010BFB02F200238B525149A2790968520101F11403D4F814C09B5801F1140EA5
:2035F00003EB4C034EF80230B27E022A0AD1A279520101F114033E789B5808FB063301F181
:203610001406B35099F80F20D30749D5A2790BFB02F200F1080300F108069B58A3F5A8631F
:20363000B3500830A27923680BFB02F282589A600098121A1A6101F11402A079400101F138
:203650001403125802F5F6621A502879042807D1A079400101F11402125802F5B0621A503C
:2036700001F11400A27952018058C4F8340101F11C03284AB888166BA57908FB00F7306809
:203690006D01381AA0F516705851A37901EB431021490D78012D0EBF0122916A4A7819E078
:2036B0002879A37904280CBF4FF44B604FF4E66001F114025B01D258101ABA8808FB02F2DE
:2036D000A2F516729042D2D3082120460FF0E6FD01200FE0C272A179DAF800000F4A0BFB44
:2036F00001F10844216848600720107020460DF0D1FF0020BDE8F28F684E0020784F00206E
:203710005C4D0020084F002054220020282200202C22002094590100734F00206F4F00203D
:203730002DE9FE43BF4C0F460646F80B80F05081B80880F03D81E07ADFF8F492B90F80F055
:20375000B680607A002840F096803809C0F09580A07A20B10020A07205200EF037FD00253C
:203770004FF001086570284684F8078006F0EBFBAD4904F174002A4610F026FD207901281B
:203790001AD16079C0B9DFF8A482D8F8000000284CD048460068006B804761694346401AF6
:2037B000000BA0611968E2698018B0EBC11F98BFE0613BD9E56101E084F80480DFF874826E
:2037D000A8F115000068000A30D340F60900A08694F8410000F0F00040F0010084F84100B6
:2037F000E58694F8400000F0F00084F84000A56310F0E4FC08F6FF7211686FF0020321F0A1
:203810000201116004F13401C8F8FB3F8A4AC8F8EB1F11688908FCD3C8F8FB3FD8F8FF1FA1
:2038300041F00201C8F8FF1F10F0DAFF65610DF0ABFF8248056002200EF0C8FC112007F0E5
:20385000B9FD307C10B90E2007F0B4FDE5712572A07818B906F1380010F0C4FC784810F0D2
:2038700085FB78490878F8B10D7004F1D000042110F0BEFC18E0380914D2B80BC0F0C980D2
:2038900004F1240010F0AAFC061C08D0706830B17568F068B6F91C1000222023A84727F427
:2038B0000057B6E00020607227F00807B1E020B104200EF08BFC0020E072B168088840F697
:2038D00002054FF0000885420AD0B0F5C15F07D00A8B4FF61F60104040F43470088306E05B
:2038F0000A8A4FF61F60104040F4347008826069E0B1D9F85400016804208847B0B1D9F8A1
:203910000000006B80476169814226BF401A401E401A000BF060708AF168401840F6C411D0
:20393000F06081422CBFB0F5FA7FF16094F8410010F00F0F0BD1708CED1D854207D1B56980
:2039500030466FF4807142464FF00073A8473E4904F17400424610F037FC607958B10220B5
:20397000ADF8000068460FF0FBF984F80580BDF80800A4F8700001206070E078401CE07032
:2039900004F1200084F8068010F028FC002808BF47F0020702D0192010F014FC756941462D
:2039B00030464FF080630A46A84727F0005730E004F12C05284610F011FC06F0BDFB2846E5
:2039D00010F00CFC27F0020708B147F0020720E010F0F4FB014604F1280010F0FFFB06461D
:2039F000B569A80810D27EB125EA0500B061084610F0F6FE706850B12A46F068B6F91C10F5
:203A100075680023A84702E0084610F0E9FE27F4804727B104F1D000394610F0E9FBBDE809
:203A3000FE83C046E808002005310100242200208C01001015000440101004400000046084
:203A500041A20000202200204D9A0000BB482DE9F84F0025BA4CB849056094F8E2000028A3
:203A700000F06581012800F02F81B64E02283CD0032840F05C8151F8250CD4F8B8100029EE
:203A9000A0F5C060C4F8D400B8BF49420028B8BF4042814226DA4FF08057D7F8A4014568B4
:203AB000B4F8BC0030214FF47F42082300903046A847D7F8A4014568B4F8C00004214FF424
:203AD000F802122300903046A847D7F8A401B4F8D070456820214FF440620A233046009745
:203AF000A847012584F8D8501CE151F8258C10F055FA2F4600B901273946934F3868002838
:203B1000FCD0B146012609F10409D9F82CA03E6009B110F049FACAF30720C4F8BC0010F010
:203B30003DFAAA4600B9B2463B68002BFCD0D9F800B0BAF1000F3E6001D010F035FACBF36C
:203B50008440C4F8C00010F029FAAA4600B9B2463B68002BFCD0D9F81C90BAF1000F3E60E2
:203B700001D010F021FAC9F38120C4F8D000B8F5C061C4F8B81000F09C8094F8D80068B97D
:203B9000C4F8D410D4F8C000C4F8C800D4F8BC70C4F8C470D4F8D030C4F8CC30D4F8D41049
:203BB000D4F8BC30002954BF02206FF0010004F1C802176801EB41014018411000EB91717D
:203BD00007EBA1001060D4F8C810C4F8C43000291CDD1E293CDDD4F8CC0030B93429B4BFAB
:203BF00015391E21C4F8C81025E02A29BABFD4F8C8000B381E20C4F8C800D4F8C4003F2833
:203C1000B4BF401C3F20C4F8C4001FE0D4F8CC00032812D011F10B0FC6BFD4F8C8000B30D2
:203C3000301CC4F8C800D4F8C4000028C4BF401E051CC4F8C450032508E011F1150FC6BF5F
:203C5000D4F8C8001530301CC4F8C800C4F8CC504FF08057D7F8A401B4F8C43030214FF415
:203C70007F424568374800930823A847D7F8A40104214FF400321123456832480096A847AC
:203C9000B4F8C860D7F8A40104214FF4F802122345682C480096A847D7F8A40120214FF497
:203CB00040620A23B4F8CC60456826480096A84701E084F8D85040F2FF50404502D8801CAC
:203CD00040452FD2082030E051F8251C1F4F4BF2F5204843060A3868C0F3814001280CD117
:203CF0001B480068006880470DF030FD10F062F93111C010484306EBE03694F8E50030B937
:203D10001448006820F07F408019460801E084F8E5501148310C0660012741600F4D87607F
:203D3000287808B90B2000E0052084F8E40004F0DFFABDE8F88FC0462D400C402C500C4002
:203D5000A00F002000A00C4000800C40B43F0050EC010010102009403C600C409258010040
:203D70002DE9F04F0D46E80789B00BD510F074F828B100218160AE48006800B1804785F0F1
:203D9000010052E1A80710D5002006900021049000230290009005910393019101223C205E
:203DB00010F01AFD85F002003FE11E246807DFF88482A14F40F19B800020079082469F4914
:203DD0008878FF2804BF00200FF01EFD386890F8A0000FF065FF06463868C07A96F82EB1F1
:203DF000022818BF032806F5947906D108F10D0010F0EEFC08B908F1070A4946584610F0C0
:203E1000E3FC88B33868807A002818BF012804D1414648460EF051FD04E04A4659464046E7
:203E30000BF0C4F9FF283DD06043834608EB0B0406224946E01D0FF047FE18F80B0040F0D5
:203E5000020BE01D079006223868817E01F0010186F82E1104F10109386800F1140106F59A
:203E700094700FF031FE1DE0494658460FF0C2FEC0B14A46594640460BF098F9FF2811D05D
:203E90004443444404F10D0010F0A2FC40B904F10D0010F09DFC002804BF607F012801D10A
:203EB0004BF0020B06F12C005B4601780691418909090591728C079904920122C088029132
:203ED00040080390CDF804A0CDF800900020B17910F082FCD6F89C0159498842B0790CBFA6
:203EF0000021012109F042FA85F004009DE0280610D5002006900021049000230290009081
:203F100005910393019101223B2010F065FC85F080008AE0E8043CD508F1070108F10D0091
:203F300010F04EFC38684179012923D1017A012918BF04291ED1C17A022918BF032919D1C4
:203F5000817E00F1140240460BF030F9FF2811D04443444404F10D0010F03AFC50B9E11D4B
:203F700004F10D0010F02CFC38680622E11D14300FF0AAFD334934484A6800784FF4805121
:203F90000DF060F810B18E2010F016FC85F480504BE0A80505D510F001F82C490120086049
:203FB000FEE7690504D506F0EEFE85F480603CE0680405D5812010F0FFFB85F4804034E040
:203FD000A80431D5224C206810B100200FF01CFC4FF0FF3020600BF03BFB1E4C216851F8D6
:203FF000202F684690471C48C16A026B2468009101920021029100F134014A6809781368A9
:20401000806A03938DF81010ADF812006B46D4F80080124A12491348C0471349086003F0E7
:20403000FFFE85F4005000E0002009B0BDE8F08F204F002060170020104F0020684E002052
:204050001BFB0000784E00206E4F0020FC002043044F0020F04E002060130020642100200F
:20407000EC15002088490020EC4E00202DE9F04FB64D686885B0019020B905B0BDE8F04F64
:2040900010F096BB0178DFF8C882B24EDFF8C892DFF8C8A201291CBF0229042946F2A8175F
:2040B00041F64C5B05D0402918BF802900F09A8043E10FF09DFF0028FAD00198007805F093
:2040D00075FA0090446814B900200FF09DFB9AF80100002860D002F0EBFA0FF0E1FD029070
:2040F0000168009801914F680AF01CFD022827D000990A78012ADBD1994B19680A7A19F846
:204110000230337018B910F04FFB5844A0602069C17E01F0EF01C1762069C17E41F08001A9
:20413000C1762069C17E01F0F00141F00201C1768C48B96841182069C16101210098A0E0F0
:2041500001980178802913D10822874832700178012903D09AF80100012803DD7869012100
:20417000C17213E0D8F828107A690878D0720DE07D49072030700A787869012A02D101235D
:20419000C37203E0D8F828104A78C2720298817901988AF80210CBE00098002888D00199DB
:2041B000009A0078914205D101281CBF00200FF02BFB15E0012840F0C080694801680A7ABF
:2041D00019F80200307010F0EFFA3918A06810F0E7FA18B910F0E8FA5844A0600120A87071
:2041F0000098A5E09AF8010000287DD002F060FA0FF056FD04462068029047689AF8020045
:204210000FF04EFD03900FF0F9FE10F0070F3DD0A87805F0CBF901904168019800910299C0
:204230000AF080FC022831D001990A78012A2AD14B4B19680A7A19F80230337028B910F029
:20425000B3FA83440098C0F808B000990869C17E01F0EF01C17600980069C17E41F080017F
:20427000C17600980069C17E01F0F00141F00201C176009AB9683B4841181069C161012116
:204290000198A97054E000200FF0BEFA0398A04228D002980178802913D1082232483270F6
:2042B0000178012903D09AF80100012803DD78690121C17213E0D8F828107A690878D07206
:2042D0000DE02949072030700A787869012A02D10123C37203E0D8F828104A78C272A079F4
:2042F0008AF80200029823E00FF088FE10F0070F29D0A87805F05AF904462078D4F804805F
:20431000012820D116490A68107A19F80010317010F04AFA3918D8F8080010F041FA20B9D5
:2043300010F042FA5844C8F808000120A870204605B0BDE8F04F06F055BC05B0BDE8F04FF5
:2043500000200FF061BA05B0BDE8F08F04220020945901006F4F0020289A0110684E00207F
:20437000104F0020F0D8FFFF734F00202DE9FE4F0F46994C0168E16241688068E06097480D
:20439000A16080479648E16A0160A168DFF870B24160E168DFF8648281609249002FA2463F
:2043B000C16069D03D68E8788DF8080028798DF8090002A810F0F0F9A86808B18A49016042
:2043D000E86808B189490160894C2878207068786070A878BE68A0703178E17073686360EE
:2043F00072696261B168A160F168E160316921612E697B68A6621868A0616869E062A86918
:204410002063287F84F834002A6AA263786886681EB900200FF0F8F900E026627868C068F4
:2044300018B900200FF0F0F900E060627868406818B900200FF0E8F900E0E0612869A062E4
:20445000F86881680E6806B96B4E6A494FF001094E60C66881F801902EB900200FF0D4F960
:20447000F868454601E045462E6000685C46FE68A0617068E06106E000200FF0C5F94FF0BB
:2044900001095C46454628685E494668621C04F114035020B04710B1286880688047DAF82D
:2044B00008008047594F0026834669467E7056483E700422206130460EF00AF80098B0F543
:2044D000801F0CD020B90EF09FFB05F029FA08E00DF080F80FF002FC0420788001E00EF073
:2044F00093FB4B4FB0462868C7F808808069A660804778604748468080F8009014200FF099
:20451000D3FCFF211422A0620FF07EFEE01CFF2102220FF079FE14200FF0C6FC3E4908604F
:204530000868142231460FF06FFE3046FCF742FA48460DF001FF39480188FF2906D1022186
:2045500001807822001D31460FF05EFE032010F01FF9042010F018F9052010F011F906207C
:2045700010F00AF907200BF047FA2D4E0820307006F1400010F0FCF80BF0ACFC3636052023
:204590000A2132460FF027F838B14046C0F10901401C06F8011B0A28F8DB2F68214909207B
:2045B0000DF10A0201AB7D68087010204146A847A06ADAF80C10E2690A270A309DF80A30B5
:2045D0007F1E00F8013BF9D1921E5846E261884702F0F0FFBDE8FE8FB4100020414900103F
:2045F000F8440020B8480100E52A0100E939010060130020841600203BF80000381700202C
:204610006414002071310100A93A010034170020F82100201413002048220020E0110020E5
:20463000F40C00205F2200202DE9F04F0546A64CA878216AADF11C0D801F00F03E81C01E79
:2046500000F02981401E78D0401E56D0C01E4AD0401E40F03581207A617A00283FD16078C5
:2046700000283BD0A88810F07FF8071C00F02881A87A40080AD3787940B1E968890A05D2B0
:20469000B91D01AA07F02CFC0A2825D0207B022802D1A87A00091FD36078AE887979C0B11D
:2046B000607CB0B90120607405F10802304603F055FD002840F00481206A002800F00081F5
:2046D0004368002B00F0FC80002130460A469847F6E00521304603E0032100E00521A88813
:2046F00010F03EF8ECE0002900F0EA804B68002B00F0E6806A780221CBE00FF0B5FB00286A
:2047100000F0DE80276A0FB1386868B9286900280CBFE0690120698910F01EF8002800F01B
:20473000CF8068890121DBE7286900903C6869892A7B6B7BE81CA047C2E068784FF000084F
:20475000002840F09580A8794008C0F09180606A002840F08D8001A841460E220FF054FDD3
:20477000A88810F001F8061C00F0AA806869002859D081464146062209F111000FF0CBF85F
:20479000C24620B3484606220FF0C5F8D8B999F8100009F1110B474605907F1C5846FFB268
:2047B0008BF800700EF046FA0A280BDA474B059A0101A1EB4001C9188879824202D1002FF9
:2047D000EBD100E01FB947464FF0010A6F61BAF1000F09D109F1110101A806220FF074F9D1
:2047F00099F810008DF80A00BAF1010F1BD06F69CFB1387C07F1110106228DF80A0001A85D
:204810000FF062F906F10C00B11D06220FF05CF9B01D07F1110106220FF056F9387C40F0B0
:204830000200707107E07079B11D06228DF80A0001A80FF049F9A9799DF81120C1F380002A
:2048500010438DF81100080905D39DF8110040F008008DF8110001A8294602F01DFB28B9FF
:204870002078022106F0E8FC40462AE04FF015080FF0F4FB206A18B343680BB3A8886A78E9
:2048900001219847B8F1000F1AD0206A032142464368A8881BE7E878291D002207F020FB78
:2048B0000A280DDA410001EB800005F10C0225300421C0B205F0C4FB02E0A8880BF08EFBE8
:2048D000012007B0BDE8F08FF40C0020E60D00207CB5A34D144602460026A2F58062192AF4
:2048F0001BD8DFE812F031012A012201190111010C010401FD00F300E700DF00D700C500DC
:20491000B9001A001A00970081007A0065005C00520047003A0030002500282880F29A8043
:20493000022940F0978021880FF012FF064614E1012940F011812178284601750121C1743B
:204950000FF0B8F909E1012940F00681002C00F0038128461230024614E0102940F0FC805B
:20497000002C00F0F98028465C30102221460FF0ABF8F2E0012940F0EF80002C00F0EC803A
:204990002A46921D21781046E4E0262940F0E480002C00F0E180284626226C30E6E701298C
:2049B00040F0DA80002C00F0D7802846401D9CE0602900D144B9012940F0CE80002C00F088
:2049D000CB8028460D3090E005F19200214660220FF07AF801206873BFE0012940F0BC804E
:2049F00020780FF0B1FEB8E0012940F0B5802178022900F3B180284600F10C0211702178CB
:204A1000022918BF301C02D11021C17201200FF097FEA2E0072940F09F80611C68460622F8
:204A30000EF01CFF20786946324607F059FA04460A2C0FDA0FF080FE38B9204604F04AFECB
:204A50000EF06AFA0BF046FA87E0284601212C30015582E0022680E001297DD12A46217895
:204A7000907B0028917378D12078012875D1E9E72846027B01296FD1022A04D021780729B1
:204A900001DB102904DD022A66D12178102963D1C17262E001295FD121780A295CDA284668
:204AB000093057E0012957D12178022954DA284608304FE000294FD10FF03EFE10B90FF011
:204AD000AFF8BDE7284601210F3043E0042943D12168244888423FD328461C3001603CE040
:204AF000012939D12B4603F10A00217832E0012932D1217802292FDA2846C01D2AE01029D0
:204B10002AD128464C3030E7012925D12178022922DA2846001D1DE001291DD12178042943
:204B30001ADC2846C01C02462DE7012914D12178022911DA2846821C25E702290CD1218842
:204B500028461630018008E0012905D12178022902DC0548017000E0182630467CBDC046F5
:204B7000F40C00203F420F00F50C00202DE9FC41A0F2013714468846022F40F232819B4E10
:204B90009C493F1F0F2F04D9143F4CD0BF1E1CD011E0DFE817F0CF00C9000D01FA00C1004F
:204BB000B9002601AF00A700100010009D008F007F0074006600282880F21381B8F1020FFA
:204BD00040F00F818849238807E1B8F1010F40F00881F078012800F004813246207811798F
:204BF000107189B9002800F0FC805078012800F0B580042800F0B280062800F0AF80052870
:204C100000F0AC80BDE8FC812078002840F0E9805078032800F0AF80072800F0AC80052863
:204C300040F0DF80A7E0B8F1010F40F0DA802078012840F0D68006F1EC000FF0FDF80028C5
:204C500040F0CF803446002004F13A0108F09EFC002840F0C68004F1C8000FF0CDFABDE8A3
:204C7000FC81B8F1020F40F0BC8020880A28C0F2B880B0F5486F00F3B4808E1C17E0B8F1F0
:204C9000020F40F0AE802088B0F5FA7F80F2A9800E460CE0B8F1020F40F0A3802088062811
:204CB000C0F29F80B0F5486F00F39B803E363080BDE8FC81B8F1020F40F093802088062890
:204CD000C0F28F80B0F5486F00F38B803C36EEE7B8F1010F40F085802078062880F281803B
:204CF000454E0EE0B8F1010F7BD12078042878DA0A3606E0B8F1010F73D12078082870DAD3
:204D100009363070BDE8FC81B8F1010F69D12078042866DA0836F4E7B8F1010F61D12078EF
:204D300004285EDCF61DECE7B8F1020F59D120880E36BCE7B8F1010F53D13079012850D0D5
:204D500032462078D178D07069B9002849D05078012803D0042818BF052842D101200FF020
:204D70009BF8BDE8FC81207800283AD15078022818BF052835D110780DF012FE1C49024665
:204D9000102003F07DFBBDE8FC8106F1830500211F22284609F03EF921464246284607F073
:204DB000C3FB44463078B4710DF0FAFD002311E006F1640500211F22284609F02BF9214612
:204DD0004246284607F0B0FB4446307874710DF0E7FD01230094094901950246102003F028
:204DF0004FFBBDE8FC81C046BD840110A805002099450110E8050020E205002009450110B0
:204E10002DE9F04F9E4C20780E46F10BADF11C0DC9036ED1B0085ED2606AA16A720807D279
:204E3000F00828BF86F0040680F02581002023E1858861B904F11800924A00904FF6FF7174
:204E5000022301200FF074FC0146A16221B304A800900027019702230293FF220392228B57
:204E700028460DF1120301F01BFB58B99DF813009DF81220A16A12EB002204D049892846DC
:204E90000CF002F9A16A228B08463B464FF6FF710FF04AFC0146A162206A00291CBF012190
:204EB00086F001061FD168B14368616A5BB18888002201219847206A676A4368B88803213D
:204ED00000229847616A88880EF0FEFE0EF080FC86F00106CFE00020014601F0DDFF30B131
:204EF000012186F00206207806F0A6F9C3E00221F7E707F00FFE5FEA000800F0BA80054667
:204F100028784FF0010AB03812D0401E03D01F3800F0A580A7E02879002840F0A480B8F8DC
:204F30000200B8F80610B8F808200CF0ADF89DE02879401E41D0083803D0743800F08280E2
:204F500087E068781A2879D0688881460FF080F8801E18D0401E7CD1288901280AD168896A
:204F7000032807D1E9688A78484604210BF06AFB024600E01822206A00286AD04368002B94
:204F900067D0042116E02989688852460129814609D16989032906D1E9688F781FB9102154
:204FB0000BF050FB0246206A002852D04368002B4FD00521484698474BE02B7A688805F141
:204FD0000807082B814639D10FF042F8801E12D0401E33D1287B0A2818BF122205D16889EC
:204FF000042100220BF02EFB0246206A30B3436823B3042120E07888102100220BF022FB70
:20501000237D834693B148460FF0AEFB70B11E490B784BB94179831D524601F0010108465B
:2050300019460EF051FC01E05046E074206A28B143681BB105215A467888984768880EF07E
:2050500043FE06E06A880FF003F8014610460BF0A1FC297905F108000FF01AFC03E04046DA
:20507000FFF7E2FA8246BAF1000F02D028460EF007FA86F40046B0B207B0BDE8F08FC0468A
:20509000F40C0020E65501005A4F00202DE9FC41884C894A2678894F894D8A490D2E304611
:2050B0004FF4A0534CD8DFE816F003010E000E000E000E00FB00FB006800FB00A700A700D6
:2050D000D800D800DF008049176041F204464C887E4FB4421CBFB1F81AE0B6450BD0B1F8E0
:2050F0003280B0451CBF41F20A46B44203D0B64518BFB04502D12E80176076E0022C744ECD
:205110002C8035D94FF48067E41B1AD0241F012C1DD94FF47F77E41B1BD04FF44067E41B40
:205130000FD0A41E012C0CD9241F0AD0641E012C0DD940F2F937E41B012C19D9241F08D05F
:20515000AEE0022814BF2B80624E16604DE0624EFBE762480468257A012D05D141F20240F6
:20517000488048834886F0E74B804B834B86ECE700200EF049FB832096E059488178FF296D
:205190001ED01C2041435748176040F204460068841C645A2C80A41B012C534D10D94FF495
:2051B0007F76A41B15D00A3C012C14D940F6F636A41B032C84BF641F012C0ED9A41E012CCD
:2051D00076D940F2FD36A41B07D0641E012C02D905E041F20143801C4352156005E00020E4
:2051F0000EF012FB85200FF02BFBBDE8FC413F480078012106F020B84A882A8040F2044304
:20521000D21A55D040F6FC73D21A15D0083A4FD04FF47F73D21A22D1354C364A2568364876
:2052300000680023CDE9002355F8086F334B0222B047334908803BE0092810D131490A6880
:20525000508960B1304908780AF094FD002100200FF066FA002020702AE0488828800020DE
:205270000EF0D2FA85201FE04A882A80022A0DD940F20440121A1BD040F6FC70121A05D0F2
:20529000083A15D04FF47F70121AE8D1887B801CC0B2B528A8BF662088730020488007E01B
:2052B00000200EF0B1FA8420BDE8F6410FF0C8BABDE8F3816F4F0020204F002093410100B9
:2052D000504F0020A4210020204A0020A1280000599B00001DB80000755B0110104F00209E
:2052F000684E002028220020A16200006E4F0020F04E002002000080EC4E002065150100C9
:20531000424F002034220020714F002010B50B7884074CBF43F0020303F0FD0304064CBF58
:2053300043F0800303F07F0304074CBF43F0080303F0F70384064CBF43F0200303F0DF0331
:2053500010F0AA0F0B7004D0107840F00C00107010BD18B9117801F0F301117010BDF8B5EA
:205370000F4600263878022814461D4667D1786801784278069801EB022189B2002818BFD9
:20539000B1F5285F01D00B20F2BD4FF42850091A0AD0491E1ED0491E4BD0491E22D0491ED6
:2053B00028D0C53941D04AE0F8680EF02FFF069B079980B2C21A8A42ACBF0846C01A80B240
:2053D000C118162904DA28800246F868C1180DE00D2636E0F8680088022129802070000A1A
:2053F00060702EE0062028800622F96820460EF06BFB26E0F868B0B10821298001882170EB
:205410000188090A61704188A1704188090AE170818821718188090A6171C188A171C088DC
:20543000000AE0710DE029800BE04A480178CA0705D401202880F8680178217001E02E8009
:2054500001263046F2BD2DE9F8460E46814630780024022817469A4678D1706801784278FA
:205470003C4D01EB022189B24FF42850091A08D0491E30D0491E55D0491E3FD0C63960D0FB
:2054900064E0F0680EF0C2FE089980B2884206D308460AEB0001162903DB0D2457E0072438
:2054B00055E0F3685246394618440EF00DFB08985044ADF8200000210898F368C0F11602F5
:2054D00018440EF0A1FE686800281CBF0268002A3DD0002123E0089888BBBAF1020FDCD1DF
:2054F00039787878F26801EB00211180686800281CBF0268002A2AD0012110E00898F0B947
:20551000BAF1060FC9D1F068062239460EF0DCFA686800281CBF0268002A18D0032148464D
:20553000904714E0089850B9BAF1010FB5D13878002813BF0128F1680870802407E00B2448
:2055500005E02878C10758BF032400D501242046BDE8F286AC1600202DE9F04F8246DAF862
:2055700000600C465FEA0208ADF11C0D14BF00214FF0FF3106F1480083460EF0EAFB0028D9
:2055900018BF0B2040F00681002565708448F460B8F1010F057004D065700220F4600DF0DE
:2055B00027F82078012840F2AB80801E012868D9801E012833D9801E012800F2DF800EF0AD
:2055D000FDFD06904FF0805000F5EE77D0F8DC01A378466A009321782846062908BF0120A1
:2055F000019001200290A068228AE1686368B047814606980FF0F4F8B9F1000F40F0C0801F
:20561000B8F1000F02D00EF02FFA02E050460DF033FC002800F0A4803868806A2AE00EF057
:20563000CDFD06904FF0805000F5EE77D0F8DC01012306680093A168A27860682478AC464E
:20565000042C08BF9C466346B047814606980FF0C7F8B9F1000F40F09380B8F1000F02D018
:205670000EF002FA02E050460DF006FC002877D03868406880474949C1F8B0510D608146AB
:205690007EE00EF09BFD06904FF0805000F5EE76D0F8DC01E38A87690093E0680190208BEF
:2056B0000290A0780390207D04900121059122782846022A08BF081CE1786268A368B84768
:2056D000814606980FF08CF8B9F1000F58D1B8F1000F02D00EF0C8F902E050460DF0CCFB6B
:2056F00000283DD03068006A80475FEA000947D13068C569A168E28A2369E078A847BEE77F
:205710000EF05CFD06904FF0805000F5EE76D0F8DC01E38AC7680093E0680190208B02903A
:20573000A0780390207D2946049001200590257805B9014608466268A368E178B847814674
:2057500006980FF04DF8B9F1000F19D1B8F1000F02D00EF089F902E050460DF08DFB08B9EC
:20577000142017E03068406980475FEA000907D1306802692169E078904780E74FF0FF3922
:20579000B8F1010F02D002200CF020FD58460EF029FD484607B0BDE8F08FC046504502402B
:2057B0005E2200202DE9F04102468A4D884C2978A068521EADF1280D00F09280521E00F0B1
:2057D0008580921E66D0521E52D0521E04D0521E4BD0521E46D043E004F184000EF00AFD46
:2057F0007D49102002F04CFE7C49C7B201AB10207A1E02F045FE98B9002684F84060009756
:205810002978A06856A33246C91CC9B20DF054FA2D78A4680DF106000AF024FE324613E077
:2058300006AE40F21530314603F0E8FF2978A06800224FA3C91CC9B20DF03EFA2D78A468D9
:2058500030460AF00FFE002203466D1C2046E9B20DF032FA4FF6FF7000210CF089FF7CE0E8
:205870000A462EE0002245A375E0002245A370E0142008F0F7FCA0682978002247A30DF030
:205890001BFA00204FF6FF710CF072FF2A78501CC1B215E004F184000EF0AEFC142008F0DE
:2058B000E1FC2978A06800223FA3C91CC9B20DF003FA00204FF6FF710CF05AFF2A781146D1
:2058D000A068921CD2B20EF04BFB46E0C91C002239A3C9B20DF0F0F9012084F840003CE0D7
:2058F0004FF4417008A903F089FF9DF821708DF8057000268DF808609DF822308DF8076072
:205910009DF824108DF806309DF820008DF80A109DF825208DF804009DF823708DF80B2064
:2059300001AB2F498DF809701A680A6058684860D4F808802F7808A80AF094FD3F1D034606
:20595000F9B2324640460DF0B7F9A06829781DA33246C91CC9B20DF0AFF90AB0BDE8F0812B
:205970004E756D20436F6E6E733A20256400C046436F6E6E656374656400C0464572726FAC
:205990007200C046436F6E6E6563746564204164766572746973696E6700C04654696D65B7
:2059B00064204F757400C046446973636F6E6E656374656400C046C041647665727469733A
:2059D000696E6700496E697469616C697A65640008020020CC150020F17F0110097F0110BE
:2059F0002F0B00202DE9F04FDFF80CB29BF80000002885B004D0401E032804D9801F012861
:205A100040F2F780EFE07D4DDFF8F4812868DFF8F49103687C4E03F10807062207F108019B
:205A300003A80EF051F80622B91C01A80EF04CF83878C0F380118DF800101E24C10900F0F7
:205A50000F02032A39D16879C0F38000814233D12969062203A80DF003FD00282CD09DF8F8
:205A7000000001A90EF0B0FE002825D0314601A80CF023FF0746FF2F1ED0D9F80000807A31
:205A90006743002818BF02280BD0012818BF032812D1701CF25DC11940460EF03DFE10288E
:205AB0000AD0F41901AAE11D404609F010FD062201A9E01D0EF008F890E000F00F00052851
:205AD00040F097806879C0F380008142F4D12969062203A80DF0C4FC0028EDD09DF8000037
:205AF0003F7801A90EF070FE7F0940F2024A88B3314601A80CF0E1FE8346BBF1FF0F6DD0CD
:205B1000D9F80000807A002804FB0BF118BF012800910CD0022818BF03285FD10846711CE3
:205B3000325C014440460EF0F7FD102856D050460EF0EEFD009806EB000A01AA0AF10701EC
:205B5000404609F0C4FC062201A90AF107000DF0BBFF1CE09BF8000002283FD19DF80010FD
:205B700001AA304609F022FB8346BBF1FF0F35D004FB0BF03118487F012805D070BB01F131
:205B90000D000EF025FE48B350460EF0C1FD04FB0BF4D9F80010305D88760622701C011942
:205BB000D9F8000014300DF08FFF184918488A78510604D5F90758BF41F20A4101D541F2A4
:205BD00004414180418341861248134A01801348134908600121107805F02EFB29680A6802
:205BF0000020107105E000200DF00EFE86200EF027FE05B0BDE8F08F6F4F0020F44B002007
:205C1000CC470020104F002060170020C0210020204A0020504F00206E4F0020A12800003B
:205C3000204F00202DE9FE4F05467E48002400680094C0090ED37C48007858B97C497B48B2
:205C500051F8112C104040F0817041F8110C20200BF0D6F9012D40F0E080DFF80092D9F8E5
:205C7000DC00012840F0D6800220C9F8DC000DF067FB01200BF0C4F95FEA000805D001204B
:205C9000C9F8DC000DF06CFBC9E00EF0ADFAA34602906848684DC0F800B0A86A01680120C1
:205CB0008847012804D1584608F0A8FF012000906248634FC0F800B0386811200EF086F907
:205CD00000B1012410200EF081F908B144F002040F200EF07BF908B144F004040B200EF084
:205CF00075F920B12868574E016B308888470A200EF06CF920B12868534E016B30888847AB
:205D10005248012606602868816944F0200088474F4806600EF054F900F00101019140089B
:205D300014D2286A81684B4888478246BAF1040FF7D0BAF1010F04D1286A426845480321C6
:205D500090474549086820F003000860584600F087F82B683868986B8047019801280CD03B
:205D7000BAF1010F04D1286A42683A48314690473949086840F0030008603048066028687C
:205D90004169204688470B200EF020F920B128682C4BC16A188888470A200EF017F920B157
:205DB0002868294BC16A18888847284806600322C9F8DC20264BC3F800B02868416B2046FF
:205DD00088470128F9D1386804200BF019F90446184806603868134800688009FBD30098BE
:205DF000012802D1304608F009FF0EF0DDF808200BF006F907460298C9F8DC600EF084FCCA
:205E1000FBF7C4F80DF0ACFA57EA040018BF4FF0FF3804E06FF0040801E06FF00108404671
:205E3000BDE8FE8F1410094088100020FFFFFCFC150009400C400940B801001000022243E2
:205E50002C200940E8540100E454010028200860800104430040034024220840A00F0020CF
:205E70002DE9F84FDFF804B20746ABF13500DFF8F0810068800880F0E28075480068006873
:205E900080477E490831D1F8009000254FEA29715FEA995201F101010AD2C0F13E0210F1E4
:205EB0000A0F4FEAE202D8BF08229142B8BF111C684BD3F87C21C2F30462162AA8BF203A2D
:205ED0001B68C3F30443162BA8BF203B9A465218162A05DA12F10A0FB8BF6FF0090200E0E9
:205EF00015225D4B5D4E02F01F0141F4F8511980316811F0030F18BF0125C90828BF45F049
:205F100002050FB145F00405434693F90710411A052904DA9979A94208BF99886FD0DFF8DE
:205F300044E10F28A0F10F0829DB08EB0011A1F1F0084FEA28210091072984BF072100917C
:205F5000062988BF06215EF821600424774604EB81043C594FEA950CA41BEE0804F0FF014C
:205F700024BFC4F3072631446F08AE0824BFC4F3074631446E0828BF01EB146104E0002189
:205F90004FEA950C6F080091009C5EF824E05FEA5C060EF0FF0424BFCEF3072634447E089E
:205FB00024BFCEF3074634446E0828BF04EB1E64009E89B2A8EB06267143803104EB112479
:205FD000AAEB02010029D8BF0121342209F0FF074A4391B24FF6FF727943B1FBF4F18A4243
:205FF00038BF111C802889B2998005DA10F1800FB8BF6FF07F0000E07F20D8719D711A4875
:2060100000681F2918604FF0000008D340F2FF128A4206D24908401C8A42FBD301E01F21DF
:206030009980134F0F39090940EAC10047EA0001CBF8FB1F0026CBF8FF6FBDE8F88F0D49A8
:206050000D4F434608200F609B1D1870BDE8F88FEC0100103C1100506E6208402422084008
:20607000182200209C130050082009403500094000E7A48030100940FDFDA400AC3F00505B
:206090002DE9F84F0024774D774EDFF8E0B1DFF8E0A1DFF8E081DFF8E091D9F800104A7A01
:2060B00001231820A34060431A420AEB000709D0087A38F810203A8000201BF80420BA739D
:2060D000F87302E040F6010038800020788007F118007860387B00F0EF0040F08000387387
:2060F000097A01290ED141F28830B860387B00F0F00040F005003873787B00F0F00040F08B
:20611000020019E0002C0CBF0221002100F0F000084338733CB90EF047FB00F5C870CAF83F
:206130000800022004E00020022CB860F9D10120797B01F0F00108437873641C3E61022C97
:206150007D61AADDD9F80000017A01290EBFCAF834A00020CAF834000CF0D2FC30604748F2
:2061700080690078C1074CBF1021002182074CBF2022002243074CBF4023002300074CBFA4
:206190008020002011431943014341F00F01317100207071D9F80010887A00F003007071A0
:2061B000CA7A920002F00402104370718A7ED20002F0080242F0100210437071087A0128D4
:2061D00018BF042806D10020B071F071B06001F1140216E0487FB07101F15D025078F071C3
:2061F000487F20B10B7FC3EB4313C8181E30B060507828B11278C2EB42128B1803F15F0009
:206210001F4AF060726101F10C0030611D4BF07E727900F0E00040F08600F0761A48F061F3
:20623000187828B1307900F0FE0042F040023071164B987843064CBF42F0200202F0DF024D
:20625000727100202880A870E87028716871E8802881A872E872E8600868C0F804A0BDE863
:20627000F18F00BFB44D0020F44B0020409A0110204A0020109A0110104F002094590100B2
:20629000D0470020784E002000204E00C02100207E488078FF2800D170472DE9F84F0DF09B
:2062B000FFFC054605F217100178012908BF417800F0A28005F17400817B022903D105F1DA
:2062D00074020020907305F59276F18911B1307B04F0B2FF68896E4F288105F58D78B87AFF
:2062F000FB793A7BF97A7C7BB8F800C000EB030E96448E4474441FFA84FEB8F80440641C1C
:20631000A8F80440F444B8F80240A8F800C00419A8F802404FF01C0C3468FCB1DFF8749174
:2063300095F806A0D9F8009009F10E0B0CFB0AFA09F10E091BF80AA034F81AB0F34424F884
:206350001AB095F806A00CFB0AFA19F80A9004EB4904B4F84AE08644A4F84AE0002B08BFE6
:20637000002904D1002A04BF797B002923D02A89E889821800202874AA81287F012804BFDA
:20639000698CE983787868B10121297705F174018878002804BF887B002803D1087F08B924
:2063B000698CE983307D80B3022804BFF87A002827D1002128E0E98338B100202874287F2C
:2063D000012807D1698CE98304E0B8F80600401CA8F80600A8892989814206D08842D1D2C6
:2063F000081A41F2AB029042CCDA287C08B1052901D0082100E03E212846BDE8F44F0CF0FD
:206410004DBF787A08B1022131752348FA7B01682868D30708D53A69C26001F11400A9796F
:2064300049010022425011E001F11402A97949015258184932610A68A97902F108030CFBB2
:2064500001F29958C1600020E8832877134841690A7890074CBFB87B812085F874002846A1
:20647000FCF7BCFC01280ED00121284607F00CFE28460CF065FDFCF727FF012803D0BDE843
:20649000F14FFDF7F3BDBDE8F18F00BF684E00205C4D0020282200202C22002094590100BF
:2064B0002DE9F0410C4684B00746207A0026C10690461D460BD540460EF022F9030000F080
:2064D000F0800A22214638469847060050D1207802281AD160680178427801EB022189B233
:2064F0004FF42050091A012910D9891E41D0491E16D0FD3905D0491E00F08B80491E74D086
:20651000491E7BD0491E00F0A180B8E00B98002831D1E0680A9A017811800278416891E052
:206530000B98002827D10A9801210180E0680178297000216089401C80B20EF0DDF80A99DB
:20655000098868B102780A9B921C51181980418969704189090AA97002784168E81C72E0A0
:206570000A98091D018004220021681C0DF04CFE98E00B9800286BD1E06807880A98042193
:2065900001802F70380A68700DF1020138460EF0B3F804001FD0E768BDF802204FF6FF78B4
:2065B0006B4641460EF0C0F840B9237862683F4802210EF09DF808B9ADF800803878022882
:2065D0000BD179680222281D0DF07EFA0A980188891C018001E0ADF80070BDF80000A870FC
:2065F000BDF80000000AE8705CE00B9800282FD1E068016838460DF0CFFB03E00B9838BBFE
:20661000E06800880A9A022111802870000A687048E0E0680DF0FAFD0B9B80B29842B8BF3B
:2066300007263FDB834208BF002006D00C99C9188142B2BF0C98C01A80B20A9908800246A4
:20665000E068C11828460DF03FFA2BE00B9808B10B2627E00A9AE0680721118002782A700D
:20667000417869704188A9704188090AE97001792971C1886971C088000AA87112E0404647
:206690000EF032F806000CD00D980C990A9B029001912A460B98009021463846B047064602
:2066B00000E00E26304604B0BDE8F081EC5501002DE9FE4F7D4C617811B900200DF0A4F8AC
:2066D0000EF072F88146002709F6C4190026784DDFF8E0810EE030460DF0E2FA417939B174
:2066F00029688279CA5549467F1C00F0E7F8FFB2761CF6B298F800008642ECDB009761786C
:206710008F4205D000200DF07FF882200EF098F86078012840F0A380002601E0761CF6B26A
:2067300098F80000864280F2948030460DF0B8FA074678790028F1D02868B9790278914210
:206750001CBF00200DF060F8B87980E0286810F809000DF0A5FA00684268DAF80810906817
:20677000814204BFB84609F1010900F088808BE0296891F800B04FF0010910E0626811F848
:20679000093002F5B17208FB03F708FB0BFED75B32F80E20974238BF9B4609F10109C0B2DC
