:2000000000400020BD10010001C9011001C9011001C9011001C9011001C9011001C9011090
:1C00200001C9011001C9011001C9011001C9011001C9011001C901103FC9011089
:20003C0080B54FF4FC720FF278011A480CF036FB012119484174002202210270C17601BDD1
:20005C002DE9F0410FF2502214493820136854689568D6681769D2F814C0D2F818E0D2F8F9
:20007C001C800B604C608D60CE600F61C1F814C0C1F818E0C1F81C8020322031401EE5D1DC
:20009C0050689368D46812680A6048608B60CC60BDE8F081480400215903002100C00021D1
:2000BC00410500217D0500212D06002170B51D46004C204787B2000010B5014800470000FD
:2000DC00D509000070B5614C6148254650358047022809D14034E1885E4A914204D1E97C5E
:2000FC00890601D4911DE18070BD70B557495A4A084650300378002B10D08379012B0DD181
:20011C00037C5B09DB0709D0097D544DC1746C7F20202043687790476C7770BDFF21C17420
:20013C00904770BD10B54E48484C804702280ED121464031CA88474B9A4208D1CA7C5209CE
:20015C00D20704D0227D920601D49A1DCA8010BD70B53E4843494030C07C4009C00707D032
:20017C003E4D41482C8B2043288388472C8370BD884770BD10B53B48344CAC388047214609
:20019C0053310A789309DB0705D04034A2730A7803231A430A7010BD2C4940310871182876
:2001BC0012D004DC0A280BD00B2804D10AE025280CD02A280CD02D4980004018C0687047DE
:2001DC002B4870472B4870472B4870472B4870472B48704770B504461C484E252D5CAE09AB
:2001FC00F60716D0067D3007000F052803D00120054202D00DE00220FAE7E80905D07006D1
:20021C0003D54868800F012803D05B085B0052085200062B03D01020022B11D011E0FB20F7
:20023C00024002232046FFF741FF002807DAC100611A2039497E1422114200D1002070BD93
:20025C00024303432046FFF731FF70BD4401002137CB000004140000EBC80000A800002142
:20027C00F5B4000053AD00002020000080DF00001D050021F9040021CD040021930400210F
:20029C006D04002110B5034CFFF716FF20680028FAD110BD0011044068610000F825F965B0
:2002BC00F9754500450045002600260057A3520052004C00401F401F401F3F000000000053
:2002DC00304000400140034007400F404F40CF40CF41CF43CF47CF4FCF3FCF2FCF1FCF0F6C
:2002FC00000000000000000000000F00080000003F00000040003F000000040068000E0093
:20031C00DC00060043001A00050000000000020000000000000000000400C00000000400B3
:20033C00C000000007000000000000000000000000000000000000003040004001400340A6
:20035C0007400F404F40CF40CF7FCF6FCF5FCF4FCF3FCF2FCF1FCF0F00000000000000009D
:20037C0050C00091007070C00091007082312100319110B10070018101B100A1823132910D
:20039C0010B101911110418141227740F106007051C0019130181039833108D01831416FD1
:2003BC003100319110B18314141683680070251050C00091F4C340C12014036F3110410497
:2003DC005082F0229840512622C082312100319110B163393110410482C08231210031919B
:2003FC0010B163393110A2C082312100319110B150101531051405920070676452C03110A6
:20041C0031066131C1026A6412C13110213971065131E1026A64007051C0019101CCE2C0CC
:20043C006A64676411C1C2C06A6450B054B0007140804022D6440022C94060B08180111EC9
:20045C00C944007054A064B0F0800022C9404012B09032B070C1DF6811C122C16A6470C1C0
:20047C00E46851C00191E2C0823160820200329110B130C2EE68538253395339B16460C347
:20049C00F4688012B09032B00070676401C122C16A6401C1C2C06A645382B164C012B09074
:2004BC0032B00070676472C281C06A6422C111C16A6402C011C16A6462C031C36A6462C3D2
:2004DC0011C16A6402C311C16A6453825339B164E2C36F6411221C4142C281C86A6452C24E
:2004FC0011C16A6472C2E1CE6A6402C281C86A6402C201C86A64B0C030690070676442C211
:20051C0001C86A6452C211C06A6472C2E1C06A6402C001C16A6462C001C36A6422C101C127
:20053C006A6462C301C16A6402C301C16A645382B16400708180111E5C4150B054B000712B
:20055C00408040225D4154A064B0F1800122514500700022514160B04E61000000000000AA
:20057C000000000000000000067305720B720E7250B00071818060B050A09280F0EFF1928C
:20059C0002936A6741228C458080F1C11004301601110114016CB561B661B761B861B9618D
:2005BC00BA61BB61BD61BF61C161C36126632D63F0C002043231412A121432160111211412
:2005DC00016CDA61C561E061C761CB61B561B561B561F461C561FA61C761CB61B561B56104
:2005FC00B561F461C561FA61C761CB61B561B561B561E761C561ED61C761CB61B561B56121
:20061C00B561CF61CF61CF61CF61CF61CF61C064CF61F964CF610665CF613265CF6174676A
:20063C00CF611166CF61C0644E65F964CF61066511663265CF618280E0DFF2926A67B0B044
:20065C00D661B1B00673057230B06C61D0CF6A6784C203C0C0C37C64207851788278E378B7
:20067C001579B6780062C0CF6A6784C203C0C0C37C64307861789278F3781579C678006250
:20069C00B0CF6A6784C203C0C0C37C6440787178A27803791579D678109221923292439281
:2006BC005492659256911FC0FF914039F00601101031101400927067CF61E3B054A0F08076
:2006DC0050221A4640800022BE461262E3A000C86091598150B0918041228E46A0CF6A6734
:2006FC0012828231823942398B641282F2062F101F312F141682D622334640C1346200C5AF
:20071C0020140D6F6D39DE10F4C34E0482C082312E006D39A2C082312D001A828A39FA0606
:20073C002082803180390BC00B18BC10AC18038239149B141082F0060110103110145181C2
:20075C0010140C14C622C94631D0C1266462021011C0013010C00118021882312100C126C2
:20077C00919103B013B063B053B041800122BE46B481C491D581B51C774E95186591F0803E
:20079C00102269428C623D9110B13E9110B1E08000228146E6228142E0B0951865910F926B
:2007BC005981F914F0805022114210228C464D6390CF6A6763B052A03082F2C0200402107E
:2007DC0011C0013010C00118021882312100C1269191919113B003B063B053B064B054B055
:2007FC00007141800122BE4663B064B0F08050221142B181C191D1819118619131B0A462D0
:20081C002967E0A059810582591480C0007163B0BA6A6962E3A0018262818231823D80EF61
:20083C00F19202936A6703A0007037824739873930828039F006021011C0013010C0011849
:20085C00021882312100C126819102B012B030824039F006021011C0013010C001180218E9
:20087C0082312100C126919103B013B063B053B0007153A062B052B041800122BE46A4816E
:20089C00C491D581B51CFE4E95186591F0801022F0428C62B481C491D4814518751C084FEB
:2008BC00F0801022F0428C623D9110B13E9110B1E08000221247E6221243E0B065910F92DC
:2008DC005981F914F0805022114210228C4630632967E0A0598105825914F0C0007162B038
:2008FC00226BF062A2808B64CF6112824239F2068B6050B00071CF6170CF6A674082418096
:20091C000122BE46A481C491D58195186591F18011228C46336B41800122BE46A481C491AB
:20093C00D581C51C1C4B95186591F08010223F438C6260CF6A67408241800122BE46B48169
:20095C00C491D58195186591F18011228C46506B41800122BE46B481C491D581C51CB44A55
:20097C0095186591F08010225C438C62E092D08200226B47C0B20070A080F022874330B033
:20099C0002C1623101C0A080001E8043F022814380F86031603981632010101A136F236E5A
:2009BC0011161216826B00702DE9F84FDFF81885DFF8181588F80000002008600921DFF891
:2009DC00100501700D2141804FF408718180DFF80405DFF8041501608A7EDFF80005027042
:2009FC00FF2ACB7E437008BFFF2B0D7F85704E7FC6708F7F0771C97F417115D1FF2D08BFE8
:200A1C00FF2E11D1FF2F08BFFF290DD1DFF8D0140A7802704A7842708A788270CA78C27025
:200A3C000A79027149794171DFF8B81402780A70FF2542784A7082788A70C278CA7002791E
:200A5C000A714079DFF8A02448710021DFF89C04057045708570C570057145711180DFF872
:200A7C009004DFF89014466BDFF88C247078087031781170B078DFF884140870716908791F
:200A9C00DFF87C14421E0A70F078DFF878140870B069DFF87414086008B913F00DF8F069B4
:200ABC00DFF86844206008B913F006F82068DFF8607401688847216851F8042F3846904790
:200ADC00DFF85004DFF850143862DFF850047862306A086008B912F0EFFF706ADFF840143D
:200AFC00086008B912F0E8FFDFF838B4DFF838649BF8040013F030FB306008B900F045B98E
:200B1C009BF80500DFF8247413F026FB386008B9306837E19BF80600DFF8144413F01CFBA3
:200B3C00206020B9306813F01FFB38682AE19BF80700DFF8009413F00FFBC9F8000038B91C
:200B5C00306813F011FB386813F00EFB206819E1DFF8A4130A789BF80000DFF8DCA3921CFD
:200B7C00504380B213F0F8FACAF8080058B9306813F0FAFA386813F0F7FA206813F0F4FA28
:200B9C00D9F80000FEE0DC480078002800F00281BBF80210DFF8A4B3484380B213F0DCFACA
:200BBC00CBF8040078B9306813F0DEFA386813F0DBFA206813F0D8FAD9F8000013F0D4FA37
:200BDC00DAF80800DEE0CC48007813F0C5FADC49086080B9306813F0C7FA386813F0C4FA90
:200BFC00D9F8000013F0C0FADAF8080013F0BCFADBF80400C6E0C04800781C21484313F0F0
:200C1C00ABFAD04A1060B0B9306813F0ADFA386813F0AAFA206813F0A7FAD9F8000013F097
:200C3C00A3FADAF8080013F09FFADBF8040013F09BFAC348A5E0B0480078400113F08CFA4C
:200C5C00C1490860D8B9306813F08EFA386813F08BFA206813F088FAD9F8000013F084FACB
:200C7C00DAF8080013F080FADBF8040013F07CFAB348006813F078FAB249086882E09E4826
:200C9C000078000113F068FAB0490860F0B9306813F06AFA386813F067FA206813F064FA64
:200CBC00D9F8000013F060FADAF8080013F05CFADBF8040013F058FAA148006813F054FAE9
:200CDC00A049086813F050FA9F485AE08A480078000113F041FA9E49086018BB306813F0EB
:200CFC0043FA386813F040FA206813F03DFAD9F8000013F039FADAF8080013F035FADBF816
:200D1C00040013F031FA8E48006813F02DFA8D49086813F029FA8C48006813F025FA8B497F
:200D3C0008682FE0744800783021484313F014FA884A106070BB306813F016FA386813F03C
:200D5C0013FA206813F010FAD9F8000013F00CFADAF8080013F008FADBF8040013F004FA44
:200D7C007748006813F000FA7649086813F0FCF97548006813F0F8F97449086813F0F4F9D6
:200D9C007348006813F0F0F9002012F095FE4FF4804192E031680120087130680573316821
:200DBC004D73306885733168CD7330680574002031684D743268D072A0223168487103214F
:200DDC003068C28001720720316848720020326890722821306841820121C17600203168BE
:200DFC004877326882F85E00012031680877326882F85D00396808713868057339684D7369
:200E1C00386885733968CD7338680574002039684D743A68D072396848713A6890724FF47D
:200E3C00207039680022C88008818A7401213A68D17421680D732268557321688D732268FD
:200E5C00D57321680D740021226855742368D9720121226811710021236859712168C88065
:200E7C000881002088722168887405202268D0743948016888472A490A6805461068804713
:200E9C0027490A6852F8043F0020984718481D4BC16818780A88314902430A802846304985
:200EBC000A6890470C212F4800F05EF80F4800F05FF800F061F84FF4005198F80000BDE833
:200EDC00F44F0AF021BA00BF6E4F0020044F0020604E0020084F0020B63F00502C4E0020AB
:200EFC00E81200503C4E00200C4F0020344E0020605C01006D4F00207B4F00206B4F002068
:200F1C00724F00206C4F0020F04E0020F44E00207C4B002075410100F84E0020854101006E
:200F3C00FC4E0020E4160020104F002070220020184F00207422002044220020684E002047
:200F5C00004F0020682200206C220020884E00208C4E0020904E002004110020544F0020C8
:200F7C0008110020F84D0020DFF800F0E5710110DFF800F01D6E0110DFF800F04D71011090
:200F9C00B0B5174C241D20680004070C23D01248006800688047114991F90720824205DDF8
:200FBC0010F1800FB8BF6FF07F00C8718D88BD4210D80A68D4F8D40F801A801C1F2888BF16
:200FDC001F207F1B4008C7404FF6FF70EF19B84238BF071C8F80B0BDEC01001058220020EA
:040FFC003010094068
:20100000B41200001810000015AB0110FDB301106DC00110FDAE011099B5011000000000F7
:08102000000000002D0000009B
:20102800B01200003C100000B1C00110A9BF011067C0011069B80110000000000000000035
:041048003000000074
:20104C00B012000060100000BDC00110CDB30110D9BD01106DB3011000000000000000005B
:04106C00310000004F
:20107000000000000417002004000000000000000000000020000000E8C90110300000000F
:20109000281000000C1700200400000000000000000000000C000000D8CA011018000000EA
:2010B0004C1000001417002004000000000000000000000024000000F0CA0110180000006E
:2010D000000000001C1700200400000000000000000000001000000018CA01102C0000007A
:2010F000001000002C170020040000000000000000000000200000006CCA011024000000DE
:20111000FFFFFFFF341700200400000000000000000000002800000090CA0110240000009D
:20113000FFFFFFFF3C1700200400000000000000000000001400000008CB0110180000001C
:20115000FFFFFFFF4417002004000000000000000000000058000000B4C9011034000000EA
:20117000FFFFFFFF4C1700200400000000000000000000001000000020CB011018000000B8
:20119000FFFFFFFF541700200400000000000000000000001C000000B4CA011024000000E5
:2011B000FFFFFFFF5C1700200400000000000000000000003800000044CA0110280000000D
:2011D000FFFFFFFF641700200400000000000000000000005400000078C901103C00000082
:0811F000010000003C5C01005D
:0411F80001000000F2
:0411FC0000000E00E1
:0412000000000F00DB
:0412040032000000B4
:0412080001000000E1
:04120C008015002029
:0412100000020000D8
:0412140000000000D6
:0412180001C90110F7
:04121C0000000000CE
:0412200000000000CA
:0412240008000000BE
:0412280000002200A0
:04122C00E4130020A7
:0412300000000000BA
:0412340000000000B6
:0412380008000000AA
:04123C004015002039
:0412400000000000AA
:0412440000000000A6
:04124800080000009A
:04124C00000000009E
:04125000000000009A
:041254000000000096
:041258000000000092
:04125C00010000008D
:041260004C1400200A
:041264000600000080
:041268000100000081
:04126C00101300203B
:04127000000000007A
:041274000000000076
:041278000002000070
:04127C00000000006E
:02128000290043
:02128200010069
:02128400250043
:02128600300036
:02128800310033
:02128A002D0035
:02128C0001005F
:01128E00015E
:0812900003000000C05B010037
:0812980000000000000000004E
:0412A0000000010049
:0412A4000000030043
:0412A80013C401105A
:0412AC00033F0100FB
:0412B000B812000070
:0412B400B81200006C
:0412B8000000000032
:0412BC009C1600205C
:0412C00043400100A6
:0412C4002000000006
:0412C800185B0100AE
:0412CC008059010044
:0412D00029C101101F
:0412D40033100100D2
:0412D80027140100D6
:0412DC00A1C7011095
:0412E000A3C701108F
:0412E4000000000006
:0412E8003F5B010067
:0412EC00385801006D
:0412F0005058010051
:0412F400205801007D
:0212F8000200F2
:0212FA000900E9
:0212FC000100EF
:0212FE000000EE
:0113000001EB
:04130400D13F0100D4
:04130800AD22010011
:04130C00A134010007
:041310005D26010055
:04131400C3260100EB
:04131800A50F01001C
:04131C00ADE600003A
:041320001142010075
:04132400A5FC000024
:0413280015C70110D4
:04132C0025C70110C0
:201330002DE9F04FBA4C04F110012046ADF1540D0FF040F904F138050021284613F016FCC9
:2013500041F288320023B349656104F17C00012500950FF07FF9002001460EF087FBAE4E25
:201370001F220623E0603146102007F0F7F80020ADF832004FF4FA51ADF83410A946ADF824
:20139000361080468DF847900DF147028DF848804FF47A70ADF838802946ADF83A0040F237
:2013B000053003F051FC40F2063002210DF1320203F04AFC4FF44270122104F1540203F04C
:2013D00043FC40F20730072104F1280203F03CFC4FF44470294612AA03F036FC40F2113029
:2013F00002210DAA03F030FC40F2123002210DF1360203F029FC40F2133002210EAA03F0BC
:2014100023FC4FF4457002210DF13A0203F01CFC04F1660042461523D1490090102007F051
:201430009DF8314610200622202307F097F8314610200722202307F091F83146102008220B
:20145000202307F08BF8314610200922202307F085F8CDF82C808DF84A900BA88DF84B8063
:2014700002268DF84C90DFF8FCB200904FF4816204238DF849605946102007F06FF80DF118
:2014900049004FF480622B4600905946102007F065F80DF14A0040F202422B46009059464C
:2014B000102007F05BF80DF14B0040F203422B4600905946102007F051F813A840F206429D
:2014D0002B4600905946102007F048F8CA4910204FF0FF3207F042F8C84910204FF0FF3260
:2014F00007F03CF8C64F10201323C74AC54D00903946019507F032F8C4480078800012F047
:20151000CAFFC34D0146A96069B14FF6FF7010F0FDFEC049102005F11C0200901123019126
:20153000394607F01BF8BC490A6808A802600F790771FF238DF84D604F1D8DF84E3006AE12
:201550003B683A79336001F10A07327104AB3A6839791A604046197108AA052109F082FC10
:2015700048460DF14D02014609F07CFC022049460DF14E0209F076FC06AA0320052109F06C
:2015900071FC0420052104AA09F06CFC04F1200004F13002C4496860102006F0DFFF2078C8
:2015B00011F038FBC1490246102006F0D7FF207811F030FBBE490246102006F0CFFFBD498C
:2015D000102006F0CBFFBC491020042206F0C6FFBA4DB1A04FF6FF712860404611F002FADD
:2015F000E768DFF8DCA257B12E7946B150468760052101704146C160284610F033FEC94924
:20161000102006F0ABFFC84E77783078E7B905E008020020E5400100BD84011004F11C0104
:20163000316211F0F7FA06F15407CDF80080024606F14400019006F11C050297BE4903951A
:20165000B378102006F08AFFC94910200C2206F085FFC84910204A4606F080FF0FF006FB70
:201670000FF0FAFE04A812F08DFE042004A90FF013FFC54E30600CF01BFBFF2010F0ECF890
:2016900004F1A00704200522C0490090134638460EF0E0FF384612F012FFCDF80080102000
:2016B000594640F20942434606F058FF55462069C04A41464FF0FF3313F054FA5FEA000B5D
:2016D000F5D040460A900DF146010AAA0CA810F0D7FF002840F0DA80BDF8301020784F46BE
:2016F000102940F0CE809DF84610884240F0C9800A9E31884FF6FF728A4200F08F80337868
:20171000913B31D01F3B40F0BC807178162910D03279E06829787E2A08D07F2A1AD13289BB
:20173000BDA30092424611F017FC13E0327ABEA3F7E711F06FFA03464846B4490090728865
:20175000102006F00BFF28B948460CF04BFE4746A66196E0317906F1080013F0FFF990E077
:2017700095D60000BD49000070780E3825D0801E3DD02E3840F08580B0780C2840F08180F2
:20179000F378E1682878ABB9401CC2B2AAA308461146424611F0E0FBF079012814BFABA0AB
:2017B000ACA00090E1682878ACA3801CC2B20846114663E0401CADA3F8E7B08842F2030112
:2017D00081425ED1B1680E78002E5AD1491C04A80A684968026004AE41603078A84904AADF
:2017F00000F0FD003070102006F0B8FE49E00820414605F06FFE44E081330100B136010075
:20181000C92B01009C5B01000C0C0020694F0020BC0E0020A85B0100405B010070884008F1
:201830002FD3A6696EB3607806F10803401C6070CC49009372883379102006F08FFE5FFA06
:2018500080FABAF1160F12D02078BAF1040F0ED0A66911F0DFF9034640466C490090728822
:20187000102006F07BFE50460CF0BCFD09E0607800902978E068BDA3491CC9B2424611F06B
:201890006BFB0A9810B10FB112F0DAFD5FEADB70C0F00481FCE0C046424C452050657269A8
:2018B00070686572616C00C0A5380100518801103181011011D00000053D0100FC140020FD
:2018D000141600206069064613F044F9864208BF474602D0876810F04DFD381C00F0D88096
:2018F0003888401E00F0CE80401E65D0801E25D00C3800F08D8010387ED0203840F0C580B2
:20191000B87898B1012813D17868007830B1082804D084F8029010F0FDFE09E084F8028004
:2019300006E0C046C5AB0010F005002084F80290786810F01FFDA8E01F130100BA7868783F
:201950006968130924D25209C0F09F800A7903469A4216D01A46FF2A00F0978001EBC2029C
:20197000D6684EB901EBC001086910F07BFC8CE081B3001051B3001001EBC00109698847CB
:2019900083E08868F1E7C04684220020D54001000979814207D0FF2809D0401CC0B210F040
:2019B0003BFEFF2802D1404610F036FE687008F03DFA6AE00D0000C0BB782E78D4F80CA0BB
:2019D000761C43B19B1E60D102200DF14F0110F035FA90A307E040460DF14F0110F02EFAD2
:2019F00084F84C908EA39DF84F00F1B242460090504611F0B1FA48E093489249424643467E
:201A10000090102006F0AAFD3FE0C04631400100B8780BF027FD38E04D54552053697A65AA
:201A30003A20256400C046C046432056696F6C617465643A2025640050485920557064618E
:201A5000746520436F6D706C6574650032204D62707300C031204D62707300C04375727261
:201A7000656E74205048593A20257300504859204368616E6765206661696C75726500C0ED
:201A900095B40010B87803F0FBFE384610F072FC606913F05BF800283FF414AF5FEA5B00F4
:201AB00006D36B4812F00BFD022014A910F0C6F95FEADB00FFF4FBAD664812F000FD94F8EA
:201AD0004400A18801285BD000284DD1491C88B23228D4BFA080A4F8048094F84C00012822
:201AF00042D184F84C80A4F806804FF47F4010F0B7F840460DF13E0110F0A0F99DF83E0079
:201B1000A52831D19DF83F0001282DD104200DF13E03414613F8012B401E82EA0101F9D134
:201B30009DF8420088421FD1BDF8400011F028FE42A20CCA07F048FB0CF002FF3C490CF076
:201B5000E8FA3B4908F0F2F939490DF041FE024621D336490DF06CFE28BF62621ED2084663
:201B70000A461AE0DDFE0010626A17E05273702073656E642072657472793A20256400C065
:201B9000491C89B23229D8BFA18004DDA4F80480FF2010F065F8264802466062E088401CC9
:201BB00080B26428E08002DB224860620246D4F84801C4F818012848C4F814210AF050FA17
:201BD000D4F848211A4910460DF032FE0ED8174910460DF0FDFD09D817490CF09AFA10F076
:201BF00001FD01461948006812F0EAFB1B4800680FA912F0CCFBB0F1FF3F14BFBDF83C10E1
:201C10004FF0FF311548006889B212F0C5FB20654DE5C0464368617220333A20256400C052
:201C30004368617220313A20256400C0CDCCCC3DCDCC4C3D000000000000804F000000008F
:201C50000088C340F526010040E201008822002084020020A80200201C030020842200206B
:201C70002DE9F04F0C4685B0834614F8010BDFF870278DF8000018280BF1FD010BF1E7087F
:201C90000BF166090BF20D1A0BF5B0760BF59C750BF5C67700F29183DFE810F019006F00DC
:201CB0005F0191008F038F03FA00690311012301FE000D0133018F038F037C018F0361018E
:201CD00055017503D602D60227028F03740214F8010B8BF88600022221460BF1880012F013
:201CF00031FF014602220BF18A0012F02BFF014602220BF18C0012F025FF014602220BF107
:201D10008E0012F01FFF04469BF8860040008BF886000BF1860102224888400048800BF1DE
:201D300086008188490081800BF1860108890001088121460BF1840012F004FFB9F81E1051
:201D5000BBF80800091A89B247F6FF7291422ADA0BF18601C8888A88401C520050430A891C
:201D7000904203D33B208AF80B0039E2012089F81C000020ABF81E001EE0052221460BF181
:201D9000610012F0DFFE014602220BF1920012F0D9FE0BF1860047F6FF728189BBF808002C
:201DB000091A89B2914280F218820BF18600012181720021ABF81E10012028700CE398F815
:201DD0001600C1070AD41A2198F80D0088F80E10012808BF0D213FD00D21CDE1002089F817
:201DF000000089F806000822012088F8110021460BF1B00012F0A6FE014602220BF1B80098
:201E100012F0A0FE0BF1A80601460822304612F099FE04460821304612F090FE0BF19C06D1
:201E300004222146304612F08DFE0421304612F085FE0BF1A00012F07DFE0BF1980012F033
:201E500075FEDFF8A005018841F08001018098F80D00012806D10421584605B0BDE8F04FCE
:201E700010F094B899F81000012804BF99F811100F290BD158460EF071F8042158460DF0EE
:201E9000B7F80F2089F81A00FD2175E1042173E1012088F80F009FE2002089F8000089F879
:201EB000060088F800000B21012088F80D00002088F8010060E1012088F810008CE2002091
:201ED00002F10906235C365C33432354561C365C33400B54401C0828F2DB58460DF086FBA7
:201EF00070E2002002F10905235C2D5C2B432354551C2D5C2B400B54401C0828F2DB022033
:201F100048E299F8060008B93D2167E19AF800000128D3D014F8011B8AF8031002222146E3
:201F30000BF5897012F00EFE014602220BF58A7012F008FE01208AF800009AF802000028BE
:201F50001BD10C2118E198F81600C10601D41221D1E058460EF06EFC34E221783EE12078CD
:201F700030706078707099F8100001280CD199F811100F2902D0162902D02DE268732BE28E
:201F9000387B40F0010016E205B0BDE8F04F002011F098BD98F81600810707D410F0110F1D
:201FB00008BF0F2000F009821A2252E02078617800EB01202882E178A07800EB01206882A4
:201FD0006179207900EB0120A882E179A07900EB0120E882207A2876A17A607A00EB012026
:201FF0006883217BE07A00EB0120A883A17B607B00EB0120E883217CE07B00EB012028849B
:20201000A17C607C00EB01206884217DE07C00EB0120A884A17D607D00EB0120E8840BF51A
:20203000AA700490688B0390287E0290BBF808000190E88A0090AB8A6A8A298A58460CF060
:202050007FFA68B198F81600410701D40F2152E01E22584605B0BDE8F04F0F210FF0B2BFA2
:20207000688A0BF186018880A88AC880E88A088102208BF8860000204880BBF83400C01D87
:20209000A9F81E008888BBF83210884201BF0BF18600C188BBF83400814206D10BF1860014
:2020B0000189BBF8360081421DD099F81000012804BF99F811100F2907D099F8150020B128
:2020D0000F2189F81A10FE2156E0FC2158460CF08FFFE88A0090AB8A6A8A298A9BF8060004
:2020F00012F020FD78E1102146E098F8170010F0090F03D116218AF80C1060E160782178E7
:2021100000F00700014021702078797B0140F97211D0481E01420CD0490704D5B87B10B12B
:202130000421F97205E0F97A022001421AD14008FBD1F87A08B9B97AF972F87A042803D100
:2021500058460EF0EEFBB083F87A12F0E7FC3871B28BB97B01230FF00FF80146308B884250
:2021700002D207E0F872E4E7B28BB97B387901230FF002F878801721584605B0BDE8F04FB9
:202190000CF036BF60782178814207D100F007000840207033D0421E10420FD01E22182156
:2021B00058460FF00FFF9BF80610002300221E200AF0ECF8387B40F04000FCE0F87247F6B4
:2021D000FF72A078E17800EB012038813989BBF80800091A89B2914206DB28218AF80B10D3
:2021F00001208AF80A00F7E00120B871F87A042803D158460EF095FBB083F87A0BE099F842
:202210001100162806D1BA7A9BF80610134600200AF0BCF8B87A3871B28BB97B3879012363
:202230000EF0AAFF0146308B884205D3B28BB97B387901230EF0A0FF78800121387B40F063
:20225000400038732970C7E02078617800EB01207082E178A07800EB0120F0826179207972
:2022700000EB01203082E179A07900EB0120B082B18AF089884288BF0846B97A042905D196
:2022900040F691229042B8BF4FF42960F28BF0839042B87A14BF01240024042803D1584682
:2022B0000EF03FFB04E0B089F18A884288BF0846B28BB083904214BF012100210C4330897F
:2022D000718A328B884288BF0846904214BF012100210C433083B28BB97B387901230EF0A9
:2022F0004BFF0146308B884205D3B28BB97B387901230EF041FF78807189308A728B8142F0
:2023100088BF0146718391429BF8063014BF0120002004438A4234490A6802EB4311728B3B
:202330008041121DC00F0A7610B1584610F0A4F89DF80000142810D144B1F08B0090738BA3
:20235000B28B318B9BF8060012F0E4FB584605B0BDE8F04F15210BF061BA1CB1387840F0CA
:2023700008003870397841F02001397034E020780E280ED00F2809D0122804D014280CD0FB
:20239000162812D028E00020287225E00120287322E0032088F815001EE0387840F00200F0
:2023B000387040F01000387016E0387B40F00200387340F0100038730EE08AF80C005846F2
:2023D0000DF000FF40B905B0BDE8F04F074800784FF4804108F09EBF05B0BDE8F08F00BFA7
:2023F00000220020524F00206C2200206E4F00202DE9F04FCD4C04F118012046ADF1340D7E
:202410000EF0D8F800264FF6FF70012132466670CF4F2082134604F1A400009139460EF0D4
:2024300019F90221324604F1C8000091134639460EF010F90425324604F1EC00394600951C
:2024500013460EF007F904F14409AA4610224846314684F802A00BF09DFE04F1540B102272
:20247000584631460BF096FE04F11C08C8F8006004F10A073E70E671267207206072CDF80E
:202490000090DFF80093022210200346494606F065F8102003224946CDF800B0034606F01B
:2024B0005DF81020524653464946CDF8008006F055F84FF0080B4FF0030907F12A000790E9
:2024D00007F17900089007F11E00099007F15A000A9024370B9717E06078A28FE18FB4F82F
:2024F0004050B4F8423006280ED1ADF80A20ADF80C10ADF80E50BA48ADF8103011F0E1FFB6
:20251000012002A90BF002F9A069B44A31464FF0FF3312F027FB071CF6D0059606A80DF1A6
:202530001A0105AA10F0ACF8002840F0BF81BDF818102078102940F0B5819DF81A108842E8
:2025500040F0B081059D29884FF6FF728A4200F09E812B78A23B00F081812E3B40F0A281F8
:20257000A978B046002900F03D81891E00F00C81491E012940F2DC80891E00F09C80491E00
:202590006FD0491E5CD0083900F05881891E40F05B8194F83A30A888052BADF8080047D082
:2025B00001208DF812008E4811F08BFF94F83A0001281ED004281CD003280DD002280BD0F0
:2025D0000598C188ADF80A100189ADF80C104189ADF80E10818927E0A08FE58FADF80A000B
:2025F000B4F84030ADF80C50B4F84210ADF80E301AE0A08FE9888842D8BF081CADF80A00FF
:202610002989E08F8842D8BF081CADF80C006989B4F840008842D8BF081CADF80E00A9890B
:20263000B4F84200884200DC0846ADF8100001E08DF81260A949102002AA05F08FFF03E1E6
:20265000A74811F03EFF6B78002B40F0FD80E88860822889A0826889E082614811F04AFD19
:20267000F2E0AA88B549102005F078FF0798414606220BF08FFD6682A682E682A8792073AB
:20269000574811F01EFF964811F01BFF4FF001084FF6FF702379208253B9A879082812BF0C
:2026B00084F801A005206070404611F053FDCBE084F80190C8E06B787BBB291D07980A6851
:2026D0000260898881800623637068892082E8896082288AA082688AE082E878E07294F82E
:2026F0003A00012818BF02280BD19A4910201F2205F034FF4FF47A7180B2414338480FF0AB
:20271000B9FB68895346009091490193EA7810202D1D2B4605F022FF99E06878312840F028
:202730008A80E67084F801A091E0C046F00500206B78002B7FD1A878E1896278032814D0AF
:20275000E078257931B9012814BF2671E67007E065410100054303D07F480FF08BFB6278D1
:20277000072ADFD10620607071E0062A07D0E578002D08BF84F8019069D00220F3E7072060
:20279000F1E7C046873801006B78002B53D1EB78617893B902291DD007291BD0062902D19C
:2027B0002079012816D1032914D06B4811F0A2FC80B9012011F0CEFC0CE010F02BFA024680
:2027D000A07962490090089843460190102005F0C5FE68706D78002D2DD135E0070000806F
:2027F000B80600206B7833BB5C485749009002221020034605F0B2FE59484A4652490090A8
:202810001020034605F0AAFEED1C099829680160A988012381802078637010F0FBF90246F9
:2028300001230A9D6079494900901020019505F095FEC0B258B184F801B008E0AA88414928
:202850001020052305F08AFEB8F1010F2AD1256A45B3296831B36078884723E0687913281D
:2028700020D12889012808D1607B022805D11C4811F027FE0FF04EFF14E036491020052229
:2028900005F06CFE81B216480FF0F4FA0AE06888C00B07D333482C495246534600901020EB
:2028B00005F05CFE059808B111F0CAFD2579E078790830D355EA00032DD0204600788DB9BE
:2028D000E179257A8DF808100B9A8DF8095013680DF10A052B609288AA8005E00516011067
:2028F000DC0600208DF80890617A8DF81010A17A8DF8111010F08EF91149024602AB102062
:2029100005F02CFE38B1256A84F801B01DB1296809B158468847B80803D3134930460AF0FB
:20293000F5FEF808FFF4F0AD607B401E3FF4D4AD401E7FF4E9AD0FF0EDFEE5E52D020100CC
:2029500059440110C11701102DA10000094501103D9D0000F584011094060020340600202B
:20297000440600200C0600202A0600202DE9F84F01200FF0CFFD01280ED1DFF8F874396826
:202990000020487138680EF019FC04F00BFA040003D1812012F0BAF868E201206071DFF862
:2029B000D854DFF8D8044178491C41703968A07981F8A00040200BF039FA206028790128AE
:2029D0001CBF002011F07EF8E8682168DFF8B05400F5B060C860286801680A79032A1CBF10
:2029F000002011F06FF82868DFF898840168DFF898B401F10809062299F80000C0F3801031
:202A100084F82E0109F1020104F5947011F0BAF9042209F10E0104F1240011F0B3F9D8F888
:202A30000000A67900F10C03042209F10E0103EB461011F0A7F9D8F80000A37900EB431029
:202A5000032209F11201103011F09CF904F12C0699F81500B070022209F1160104F1300017
:202A700011F090F9022209F1180104F1320011F089F9022209F11A0104F1340011F082F9FD
:202A900030896084022209F11C0104F1360011F079F9B078F18872894000B0704900B08833
:202AB00040001201B080F180728189B2638C5B1C4800434392B2934200D231B99BF8000048
:202AD000802108F027FC3B21FEE004F12E01204610F0B6FD0520A081204610F09FFF052242
:202AF00009F11E0104F1610011F04CF999F823004009307012F006F860823A68E34F518AE3
:202B1000401A04F59771888104F1610199F82300DFF87C9300F01F00F07320460EF05AFC24
:202B300029680A68002010711C25A1793868694341F6210242520022A17969430144001D02
:202B50004A80A1796943425099F80200410609D5D049088841F20A4290420CBFCE48CF4899
:202B7000C4F89C012046D4F89C1188473968A37901F10E026B43D054A179386869430844FB
:202B90000021C173C648017881B1B08870B9002171730120208160812046D4F89C11884760
:202BB0003968A37901F10E026B43D0543868A27900F10E016A43885C707394F8960108B961
:202BD00010F080FFA1793868DFF8D8A26943084494F896114A1E02740023A17938686943C9
:202BF000084400214174A279396801F112006A4301F1140C8352A279D8F8000000EB421324
:202C10006A434CF80230A2796A431144A64A8A61DAF814100B78DA074CBF4FF0100C4FF08A
:202C3000000C99074CBF202100215A074CBF402200221B0700F10803A07941EA0C014CBF01
:202C50004FF0800E4FF0000E0A4340014EEA020242F00F021A54D8F80000A17900EB4110A9
:202C70000B224272D8F80010A07901EB401104228A728E4A1378D8F80000A179012B00EBA7
:202C9000411002D10121C17203E0DAF828104A78C272D8F80000A17900EB41101F220276E9
:202CB000D8F80010A07901EB401100224A76A07908F07EFFA279D8F8001052018850A2791D
:202CD0005301C85820B90721204610F037FCCDE07748016801EB021011F010FF744AA0791C
:202CF0001368D8F8001003EB00130A1D40011350081DA27952018058F063A0794001095824
:202D1000716404219BF8000008F004FB644BB2881978901C11B10AB9F088801C618A94F8E9
:202D300006B041434FF4C87205FB0BFBB1FBF2F1491CA061616140F6C41C23683A68CDF807
:202D500000B002F1080ED3F80CB00CFB00B0411A0098A1F5A8614EF8001002F10800A1796F
:202D700069434058986002F10C01A07968430C32095C01F0EF011154A0793968684301F103
:202D90000C020C31125C02F07F020A54A0793968684301F10C020C31125C02F0F00242F073
:202DB00002020A54A179386869430844417B01F0F00141F0010141733868A27900F10801B5
:202DD0006A438858216808616369D8F80000A17996F802E05B0000F1140249010CFB0E334A
:202DF00003F5F6635350A17900EB4110C27C02F0F00242F00402C274D8F80010A079DAF81E
:202E1000303001EB4012F0880CFB00F61868301AA0F51670D061A27901EB4210C17E01F0F0
:202E3000F00141F00401C176A17938684D4321684019486099F80100810614D504F597714D
:202E5000488F1B2804BF888F1B2808D1C88FB0F5A47F04BFB4F86E11B1F5A47F03D0142174
:202E700020460CF0C5F8134907200870BDE8F14F01F06AB9104F0020B44D0020684E0020B9
:202E9000F44B00206C2200206E4F00206822002000220020504F00205BFD0000210501000E
:202EB000784E0020605C01005C4D0020734F00208C4E00206F4F00202DE9F843040014D1A2
:202ED000002010F0FFFD10E020460DF07BF9012808D065E08A0740F1548101F0FD010170C2
:202EF0000020B07120460DF039F804F16605687D002855D0697CDFF8A494022904F1EC0754
:202F100004F59E7804F5B07604F5C67035D0042949D005295CD0062900F08A800729D3D0A3
:202F3000092900F0EC800B2900F0C1800C2900F008810D2900F0D0800E2900F0EA800F29A1
:202F500000F02881102900F04281112900F05C81122900F00E81142900F08781162900F0B7
:202F70005A81172900F07581FC2919D0FD2900F09581FE2900F09B81A2E7297C012909D1A1
:202F900099F80300002815D01621204610F0D6FA012006E020460CF00AFD2874E88A2883EA
:202FB0000020BDE8F283297C012940F0948199F80200002800F0E580FC2120460EF0E6FF3D
:202FD000A07904F1B80204F1B00111F093FD8CE7297C01290FD199F8020020B184F894103C
:202FF000002038607860B87A012868D1062120460EF0CCFF79E704F1E7063078012809D15A
:2030100020460EF0C3FE0128CAD10020B87201202874C5E770780028C2D004F1C70204F1AF
:20303000A00104F1D70011F061FD012030705CE7297C012940F0538199F8020000283ED014
:20305000618CE18320460CF089FF0120287020460EF07EF90120A871397A787C012900F096
:2030700010000FD148B1002088F80500D8F8001098F8060049080CF0BFF8A079002111F0FD
:2030900031FD0EE040B1D8F80020C54804F5A1735208214611F058F9A0790122002111F098
:2030B0001DFD002038723873F872B8721DE7287C012805D1F97A012908BFFC2197D060E00E
:2030D00020460BF0C9FF0128A3D10020F87284F894000120287408E7297C012940F0038151
:2030F00099F80200002809D0002184F894100120287020460EF02CF90120A87188E0297C62
:20311000012940F0F48099F80200D0B3618CE183E8E6287C012840F0EE80387C022804F15E
:20313000FD0204D1A179002011F0D4FCDAE6032840F0EA80A1791A2011F0CCFC0020387432
:20315000D0E6287C012804F20D1140F0E8800B78012B04F5897240F0E8804878012807D134
:203170005388009300201388CA78A17911F0AEFCB8E6297C012940F0E78099F80200002850
:20319000F6D1298B481E288380B200287FF408AF2221FAE6287C012840F0DA8098F80910EC
:2031B000012902D130780F281BE098F80800012826D1002188F80810288D000900901A202F
:2031D000AA8CEB8CA179520811F07CFC8AE6287C012840F0C18098F80910012910D130783B
:2031F00010281CBF002010F06DFC002088F80900288D00090090AA8CEB8CA1797078E2E7B4
:20321000287F0028E2D1BCE7297C012940F0A88099F80300F5E7297C012940F0A580017B42
:203230004A061DD4CA0709D501F0FE0101730023A1797078002209F0A9F853E68A0740F14E
:20325000988001F0FD0101730023A17900221A20F1E7297C012940F09980027B510690D521
:20327000017B01F0BF0101733CE6297C012940F08F8001788A067FF52DAE01F0DF010A0733
:2032900001700AD501F0F7010170F08B0090738BB28B318BA07911F03DFC21E6A97E20468B
:2032B0000EF074FE15E7002010F00CFC78E6A87E0F28F8D1FC2120460EF068FEB8F812003D
:2032D0000090B8F81030B8F80E20B8F80C10A07911F028FC64E6204609F070FD5DE62046B7
:2032F0000DF01AF859E620460EF036FA55E620460CF07CF951E620460BF09EFC2874E88A8A
:203310002883012038744BE6288B401E288380B20028F8D1A179222011F0DCFB38E70120A1
:20333000887020460BF0D2F837E6288B401E288380B20028E7D15088009022201388CA78E8
:20335000A17911F0C3FB23E720460DF04BFA24E6204609F06BF820E6204609F0B7F81CE6F0
:2033700020460CF0C5FA18E61621204608F07CFD13E6288B401E288380B20028C3D1A17953
:2033900000230022222009F001F801E71721ECE7142120460AF042FAFFE500BF5C4D002074
:2033B00069E400002DE9F84FDFF82844A178FF2904BF002010F086FBA07810F0CFFD04463D
:2033D00004F1680604F5C9753168086804F1900710B10022E28310E0B17B002904BFB07E30
:2033F00000280AD13978002904BF2878002804D1217F012904BF608CE0832189E08B411836
:20341000491C6181204610F03BF901281EBFDFF8C8030178012904D120890022401CE2830F
:203430006081B07E01280CD1B28B6189208911F045FB30B121896289481C82422AD0B28B81
:203450001FE0387801280CD17A886189208911F035FB30B121896289481C82421AD07A8857
:203470000FE02878012815D16A886189208911F025FB00281FBF2189481C6289824209D05C
:203490006A88824206D0501E608180B211F012FB401EE0832878012801BF69882089401CC1
:2034B000814207D16A792A71002028701346A17908F06CFF04F59A71087920B12089002135
:2034D000401CE183608104F12E07B07E012801BFB08B2189491C884238D1608104F1860180
:2034F000204610F0ADF8B08C6189608400202077E083E0894118A181B08B218911F0DAFAEF
:203510008046B988308C728C01FB0808F08C8A4204BF3989884202BFB18CFB88994207D004
:2035300000090090B38CA1795208002011F0CAFAB07F3870708CB880B08CF880F08C388156
:20355000204610F06BFA0220B07601E0B7F80480E28BDFF88892501C00FB08F140F6C41864
:2035700008FB01F000902368D3F80CC06044DFF870C2D860DCF800E09A489EF800A0038859
:203590004FEA9A1ABAF1030F13D199F80FC05FEACC7E48BF00230CD45B1C9BB2012B11BFD0
:2035B000B4F812C004F59A7CBCF806C00CF2DC5C01E0B4F812C00CFB01FC4FF4C87EBCFB1B
:2035D000FEFCDFF824A20CF1010CC4F814C0038084F820204FF01C0BA379A1610BFB03F3EB
:2035F000DAF80010226801F1080001F1080CC058D3681061A0790BFB00FE60691B1A4CF82C
:203610000E3001F10800A3790BFB03F3C058906001F10C02A0790BFB00F00C31125C02F096
:20363000F00242F002020A54DAF80000A279811C0BFB02F200208852287908B910F042FAD8
:20365000DAF80000A27900F1100128790BFB02F240088854A079DAF800100BFB00F008446F
:20367000002141742879042814D1A079DAF800100BFB00F001F110022B7A125C103142EA3D
:2036900083020A54A179DAF800000BFB01F1084420214174DAF80000A27900F112010BFB1A
:2036B00002F200238B525149A2790968520101F11403D4F814C09B5801F1140E03EB4C03A0
:2036D0004EF80230B27E022A0AD1A279520101F114033E789B5808FB063301F11406B350C0
:2036F00099F80F20D30749D5A2790BFB02F200F1080300F108069B58A3F5A863B350083021
:20371000A27923680BFB02F282589A600098121A1A6101F11402A079400101F11403125811
:2037300002F5F6621A502879042807D1A079400101F11402125802F5B0621A5001F11400D6
:20375000A27952018058C4F8340101F11C03284AB888166BA57908FB00F730686D01381A6E
:20377000A0F516705851A37901EB431021490D78012D0EBF0122916A4A7819E02879A3799A
:2037900004280CBF4FF44B604FF4E66001F114025B01D258101ABA8808FB02F2A2F516729B
:2037B0009042D2D3082120460FF0C8FE01200FE0C272A179DAF800000F4A0BFB01F1084461
:2037D000216848600720107020460EF085F80020BDE8F28F684E0020784F00205C4D002054
:2037F000084F002098220020682200206C220020605C0100734F00206F4F00202DE9FE433C
:20381000BF4C0F460646F80B80F05081B80880F03D81E07ADFF8F492B90F80F0B680607ABB
:20383000002840F096803809C0F09580A07A20B10020A07205200EF0EBFD00254FF001086F
:203850006570284684F8078006F0EBFBAD4904F174002A4610F01DFE207901281AD16079C6
:20387000C0B9DFF8A482D8F8000000284CD048460068006B804761694346401A000BA061CD
:203890001968E2698018B0EBC11F98BFE0613BD9E56101E084F80480DFF87482A8F11500EB
:2038B0000068000A30D340F60900A08694F8410000F0F00040F0010084F84100E58694F88C
:2038D000400000F0F00084F84000A56310F0DBFD08F6FF7211686FF0020321F0020111604B
:2038F00004F13401C8F8FB3F8A4AC8F8EB1F11688908FCD3C8F8FB3FD8F8FF1F41F0020101
:20391000C8F8FF1F11F0D2F865610EF05FF88248056002200EF07CFD112007F0B9FD307C81
:2039300010B90E2007F0B4FDE5712572A07818B906F1380010F0BBFD784810F075FC784929
:203950000878F8B10D7004F1D000042110F0B5FD18E0380914D2B80BC0F0C98004F1240021
:2039700010F0A1FD061C08D0706830B17568F068B6F91C1000222023A84727F40057B6E07A
:203990000020607227F00807B1E020B104200EF03FFD0020E072B168088840F602054FF0A8
:2039B000000885420AD0B0F5C15F07D00A8B4FF61F60104040F43470088306E00A8A4FF6E7
:2039D0001F60104040F4347008826069E0B1D9F85400016804208847B0B1D9F80000006B2E
:2039F00080476169814226BF401A401E401A000BF060708AF168401840F6C411F060814248
:203A10002CBFB0F5FA7FF16094F8410010F00F0F0BD1708CED1D854207D1B56930466FF4D9
:203A3000807142464FF00073A8473E4904F17400424610F02EFD607958B10220ADF8000010
:203A500068460FF0DDFA84F80580BDF80800A4F8700001206070E078401CE07004F12000FE
:203A700084F8068010F01FFD002808BF47F0020702D0192010F00BFD7569414630464FF0BC
:203A900080630A46A84727F0005730E004F12C05284610F008FD06F0BDFB284610F003FDC1
:203AB00027F0020708B147F0020720E010F0EBFC014604F1280010F0F6FC0646B569A80886
:203AD00010D27EB125EA0500B061084610F0EEFF706850B12A46F068B6F91C1075680023E9
:203AF000A84702E0084610F0E1FF27F4804727B104F1D000394610F0E0FCBDE8FE83C046B1
:203B100030090020A5330100642200208C0100101500044010100440000004601DA300003F
:203B300060220020299B0000BB482DE9F84F0025BA4CB849056094F8E200002800F06581B2
:203B5000012800F02F81B64E02283CD0032840F05C8151F8250CD4F8B8100029A0F5C0602E
:203B7000C4F8D400B8BF49420028B8BF4042814226DA4FF08057D7F8A4014568B4F8BC0020
:203B900030214FF47F42082300903046A847D7F8A4014568B4F8C00004214FF4F80212237C
:203BB00000903046A847D7F8A401B4F8D070456820214FF440620A2330460097A84701257E
:203BD00084F8D8501CE151F8258C10F045FB2F4600B901273946934F38680028FCD0B146B8
:203BF000012609F10409D9F82CA03E6009B110F039FBCAF30720C4F8BC0010F02DFBAA46EA
:203C100000B9B2463B68002BFCD0D9F800B0BAF1000F3E6001D010F025FBCBF38440C4F841
:203C3000C00010F019FBAA4600B9B2463B68002BFCD0D9F81C90BAF1000F3E6001D010F0BF
:203C500011FBC9F38120C4F8D000B8F5C061C4F8B81000F09C8094F8D80068B9C4F8D410DC
:203C7000D4F8C000C4F8C800D4F8BC70C4F8C470D4F8D030C4F8CC30D4F8D410D4F8BC3050
:203C9000002954BF02206FF0010004F1C802176801EB41014018411000EB917107EBA100C1
:203CB0001060D4F8C810C4F8C43000291CDD1E293CDDD4F8CC0030B93429B4BF15391E21D0
:203CD000C4F8C81025E02A29BABFD4F8C8000B381E20C4F8C800D4F8C4003F28B4BF401C10
:203CF0003F20C4F8C4001FE0D4F8CC00032812D011F10B0FC6BFD4F8C8000B30301CC4F8B9
:203D1000C800D4F8C4000028C4BF401E051CC4F8C450032508E011F1150FC6BFD4F8C800F2
:203D30001530301CC4F8C800C4F8CC504FF08057D7F8A401B4F8C43030214FF47F4245685A
:203D5000374800930823A847D7F8A40104214FF400321123456832480096A847B4F8C86065
:203D7000D7F8A40104214FF4F802122345682C480096A847D7F8A40120214FF440620A23BB
:203D9000B4F8CC60456826480096A84701E084F8D85040F2FF50404502D8801C40452FD214
:203DB000082030E051F8251C1F4F4BF2F5204843060A3868C0F3814001280CD11B480068F1
:203DD000006880470DF0E4FD10F052FA3111C010484306EBE03694F8E50030B914480068B8
:203DF00020F07F408019460801E084F8E5501148310C0660012741600F4D8760287808B902
:203E10000B2000E0052084F8E40004F0DFFABDE8F88FC0462D400C402C500C40E80F00206B
:203E300000A00C4000800C40B43F0050EC010010102009403C600C405E5B01002DE9F04F0A
:203E50000D46E80789B00BD510F064F928B100218160AE48006800B1804785F0010052E140
:203E7000A80710D5002006900021049000230290009005910393019101223C2010F012FEA1
:203E900085F002003FE11E246807DFF88482A14F40F19B800020079082469F498878FF2823
:203EB00004BF00200FF00EFE386890F8A00010F055F806463868C07A96F82EB1022818BF5B
:203ED000032806F5947906D108F10D0010F0E6FD08B908F1070A4946584610F0DBFD88B3D4
:203EF0003868807A002818BF012804D1414648460EF01DFE04E04A46594640460BF016FA49
:203F1000FF283DD06043834608EB0B0406224946E01D0FF037FF18F80B0040F0020BE01DB1
:203F3000079006223868817E01F0010186F82E1104F10109386800F1140106F594700FF0C0
:203F500021FF1DE0494658460FF0B2FFC0B14A46594640460BF0EAF9FF2811D0444344443C
:203F700004F10D0010F09AFD40B904F10D0010F095FD002804BF607F012801D14BF0020BFE
:203F900006F12C005B4601780691418909090591728C079904920122C088029140080390BE
:203FB000CDF804A0CDF800900020B17910F07AFDD6F89C0159498842B0790CBF0021012164
:203FD00009F094FA85F004009DE0280610D500200690002104900023029000900591039365
:203FF000019101223B2010F05DFD85F080008AE0E8043CD508F1070108F10D0010F046FDA1
:2040100038684179012923D1017A012918BF04291ED1C17A022918BF032919D1817E00F13D
:20403000140240460BF082F9FF2811D04443444404F10D0010F032FD50B9E11D04F10D000D
:2040500010F024FD38680622E11D14300FF09AFE334934484A6800784FF480510DF014F94E
:2040700010B18E2010F00EFD85F480504BE0A80505D510F0F1F82C4901200860FEE7690581
:2040900004D506F0EEFE85F480603CE0680405D5812010F0F7FC85F4804034E0A80431D507
:2040B000224C206810B100200FF00CFD4FF0FF3020600BF0EDFB1E4C216851F8202F684607
:2040D00090471C48C16A026B2468009101920021029100F134014A6809781368806A039345
:2040F0008DF81010ADF812006B46D4F80080124A12491348C0471349086003F0FFFE85F411
:20411000005000E0002009B0BDE8F08F204F0020A0170020104F0020684E00205BFD00004F
:20413000784E00206E4F0020FC002043044F0020F04E0020A8130020A42100203416002052
:2041500088490020EC4E00202DE9F04FB64D686885B0019020B905B0BDE8F04F10F08EBC5A
:204170000178DFF8C882B24EDFF8C892DFF8C8A201291CBF0229042946F2A81741F64C5BF1
:2041900005D0402918BF802900F09A8043E110F08DF80028FAD00198007805F075FA0090A7
:2041B000446814B900200FF08DFC9AF80100002860D002F0EBFA0FF0D1FE029001680098AB
:2041D00001914F680AF06EFD022827D000990A78012ADBD1994B19680A7A19F8023033703F
:2041F00018B910F047FC5844A0602069C17E01F0EF01C1762069C17E41F08001C1762069E5
:20421000C17E01F0F00141F00201C1768C48B96841182069C16101210098A0E001980178BD
:20423000802913D10822874832700178012903D09AF80100012803DD78690121C17213E00B
:20425000D8F828107A690878D0720DE07D49072030700A787869012A02D10123C37203E08A
:20427000D8F828104A78C2720298817901988AF80210CBE00098002888D00199009A007800
:20429000914205D101281CBF00200FF01BFC15E0012840F0C080694801680A7A19F80200EC
:2042B000307010F0E7FB3918A06810F0DFFB18B910F0E0FB5844A0600120A8700098A5E09B
:2042D0009AF8010000287DD002F060FA0FF046FE04462068029047689AF802000FF03EFE55
:2042F00003900FF0E9FF10F0070F3DD0A87805F0CBF9019041680198009102990AF0D2FC71
:20431000022831D001990A78012A2AD14B4B19680A7A19F80230337028B910F0ABFB834451
:204330000098C0F808B000990869C17E01F0EF01C17600980069C17E41F08001C176009843
:204350000069C17E01F0F00141F00201C176009AB9683B4841181069C16101210198A97052
:2043700054E000200FF0AEFB0398A04228D002980178802913D10822324832700178012933
:2043900003D09AF80100012803DD78690121C17213E0D8F828107A690878D0720DE0294969
:2043B000072030700A787869012A02D10123C37203E0D8F828104A78C272A0798AF80200EE
:2043D000029823E00FF078FF10F0070F29D0A87805F05AF904462078D4F80480012820D1F7
:2043F00016490A68107A19F80010317010F042FB3918D8F8080010F039FB20B910F03AFBE8
:204410005844C8F808000120A870204605B0BDE8F04F06F055BC05B0BDE8F04F00200FF031
:2044300051BB05B0BDE8F08F44220020605C01006F4F0020289A0110684E0020104F00203E
:20445000F0D8FFFF734F00202DE9FE4F0F46994C0168E16241688068E0609748A1608047E3
:204470009648E16A0160A168DFF870B24160E168DFF8648281609249002FA246C16069D0CC
:204490003D68E8788DF8080028798DF8090002A810F0E8FAA86808B18A490160E86808B1B9
:2044B00089490160894C2878207068786070A878BE68A0703178E170736863607269626178
:2044D000B168A160F168E160316921612E697B68A6621868A0616869E062A8692063287FAB
:2044F00084F834002A6AA263786886681EB900200FF0E8FA00E026627868C06818B900205C
:204510000FF0E0FA00E060627868406818B900200FF0D8FA00E0E0612869A062F8688168C9
:204530000E6806B96B4E6A494FF001094E60C66881F801902EB900200FF0C4FAF8684546EC
:2045500001E045462E6000685C46FE68A0617068E06106E000200FF0B5FA4FF001095C4628
:20457000454628685E494668621C04F114035020B04710B1286880688047DAF80800804729
:20459000594F0026834669467E7056483E700422206130460EF0D6F80098B0F5801F0CD0EA
:2045B00020B90EF081FC05F029FA08E00DF034F90FF0F2FC0420788001E00EF075FC4B4F7A
:2045D000B0462868C7F808808069A660804778604748468080F8009014200FF0C3FDFF2100
:2045F0001422A0620FF075FFE01CFF2102220FF070FF14200FF0B6FD3E49086008681422D7
:2046100031460FF066FF3046FCF7D4F948460DF0B5FF39480188FF2906D1022101807822F3
:20463000001D31460FF055FF032010F017FA042010F010FA052010F009FA062010F002FAD7
:2046500007200BF0F9FA2D4E0820307006F1400010F0F4F90BF05EFD363605200A21324644
:204670000FF009F938B14046C0F10901401C06F8011B0A28F8DB2F68214909200DF10A0250
:2046900001AB7D68087010204146A847A06ADAF80C10E2690A270A309DF80A307F1E00F849
:2046B000013BF9D1921E5846E261884702F0F0FFBDE8FE8FFC10002041490010F84400204F
:2046D000844B0100852D0100A53C0100A8130020C41600207BFA000078170020AC1400208C
:2046F00011340100653D010074170020382200205C1300208C220020281200203C0D00207C
:20471000A32200202DE9F04F0546A64CA878216AADF11C0D801F00F03E81C01E00F02981DA
:20473000401E78D0401E56D0C01E4AD0401E40F03581207A617A00283FD1607800283BD04B
:20475000A88810F077F9071C00F02881A87A40080AD3787940B1E968890A05D2B91D01AA88
:2047700007F02CFC0A2825D0207B022802D1A87A00091FD36078AE887979C0B1607CB0B978
:204790000120607405F10802304603F055FD002840F00481206A002800F000814368002B83
:2047B00000F0FC80002130460A469847F6E00521304603E0032100E00521A88810F036F9D9
:2047D000ECE0002900F0EA804B68002B00F0E6806A780221CBE00FF0A5FC002800F0DE8080
:2047F000276A0FB1386868B9286900280CBFE0690120698910F016F9002800F0CF80688950
:204810000121DBE7286900903C6869892A7B6B7BE81CA047C2E068784FF00008002840F056
:204830009580A8794008C0F09180606A002840F08D8001A841460E220FF04BFEA88810F022
:20485000F9F8061C00F0AA806869002859D081464146062209F111000FF0BBF9C24620B3EA
:20487000484606220FF0B5F9D8B999F8100009F1110B474605907F1C5846FFB28BF800707E
:204890000EF028FB0A280BDA474B059A0101A1EB4001C9188879824202D1002FEBD100E08C
:2048B0001FB947464FF0010A6F61BAF1000F09D109F1110101A806220FF064FA99F81000FA
:2048D0008DF80A00BAF1010F1BD06F69CFB1387C07F1110106228DF80A0001A80FF052FAD2
:2048F00006F10C00B11D06220FF04CFAB01D07F1110106220FF046FA387C40F00200707165
:2049100007E07079B11D06228DF80A0001A80FF039FAA9799DF81120C1F3800010438DF863
:204930001100080905D39DF8110040F008008DF8110001A8294602F01DFB28B9207802213B
:2049500006F0E8FC40462AE04FF015080FF0E4FC206A18B343680BB3A8886A7801219847D1
:20497000B8F1000F1AD0206A032142464368A8881BE7E878291D002207F020FB0A280DDA7F
:20499000410001EB800005F10C0225300421C0B205F0C4FB02E0A8880BF040FC012007B095
:2049B000BDE8F08F3C0D00202E0E00207CB5A34D144602460026A2F58062192A1BD8DFE89F
:2049D00012F031012A012201190111010C010401FD00F300E700DF00D700C500B9001A00E2
:2049F0001A00970081007A0065005C00520047003A0030002500282880F29A80022940F0DB
:204A10009780218810F00AF8064614E1012940F011812178284601750121C1740FF0A8FA22
:204A300009E1012940F00681002C00F0038128461230024614E0102940F0FC80002C00F00E
:204A5000F98028465C30102221460FF09BF9F2E0012940F0EF80002C00F0EC802A46921D65
:204A700021781046E4E0262940F0E480002C00F0E180284626226C30E6E7012940F0DA8040
:204A9000002C00F0D7802846401D9CE0602900D144B9012940F0CE80002C00F0CB80284678
:204AB0000D3090E005F19200214660220FF06AF901206873BFE0012940F0BC8020780FF09E
:204AD000A9FFB8E0012940F0B5802178022900F3B180284600F10C0211702178022918BF86
:204AF000301C02D11021C17201200FF08FFFA2E0072940F09F80611C684606220FF00CF81E
:204B100020786946324607F059FA04460A2C0FDA0FF078FF38B9204604F04AFE0EF04CFBC5
:204B30000BF0F8FA87E0284601212C30015582E0022680E001297DD12A462178907B002831
:204B5000917378D12078012875D1E9E72846027B01296FD1022A04D02178072901DB1029EE
:204B700004DD022A66D12178102963D1C17262E001295FD121780A295CDA2846093057E02C
:204B9000012957D12178022954DA284608304FE000294FD10FF036FF10B90FF09FF9BDE76B
:204BB000284601210F3043E0042943D12168244888423FD328461C3001603CE0012939D176
:204BD0002B4603F10A00217832E0012932D1217802292FDA2846C01D2AE010292AD12846BA
:204BF0004C3030E7012925D12178022922DA2846001D1DE001291DD1217804291ADC284668
:204C1000C01C02462DE7012914D12178022911DA2846821C25E702290CD121882846163011
:204C3000018008E0012905D12178022902DC0548017000E0182630467CBDC0463C0D00205F
:204C50003F420F003D0D00202DE9FC41A0F2013714468846022F40F232819B4E9C493F1FC3
:204C70000F2F04D9143F4CD0BF1E1CD011E0DFE817F0CF00C9000D01FA00C100B9002601D1
:204C9000AF00A700100010009D008F007F0074006600282880F21381B8F1020F40F00F8139
:204CB0008849238807E1B8F1010F40F00881F078012800F00481324620781179107189B9AB
:204CD000002800F0FC805078012800F0B580042800F0B280062800F0AF80052800F0AC8036
:204CF000BDE8FC812078002840F0E9805078032800F0AF80072800F0AC80052840F0DF8010
:204D1000A7E0B8F1010F40F0DA802078012840F0D68006F1EC000FF0EDF9002840F0CF8003
:204D30003446002004F13A0108F0F0FC002840F0C68004F1C8000FF0C4FBBDE8FC81B8F1D1
:204D5000020F40F0BC8020880A28C0F2B880B0F5486F00F3B4808E1C17E0B8F1020F40F0F4
:204D7000AE802088B0F5FA7F80F2A9800E460CE0B8F1020F40F0A38020880628C0F29F80A0
:204D9000B0F5486F00F39B803E363080BDE8FC81B8F1020F40F0938020880628C0F28F80BF
:204DB000B0F5486F00F38B803C36EEE7B8F1010F40F085802078062880F28180454E0EE09A
:204DD000B8F1010F7BD12078042878DA0A3606E0B8F1010F73D12078082870DA0936307094
:204DF000BDE8FC81B8F1010F69D12078042866DA0836F4E7B8F1010F61D1207804285EDC88
:204E1000F61DECE7B8F1020F59D120880E36BCE7B8F1010F53D13079012850D0324620784A
:204E3000D178D07069B9002849D05078012803D0042818BF052842D101200FF08BF9BDE826
:204E5000FC81207800283AD15078022818BF052835D110780DF0DEFE1C490246102003F0CD
:204E70007DFBBDE8FC8106F1830500211F22284609F090F921464246284607F015FC4446C8
:204E90003078B4710DF0C6FE002311E006F1640500211F22284609F07DF921464246284664
:204EB00007F002FC4446307874710DF0B3FE01230094094901950246102003F04FFBBDE82E
:204ED000FC81C046BD840110F005002099450110300600202A060020094501102DE9F04F8F
:204EF0009E4C20780E46F10BADF11C0DC9036ED1B0085ED2606AA16A720807D2F00828BF0F
:204F100086F0040680F02581002023E1858861B904F11800924A00904FF6FF71022301202C
:204F30000FF06CFD0146A16221B304A800900027019702230293FF220392228B28460DF157
:204F5000120301F01BFB58B99DF813009DF81220A16A12EB002204D0498928460CF0B6F9BC
:204F7000A16A228B08463B464FF6FF710FF042FD0146A162206A00291CBF012186F0010630
:204F90001FD168B14368616A5BB18888002201219847206A676A4368B888032100229847D8
:204FB000616A88880EF0EEFF0EF070FD86F00106CFE00020014601F0DDFF30B1012186F0D7
:204FD0000206207806F0A6F9C3E00221F7E707F061FE5FEA000800F0BA80054628784FF0ED
:204FF000010AB03812D0401E03D01F3800F0A580A7E02879002840F0A480B8F80200B8F829
:205010000610B8F808200CF061F99DE02879401E41D0083803D0743800F0828087E06878B7
:205030001A2879D0688881460FF070F9801E18D0401E7CD1288901280AD16889032807D1DC
:20505000E9688A78484604210BF01CFC024600E01822206A00286AD04368002B67D00421A7
:2050700016E02989688852460129814609D16989032906D1E9688F781FB910210BF002FCD6
:205090000246206A002852D04368002B4FD00521484698474BE02B7A688805F10807082B64
:2050B000814639D10FF032F9801E12D0401E33D1287B0A2818BF122205D168890421002215
:2050D0000BF0E0FB0246206A30B3436823B3042120E07888102100220BF0D4FB237D834609
:2050F00093B148460FF0A6FC70B11E490B784BB94179831D524601F00101084619460EF08E
:2051100041FD01E05046E074206A28B143681BB105215A467888984768880EF033FF06E0F1
:205130006A880FF0F3F8014610460BF079FD297905F108000FF012FD03E04046FFF7E2FA8C
:205150008246BAF1000F02D028460EF0E9FA86F40046B0B207B0BDE8F08FC0463C0D002030
:20517000B25801005A4F00202DE9FC41884C894A2678894F894D8A490D2E30464FF4A0534B
:205190004CD8DFE816F003010E000E000E000E00FB00FB006800FB00A700A700D800D8007B
:2051B000DF008049176041F204464C887E4FB4421CBFB1F81AE0B6450BD0B1F83280B04508
:2051D0001CBF41F20A46B44203D0B64518BFB04502D12E80176076E0022C744E2C8035D9D9
:2051F0004FF48067E41B1AD0241F012C1DD94FF47F77E41B1BD04FF44067E41B0FD0A41E79
:20521000012C0CD9241F0AD0641E012C0DD940F2F937E41B012C19D9241F08D0AEE0022867
:2052300014BF2B80624E16604DE0624EFBE762480468257A012D05D141F20240488048833A
:205250004886F0E74B804B834B86ECE700200EF039FC832096E059488178FF291ED01C2004
:2052700041435748176040F204460068841C645A2C80A41B012C534D10D94FF47F76A41B2A
:2052900015D00A3C012C14D940F6F636A41B032C84BF641F012C0ED9A41E012C76D940F21F
:2052B000FD36A41B07D0641E012C02D905E041F20143801C4352156005E000200EF002FC88
:2052D00085200FF023FCBDE8FC413F480078012106F020B84A882A8040F20443D21A55D024
:2052F00040F6FC73D21A15D0083A4FD04FF47F73D21A22D1354C364A25683648006800231C
:20531000CDE9002355F8086F334B0222B047334908803BE0092810D131490A68508960B140
:20533000304908780AF046FE002100200FF05EFB002020702AE04888288000200EF0C2FB80
:2053500085201FE04A882A80022A0DD940F20440121A1BD040F6FC70121A05D0083A15D0B4
:205370004FF47F70121AE8D1887B801CC0B2B528A8BF662088730020488007E000200EF043
:20539000A1FB8420BDE8F6410FF0C0BBBDE8F3816F4F0020204F00205D440100504F002080
:2053B000E4210020204A00207D290000359C0000F9B80000755B0110104F0020684E0020D0
:2053D000682200207D6300006E4F0020F04E002002000080EC4E0020A9170100424F0020AA
:2053F00074220020714F002010B50B7884074CBF43F0020303F0FD0304064CBF43F0800333
:2054100003F07F0304074CBF43F0080303F0F70384064CBF43F0200303F0DF0310F0AA0F4D
:205430000B7004D0107840F00C00107010BD18B9117801F0F301117010BDF8B50F46002647
:205450003878022814461D4667D1786801784278069801EB022189B2002818BFB1F5285F46
:2054700001D00B20F2BD4FF42850091A0AD0491E1ED0491E4BD0491E22D0491E28D0C5392C
:2054900041D04AE0F8680FF026F8069B079980B2C21A8A42ACBF0846C01A80B2C11816294C
:2054B00004DA28800246F868C1180DE00D2636E0F8680088022129802070000A60702EE073
:2054D000062028800622F96820460EF05BFC26E0F868B0B108212980018821700188090A5B
:2054F00061704188A1704188090AE170818821718188090A6171C188A171C088000AE0713D
:205510000DE029800BE04A480178CA0705D401202880F8680178217001E02E8001263046E6
:20553000F2BD2DE9F8460E46814630780024022817469A4678D17068017842783C4D01EB41
:20555000022189B24FF42850091A08D0491E30D0491E55D0491E3FD0C63960D064E0F068F3
:205570000EF0B9FF089980B2884206D308460AEB0001162903DB0D2457E0072455E0F3686B
:205590005246394618440EF0FDFB08985044ADF8200000210898F368C0F1160218440EF05A
:2055B00098FF686800281CBF0268002A3DD0002123E0089888BBBAF1020FDCD139787878BF
:2055D000F26801EB00211180686800281CBF0268002A2AD0012110E00898F0B9BAF1060F47
:2055F000C9D1F068062239460EF0CCFB686800281CBF0268002A18D003214846904714E071
:20561000089850B9BAF1010FB5D13878002813BF0128F1680870802407E00B2405E02878AD
:20563000C10758BF032400D501242046BDE8F286EC1600202DE9F04F8246DAF800600C4614
:205650005FEA0208ADF11C0D14BF00214FF0FF3106F1480083460EF0DAFC002818BF0B20B7
:2056700040F00681002565708448F460B8F1010F057004D065700220F4600DF0F3F820787C
:20569000012840F2AB80801E012868D9801E012833D9801E012800F2DF800EF0F4FE0690FB
:2056B0004FF0805000F5EE77D0F8DC01A378466A009321782846062908BF0120019001209E
:2056D0000290A068228AE1686368B047814606980FF0ECF9B9F1000F40F0C080B8F1000F3F
:2056F00002D00EF01FFB02E050460DF015FD002800F0A4803868806A2AE00EF0C4FE069003
:205710004FF0805000F5EE77D0F8DC01012306680093A168A27860682478AC46042C08BFD6
:205730009C466346B047814606980FF0BFF9B9F1000F40F09380B8F1000F02D00EF0F2FA4B
:2057500002E050460DF0E8FC002877D03868406880474949C1F8B0510D6081467EE00EF086
:2057700092FE06904FF0805000F5EE76D0F8DC01E38A87690093E0680190208B0290A078C8
:205790000390207D04900121059122782846022A08BF081CE1786268A368B84781460698CC
:2057B0000FF084F9B9F1000F58D1B8F1000F02D00EF0B8FA02E050460DF0AEFC00283DD0ED
:2057D0003068006A80475FEA000947D13068C569A168E28A2369E078A847BEE70EF053FE84
:2057F00006904FF0805000F5EE76D0F8DC01E38AC7680093E0680190208B0290A078039006
:20581000207D2946049001200590257805B9014608466268A368E178B847814606980FF0A1
:2058300045F9B9F1000F19D1B8F1000F02D00EF079FA02E050460DF06FFC08B9142017E0B0
:205850003068406980475FEA000907D1306802692169E078904780E74FF0FF39B8F1010FB3
:2058700002D002200CF0D4FD58460EF020FE484607B0BDE8F08FC04650450240A222002073
:205890002DE9F04102468A4D884C2978E068521EADF1280D00F09280521E00F08580921E7B
:2058B00066D0521E52D0521E04D0521E4BD0521E46D043E004F17C000EF001FE7D49102034
:2058D00002F04CFE7C49C7B201AB10207A1E02F045FE98B9002684F8446000972978E0687E
:2058F00056A33246C91CC9B20DF036FB2D78E4680DF106000AF0D6FE324613E006AE40F285
:205910001530314603F0E8FF2978E06800224FA3C91CC9B20DF020FB2D78E46830460AF00B
:20593000C1FE002203466D1C2046E9B20DF014FB4FF6FF7000210DF055F87CE00A462EE0BE
:20595000002245A375E0002245A370E0142008F049FDE0682978002247A30DF0FDFA002003
:205970004FF6FF710DF03EF82A78501CC1B215E004F17C000EF0A5FD142008F033FD2978AB
:20599000E06800223FA3C91CC9B20DF0E5FA00204FF6FF710DF026F82A781146E068921C90
:2059B000D2B20EF03BFC46E0C91C002239A3C9B20DF0D2FA012084F844003CE04FF44170E0
:2059D00008A903F089FF9DF821708DF8057000268DF808609DF822308DF807609DF82410BC
:2059F0008DF806309DF820008DF80A109DF825208DF804009DF823708DF80B2001AB2F4929
:205A10008DF809701A680A6058684860D4F80C802F7808A80AF046FE3F1D0346F9B232466F
:205A300040460DF099FAE06829781DA33246C91CC9B20DF091FA0AB0BDE8F0814E756D2017
:205A5000436F6E6E733A20256400C046436F6E6E656374656400C0464572726F7200C046A3
:205A7000436F6E6E6563746564204164766572746973696E6700C04654696D6564204F7506
:205A90007400C046446973636F6E6E656374656400C046C04164766572746973696E670063
:205AB000496E697469616C697A6564000802002014160020F17F0110097F0110770B002030
:205AD0002DE9F04FDFF80CB29BF80000002885B004D0401E032804D9801F012840F2F78031
:205AF000EFE07D4DDFF8F4812868DFF8F49103687C4E03F10807062207F1080103A80EF0BB
:205B100041F90622B91C01A80EF03CF93878C0F380118DF800101E24C10900F00F02032A9F
:205B300039D16879C0F38000814233D12969062203A80DF0E5FD00282CD09DF8000001A9C9
:205B50000EF0A8FF002825D0314601A80CF0EFFF0746FF2F1ED0D9F80000807A6743002863
:205B700018BF02280BD0012818BF032812D1701CF25DC11940460EF035FF10280AD0F4199F
:205B900001AAE11D404609F062FD062201A9E01D0EF0F8F890E000F00F00052840F09780CE
:205BB0006879C0F380008142F4D12969062203A80DF0A6FD0028EDD09DF800003F7801A959
:205BD0000EF068FF7F0940F2024A88B3314601A80CF0ADFF8346BBF1FF0F6DD0D9F80000B6
:205BF000807A002804FB0BF118BF012800910CD0022818BF03285FD10846711C325C014401
:205C100040460EF0EFFE102856D050460EF0E6FE009806EB000A01AA0AF10701404609F06D
:205C300016FD062201A90AF107000EF0ABF81CE09BF8000002283FD19DF8001001AA30463D
:205C500009F074FB8346BBF1FF0F35D004FB0BF03118487F012805D070BB01F10D000EF014
:205C70001DFF48B350460EF0B9FE04FB0BF4D9F80010305D88760622701C0119D9F80000A9
:205C900014300EF07FF8184918488A78510604D5F90758BF41F20A4101D541F204414180A4
:205CB000418341861248134A01801348134908600121107805F02EFB29680A680020107186
:205CD00005E000200DF0FEFE86200EF01FFF05B0BDE8F08F6F4F0020F44B0020CC470020AB
:205CF000104F0020A017002000220020204A0020504F00206E4F00207D290000204F0020A1
:205D10002DE9FE4F05467E48002400680094C0090ED37C48007858B97C497B4851F8112CDA
:205D3000104040F0817041F8110C20200BF08AFA012D40F0E080DFF80092D9F8DC000128D0
:205D500040F0D6800220C9F8DC000DF049FC01200BF078FA5FEA000805D00120C9F8DC003A
:205D70000DF04EFCC9E00EF0A4FBA34602906848684DC0F800B0A86A0168012088470128AA
:205D900004D1584608F0FAFF012000906248634FC0F800B0386811200EF076FA00B1012405
:205DB00010200EF071FA08B144F002040F200EF06BFA08B144F004040B200EF065FA20B167
:205DD0002868574E016B308888470A200EF05CFA20B12868534E016B308888475248012657
:205DF00006602868816944F0200088474F4806600EF044FA00F001010191400814D2286A13
:205E100081684B4888478246BAF1040FF7D0BAF1010F04D1286A42684548032190474549F8
:205E3000086820F003000860584600F087F82B683868986B8047019801280CD0BAF1010F04
:205E500004D1286A42683A48314690473949086840F0030008603048066028684169204646
:205E700088470B200EF010FA20B128682C4BC16A188888470A200EF007FA20B12868294BA0
:205E9000C16A18888847284806600322C9F8DC20264BC3F800B02868416B2046884701282A
:205EB000F9D1386804200BF0CDF90446184806603868134800688009FBD30098012802D125
:205ED000304608F05BFF0EF0CDF908200BF0BAF907460298C9F8DC600EF07CFDFBF756F8B5
:205EF0000DF08EFB57EA040018BF4FF0FF3804E06FF0040801E06FF001084046BDE8FE8F2A
:205F100014100940D0100020FFFFFCFC150009400C400940B8010010000222432C20094056
:205F3000B4570100B057010028200860800104430040034024220840E80F00202DE9F84F40
:205F5000DFF804B20746ABF13500DFF8F0810068800880F0E28075480068006880477E4961
:205F70000831D1F8009000254FEA29715FEA995201F101010AD2C0F13E0210F10A0F4FEA3F
:205F9000E202D8BF08229142B8BF111C684BD3F87C21C2F30462162AA8BF203A1B68C3F365
:205FB0000443162BA8BF203B9A465218162A05DA12F10A0FB8BF6FF0090200E015225D4B62
:205FD0005D4E02F01F0141F4F8511980316811F0030F18BF0125C90828BF45F002050FB180
:205FF00045F00405434693F90710411A052904DA9979A94208BF99886FD0DFF844E10F2869
:20601000A0F10F0829DB08EB0011A1F1F0084FEA28210091072984BF07210091062988BF81
:2060300006215EF821600424774604EB81043C594FEA950CA41BEE0804F0FF0124BFC4F347
:20605000072631446F08AE0824BFC4F3074631446E0828BF01EB146104E000214FEA950C68
:206070006F080091009C5EF824E05FEA5C060EF0FF0424BFCEF3072634447E0824BFCEF3F3
:20609000074634446E0828BF04EB1E64009E89B2A8EB06267143803104EB1124AAEB0201A4
:2060B0000029D8BF0121342209F0FF074A4391B24FF6FF727943B1FBF4F18A4238BF111CD6
:2060D000802889B2998005DA10F1800FB8BF6FF07F0000E07F20D8719D711A4800681F2908
:2060F00018604FF0000008D340F2FF128A4206D24908401C8A42FBD301E01F219980134F34
:206110000F39090940EAC10047EA0001CBF8FB1F0026CBF8FF6FBDE8F88F0D490D4F43465D
:2061300008200F609B1D1870BDE8F88FEC0100103C1100506E620840242208405822002072
:206150009C130050082009403500094000E7A48030100940FDFDA400AC3F00502DE9F84F77
:206170000024774D774EDFF8E0B1DFF8E0A1DFF8E081DFF8E091D9F800104A7A0123182021
:20619000A34060431A420AEB000709D0087A38F810203A8000201BF80420BA73F87302E0CB
:2061B00040F6010038800020788007F118007860387B00F0EF0040F080003873097A012946
:2061D0000ED141F28830B860387B00F0F00040F005003873787B00F0F00040F0020019E05C
:2061F000002C0CBF0221002100F0F000084338733CB90EF03FFC00F5C870CAF80800022037
:2062100004E00020022CB860F9D10120797B01F0F00108437873641C3E61022C7D61AADD7B
:20623000D9F80000017A01290EBFCAF834A00020CAF834000CF0B4FD306047488069007832
:20625000C1074CBF1021002182074CBF2022002243074CBF4023002300074CBF8020002064
:2062700011431943014341F00F01317100207071D9F80010887A00F003007071CA7A9200A9
:2062900002F00402104370718A7ED20002F0080242F0100210437071087A012818BF0428C6
:2062B00006D10020B071F071B06001F1140216E0487FB07101F15D025078F071487F20B14D
:2062D0000B7FC3EB4313C8181E30B060507828B11278C2EB42128B1803F15F001F4AF06007
:2062F000726101F10C0030611D4BF07E727900F0E00040F08600F0761A48F061187828B163
:20631000307900F0FE0042F040023071164B987843064CBF42F0200202F0DF0272710020D2
:206330002880A870E87028716871E8802881A872E872E8600868C0F804A0BDE8F18F00BF46
:20635000B44D0020F44B0020409A0110204A0020109A0110104F0020605C0100D04700200A
:20637000784E002000204E00002200207E488078FF2800D170472DE9F84F0DF0EFFD054679
:2063900005F217100178012908BF417800F0A28005F17400817B022903D105F174020020A9
:2063B000907305F59276F18911B1307B04F0B2FF68896E4F288105F58D78B87AFB793A7B8B
:2063D000F97A7C7BB8F800C000EB030E96448E4474441FFA84FEB8F80440641CA8F8044080
:2063F000F444B8F80240A8F800C00419A8F802404FF01C0C3468FCB1DFF8749195F806A045
:20641000D9F8009009F10E0B0CFB0AFA09F10E091BF80AA034F81AB0F34424F81AB095F87F
:2064300006A00CFB0AFA19F80A9004EB4904B4F84AE08644A4F84AE0002B08BF002904D15E
:20645000002A04BF797B002923D02A89E889821800202874AA81287F012804BF698CE98396
:20647000787868B10121297705F174018878002804BF887B002803D1087F08B9698CE98343
:20649000307D80B3022804BFF87A002827D1002128E0E98338B100202874287F012807D1AB
:2064B000698CE98304E0B8F80600401CA8F80600A8892989814206D08842D1D2081A41F291
:2064D000AB029042CCDA287C08B1052901D0082100E03E212846BDE8F44F0DF02FB8787A97
:2064F00008B1022131752348FA7B01682868D30708D53A69C26001F11400A9794901002221
:20651000425011E001F11402A97949015258184932610A68A97902F108030CFB01F2995859
:20653000C1600020E8832877134841690A7890074CBFB87B812085F874002846FCF7BCFCF9
:2065500001280ED00121284607F05EFE28460CF047FEFCF727FF012803D0BDE8F14FFDF7A4
:20657000F3BDBDE8F18F00BF684E00205C4D0020682200206C220020605C01002DE9F0417C
:206590000C4684B00746207A0026C10690461D460BD540460EF01AFA030000F0F0800A2251
:2065B000214638469847060050D1207802281AD160680178427801EB022189B24FF420503B
:2065D000091A012910D9891E41D0491E16D0FD3905D0491E00F08B80491E74D0491E7BD0A6
:2065F000491E00F0A180B8E00B98002831D1E0680A9A017811800278416891E00B98002859
:2066100027D10A9801210180E0680178297000216089401C80B20EF0D5F90A99098868B122
:2066300002780A9B921C51181980418969704189090AA97002784168E81C72E00A98091DA1
:20665000018004220021681C0DF043FF98E00B9800286BD1E06807880A98042101802F7062
:20667000380A68700DF1020138460EF0ABF904001FD0E768BDF802204FF6FF786B464146C2
:206690000EF0B8F940B9237862683F4802210EF095F908B9ADF80080387802280BD179682A
:2066B0000222281D0DF06EFB0A980188891C018001E0ADF80070BDF80000A870BDF8000032
:2066D000000AE8705CE00B9800282FD1E068016838460DF0BFFC03E00B9838BBE068008811
:2066F0000A9A022111802870000A687048E0E0680DF0F1FE0B9B80B29842B8BF07263FDBEC
:20671000834208BF002006D00C99C9188142B2BF0C98C01A80B20A9908800246E068C118E9
:2067300028460DF02FFB2BE00B9808B10B2627E00A9AE0680721118002782A7041786970CA
:206750004188A9704188090AE97001792971C1886971C088000AA87112E040460EF02AF9D7
:2067700006000CD00D980C990A9B029001912A460B98009021463846B047064600E00E2635
:20679000304604B0BDE8F081B85801002DE9FE4F7D4C617811B900200DF094F90EF06AF9BE
